{
  "_format": "hh-sol-artifact-1",
  "contractName": "NftDomain",
  "sourceName": "contracts/NftDomain.sol",
  "abi": [
    {
      "inputs": [],
      "stateMutability": "nonpayable",
      "type": "constructor"
    },
    {
      "anonymous": false,
      "inputs": [
        {
          "indexed": false,
          "internalType": "bytes32",
          "name": "node",
          "type": "bytes32"
        },
        {
          "indexed": false,
          "internalType": "bytes32",
          "name": "label",
          "type": "bytes32"
        },
        {
          "indexed": false,
          "internalType": "address",
          "name": "registant",
          "type": "address"
        },
        {
          "indexed": false,
          "internalType": "address",
          "name": "resolver",
          "type": "address"
        }
      ],
      "name": "sendtoEns",
      "type": "event"
    },
    {
      "inputs": [
        {
          "internalType": "uint256",
          "name": "",
          "type": "uint256"
        }
      ],
      "name": "PasscardToDomain",
      "outputs": [
        {
          "internalType": "bytes32",
          "name": "",
          "type": "bytes32"
        }
      ],
      "stateMutability": "view",
      "type": "function"
    },
    {
      "inputs": [
        {
          "internalType": "uint256",
          "name": "tokenId",
          "type": "uint256"
        },
        {
          "internalType": "address",
          "name": "tokenAddress",
          "type": "address"
        },
        {
          "internalType": "string",
          "name": "_nodename",
          "type": "string"
        }
      ],
      "name": "claim",
      "outputs": [],
      "stateMutability": "nonpayable",
      "type": "function"
    },
    {
      "inputs": [],
      "name": "controller",
      "outputs": [
        {
          "internalType": "contract IController",
          "name": "",
          "type": "address"
        }
      ],
      "stateMutability": "view",
      "type": "function"
    },
    {
      "inputs": [],
      "name": "ens",
      "outputs": [
        {
          "internalType": "contract IEns",
          "name": "",
          "type": "address"
        }
      ],
      "stateMutability": "view",
      "type": "function"
    },
    {
      "inputs": [
        {
          "internalType": "string",
          "name": "nodename",
          "type": "string"
        }
      ],
      "name": "issueDomain",
      "outputs": [],
      "stateMutability": "nonpayable",
      "type": "function"
    },
    {
      "inputs": [],
      "name": "nft",
      "outputs": [
        {
          "internalType": "contract INft",
          "name": "",
          "type": "address"
        }
      ],
      "stateMutability": "view",
      "type": "function"
    },
    {
      "inputs": [],
      "name": "passcard",
      "outputs": [
        {
          "internalType": "contract PassCard",
          "name": "",
          "type": "address"
        }
      ],
      "stateMutability": "view",
      "type": "function"
    },
    {
      "inputs": [
        {
          "internalType": "uint256",
          "name": "",
          "type": "uint256"
        }
      ],
      "name": "passcardId",
      "outputs": [
        {
          "internalType": "uint256",
          "name": "",
          "type": "uint256"
        }
      ],
      "stateMutability": "view",
      "type": "function"
    },
    {
      "inputs": [],
      "name": "resolver",
      "outputs": [
        {
          "internalType": "contract IResolver",
          "name": "",
          "type": "address"
        }
      ],
      "stateMutability": "view",
      "type": "function"
    },
    {
      "inputs": [],
      "name": "setAddr",
      "outputs": [],
      "stateMutability": "nonpayable",
      "type": "function"
    },
    {
      "inputs": [
        {
          "internalType": "address",
          "name": "nftadr",
          "type": "address"
        }
      ],
      "name": "setNftAddress",
      "outputs": [],
      "stateMutability": "nonpayable",
      "type": "function"
    },
    {
      "inputs": [
        {
          "internalType": "address",
          "name": "_resolver",
          "type": "address"
        }
      ],
      "name": "setResolver",
      "outputs": [],
      "stateMutability": "nonpayable",
      "type": "function"
    },
    {
      "inputs": [],
      "name": "setSubnodeRecord",
      "outputs": [],
      "stateMutability": "nonpayable",
      "type": "function"
    },
    {
      "inputs": [
        {
          "internalType": "address",
          "name": "to",
          "type": "address"
        },
        {
          "internalType": "uint256",
          "name": "tokenId",
          "type": "uint256"
        },
        {
          "internalType": "string",
          "name": "_nodename",
          "type": "string"
        }
      ],
      "name": "transferPassCardAndSubDomain",
      "outputs": [],
      "stateMutability": "nonpayable",
      "type": "function"
    }
  ],
  "bytecode": "0x6080604052600b80546001600160a01b0319167357f1887a8bf19b14fc0df6fd9b2acc9af147ea8517905534801561003657600080fd5b50600880546001600160a01b0319166e0c2e074ec69a0dfb2997ba6c7d2e1e1790556112a3806100676000396000f3fe608060405234801561001057600080fd5b50600436106100e95760003560e01c80634e543b261161008c578063a3b7174c11610066578063a3b7174c146101f8578063d8ca561a1461020b578063f4b381fd14610213578063f77c47911461022657600080fd5b80634e543b26146101ca57806374dc483f146101dd5780639b8be4ee146101f057600080fd5b80631b62d872116100c85780631b62d8721461017157806332b9afc9146101915780633f15457f146101a457806347ccca02146101b757600080fd5b806224a48d146100ee57806304f3bcec146101145780630b102d1a1461013f575b600080fd5b6101016100fc366004610f3b565b610239565b6040519081526020015b60405180910390f35b600954610127906001600160a01b031681565b6040516001600160a01b03909116815260200161010b565b61016f61014d366004610f69565b600a80546001600160a01b0319166001600160a01b0392909216919091179055565b005b61010161017f366004610f3b565b60016020526000908152604090205481565b61016f61019f366004611030565b61025a565b600854610127906001600160a01b031681565b600a54610127906001600160a01b031681565b61016f6101d8366004610f69565b6102fd565b600054610127906001600160a01b031681565b61016f61036a565b61016f610206366004611089565b6103cf565b61016f6104a3565b61016f6102213660046110cc565b61056b565b600b54610127906001600160a01b031681565b6002818154811061024957600080fd5b600091825260209091200154905081565b6000546040516323b872dd60e01b81523360048201526001600160a01b03858116602483015260448201859052909116906323b872dd90606401600060405180830381600087803b1580156102ae57600080fd5b505af11580156102c2573d6000803e3d6000fd5b50505060008381526001602052604090205490506102e08183610602565b6102ef6006546003548661074c565b6102f76107c8565b50505050565b600854600654604051630c4b7b8560e11b815260048101919091526001600160a01b03838116602483015290911690631896f70a90604401600060405180830381600087803b15801561034f57600080fd5b505af1158015610363573d6000803e3d6000fd5b5050505050565b600954600554604051638b95dd7160e01b81526001600160a01b0390921691638b95dd71916103a191603c90600790600401611144565b600060405180830381600087803b1580156103bb57600080fd5b505af11580156102f7573d6000803e3d6000fd5b600a546040516331a9108f60e11b815260048101859052849184916000916001600160a01b031690636352211e90602401602060405180830381865afa15801561041d573d6000803e3d6000fd5b505050506040513d601f19601f8201168201806040525081019061044191906111fc565b9050336001600160a01b038216146104915760405162461bcd60e51b815260206004820152600f60248201526e3737ba103a37b5b2b71037bbb732b960891b604482015260640160405180910390fd5b61049b8685610808565b505050505050565b600854600654600354604051630178b8bf60e01b8152600481018390526001600160a01b0390931692635ef2c7f092919030908590630178b8bf90602401602060405180830381865afa1580156104fe573d6000803e3d6000fd5b505050506040513d601f19601f8201168201806040525081019061052291906111fc565b6040516001600160e01b031960e087901b168152600481019490945260248401929092526001600160a01b0390811660448401521660648201526000608482015260a4016103a1565b60008160405160200161057e9190611219565b60408051808303601f19018152908290528051602090910120600b54630a3b53db60e21b83526004830182905230602484015290925082916001600160a01b03909116906328ed4f6c90604401600060405180830381600087803b1580156105e557600080fd5b505af11580156105f9573d6000803e3d6000fd5b50505050505050565b600480546001600160a01b03191632179055604051600090610628908390602001611219565b60408051808303601f1901815282825280516020918201207f93cdeb708b7545dc668eb9280176169d1c33cfd8ed6f04690a0bcc88a93fc4ae91840191909152908201819052915060600160408051808303601f190181528282528051602091820120600681905590830152810184905260600160408051808303601f19018152908290528051602090910120600555600854600654630178b8bf60e01b835260048301526000916001600160a01b0390911690630178b8bf90602401602060405180830381865afa158015610702573d6000803e3d6000fd5b505050506040513d601f19601f8201168201806040525081019061072691906111fc565b600980546001600160a01b0319166001600160a01b039290921691909117905550505050565b6008546040516306ab592360e01b815260048101859052602481018490523360448201526001600160a01b03909116906306ab5923906064016020604051808303816000875af11580156107a4573d6000803e3d6000fd5b505050506040513d601f19601f820116820180604052508101906102f79190611254565b60006003819055600480546001600160a01b0319169055600581905560068190556040805160208101918290528290526108059160079190610ea2565b50565b6108128282610ba9565b600854600654600354604051630178b8bf60e01b8152600481018390526001600160a01b0390931692635ef2c7f092919033908590630178b8bf90602401602060405180830381865afa15801561086d573d6000803e3d6000fd5b505050506040513d601f19601f8201168201806040525081019061089191906111fc565b6040516001600160e01b031960e087901b168152600481019490945260248401929092526001600160a01b0390811660448401521660648201526000608482015260a401600060405180830381600087803b1580156108ef57600080fd5b505af1158015610903573d6000803e3d6000fd5b5050600854600654604051630178b8bf60e01b8152600481018290526001600160a01b039092169350631896f70a9250908390630178b8bf90602401602060405180830381865afa15801561095c573d6000803e3d6000fd5b505050506040513d601f19601f8201168201806040525081019061098091906111fc565b6040516001600160e01b031960e085901b16815260048101929092526001600160a01b03166024820152604401600060405180830381600087803b1580156109c757600080fd5b505af11580156109db573d6000803e3d6000fd5b5050600954600554604051638b95dd7160e01b81526001600160a01b039092169350638b95dd719250610a1691603c90600790600401611144565b600060405180830381600087803b158015610a3057600080fd5b505af1158015610a44573d6000803e3d6000fd5b5050600854600654600354600480546040516306ab592360e01b81529182019390935260248101919091526001600160a01b039182166044820152911692506306ab592391506064016020604051808303816000875af1158015610aac573d6000803e3d6000fd5b505050506040513d601f19601f82011682018060405250810190610ad09190611254565b5060065460035460048054600854604051630178b8bf60e01b81529283018590527fcc6e575905be59e3e2a0ebe1805959c6f78a4d268432b7e3ae8806b6bf3fdfaa9493926001600160a01b039283169290911690630178b8bf90602401602060405180830381865afa158015610b4b573d6000803e3d6000fd5b505050506040513d601f19601f82011682018060405250810190610b6f91906111fc565b6040805194855260208501939093526001600160a01b0391821684840152166060830152519081900360800190a1610ba56107c8565b5050565b600480546001600160a01b031916321790556000610bc683610d2c565b9050600081604051602001610bdb9190611219565b604051602081830303815290604052805190602001209050600083604051602001610c069190611219565b60408051808303601f1901815282825280516020918201207f93cdeb708b7545dc668eb9280176169d1c33cfd8ed6f04690a0bcc88a93fc4ae91840191909152908201819052915060600160408051808303601f190181528282528051602091820120600681905590830152810183905260600160408051808303601f19018152908290528051602090910120600555600854600654630178b8bf60e01b835260048301526000916001600160a01b0390911690630178b8bf90602401602060405180830381865afa158015610ce0573d6000803e3d6000fd5b505050506040513d601f19601f82011682018060405250810190610d0491906111fc565b600980546001600160a01b0319166001600160a01b0392909216919091179055505050505050565b60606000610d3983610dc9565b600101905060008167ffffffffffffffff811115610d5957610d59610f8d565b6040519080825280601f01601f191660200182016040528015610d83576020820181803683370190505b5090508181016020015b600019016f181899199a1a9b1b9c1cb0b131b232b360811b600a86061a8153600a8504945084610dbc57610dc1565b610d8d565b509392505050565b60008072184f03e93ff9f4daa797ed6e38ed64bf6a1f0160401b8310610e085772184f03e93ff9f4daa797ed6e38ed64bf6a1f0160401b830492506040015b6d04ee2d6d415b85acef81000000008310610e34576d04ee2d6d415b85acef8100000000830492506020015b662386f26fc100008310610e5257662386f26fc10000830492506010015b6305f5e1008310610e6a576305f5e100830492506008015b6127108310610e7e57612710830492506004015b60648310610e90576064830492506002015b600a8310610e9c576001015b92915050565b828054610eae90611109565b90600052602060002090601f016020900481019282610ed05760008555610f16565b82601f10610ee957805160ff1916838001178555610f16565b82800160010185558215610f16579182015b82811115610f16578251825591602001919060010190610efb565b50610f22929150610f26565b5090565b5b80821115610f225760008155600101610f27565b600060208284031215610f4d57600080fd5b5035919050565b6001600160a01b038116811461080557600080fd5b600060208284031215610f7b57600080fd5b8135610f8681610f54565b9392505050565b634e487b7160e01b600052604160045260246000fd5b600082601f830112610fb457600080fd5b813567ffffffffffffffff80821115610fcf57610fcf610f8d565b604051601f8301601f19908116603f01168101908282118183101715610ff757610ff7610f8d565b8160405283815286602085880101111561101057600080fd5b836020870160208301376000602085830101528094505050505092915050565b60008060006060848603121561104557600080fd5b833561105081610f54565b925060208401359150604084013567ffffffffffffffff81111561107357600080fd5b61107f86828701610fa3565b9150509250925092565b60008060006060848603121561109e57600080fd5b8335925060208401356110b081610f54565b9150604084013567ffffffffffffffff81111561107357600080fd5b6000602082840312156110de57600080fd5b813567ffffffffffffffff8111156110f557600080fd5b61110184828501610fa3565b949350505050565b600181811c9082168061111d57607f821691505b6020821081141561113e57634e487b7160e01b600052602260045260246000fd5b50919050565b838152600060208481840152606060408401526000845481600182811c91508083168061117257607f831692505b85831081141561119057634e487b7160e01b85526022600452602485fd5b60608801839052608088018180156111af57600181146111c0576111eb565b60ff198616825287820196506111eb565b60008b81526020902060005b868110156111e5578154848201529085019089016111cc565b83019750505b50949b9a5050505050505050505050565b60006020828403121561120e57600080fd5b8151610f8681610f54565b6000825160005b8181101561123a5760208186018101518583015201611220565b81811115611249576000828501525b509190910192915050565b60006020828403121561126657600080fd5b505191905056fea26469706673582212205bb96829bbaf61f5cac8beaad3609925b5d2f4ef6ba4dc821d4dd1fd1dede5ca64736f6c634300080c0033",
  "linkReferences": {},
  "deployedLinkReferences": {}
}