{
  "_format": "hh-sol-artifact-1",
  "contractName": "NFTDomain",
  "sourceName": "contracts/NFTDomain.sol",
  "abi": [
    {
      "inputs": [],
      "stateMutability": "nonpayable",
      "type": "constructor"
    },
    {
      "anonymous": false,
      "inputs": [
        {
          "indexed": true,
          "internalType": "address",
          "name": "previousOwner",
          "type": "address"
        },
        {
          "indexed": true,
          "internalType": "address",
          "name": "newOwner",
          "type": "address"
        }
      ],
      "name": "OwnershipTransferred",
      "type": "event"
    },
    {
      "anonymous": false,
      "inputs": [
        {
          "indexed": false,
          "internalType": "bytes32",
          "name": "node",
          "type": "bytes32"
        },
        {
          "indexed": false,
          "internalType": "bytes32",
          "name": "label",
          "type": "bytes32"
        },
        {
          "indexed": false,
          "internalType": "address",
          "name": "registant",
          "type": "address"
        },
        {
          "indexed": false,
          "internalType": "address",
          "name": "resolver",
          "type": "address"
        }
      ],
      "name": "sendtoEns",
      "type": "event"
    },
    {
      "inputs": [
        {
          "internalType": "uint256",
          "name": "",
          "type": "uint256"
        }
      ],
      "name": "ENS_RECORD_ARR",
      "outputs": [
        {
          "internalType": "uint256",
          "name": "index",
          "type": "uint256"
        },
        {
          "internalType": "address",
          "name": "contractAddress",
          "type": "address"
        },
        {
          "internalType": "string",
          "name": "domain",
          "type": "string"
        }
      ],
      "stateMutability": "view",
      "type": "function"
    },
    {
      "inputs": [
        {
          "internalType": "address",
          "name": "",
          "type": "address"
        },
        {
          "internalType": "uint256",
          "name": "",
          "type": "uint256"
        }
      ],
      "name": "NFTtoBind",
      "outputs": [
        {
          "internalType": "bool",
          "name": "",
          "type": "bool"
        }
      ],
      "stateMutability": "view",
      "type": "function"
    },
    {
      "inputs": [
        {
          "internalType": "address",
          "name": "",
          "type": "address"
        },
        {
          "internalType": "uint256",
          "name": "",
          "type": "uint256"
        }
      ],
      "name": "NFTtoDomain",
      "outputs": [
        {
          "internalType": "bytes32",
          "name": "",
          "type": "bytes32"
        }
      ],
      "stateMutability": "view",
      "type": "function"
    },
    {
      "inputs": [
        {
          "internalType": "uint256",
          "name": "",
          "type": "uint256"
        }
      ],
      "name": "NftAddr",
      "outputs": [
        {
          "internalType": "address",
          "name": "",
          "type": "address"
        }
      ],
      "stateMutability": "view",
      "type": "function"
    },
    {
      "inputs": [
        {
          "internalType": "uint256",
          "name": "",
          "type": "uint256"
        }
      ],
      "name": "PasscardToDomain",
      "outputs": [
        {
          "internalType": "bytes32",
          "name": "",
          "type": "bytes32"
        }
      ],
      "stateMutability": "view",
      "type": "function"
    },
    {
      "inputs": [
        {
          "internalType": "address",
          "name": "",
          "type": "address"
        },
        {
          "internalType": "string",
          "name": "",
          "type": "string"
        }
      ],
      "name": "ProJectTeam",
      "outputs": [
        {
          "internalType": "address",
          "name": "",
          "type": "address"
        }
      ],
      "stateMutability": "view",
      "type": "function"
    },
    {
      "inputs": [],
      "name": "StorageDomainAddr",
      "outputs": [
        {
          "internalType": "address",
          "name": "",
          "type": "address"
        }
      ],
      "stateMutability": "view",
      "type": "function"
    },
    {
      "inputs": [
        {
          "internalType": "address",
          "name": "",
          "type": "address"
        },
        {
          "internalType": "address",
          "name": "",
          "type": "address"
        },
        {
          "internalType": "bytes32",
          "name": "",
          "type": "bytes32"
        }
      ],
      "name": "UserSubDomain",
      "outputs": [
        {
          "internalType": "uint256",
          "name": "",
          "type": "uint256"
        }
      ],
      "stateMutability": "view",
      "type": "function"
    },
    {
      "inputs": [
        {
          "components": [
            {
              "internalType": "uint256",
              "name": "index",
              "type": "uint256"
            },
            {
              "internalType": "address",
              "name": "contractAddress",
              "type": "address"
            },
            {
              "internalType": "string",
              "name": "domain",
              "type": "string"
            }
          ],
          "internalType": "struct StorageDomain.ENS_RECORD",
          "name": "ens_record",
          "type": "tuple"
        }
      ],
      "name": "_putENS_RECORD",
      "outputs": [
        {
          "components": [
            {
              "internalType": "uint256",
              "name": "index",
              "type": "uint256"
            },
            {
              "internalType": "address",
              "name": "contractAddress",
              "type": "address"
            },
            {
              "internalType": "string",
              "name": "domain",
              "type": "string"
            }
          ],
          "internalType": "struct StorageDomain.ENS_RECORD",
          "name": "",
          "type": "tuple"
        }
      ],
      "stateMutability": "nonpayable",
      "type": "function"
    },
    {
      "inputs": [
        {
          "internalType": "address",
          "name": "sender",
          "type": "address"
        },
        {
          "internalType": "string",
          "name": "domain",
          "type": "string"
        },
        {
          "internalType": "address",
          "name": "adr",
          "type": "address"
        }
      ],
      "name": "_setProJectTeam",
      "outputs": [],
      "stateMutability": "nonpayable",
      "type": "function"
    },
    {
      "inputs": [
        {
          "internalType": "address",
          "name": "sender",
          "type": "address"
        },
        {
          "internalType": "address",
          "name": "adr",
          "type": "address"
        },
        {
          "internalType": "bytes32",
          "name": "label",
          "type": "bytes32"
        },
        {
          "internalType": "uint256",
          "name": "tokenId",
          "type": "uint256"
        }
      ],
      "name": "_setUserSubDomain",
      "outputs": [],
      "stateMutability": "nonpayable",
      "type": "function"
    },
    {
      "inputs": [
        {
          "internalType": "uint256",
          "name": "tokenId",
          "type": "uint256"
        },
        {
          "internalType": "address",
          "name": "tokenAddress",
          "type": "address"
        },
        {
          "internalType": "string",
          "name": "_nodename",
          "type": "string"
        }
      ],
      "name": "claim",
      "outputs": [],
      "stateMutability": "nonpayable",
      "type": "function"
    },
    {
      "inputs": [],
      "name": "controller",
      "outputs": [
        {
          "internalType": "contract IController",
          "name": "",
          "type": "address"
        }
      ],
      "stateMutability": "view",
      "type": "function"
    },
    {
      "inputs": [],
      "name": "ens",
      "outputs": [
        {
          "internalType": "contract IENS",
          "name": "",
          "type": "address"
        }
      ],
      "stateMutability": "view",
      "type": "function"
    },
    {
      "inputs": [
        {
          "internalType": "uint256",
          "name": "tokenId",
          "type": "uint256"
        }
      ],
      "name": "getAddr",
      "outputs": [
        {
          "internalType": "address",
          "name": "",
          "type": "address"
        }
      ],
      "stateMutability": "view",
      "type": "function"
    },
    {
      "inputs": [],
      "name": "getENSRecordArrLength",
      "outputs": [
        {
          "internalType": "uint256",
          "name": "",
          "type": "uint256"
        }
      ],
      "stateMutability": "view",
      "type": "function"
    },
    {
      "inputs": [
        {
          "internalType": "string",
          "name": "nodename",
          "type": "string"
        },
        {
          "internalType": "address",
          "name": "tokenAddress",
          "type": "address"
        },
        {
          "internalType": "bytes32",
          "name": "_node",
          "type": "bytes32"
        }
      ],
      "name": "issueDomain",
      "outputs": [],
      "stateMutability": "nonpayable",
      "type": "function"
    },
    {
      "inputs": [],
      "name": "nft",
      "outputs": [
        {
          "internalType": "contract INFT",
          "name": "",
          "type": "address"
        }
      ],
      "stateMutability": "view",
      "type": "function"
    },
    {
      "inputs": [],
      "name": "owner",
      "outputs": [
        {
          "internalType": "address",
          "name": "",
          "type": "address"
        }
      ],
      "stateMutability": "view",
      "type": "function"
    },
    {
      "inputs": [],
      "name": "passcard",
      "outputs": [
        {
          "internalType": "contract PassCard",
          "name": "",
          "type": "address"
        }
      ],
      "stateMutability": "view",
      "type": "function"
    },
    {
      "inputs": [
        {
          "internalType": "address",
          "name": "tokenAddress",
          "type": "address"
        }
      ],
      "name": "pushNftAddr",
      "outputs": [],
      "stateMutability": "nonpayable",
      "type": "function"
    },
    {
      "inputs": [],
      "name": "renounceOwnership",
      "outputs": [],
      "stateMutability": "nonpayable",
      "type": "function"
    },
    {
      "inputs": [],
      "name": "resolver",
      "outputs": [
        {
          "internalType": "contract IResolver",
          "name": "",
          "type": "address"
        }
      ],
      "stateMutability": "view",
      "type": "function"
    },
    {
      "inputs": [],
      "name": "setAddr",
      "outputs": [],
      "stateMutability": "nonpayable",
      "type": "function"
    },
    {
      "inputs": [
        {
          "internalType": "address",
          "name": "_DaoDomain",
          "type": "address"
        },
        {
          "internalType": "address",
          "name": "_NFTDomain",
          "type": "address"
        },
        {
          "internalType": "address",
          "name": "_AnyLinkDomain",
          "type": "address"
        }
      ],
      "name": "setAuthorityContract",
      "outputs": [],
      "stateMutability": "nonpayable",
      "type": "function"
    },
    {
      "inputs": [
        {
          "internalType": "address",
          "name": "_resolver",
          "type": "address"
        }
      ],
      "name": "setResolver",
      "outputs": [],
      "stateMutability": "nonpayable",
      "type": "function"
    },
    {
      "inputs": [
        {
          "internalType": "address",
          "name": "StorageDomainAdr",
          "type": "address"
        }
      ],
      "name": "setStorafeDomainAdr",
      "outputs": [],
      "stateMutability": "nonpayable",
      "type": "function"
    },
    {
      "inputs": [],
      "name": "setSubnodeRecord",
      "outputs": [],
      "stateMutability": "nonpayable",
      "type": "function"
    },
    {
      "inputs": [],
      "name": "storagedomain",
      "outputs": [
        {
          "internalType": "contract StorageDomain",
          "name": "",
          "type": "address"
        }
      ],
      "stateMutability": "view",
      "type": "function"
    },
    {
      "inputs": [
        {
          "internalType": "address",
          "name": "newOwner",
          "type": "address"
        }
      ],
      "name": "transferOwnership",
      "outputs": [],
      "stateMutability": "nonpayable",
      "type": "function"
    }
  ],
  "bytecode": "0x6080604052600a80547357f1887a8bf19b14fc0df6fd9b2acc9af147ea856001600160a01b03199182168117909255600b8054909116909117905534801561004657600080fd5b5061005033610076565b600180546001600160a01b0319166e0c2e074ec69a0dfb2997ba6c7d2e1e1790556100c6565b600080546001600160a01b038381166001600160a01b0319831681178455604051919092169283917f8be0079c531659141344cd1fd0a4f28419497f9722a3daafe3b4186f6b6457e09190a35050565b61210e806100d56000396000f3fe608060405234801561001057600080fd5b50600436106101da5760003560e01c806381ce3bd011610104578063acb4344e116100a2578063f2fde38b11610071578063f2fde38b146104ae578063f378bbe6146104c1578063f77c4791146104ec578063ff117ae9146104ff57600080fd5b8063acb4344e1461043b578063bc0b6c4e14610480578063d81f84b714610493578063d8ca561a146104a657600080fd5b806394458c37116100de57806394458c37146103cd5780639b8be4ee146103fe578063a28ec7ac14610406578063a3b7174c1461042857600080fd5b806381ce3bd01461036b5780638da5cb5b1461037e5780638f8070a31461038f57600080fd5b80633f15457f1161017c5780634b5c85621161014b5780634b5c85621461032a5780634e543b261461033d578063715018a61461035057806374dc483f1461035857600080fd5b80633f15457f146102e957806341a5e6df146102fc57806345b56cc41461030f57806347ccca021461031757600080fd5b806315a54451116101b857806315a54451146102845780631b62d872146102965780631c9e2023146102b65780632ad627ea146102c957600080fd5b80630125c2c7146101df5780630390820b146101f457806304f3bcec14610254575b600080fd5b6101f26101ed36600461196e565b610543565b005b6101f26102023660046119b9565b601480546001810182556000919091527fce6d7b5282bd9a3661ae061feed1dbda4e52ab073b1f9285be6e155d9c38d4ec0180546001600160a01b0319166001600160a01b0392909216919091179055565b601354610267906001600160a01b031681565b6040516001600160a01b0390911681526020015b60405180910390f35b6004545b60405190815260200161027b565b6102886102a43660046119dd565b600d6020526000908152604090205481565b6101f26102c4366004611ae4565b61058a565b6102dc6102d7366004611b3d565b6105e8565b60405161027b9190611c1f565b600154610267906001600160a01b031681565b600854610267906001600160a01b031681565b6102676106ca565b600954610267906001600160a01b031681565b6101f2610338366004611c5e565b6106d9565b6101f261034b3660046119b9565b610974565b6101f26109e1565b600c54610267906001600160a01b031681565b6102676103793660046119dd565b6109f5565b6000546001600160a01b0316610267565b6103bd61039d366004611cb8565b601660209081526000928352604080842090915290825290205460ff1681565b604051901515815260200161027b565b6102886103db366004611ce4565b600360209081526000938452604080852082529284528284209052825290205481565b6101f2610a1f565b6104196104143660046119dd565b610a84565b60405161027b93929190611d14565b6101f2610436366004611d47565b610b4d565b610267610449366004611da0565b600260209081526000928352604090922081518083018401805192815290840192909301919091209152546001600160a01b031681565b6101f261048e3660046119b9565b610fc1565b6102676104a13660046119dd565b610feb565b6101f261105f565b6101f26104bc3660046119b9565b611127565b6102886104cf366004611cb8565b601560209081526000928352604080842090915290825290205481565b600a54610267906001600160a01b031681565b6101f261050d366004611df0565b6001600160a01b039384166000908152600360209081526040808320959096168252938452848120928152919092529190912055565b61054b6111a0565b600580546001600160a01b039485166001600160a01b031991821617909155600680549385169382169390931790925560078054919093169116179055565b6001600160a01b0383166000908152600260205260409081902090518291906105b4908590611e36565b90815260405190819003602001902080546001600160a01b03929092166001600160a01b0319909216919091179055505050565b604080516060808201835260008083526020830152918101919091526004805460018101825560009190915282517f8a35acfbc15ff81a39ae7d344fd709f28e8600b4aa8c65c6b64bfe7fe36bd19b60039092029182019081556020808501517f8a35acfbc15ff81a39ae7d344fd709f28e8600b4aa8c65c6b64bfe7fe36bd19c840180546001600160a01b0319166001600160a01b039092169190911790556040850151805186946106c1937f8a35acfbc15ff81a39ae7d344fd709f28e8600b4aa8c65c6b64bfe7fe36bd19d9091019201906118c0565b50929392505050565b60006106d46111a0565b503090565b600980546001600160a01b0319166001600160a01b03841690811790915560408051638da5cb5b60e01b8152905160009291638da5cb5b9160048083019260209291908290030181865afa158015610735573d6000803e3d6000fd5b505050506040513d601f19601f820116820180604052508101906107599190611e52565b90506001600160a01b03811633146107af5760405162461bcd60e51b81526020600482015260146024820152733737ba1031b7b63632b1ba34b7b71037bbb732b960611b60448201526064015b60405180910390fd5b60085460405163565a1a2760e11b81526000916001600160a01b03169063acb4344e906107e29033908990600401611e6f565b602060405180830381865afa1580156107ff573d6000803e3d6000fd5b505050506040513d601f19601f820116820180604052508101906108239190611e52565b6001600160a01b031614156109345760408051606081018252600181526001600160a01b038581166020830152818301879052600854925163156b13f560e11b815291921690632ad627ea9061087d908490600401611c1f565b6000604051808303816000875af115801561089c573d6000803e3d6000fd5b505050506040513d6000823e601f3d908101601f191682016040526108c49190810190611e93565b506008546020820151604051631c9e202360e01b81526001600160a01b0390921691631c9e2023916108fc9133918a91600401611f58565b600060405180830381600087803b15801561091657600080fd5b505af115801561092a573d6000803e3d6000fd5b505050505061096e565b60405162461bcd60e51b815260206004820152600f60248201526e616c7265616479206973737565642160881b60448201526064016107a6565b50505050565b600154601054604051630c4b7b8560e11b815260048101919091526001600160a01b03838116602483015290911690631896f70a90604401600060405180830381600087803b1580156109c657600080fd5b505af11580156109da573d6000803e3d6000fd5b5050505050565b6109e96111a0565b6109f360006111fa565b565b60148181548110610a0557600080fd5b6000918252602090912001546001600160a01b0316905081565b601354600f54604051638b95dd7160e01b81526001600160a01b0390921691638b95dd7191610a5691603c90601190600401611fc8565b600060405180830381600087803b158015610a7057600080fd5b505af115801561096e573d6000803e3d6000fd5b60048181548110610a9457600080fd5b60009182526020909120600390910201805460018201546002830180549294506001600160a01b039091169291610aca90611f8d565b80601f0160208091040260200160405190810160405280929190818152602001828054610af690611f8d565b8015610b435780601f10610b1857610100808354040283529160200191610b43565b820191906000526020600020905b815481529060010190602001808311610b2657829003601f168201915b5050505050905083565b600980546001600160a01b0319166001600160a01b0384161790556040516001600160601b0319606084901b16602082015283908390839060340160408051601f1981840301815290829052805160209091012060085463565a1a2760e11b835290916001600160a01b039091169063acb4344e90610bd29033908690600401611e6f565b602060405180830381865afa158015610bef573d6000803e3d6000fd5b505050506040513d601f19601f82011682018060405250810190610c139190611e52565b604051602001610c36919060609190911b6001600160601b031916815260140190565b6040516020818303038152906040528051906020012014610c5657600080fd5b6009546040516331a9108f60e11b8152600481018590526000916001600160a01b031690636352211e90602401602060405180830381865afa158015610ca0573d6000803e3d6000fd5b505050506040513d601f19601f82011682018060405250810190610cc49190611e52565b9050336001600160a01b03821614610d105760405162461bcd60e51b815260206004820152600f60248201526e3737ba103a37b5b2b71037bbb732b960891b60448201526064016107a6565b600854604080516315a5445160e01b815290516000926001600160a01b0316916315a544519160048083019260209291908290030181865afa158015610d5a573d6000803e3d6000fd5b505050506040513d601f19601f82011682018060405250810190610d7e9190612080565b905060005b81811015610fb657876001600160a01b031660048281548110610da857610da8612099565b60009182526020909120600160039092020101546001600160a01b031614156101da576001600160a01b03881660009081526016602090815260408083208c845290915290205460ff1615610e305760405162461bcd60e51b815260206004820152600e60248201526d185b1c9958591e48189a5b99195960921b60448201526064016107a6565b60048181548110610e4357610e43612099565b90600052602060002090600302016002018054610e5f90611f8d565b80601f0160208091040260200160405190810160405280929190818152602001828054610e8b90611f8d565b8015610ed85780601f10610ead57610100808354040283529160200191610ed8565b820191906000526020600020905b815481529060010190602001808311610ebb57829003601f168201915b50505050509650610eea89898961124a565b6000610ef58a611541565b905080604051602001610f089190611e36565b60408051601f198184030181529082905280516020909101206012819055600854600162ee851760e01b031983523360048401526001600160a01b038c811660248501526044840192909252606483018d9052169063ff117ae990608401600060405180830381600087803b158015610f8057600080fd5b505af1158015610f94573d6000803e3d6000fd5b5050600060125550610fa4915050565b80610fae816120af565b915050610d83565b505050505050505050565b610fc96111a0565b600880546001600160a01b0319166001600160a01b0392909216919091179055565b6009546040516331a9108f60e11b8152600481018390526000916001600160a01b031690636352211e90602401602060405180830381865afa158015611035573d6000803e3d6000fd5b505050506040513d601f19601f820116820180604052508101906110599190611e52565b92915050565b600154601054601254604051630178b8bf60e01b8152600481018390526001600160a01b0390931692635ef2c7f092919030908590630178b8bf90602401602060405180830381865afa1580156110ba573d6000803e3d6000fd5b505050506040513d601f19601f820116820180604052508101906110de9190611e52565b6040516001600160e01b031960e087901b168152600481019490945260248401929092526001600160a01b0390811660448401521660648201526000608482015260a401610a56565b61112f6111a0565b6001600160a01b0381166111945760405162461bcd60e51b815260206004820152602660248201527f4f776e61626c653a206e6577206f776e657220697320746865207a65726f206160448201526564647265737360d01b60648201526084016107a6565b61119d816111fa565b50565b6000546001600160a01b031633146109f35760405162461bcd60e51b815260206004820181905260248201527f4f776e61626c653a2063616c6c6572206973206e6f7420746865206f776e657260448201526064016107a6565b600080546001600160a01b038381166001600160a01b0319831681178455604051919092169283917f8be0079c531659141344cd1fd0a4f28419497f9722a3daafe3b4186f6b6457e09190a35050565b61125483826115de565b600154601054604051630178b8bf60e01b815260048101919091526000916001600160a01b031690630178b8bf90602401602060405180830381865afa1580156112a2573d6000803e3d6000fd5b505050506040513d601f19601f820116820180604052508101906112c69190611e52565b6001546010546012546040516305ef2c7f60e41b8152600481019290925260248201523060448201526001600160a01b03808416606483015260006084830152929350911690635ef2c7f09060a401600060405180830381600087803b15801561132f57600080fd5b505af1158015611343573d6000803e3d6000fd5b5050600154601054604051630c4b7b8560e11b815260048101919091526001600160a01b0385811660248301529091169250631896f70a9150604401600060405180830381600087803b15801561139957600080fd5b505af11580156113ad573d6000803e3d6000fd5b5050601354600f54604051638b95dd7160e01b81526001600160a01b039092169350638b95dd7192506113e891603c90601190600401611fc8565b600060405180830381600087803b15801561140257600080fd5b505af1158015611416573d6000803e3d6000fd5b5050600154601054601254600e546040516306ab592360e01b8152600481019390935260248301919091526001600160a01b03908116604483015290911692506306ab592391506064016020604051808303816000875af115801561147f573d6000803e3d6000fd5b505050506040513d601f19601f820116820180604052508101906114a39190612080565b506001600160a01b0383811660008181526016602090815260408083208984528252808320805460ff1916600117905560125493835260158252808320898452825291829020839055601054600e5483519182529181019390935283169082015290821660608201527fcc6e575905be59e3e2a0ebe1805959c6f78a4d268432b7e3ae8806b6bf3fdfaa9060800160405180910390a161096e6117ab565b6060600061154e836117e8565b600101905060008167ffffffffffffffff81111561156e5761156e6119f6565b6040519080825280601f01601f191660200182016040528015611598576020820181803683370190505b5090508181016020015b600019016f181899199a1a9b1b9c1cb0b131b232b360811b600a86061a8153600a85049450846115d1576115d6565b6115a2565b509392505050565b600e80546001600160a01b03191633908117909155604051611616919060200160609190911b6001600160601b031916815260140190565b6040516020818303038152906040526011908051906020019061163a9291906118c0565b50600061164683611541565b9050806040516020016116599190611e36565b60408051601f1981840301815290829052805160209182012060125560009161168491859101611e36565b60408051808303601f1901815282825280516020918201207f93cdeb708b7545dc668eb9280176169d1c33cfd8ed6f04690a0bcc88a93fc4ae91840191909152908201819052915060600160408051808303601f1901815282825280516020918201206010819055601254918401529082015260600160408051808303601f19018152908290528051602090910120600f55600154601054630178b8bf60e01b835260048301526000916001600160a01b0390911690630178b8bf90602401602060405180830381865afa158015611760573d6000803e3d6000fd5b505050506040513d601f19601f820116820180604052508101906117849190611e52565b601380546001600160a01b0319166001600160a01b03929092169190911790555050505050565b60006012819055600e80546001600160a01b0319169055600f819055601081905560408051602081019182905282905261119d91601191906118c0565b60008072184f03e93ff9f4daa797ed6e38ed64bf6a1f0160401b83106118275772184f03e93ff9f4daa797ed6e38ed64bf6a1f0160401b830492506040015b6d04ee2d6d415b85acef81000000008310611853576d04ee2d6d415b85acef8100000000830492506020015b662386f26fc10000831061187157662386f26fc10000830492506010015b6305f5e1008310611889576305f5e100830492506008015b612710831061189d57612710830492506004015b606483106118af576064830492506002015b600a83106110595760010192915050565b8280546118cc90611f8d565b90600052602060002090601f0160209004810192826118ee5760008555611934565b82601f1061190757805160ff1916838001178555611934565b82800160010185558215611934579182015b82811115611934578251825591602001919060010190611919565b50611940929150611944565b5090565b5b808211156119405760008155600101611945565b6001600160a01b038116811461119d57600080fd5b60008060006060848603121561198357600080fd5b833561198e81611959565b9250602084013561199e81611959565b915060408401356119ae81611959565b809150509250925092565b6000602082840312156119cb57600080fd5b81356119d681611959565b9392505050565b6000602082840312156119ef57600080fd5b5035919050565b634e487b7160e01b600052604160045260246000fd5b6040516060810167ffffffffffffffff81118282101715611a2f57611a2f6119f6565b60405290565b604051601f8201601f1916810167ffffffffffffffff81118282101715611a5e57611a5e6119f6565b604052919050565b600067ffffffffffffffff821115611a8057611a806119f6565b50601f01601f191660200190565b600082601f830112611a9f57600080fd5b8135611ab2611aad82611a66565b611a35565b818152846020838601011115611ac757600080fd5b816020850160208301376000918101602001919091529392505050565b600080600060608486031215611af957600080fd5b8335611b0481611959565b9250602084013567ffffffffffffffff811115611b2057600080fd5b611b2c86828701611a8e565b92505060408401356119ae81611959565b600060208284031215611b4f57600080fd5b813567ffffffffffffffff80821115611b6757600080fd5b9083019060608286031215611b7b57600080fd5b611b83611a0c565b823581526020830135611b9581611959565b6020820152604083013582811115611bac57600080fd5b611bb887828601611a8e565b60408301525095945050505050565b60005b83811015611be2578181015183820152602001611bca565b8381111561096e5750506000910152565b60008151808452611c0b816020860160208601611bc7565b601f01601f19169290920160200192915050565b602081528151602082015260018060a01b03602083015116604082015260006040830151606080840152611c566080840182611bf3565b949350505050565b600080600060608486031215611c7357600080fd5b833567ffffffffffffffff811115611c8a57600080fd5b611c9686828701611a8e565b9350506020840135611ca781611959565b929592945050506040919091013590565b60008060408385031215611ccb57600080fd5b8235611cd681611959565b946020939093013593505050565b600080600060608486031215611cf957600080fd5b8335611d0481611959565b92506020840135611ca781611959565b8381526001600160a01b0383166020820152606060408201819052600090611d3e90830184611bf3565b95945050505050565b600080600060608486031215611d5c57600080fd5b833592506020840135611d6e81611959565b9150604084013567ffffffffffffffff811115611d8a57600080fd5b611d9686828701611a8e565b9150509250925092565b60008060408385031215611db357600080fd5b8235611dbe81611959565b9150602083013567ffffffffffffffff811115611dda57600080fd5b611de685828601611a8e565b9150509250929050565b60008060008060808587031215611e0657600080fd5b8435611e1181611959565b93506020850135611e2181611959565b93969395505050506040820135916060013590565b60008251611e48818460208701611bc7565b9190910192915050565b600060208284031215611e6457600080fd5b81516119d681611959565b6001600160a01b0383168152604060208201819052600090611c5690830184611bf3565b60006020808385031215611ea657600080fd5b825167ffffffffffffffff80821115611ebe57600080fd5b9084019060608287031215611ed257600080fd5b611eda611a0c565b8251815283830151611eeb81611959565b81850152604083015182811115611f0157600080fd5b80840193505086601f840112611f1657600080fd5b82519150611f26611aad83611a66565b8281528785848601011115611f3a57600080fd5b611f4983868301878701611bc7565b60408201529695505050505050565b600060018060a01b03808616835260606020840152611f7a6060840186611bf3565b9150808416604084015250949350505050565b600181811c90821680611fa157607f821691505b60208210811415611fc257634e487b7160e01b600052602260045260246000fd5b50919050565b838152600060208481840152606060408401526000845481600182811c915080831680611ff657607f831692505b85831081141561201457634e487b7160e01b85526022600452602485fd5b606088018390526080880181801561203357600181146120445761206f565b60ff1986168252878201965061206f565b60008b81526020902060005b8681101561206957815484820152908501908901612050565b83019750505b50949b9a5050505050505050505050565b60006020828403121561209257600080fd5b5051919050565b634e487b7160e01b600052603260045260246000fd5b60006000198214156120d157634e487b7160e01b600052601160045260246000fd5b506001019056fea2646970667358221220f73971f392cbb002c5b514f913ec864bfe7e8d465ec468c2e64f5df03430a66d64736f6c634300080c0033",
  "linkReferences": {},
  "deployedLinkReferences": {}
}