{
  "_format": "hh-sol-artifact-1",
  "contractName": "NftDomain",
  "sourceName": "contracts/NftDomain.sol",
  "abi": [
    {
      "inputs": [],
      "stateMutability": "nonpayable",
      "type": "constructor"
    },
    {
      "anonymous": false,
      "inputs": [
        {
          "indexed": false,
          "internalType": "bytes32",
          "name": "node",
          "type": "bytes32"
        },
        {
          "indexed": false,
          "internalType": "bytes32",
          "name": "label",
          "type": "bytes32"
        },
        {
          "indexed": false,
          "internalType": "address",
          "name": "registant",
          "type": "address"
        },
        {
          "indexed": false,
          "internalType": "address",
          "name": "resolver",
          "type": "address"
        }
      ],
      "name": "sendtoEns",
      "type": "event"
    },
    {
      "inputs": [
        {
          "internalType": "uint256",
          "name": "",
          "type": "uint256"
        }
      ],
      "name": "NftAddr",
      "outputs": [
        {
          "internalType": "address",
          "name": "",
          "type": "address"
        }
      ],
      "stateMutability": "view",
      "type": "function"
    },
    {
      "inputs": [
        {
          "internalType": "uint256",
          "name": "",
          "type": "uint256"
        }
      ],
      "name": "PasscardToDomain",
      "outputs": [
        {
          "internalType": "bytes32",
          "name": "",
          "type": "bytes32"
        }
      ],
      "stateMutability": "view",
      "type": "function"
    },
    {
      "inputs": [
        {
          "internalType": "uint256",
          "name": "tokenId",
          "type": "uint256"
        },
        {
          "internalType": "address",
          "name": "tokenAddress",
          "type": "address"
        },
        {
          "internalType": "string",
          "name": "_nodename",
          "type": "string"
        }
      ],
      "name": "claim",
      "outputs": [],
      "stateMutability": "nonpayable",
      "type": "function"
    },
    {
      "inputs": [],
      "name": "controller",
      "outputs": [
        {
          "internalType": "contract IController",
          "name": "",
          "type": "address"
        }
      ],
      "stateMutability": "view",
      "type": "function"
    },
    {
      "inputs": [],
      "name": "ens",
      "outputs": [
        {
          "internalType": "contract IEns",
          "name": "",
          "type": "address"
        }
      ],
      "stateMutability": "view",
      "type": "function"
    },
    {
      "inputs": [
        {
          "internalType": "uint256",
          "name": "tokenId",
          "type": "uint256"
        }
      ],
      "name": "getAddr",
      "outputs": [
        {
          "internalType": "address",
          "name": "",
          "type": "address"
        }
      ],
      "stateMutability": "view",
      "type": "function"
    },
    {
      "inputs": [
        {
          "internalType": "string",
          "name": "nodename",
          "type": "string"
        },
        {
          "internalType": "address",
          "name": "tokenAddress",
          "type": "address"
        }
      ],
      "name": "issueDomain",
      "outputs": [],
      "stateMutability": "nonpayable",
      "type": "function"
    },
    {
      "inputs": [],
      "name": "nft",
      "outputs": [
        {
          "internalType": "contract INft",
          "name": "",
          "type": "address"
        }
      ],
      "stateMutability": "view",
      "type": "function"
    },
    {
      "inputs": [],
      "name": "passcard",
      "outputs": [
        {
          "internalType": "contract PassCard",
          "name": "",
          "type": "address"
        }
      ],
      "stateMutability": "view",
      "type": "function"
    },
    {
      "inputs": [
        {
          "internalType": "uint256",
          "name": "",
          "type": "uint256"
        }
      ],
      "name": "passcardId",
      "outputs": [
        {
          "internalType": "uint256",
          "name": "",
          "type": "uint256"
        }
      ],
      "stateMutability": "view",
      "type": "function"
    },
    {
      "inputs": [
        {
          "internalType": "address",
          "name": "tokenAddress",
          "type": "address"
        }
      ],
      "name": "pushNftAddr",
      "outputs": [],
      "stateMutability": "nonpayable",
      "type": "function"
    },
    {
      "inputs": [],
      "name": "resolver",
      "outputs": [
        {
          "internalType": "contract IResolver",
          "name": "",
          "type": "address"
        }
      ],
      "stateMutability": "view",
      "type": "function"
    },
    {
      "inputs": [],
      "name": "setAddr",
      "outputs": [],
      "stateMutability": "nonpayable",
      "type": "function"
    },
    {
      "inputs": [
        {
          "internalType": "address",
          "name": "nftadr",
          "type": "address"
        }
      ],
      "name": "setNftAddress",
      "outputs": [],
      "stateMutability": "nonpayable",
      "type": "function"
    },
    {
      "inputs": [
        {
          "internalType": "address",
          "name": "_resolver",
          "type": "address"
        }
      ],
      "name": "setResolver",
      "outputs": [],
      "stateMutability": "nonpayable",
      "type": "function"
    },
    {
      "inputs": [],
      "name": "setSubnodeRecord",
      "outputs": [],
      "stateMutability": "nonpayable",
      "type": "function"
    },
    {
      "inputs": [
        {
          "internalType": "uint256",
          "name": "tokenId",
          "type": "uint256"
        },
        {
          "internalType": "string",
          "name": "_nodename",
          "type": "string"
        }
      ],
      "name": "startNft",
      "outputs": [],
      "stateMutability": "nonpayable",
      "type": "function"
    }
  ],
  "bytecode": "0x6080604052600180547357f1887a8bf19b14fc0df6fd9b2acc9af147ea856001600160a01b0319918216811790925560028054909116909117905534801561004657600080fd5b50600b80546001600160a01b0319166e0c2e074ec69a0dfb2997ba6c7d2e1e179055611234806100776000396000f3fe608060405234801561001057600080fd5b506004361061010a5760003560e01c80634979dee3116100a25780639b8be4ee116100715780639b8be4ee14610297578063a3b7174c1461029f578063d81f84b7146102b2578063d8ca561a146102c5578063f77c4791146102cd57600080fd5b80634979dee31461024b5780634e543b261461025e57806374dc483f1461027157806381ce3bd01461028457600080fd5b80631b62d872116100de5780631b62d872146101f25780633f15457f146102125780633f614b531461022557806347ccca021461023857600080fd5b806224a48d1461010f5780630390820b1461013557806304f3bcec146101975780630b102d1a146101c2575b600080fd5b61012261011d366004610e58565b6102e0565b6040519081526020015b60405180910390f35b610195610143366004610e86565b600e80546001810182556000919091527fbb7b4a454dc3493923482f07822329ed19e8244eff582cc204f8554c3620c3fd0180546001600160a01b0319166001600160a01b0392909216919091179055565b005b600c546101aa906001600160a01b031681565b6040516001600160a01b03909116815260200161012c565b6101956101d0366004610e86565b600080546001600160a01b0319166001600160a01b0392909216919091179055565b610122610200366004610e58565b60046020526000908152604090205481565b600b546101aa906001600160a01b031681565b610195610233366004610f4d565b610301565b6000546101aa906001600160a01b031681565b610195610259366004610f9f565b6103cf565b61019561026c366004610e86565b61068f565b6003546101aa906001600160a01b031681565b6101aa610292366004610e58565b6106fc565b610195610726565b6101956102ad366004610fe6565b610791565b6101aa6102c0366004610e58565b6108fc565b610195610970565b6001546101aa906001600160a01b031681565b600581815481106102f057600080fd5b600091825260209091200154905081565b600082604051602001610314919061106b565b60408051808303601f190181529082905280516020909101206002546024830182905230604484015290925082916001600160a01b039091169060640160408051601f198184030181529181526020820180516001600160e01b0316630a3b53db60e21b17905251610386919061106b565b600060405180830381855af49150503d80600081146103c1576040519150601f19603f3d011682016040523d82523d6000602084013e6103c6565b606091505b50505050505050565b6103d98282610a38565b600b54600854604051630178b8bf60e01b815260048101919091526000916001600160a01b031690630178b8bf90602401602060405180830381865afa158015610427573d6000803e3d6000fd5b505050506040513d601f19601f8201168201806040525081019061044b9190611087565b600b54600854600a546040516305ef2c7f60e41b8152600481019290925260248201523060448201526001600160a01b03808416606483015260006084830152929350911690635ef2c7f09060a401600060405180830381600087803b1580156104b457600080fd5b505af11580156104c8573d6000803e3d6000fd5b5050600b54600854604051630c4b7b8560e11b815260048101919091526001600160a01b0385811660248301529091169250631896f70a9150604401600060405180830381600087803b15801561051e57600080fd5b505af1158015610532573d6000803e3d6000fd5b5050600c54600754604051638b95dd7160e01b81526001600160a01b039092169350638b95dd71925061056d91603c906009906004016110df565b600060405180830381600087803b15801561058757600080fd5b505af115801561059b573d6000803e3d6000fd5b5050600b54600854600a546006546040516306ab592360e01b8152600481019390935260248301919091526001600160a01b03908116604483015290911692506306ab592391506064016020604051808303816000875af1158015610604573d6000803e3d6000fd5b505050506040513d601f19601f820116820180604052508101906106289190611173565b50600854600a546006546040805193845260208401929092526001600160a01b039081168383015283166060830152517fcc6e575905be59e3e2a0ebe1805959c6f78a4d268432b7e3ae8806b6bf3fdfaa9181900360800190a161068a610c0a565b505050565b600b54600854604051630c4b7b8560e11b815260048101919091526001600160a01b03838116602483015290911690631896f70a90604401600060405180830381600087803b1580156106e157600080fd5b505af11580156106f5573d6000803e3d6000fd5b5050505050565b600e818154811061070c57600080fd5b6000918252602090912001546001600160a01b0316905081565b600c54600754604051638b95dd7160e01b81526001600160a01b0390921691638b95dd719161075d91603c906009906004016110df565b600060405180830381600087803b15801561077757600080fd5b505af115801561078b573d6000803e3d6000fd5b50505050565b828282806040516020016107a5919061106b565b60408051601f1981840301815282825280516020918201206001600160a01b0386166000908152600d83529290922091926107e192910161118c565b604051602081830303815290604052805190602001201461080157600080fd5b600080546040516331a9108f60e11b8152600481018690526001600160a01b0390911690636352211e90602401602060405180830381865afa15801561084b573d6000803e3d6000fd5b505050506040513d601f19601f8201168201806040525081019061086f9190611087565b9050336001600160a01b038216146108bf5760405162461bcd60e51b815260206004820152600f60248201526e3737ba103a37b5b2b71037bbb732b960891b604482015260640160405180910390fd5b6108c987866103cf565b6001600160a01b0386166000908152600d6020908152604090912086516108f292880190610dbf565b5050505050505050565b600080546040516331a9108f60e11b8152600481018490526001600160a01b0390911690636352211e90602401602060405180830381865afa158015610946573d6000803e3d6000fd5b505050506040513d601f19601f8201168201806040525081019061096a9190611087565b92915050565b600b54600854600a54604051630178b8bf60e01b8152600481018390526001600160a01b0390931692635ef2c7f092919030908590630178b8bf90602401602060405180830381865afa1580156109cb573d6000803e3d6000fd5b505050506040513d601f19601f820116820180604052508101906109ef9190611087565b6040516001600160e01b031960e087901b168152600481019490945260248401929092526001600160a01b0390811660448401521660648201526000608482015260a40161075d565b600680546001600160a01b03191632908117909155604051610a75919060200160609190911b6bffffffffffffffffffffffff1916815260140190565b60405160208183030381529060405260099080519060200190610a99929190610dbf565b506000610aa583610c4a565b905080604051602001610ab8919061106b565b60408051601f19818403018152908290528051602091820120600a55600091610ae39185910161106b565b60408051808303601f1901815282825280516020918201207f93cdeb708b7545dc668eb9280176169d1c33cfd8ed6f04690a0bcc88a93fc4ae91840191909152908201819052915060600160408051808303601f1901815282825280516020918201206008819055600a54918401529082015260600160408051808303601f19018152908290528051602090910120600755600b54600854630178b8bf60e01b835260048301526000916001600160a01b0390911690630178b8bf90602401602060405180830381865afa158015610bbf573d6000803e3d6000fd5b505050506040513d601f19601f82011682018060405250810190610be39190611087565b600c80546001600160a01b0319166001600160a01b03929092169190911790555050505050565b6000600a819055600680546001600160a01b031916905560078190556008819055604080516020810191829052829052610c479160099190610dbf565b50565b60606000610c5783610ce7565b600101905060008167ffffffffffffffff811115610c7757610c77610eaa565b6040519080825280601f01601f191660200182016040528015610ca1576020820181803683370190505b5090508181016020015b600019016f181899199a1a9b1b9c1cb0b131b232b360811b600a86061a8153600a8504945084610cda57610cdf565b610cab565b509392505050565b60008072184f03e93ff9f4daa797ed6e38ed64bf6a1f0160401b8310610d265772184f03e93ff9f4daa797ed6e38ed64bf6a1f0160401b830492506040015b6d04ee2d6d415b85acef81000000008310610d52576d04ee2d6d415b85acef8100000000830492506020015b662386f26fc100008310610d7057662386f26fc10000830492506010015b6305f5e1008310610d88576305f5e100830492506008015b6127108310610d9c57612710830492506004015b60648310610dae576064830492506002015b600a831061096a5760010192915050565b828054610dcb906110a4565b90600052602060002090601f016020900481019282610ded5760008555610e33565b82601f10610e0657805160ff1916838001178555610e33565b82800160010185558215610e33579182015b82811115610e33578251825591602001919060010190610e18565b50610e3f929150610e43565b5090565b5b80821115610e3f5760008155600101610e44565b600060208284031215610e6a57600080fd5b5035919050565b6001600160a01b0381168114610c4757600080fd5b600060208284031215610e9857600080fd5b8135610ea381610e71565b9392505050565b634e487b7160e01b600052604160045260246000fd5b600082601f830112610ed157600080fd5b813567ffffffffffffffff80821115610eec57610eec610eaa565b604051601f8301601f19908116603f01168101908282118183101715610f1457610f14610eaa565b81604052838152866020858801011115610f2d57600080fd5b836020870160208301376000602085830101528094505050505092915050565b60008060408385031215610f6057600080fd5b823567ffffffffffffffff811115610f7757600080fd5b610f8385828601610ec0565b9250506020830135610f9481610e71565b809150509250929050565b60008060408385031215610fb257600080fd5b82359150602083013567ffffffffffffffff811115610fd057600080fd5b610fdc85828601610ec0565b9150509250929050565b600080600060608486031215610ffb57600080fd5b83359250602084013561100d81610e71565b9150604084013567ffffffffffffffff81111561102957600080fd5b61103586828701610ec0565b9150509250925092565b60005b8381101561105a578181015183820152602001611042565b8381111561078b5750506000910152565b6000825161107d81846020870161103f565b9190910192915050565b60006020828403121561109957600080fd5b8151610ea381610e71565b600181811c908216806110b857607f821691505b602082108114156110d957634e487b7160e01b600052602260045260246000fd5b50919050565b83815260006020848184015260606040840152600084546110ff816110a4565b8060608701526080600180841660008114611121576001811461113557611163565b60ff1985168984015260a089019550611163565b896000528660002060005b8581101561115b5781548b8201860152908301908801611140565b8a0184019650505b50939a9950505050505050505050565b60006020828403121561118557600080fd5b5051919050565b600080835461119a816110a4565b600182811680156111b257600181146111c3576111f2565b60ff198416875282870194506111f2565b8760005260208060002060005b858110156111e95781548a8201529084019082016111d0565b50505082870194505b5092969550505050505056fea2646970667358221220c62ca5cae293191f38356cf76e42268efaf8f8f7e532c333d6ec4b1c3ee0abfe64736f6c634300080c0033",
  "linkReferences": {},
  "deployedLinkReferences": {}
}