{
  "_format": "hh-sol-artifact-1",
  "contractName": "NFTDomain",
  "sourceName": "contracts/NFTDomain.sol",
  "abi": [
    {
      "inputs": [
        {
          "internalType": "address",
          "name": "_storagemainAddr",
          "type": "address"
        }
      ],
      "stateMutability": "nonpayable",
      "type": "constructor"
    },
    {
      "anonymous": false,
      "inputs": [
        {
          "indexed": true,
          "internalType": "address",
          "name": "previousOwner",
          "type": "address"
        },
        {
          "indexed": true,
          "internalType": "address",
          "name": "newOwner",
          "type": "address"
        }
      ],
      "name": "OwnershipTransferred",
      "type": "event"
    },
    {
      "anonymous": false,
      "inputs": [
        {
          "indexed": false,
          "internalType": "uint256",
          "name": "tokenId",
          "type": "uint256"
        },
        {
          "indexed": false,
          "internalType": "address",
          "name": "tokenAddress",
          "type": "address"
        },
        {
          "indexed": false,
          "internalType": "address",
          "name": "user",
          "type": "address"
        }
      ],
      "name": "claimed",
      "type": "event"
    },
    {
      "anonymous": false,
      "inputs": [
        {
          "indexed": false,
          "internalType": "bytes32",
          "name": "node",
          "type": "bytes32"
        },
        {
          "indexed": false,
          "internalType": "bytes32",
          "name": "label",
          "type": "bytes32"
        },
        {
          "indexed": false,
          "internalType": "address",
          "name": "registant",
          "type": "address"
        },
        {
          "indexed": false,
          "internalType": "address",
          "name": "resolver",
          "type": "address"
        }
      ],
      "name": "sendtoEns",
      "type": "event"
    },
    {
      "inputs": [
        {
          "internalType": "address",
          "name": "",
          "type": "address"
        },
        {
          "internalType": "uint256",
          "name": "",
          "type": "uint256"
        }
      ],
      "name": "NFTtoBind",
      "outputs": [
        {
          "internalType": "bool",
          "name": "",
          "type": "bool"
        }
      ],
      "stateMutability": "view",
      "type": "function"
    },
    {
      "inputs": [
        {
          "internalType": "address",
          "name": "",
          "type": "address"
        },
        {
          "internalType": "uint256",
          "name": "",
          "type": "uint256"
        }
      ],
      "name": "NFTtoDomain",
      "outputs": [
        {
          "internalType": "bytes32",
          "name": "",
          "type": "bytes32"
        }
      ],
      "stateMutability": "view",
      "type": "function"
    },
    {
      "inputs": [
        {
          "internalType": "uint256",
          "name": "",
          "type": "uint256"
        }
      ],
      "name": "NftAddr",
      "outputs": [
        {
          "internalType": "address",
          "name": "",
          "type": "address"
        }
      ],
      "stateMutability": "view",
      "type": "function"
    },
    {
      "inputs": [
        {
          "internalType": "uint256",
          "name": "tokenId",
          "type": "uint256"
        },
        {
          "internalType": "address",
          "name": "tokenAddress",
          "type": "address"
        },
        {
          "internalType": "string",
          "name": "_nodename",
          "type": "string"
        }
      ],
      "name": "claim",
      "outputs": [],
      "stateMutability": "nonpayable",
      "type": "function"
    },
    {
      "inputs": [],
      "name": "ens",
      "outputs": [
        {
          "internalType": "contract IENS",
          "name": "",
          "type": "address"
        }
      ],
      "stateMutability": "view",
      "type": "function"
    },
    {
      "inputs": [
        {
          "internalType": "uint256",
          "name": "tokenId",
          "type": "uint256"
        }
      ],
      "name": "getAddr",
      "outputs": [
        {
          "internalType": "address",
          "name": "",
          "type": "address"
        }
      ],
      "stateMutability": "view",
      "type": "function"
    },
    {
      "inputs": [],
      "name": "getNftAddrArr",
      "outputs": [
        {
          "internalType": "address[]",
          "name": "",
          "type": "address[]"
        }
      ],
      "stateMutability": "view",
      "type": "function"
    },
    {
      "inputs": [
        {
          "internalType": "address",
          "name": "tokenAddress",
          "type": "address"
        }
      ],
      "name": "getNftList",
      "outputs": [
        {
          "components": [
            {
              "internalType": "bool",
              "name": "claimed",
              "type": "bool"
            },
            {
              "internalType": "string",
              "name": "domain",
              "type": "string"
            },
            {
              "internalType": "uint256",
              "name": "tokenId",
              "type": "uint256"
            }
          ],
          "internalType": "struct NFTDomain.UserDomainState[]",
          "name": "",
          "type": "tuple[]"
        }
      ],
      "stateMutability": "view",
      "type": "function"
    },
    {
      "inputs": [],
      "name": "getStorageDomainAddr",
      "outputs": [
        {
          "internalType": "address",
          "name": "",
          "type": "address"
        }
      ],
      "stateMutability": "view",
      "type": "function"
    },
    {
      "inputs": [
        {
          "internalType": "string",
          "name": "nodename",
          "type": "string"
        },
        {
          "internalType": "address",
          "name": "tokenAddress",
          "type": "address"
        },
        {
          "internalType": "uint256",
          "name": "_tokenId",
          "type": "uint256"
        }
      ],
      "name": "issueDomain",
      "outputs": [],
      "stateMutability": "nonpayable",
      "type": "function"
    },
    {
      "inputs": [],
      "name": "nft",
      "outputs": [
        {
          "internalType": "contract INFT",
          "name": "",
          "type": "address"
        }
      ],
      "stateMutability": "view",
      "type": "function"
    },
    {
      "inputs": [],
      "name": "owner",
      "outputs": [
        {
          "internalType": "address",
          "name": "",
          "type": "address"
        }
      ],
      "stateMutability": "view",
      "type": "function"
    },
    {
      "inputs": [],
      "name": "renounceOwnership",
      "outputs": [],
      "stateMutability": "nonpayable",
      "type": "function"
    },
    {
      "inputs": [],
      "name": "resolver",
      "outputs": [
        {
          "internalType": "contract IResolver",
          "name": "",
          "type": "address"
        }
      ],
      "stateMutability": "view",
      "type": "function"
    },
    {
      "inputs": [],
      "name": "storagedomain",
      "outputs": [
        {
          "internalType": "contract IStorageDomain",
          "name": "",
          "type": "address"
        }
      ],
      "stateMutability": "view",
      "type": "function"
    },
    {
      "inputs": [
        {
          "internalType": "address",
          "name": "newOwner",
          "type": "address"
        }
      ],
      "name": "transferOwnership",
      "outputs": [],
      "stateMutability": "nonpayable",
      "type": "function"
    }
  ],
  "bytecode": "0x608060405234801561001057600080fd5b5060405162001bef38038062001bef833981016040819052610031916100cc565b61003a3361007c565b600180546001600160a01b03199081166e0c2e074ec69a0dfb2997ba6c7d2e1e17909155600280549091166001600160a01b03929092169190911790556100fc565b600080546001600160a01b038381166001600160a01b0319831681178455604051919092169283917f8be0079c531659141344cd1fd0a4f28419497f9722a3daafe3b4186f6b6457e09190a35050565b6000602082840312156100de57600080fd5b81516001600160a01b03811681146100f557600080fd5b9392505050565b611ae3806200010c6000396000f3fe608060405234801561001057600080fd5b50600436106101005760003560e01c80638959d39711610097578063bcde52c711610066578063bcde52c71461022a578063d81f84b71461023d578063f2fde38b14610250578063f378bbe61461026357600080fd5b80638959d397146101a85780638da5cb5b146101c85780638f8070a3146101d9578063a3b7174c1461021757600080fd5b80634b9b0eb1116100d35780634b9b0eb11461016e5780636b789c8f14610176578063715018a61461018b57806381ce3bd01461019557600080fd5b806304f3bcec146101055780633f15457f1461013557806341a5e6df1461014857806347ccca021461015b575b600080fd5b600b54610118906001600160a01b031681565b6040516001600160a01b0390911681526020015b60405180910390f35b600154610118906001600160a01b031681565b600254610118906001600160a01b031681565b600354610118906001600160a01b031681565b61011861029c565b61017e61030f565b60405161012c9190611535565b610193610371565b005b6101186101a3366004611582565b610385565b6101bb6101b63660046115b0565b6103af565b60405161012c919061162c565b6000546001600160a01b0316610118565b6102076101e73660046116af565b600560209081526000928352604080842090915290825290205460ff1681565b604051901515815260200161012c565b6101936102253660046117a0565b61061e565b6101936102383660046117f9565b610a38565b61011861024b366004611582565b610c22565b61019361025e3660046115b0565b610c96565b61028e6102713660046116af565b600460209081526000928352604080842090915290825290205481565b60405190815260200161012c565b60025460408051634b9b0eb160e01b815290516000926001600160a01b031691634b9b0eb19160048083019260209291908290030181865afa1580156102e6573d6000803e3d6000fd5b505050506040513d601f19601f8201168201806040525081019061030a9190611853565b905090565b6060600c80548060200260200160405190810160405280929190818152602001828054801561036757602002820191906000526020600020905b81546001600160a01b03168152600190910190602001808311610349575b5050505050905090565b610379610d0f565b6103836000610d69565b565b600c818154811061039557600080fd5b6000918252602090912001546001600160a01b0316905081565b60606000826001600160a01b03166318160ddd6040518163ffffffff1660e01b8152600401602060405180830381865afa1580156103f1573d6000803e3d6000fd5b505050506040513d601f19601f820116820180604052508101906104159190611870565b905060008167ffffffffffffffff811115610432576104326116db565b60405190808252806020026020018201604052801561048957816020015b610476604051806060016040528060001515815260200160608152602001600081525090565b8152602001906001900390816104505790505b50905060005b82811015610616576040516331a9108f60e11b8152600481018290526001600160a01b03861690636352211e90602401602060405180830381865afa1580156104dc573d6000803e3d6000fd5b505050506040513d601f19601f820116820180604052508101906105009190611853565b6001600160a01b0316336001600160a01b031614156106045761053f604051806060016040528060001515815260200160608152602001600081525090565b6001600160a01b038681166000818152600560209081526040808320878452909152908190205460ff161515845283810185905260025490516335011e6760e11b8152600481019290925290911690636a023cce90602401600060405180830381865afa1580156105b4573d6000803e3d6000fd5b505050506040513d6000823e601f3d908101601f191682016040526105dc9190810190611889565b8160200181905250808383815181106105f7576105f7611900565b6020026020010181905250505b8061060e81611916565b91505061048f565b509392505050565b600380546001600160a01b0319166001600160a01b03841617905582828261064582610db9565b61068c5760405162461bcd60e51b8152602060048201526013602482015272686176656e277420697373756564207965742160681b60448201526064015b60405180910390fd5b6003546040516331a9108f60e11b8152600481018590526000916001600160a01b031690636352211e90602401602060405180830381865afa1580156106d6573d6000803e3d6000fd5b505050506040513d601f19601f820116820180604052508101906106fa9190611853565b9050336001600160a01b038216146107465760405162461bcd60e51b815260206004820152600f60248201526e3737ba103a37b5b2b71037bbb732b960891b6044820152606401610683565b600254604080516315a5445160e01b815290516000926001600160a01b0316916315a544519160048083019260209291908290030181865afa158015610790573d6000803e3d6000fd5b505050506040513d601f19601f820116820180604052508101906107b49190611870565b905060005b81811015610a2d576002546040516361dfbe8d60e01b8152600481018390526001600160a01b038a81169216906361dfbe8d90602401602060405180830381865afa15801561080c573d6000803e3d6000fd5b505050506040513d601f19601f820116820180604052508101906108309190611853565b6001600160a01b03161415610a1b576001600160a01b03881660009081526005602090815260408083208c845290915290205460ff16156108a45760405162461bcd60e51b815260206004820152600e60248201526d185b1c9958591e48189a5b99195960921b6044820152606401610683565b600254604051639f8e355760e01b8152600481018390526001600160a01b0390911690639f8e355790602401600060405180830381865afa1580156108ed573d6000803e3d6000fd5b505050506040513d6000823e601f3d908101601f191682016040526109159190810190611889565b9650610922898989610e23565b600061092d8a611120565b905080604051602001610940919061193f565b60408051601f19818403018152908290528051602090910120600a819055600254634a916e2960e01b83523360048401526001600160a01b038c811660248501526044840192909252606483018d90521690634a916e2990608401600060405180830381600087803b1580156109b557600080fd5b505af11580156109c9573d6000803e3d6000fd5b50506000600a555050604080518b81526001600160a01b038b166020820152338183015290517feb18eb66e4767f3b26369c5edf99d49f301168b7e846acf64273a70d49d3462a9181900360600190a1505b80610a2581611916565b9150506107b9565b505050505050505050565b600380546001600160a01b0319166001600160a01b03841690811790915560408051638da5cb5b60e01b8152905160009291638da5cb5b9160048083019260209291908290030181865afa158015610a94573d6000803e3d6000fd5b505050506040513d601f19601f82011682018060405250810190610ab89190611853565b90506001600160a01b0381163314610b095760405162461bcd60e51b81526020600482015260146024820152733737ba1031b7b63632b1ba34b7b71037bbb732b960611b6044820152606401610683565b600c8054600180820183556000929092527fdf6966c971051c3d54ec59162606531493a51404a002842f56009d7e5cf4a8c70180546001600160a01b0319166001600160a01b0386811691909117909155600254604051634c46272760e11b815291169163988c4e4e91610b8491908790899060040161195b565b600060405180830381600087803b158015610b9e57600080fd5b505af1158015610bb2573d6000803e3d6000fd5b5050600254604051630ba018b760e31b81526001600160a01b039091169250635d00c5b89150610bea90339088908890600401611985565b600060405180830381600087803b158015610c0457600080fd5b505af1158015610c18573d6000803e3d6000fd5b5050505050505050565b6003546040516331a9108f60e11b8152600481018390526000916001600160a01b031690636352211e90602401602060405180830381865afa158015610c6c573d6000803e3d6000fd5b505050506040513d601f19601f82011682018060405250810190610c909190611853565b92915050565b610c9e610d0f565b6001600160a01b038116610d035760405162461bcd60e51b815260206004820152602660248201527f4f776e61626c653a206e6577206f776e657220697320746865207a65726f206160448201526564647265737360d01b6064820152608401610683565b610d0c81610d69565b50565b6000546001600160a01b031633146103835760405162461bcd60e51b815260206004820181905260248201527f4f776e61626c653a2063616c6c6572206973206e6f7420746865206f776e65726044820152606401610683565b600080546001600160a01b038381166001600160a01b0319831681178455604051919092169283917f8be0079c531659141344cd1fd0a4f28419497f9722a3daafe3b4186f6b6457e09190a35050565b600c546000908190815b81811015610e1a57846001600160a01b0316600c8281548110610de857610de8611900565b6000918252602090912001546001600160a01b03161415610e0857600192505b80610e1281611916565b915050610dc3565b50909392505050565b610e2d83826111b5565b600154600854604051630178b8bf60e01b815260048101919091526000916001600160a01b031690630178b8bf90602401602060405180830381865afa158015610e7b573d6000803e3d6000fd5b505050506040513d601f19601f82011682018060405250810190610e9f9190611853565b600154600854600a546040516305ef2c7f60e41b8152600481019290925260248201523060448201526001600160a01b03808416606483015260006084830152929350911690635ef2c7f09060a401600060405180830381600087803b158015610f0857600080fd5b505af1158015610f1c573d6000803e3d6000fd5b5050600154600854604051630c4b7b8560e11b815260048101919091526001600160a01b0385811660248301529091169250631896f70a9150604401600060405180830381600087803b158015610f7257600080fd5b505af1158015610f86573d6000803e3d6000fd5b5050600b54600754604051638b95dd7160e01b81526001600160a01b039092169350638b95dd719250610fc191603c906009906004016119f5565b600060405180830381600087803b158015610fdb57600080fd5b505af1158015610fef573d6000803e3d6000fd5b5050600154600854600a546006546040516306ab592360e01b8152600481019390935260248301919091526001600160a01b03908116604483015290911692506306ab592391506064016020604051808303816000875af1158015611058573d6000803e3d6000fd5b505050506040513d601f19601f8201168201806040525081019061107c9190611870565b506001600160a01b0383811660008181526005602090815260408083208984528252808320805460ff19166001179055600a549383526004825280832089845282529182902083905560085460065483519182529181019390935283169082015290821660608201527fcc6e575905be59e3e2a0ebe1805959c6f78a4d268432b7e3ae8806b6bf3fdfaa9060800160405180910390a161111a611387565b50505050565b6060600061112d836113c4565b600101905060008167ffffffffffffffff81111561114d5761114d6116db565b6040519080825280601f01601f191660200182016040528015611177576020820181803683370190505b5090508181016020015b600019016f181899199a1a9b1b9c1cb0b131b232b360811b600a86061a8153600a85049450846111b057610616565b611181565b600680546001600160a01b031916339081179091556040516111f2919060200160609190911b6bffffffffffffffffffffffff1916815260140190565b6040516020818303038152906040526009908051906020019061121692919061149c565b50600061122283611120565b905080604051602001611235919061193f565b60408051601f19818403018152908290528051602091820120600a556000916112609185910161193f565b60408051808303601f1901815282825280516020918201207f93cdeb708b7545dc668eb9280176169d1c33cfd8ed6f04690a0bcc88a93fc4ae91840191909152908201819052915060600160408051808303601f1901815282825280516020918201206008819055600a54918401529082015260600160408051808303601f19018152908290528051602090910120600755600154600854630178b8bf60e01b835260048301526000916001600160a01b0390911690630178b8bf90602401602060405180830381865afa15801561133c573d6000803e3d6000fd5b505050506040513d601f19601f820116820180604052508101906113609190611853565b600b80546001600160a01b0319166001600160a01b03929092169190911790555050505050565b6000600a819055600680546001600160a01b031916905560078190556008819055604080516020810191829052829052610d0c916009919061149c565b60008072184f03e93ff9f4daa797ed6e38ed64bf6a1f0160401b83106114035772184f03e93ff9f4daa797ed6e38ed64bf6a1f0160401b830492506040015b6d04ee2d6d415b85acef8100000000831061142f576d04ee2d6d415b85acef8100000000830492506020015b662386f26fc10000831061144d57662386f26fc10000830492506010015b6305f5e1008310611465576305f5e100830492506008015b612710831061147957612710830492506004015b6064831061148b576064830492506002015b600a8310610c905760010192915050565b8280546114a8906119ba565b90600052602060002090601f0160209004810192826114ca5760008555611510565b82601f106114e357805160ff1916838001178555611510565b82800160010185558215611510579182015b828111156115105782518255916020019190600101906114f5565b5061151c929150611520565b5090565b5b8082111561151c5760008155600101611521565b6020808252825182820181905260009190848201906040850190845b818110156115765783516001600160a01b031683529284019291840191600101611551565b50909695505050505050565b60006020828403121561159457600080fd5b5035919050565b6001600160a01b0381168114610d0c57600080fd5b6000602082840312156115c257600080fd5b81356115cd8161159b565b9392505050565b60005b838110156115ef5781810151838201526020016115d7565b8381111561111a5750506000910152565b600081518084526116188160208601602086016115d4565b601f01601f19169290920160200192915050565b60006020808301818452808551808352604092508286019150828160051b87010184880160005b838110156116a157603f198984030185528151606081511515855288820151818a87015261168382870182611600565b92890151958901959095525094870194925090860190600101611653565b509098975050505050505050565b600080604083850312156116c257600080fd5b82356116cd8161159b565b946020939093013593505050565b634e487b7160e01b600052604160045260246000fd5b604051601f8201601f1916810167ffffffffffffffff8111828210171561171a5761171a6116db565b604052919050565b600067ffffffffffffffff82111561173c5761173c6116db565b50601f01601f191660200190565b600082601f83011261175b57600080fd5b813561176e61176982611722565b6116f1565b81815284602083860101111561178357600080fd5b816020850160208301376000918101602001919091529392505050565b6000806000606084860312156117b557600080fd5b8335925060208401356117c78161159b565b9150604084013567ffffffffffffffff8111156117e357600080fd5b6117ef8682870161174a565b9150509250925092565b60008060006060848603121561180e57600080fd5b833567ffffffffffffffff81111561182557600080fd5b6118318682870161174a565b93505060208401356118428161159b565b929592945050506040919091013590565b60006020828403121561186557600080fd5b81516115cd8161159b565b60006020828403121561188257600080fd5b5051919050565b60006020828403121561189b57600080fd5b815167ffffffffffffffff8111156118b257600080fd5b8201601f810184136118c357600080fd5b80516118d161176982611722565b8181528560208385010111156118e657600080fd5b6118f78260208301602086016115d4565b95945050505050565b634e487b7160e01b600052603260045260246000fd5b600060001982141561193857634e487b7160e01b600052601160045260246000fd5b5060010190565b600082516119518184602087016115d4565b9190910192915050565b8381526001600160a01b03831660208201526060604082018190526000906118f790830184611600565b600060018060a01b038086168352606060208401526119a76060840186611600565b9150808416604084015250949350505050565b600181811c908216806119ce57607f821691505b602082108114156119ef57634e487b7160e01b600052602260045260246000fd5b50919050565b838152600060208481840152606060408401526000845481600182811c915080831680611a2357607f831692505b858310811415611a4157634e487b7160e01b85526022600452602485fd5b6060880183905260808801818015611a605760018114611a7157611a9c565b60ff19861682528782019650611a9c565b60008b81526020902060005b86811015611a9657815484820152908501908901611a7d565b83019750505b50949b9a505050505050505050505056fea2646970667358221220ca14e4a3361e511a9788a97d24b002ef5ee6d6d879cd6fb883eef33b18adb20864736f6c634300080c0033",
  "linkReferences": {},
  "deployedLinkReferences": {}
}