{
  "_format": "hh-sol-artifact-1",
  "contractName": "SetSubDomain",
  "sourceName": "contracts/SetSubDomain.sol",
  "abi": [
    {
      "inputs": [],
      "stateMutability": "nonpayable",
      "type": "constructor"
    },
    {
      "anonymous": false,
      "inputs": [
        {
          "indexed": false,
          "internalType": "bytes32",
          "name": "node",
          "type": "bytes32"
        },
        {
          "indexed": false,
          "internalType": "bytes32",
          "name": "label",
          "type": "bytes32"
        },
        {
          "indexed": false,
          "internalType": "address",
          "name": "registant",
          "type": "address"
        },
        {
          "indexed": false,
          "internalType": "address",
          "name": "resolver",
          "type": "address"
        }
      ],
      "name": "sendtoEns",
      "type": "event"
    },
    {
      "inputs": [
        {
          "internalType": "uint256",
          "name": "",
          "type": "uint256"
        }
      ],
      "name": "PasscardToDomain",
      "outputs": [
        {
          "internalType": "bytes32",
          "name": "",
          "type": "bytes32"
        }
      ],
      "stateMutability": "view",
      "type": "function"
    },
    {
      "inputs": [],
      "name": "ens",
      "outputs": [
        {
          "internalType": "contract IEns",
          "name": "",
          "type": "address"
        }
      ],
      "stateMutability": "view",
      "type": "function"
    },
    {
      "inputs": [],
      "name": "passcard",
      "outputs": [
        {
          "internalType": "contract PassCard",
          "name": "",
          "type": "address"
        }
      ],
      "stateMutability": "view",
      "type": "function"
    },
    {
      "inputs": [
        {
          "internalType": "uint256",
          "name": "",
          "type": "uint256"
        }
      ],
      "name": "passcardId",
      "outputs": [
        {
          "internalType": "uint256",
          "name": "",
          "type": "uint256"
        }
      ],
      "stateMutability": "view",
      "type": "function"
    },
    {
      "inputs": [],
      "name": "resolver",
      "outputs": [
        {
          "internalType": "contract IResolver",
          "name": "",
          "type": "address"
        }
      ],
      "stateMutability": "view",
      "type": "function"
    },
    {
      "inputs": [],
      "name": "setAddr",
      "outputs": [],
      "stateMutability": "nonpayable",
      "type": "function"
    },
    {
      "inputs": [
        {
          "internalType": "address",
          "name": "_resolver",
          "type": "address"
        }
      ],
      "name": "setResolver",
      "outputs": [],
      "stateMutability": "nonpayable",
      "type": "function"
    },
    {
      "inputs": [],
      "name": "setSubnodeRecord",
      "outputs": [],
      "stateMutability": "nonpayable",
      "type": "function"
    },
    {
      "inputs": [
        {
          "internalType": "address",
          "name": "to",
          "type": "address"
        },
        {
          "internalType": "uint256",
          "name": "tokenId",
          "type": "uint256"
        },
        {
          "internalType": "string",
          "name": "_nodename",
          "type": "string"
        }
      ],
      "name": "transferPassCardAndSubDomain",
      "outputs": [],
      "stateMutability": "nonpayable",
      "type": "function"
    }
  ],
  "bytecode": "0x608060405234801561001057600080fd5b50600880546001600160a01b0319166e0c2e074ec69a0dfb2997ba6c7d2e1e179055610932806100416000396000f3fe608060405234801561001057600080fd5b50600436106100925760003560e01c80633f15457f116100665780633f15457f1461011d5780634e543b261461013057806374dc483f146101435780639b8be4ee14610156578063d8ca561a1461015e57600080fd5b806224a48d1461009757806304f3bcec146100bd5780631b62d872146100e857806332b9afc914610108575b600080fd5b6100aa6100a5366004610663565b610166565b6040519081526020015b60405180910390f35b6009546100d0906001600160a01b031681565b6040516001600160a01b0390911681526020016100b4565b6100aa6100f6366004610663565b60016020526000908152604090205481565b61011b6101163660046106a7565b610187565b005b6008546100d0906001600160a01b031681565b61011b61013e366004610774565b61022a565b6000546100d0906001600160a01b031681565b61011b610297565b61011b6102fc565b6002818154811061017657600080fd5b600091825260209091200154905081565b6000546040516323b872dd60e01b81523360048201526001600160a01b03858116602483015260448201859052909116906323b872dd90606401600060405180830381600087803b1580156101db57600080fd5b505af11580156101ef573d6000803e3d6000fd5b505050600083815260016020526040902054905061020d81836103c4565b61021c6006546003548661050e565b61022461058a565b50505050565b600854600654604051630c4b7b8560e11b815260048101919091526001600160a01b03838116602483015290911690631896f70a90604401600060405180830381600087803b15801561027c57600080fd5b505af1158015610290573d6000803e3d6000fd5b5050505050565b600954600554604051638b95dd7160e01b81526001600160a01b0390921691638b95dd71916102ce91603c906007906004016107d3565b600060405180830381600087803b1580156102e857600080fd5b505af1158015610224573d6000803e3d6000fd5b600854600654600354604051630178b8bf60e01b8152600481018390526001600160a01b0390931692635ef2c7f092919030908590630178b8bf90602401602060405180830381865afa158015610357573d6000803e3d6000fd5b505050506040513d601f19601f8201168201806040525081019061037b919061088b565b6040516001600160e01b031960e087901b168152600481019490945260248401929092526001600160a01b0390811660448401521660648201526000608482015260a4016102ce565b600480546001600160a01b031916321790556040516000906103ea9083906020016108a8565b60408051808303601f1901815282825280516020918201207f93cdeb708b7545dc668eb9280176169d1c33cfd8ed6f04690a0bcc88a93fc4ae91840191909152908201819052915060600160408051808303601f190181528282528051602091820120600681905590830152810184905260600160408051808303601f19018152908290528051602090910120600555600854600654630178b8bf60e01b835260048301526000916001600160a01b0390911690630178b8bf90602401602060405180830381865afa1580156104c4573d6000803e3d6000fd5b505050506040513d601f19601f820116820180604052508101906104e8919061088b565b600980546001600160a01b0319166001600160a01b039290921691909117905550505050565b6008546040516306ab592360e01b815260048101859052602481018490523360448201526001600160a01b03909116906306ab5923906064016020604051808303816000875af1158015610566573d6000803e3d6000fd5b505050506040513d601f19601f8201168201806040525081019061022491906108e3565b60006003819055600480546001600160a01b0319169055600581905560068190556040805160208101918290528290526105c791600791906105ca565b50565b8280546105d690610798565b90600052602060002090601f0160209004810192826105f8576000855561063e565b82601f1061061157805160ff191683800117855561063e565b8280016001018555821561063e579182015b8281111561063e578251825591602001919060010190610623565b5061064a92915061064e565b5090565b5b8082111561064a576000815560010161064f565b60006020828403121561067557600080fd5b5035919050565b6001600160a01b03811681146105c757600080fd5b634e487b7160e01b600052604160045260246000fd5b6000806000606084860312156106bc57600080fd5b83356106c78161067c565b925060208401359150604084013567ffffffffffffffff808211156106eb57600080fd5b818601915086601f8301126106ff57600080fd5b81358181111561071157610711610691565b604051601f8201601f19908116603f0116810190838211818310171561073957610739610691565b8160405282815289602084870101111561075257600080fd5b8260208601602083013760006020848301015280955050505050509250925092565b60006020828403121561078657600080fd5b81356107918161067c565b9392505050565b600181811c908216806107ac57607f821691505b602082108114156107cd57634e487b7160e01b600052602260045260246000fd5b50919050565b838152600060208481840152606060408401526000845481600182811c91508083168061080157607f831692505b85831081141561081f57634e487b7160e01b85526022600452602485fd5b606088018390526080880181801561083e576001811461084f5761087a565b60ff1986168252878201965061087a565b60008b81526020902060005b868110156108745781548482015290850190890161085b565b83019750505b50949b9a5050505050505050505050565b60006020828403121561089d57600080fd5b81516107918161067c565b6000825160005b818110156108c957602081860181015185830152016108af565b818111156108d8576000828501525b509190910192915050565b6000602082840312156108f557600080fd5b505191905056fea2646970667358221220ec1d4d3c2c3d5d3890b248c17dd6ba7728d34908de15bef363fd8aba269cdfe864736f6c634300080c0033",
  "linkReferences": {},
  "deployedLinkReferences": {}
}