{
  "_format": "hh-sol-artifact-1",
  "contractName": "AnyLinkDomain",
  "sourceName": "contracts/AnyLinkDomain.sol",
  "abi": [
    {
      "inputs": [
        {
          "internalType": "address",
          "name": "_storagemainAddr",
          "type": "address"
        }
      ],
      "stateMutability": "nonpayable",
      "type": "constructor"
    },
    {
      "anonymous": false,
      "inputs": [
        {
          "indexed": true,
          "internalType": "address",
          "name": "previousOwner",
          "type": "address"
        },
        {
          "indexed": true,
          "internalType": "address",
          "name": "newOwner",
          "type": "address"
        }
      ],
      "name": "OwnershipTransferred",
      "type": "event"
    },
    {
      "anonymous": false,
      "inputs": [
        {
          "indexed": false,
          "internalType": "uint256",
          "name": "tokenId",
          "type": "uint256"
        },
        {
          "indexed": false,
          "internalType": "address",
          "name": "anylinkAddress",
          "type": "address"
        },
        {
          "indexed": false,
          "internalType": "address",
          "name": "user",
          "type": "address"
        }
      ],
      "name": "claimed",
      "type": "event"
    },
    {
      "anonymous": false,
      "inputs": [
        {
          "indexed": false,
          "internalType": "bytes32",
          "name": "node",
          "type": "bytes32"
        },
        {
          "indexed": false,
          "internalType": "bytes32",
          "name": "label",
          "type": "bytes32"
        },
        {
          "indexed": false,
          "internalType": "address",
          "name": "registant",
          "type": "address"
        },
        {
          "indexed": false,
          "internalType": "address",
          "name": "resolver",
          "type": "address"
        }
      ],
      "name": "sendtoEns",
      "type": "event"
    },
    {
      "inputs": [
        {
          "internalType": "uint256",
          "name": "",
          "type": "uint256"
        }
      ],
      "name": "AnyLinkAddr",
      "outputs": [
        {
          "internalType": "address",
          "name": "",
          "type": "address"
        }
      ],
      "stateMutability": "view",
      "type": "function"
    },
    {
      "inputs": [
        {
          "internalType": "address",
          "name": "",
          "type": "address"
        },
        {
          "internalType": "uint256",
          "name": "",
          "type": "uint256"
        }
      ],
      "name": "AnyLinkToBind",
      "outputs": [
        {
          "internalType": "bool",
          "name": "",
          "type": "bool"
        }
      ],
      "stateMutability": "view",
      "type": "function"
    },
    {
      "inputs": [
        {
          "internalType": "address",
          "name": "",
          "type": "address"
        },
        {
          "internalType": "uint256",
          "name": "",
          "type": "uint256"
        }
      ],
      "name": "AnyLinkToDomain",
      "outputs": [
        {
          "internalType": "bytes32",
          "name": "",
          "type": "bytes32"
        }
      ],
      "stateMutability": "view",
      "type": "function"
    },
    {
      "inputs": [],
      "name": "anylink",
      "outputs": [
        {
          "internalType": "contract INFT",
          "name": "",
          "type": "address"
        }
      ],
      "stateMutability": "view",
      "type": "function"
    },
    {
      "inputs": [
        {
          "internalType": "bytes32",
          "name": "_label",
          "type": "bytes32"
        },
        {
          "internalType": "uint256",
          "name": "anylinktokenId",
          "type": "uint256"
        },
        {
          "internalType": "address",
          "name": "_anylinkAdr",
          "type": "address"
        }
      ],
      "name": "claim",
      "outputs": [],
      "stateMutability": "nonpayable",
      "type": "function"
    },
    {
      "inputs": [],
      "name": "ens",
      "outputs": [
        {
          "internalType": "contract IENS",
          "name": "",
          "type": "address"
        }
      ],
      "stateMutability": "view",
      "type": "function"
    },
    {
      "inputs": [
        {
          "internalType": "string",
          "name": "nodename",
          "type": "string"
        },
        {
          "internalType": "address",
          "name": "anylinkAddress",
          "type": "address"
        },
        {
          "internalType": "uint256",
          "name": "_tokenId",
          "type": "uint256"
        }
      ],
      "name": "issueDomain",
      "outputs": [],
      "stateMutability": "nonpayable",
      "type": "function"
    },
    {
      "inputs": [],
      "name": "owner",
      "outputs": [
        {
          "internalType": "address",
          "name": "",
          "type": "address"
        }
      ],
      "stateMutability": "view",
      "type": "function"
    },
    {
      "inputs": [],
      "name": "renounceOwnership",
      "outputs": [],
      "stateMutability": "nonpayable",
      "type": "function"
    },
    {
      "inputs": [],
      "name": "resolver",
      "outputs": [
        {
          "internalType": "contract IResolver",
          "name": "",
          "type": "address"
        }
      ],
      "stateMutability": "view",
      "type": "function"
    },
    {
      "inputs": [],
      "name": "storagedomain",
      "outputs": [
        {
          "internalType": "contract IStorageDomain",
          "name": "",
          "type": "address"
        }
      ],
      "stateMutability": "view",
      "type": "function"
    },
    {
      "inputs": [
        {
          "internalType": "address",
          "name": "newOwner",
          "type": "address"
        }
      ],
      "name": "transferOwnership",
      "outputs": [],
      "stateMutability": "nonpayable",
      "type": "function"
    }
  ],
  "bytecode": "0x608060405234801561001057600080fd5b5060405161158338038061158383398101604081905261002f916100ca565b6100383361007a565b600180546001600160a01b03199081166e0c2e074ec69a0dfb2997ba6c7d2e1e17909155600280549091166001600160a01b03929092169190911790556100fa565b600080546001600160a01b038381166001600160a01b0319831681178455604051919092169283917f8be0079c531659141344cd1fd0a4f28419497f9722a3daafe3b4186f6b6457e09190a35050565b6000602082840312156100dc57600080fd5b81516001600160a01b03811681146100f357600080fd5b9392505050565b61147a806101096000396000f3fe608060405234801561001057600080fd5b50600436106100b45760003560e01c8063715018a611610071578063715018a6146101755780638da5cb5b1461017d5780639ca8c8971461018e5780639f797418146101c7578063bcde52c7146101da578063f2fde38b146101ed57600080fd5b806304f3bcec146100b957806304f73fe4146100e95780633f15457f146100fe57806341a5e6df146101115780636e0485b8146101245780636f585c2b14610162575b600080fd5b600a546100cc906001600160a01b031681565b6040516001600160a01b0390911681526020015b60405180910390f35b6100fc6100f7366004610fca565b610200565b005b6001546100cc906001600160a01b031681565b6002546100cc906001600160a01b031681565b610152610132366004611003565b600560209081526000928352604080842090915290825290205460ff1681565b60405190151581526020016100e0565b6003546100cc906001600160a01b031681565b6100fc61057b565b6000546001600160a01b03166100cc565b6101b961019c366004611003565b600460209081526000928352604080842090915290825290205481565b6040519081526020016100e0565b6100cc6101d536600461102f565b61058f565b6100fc6101e83660046110b7565b6105b9565b6100fc6101fb366004611154565b610937565b6003546040516331a9108f60e11b815260048101849052839183916000916001600160a01b031690636352211e90602401602060405180830381865afa15801561024e573d6000803e3d6000fd5b505050506040513d601f19601f820116820180604052508101906102729190611178565b9050336001600160a01b038216146102c45760405162461bcd60e51b815260206004820152601060248201526f3737ba103237b6b0b4b71037bbb732b960811b60448201526064015b60405180910390fd5b600254604080516315a5445160e01b815290516000926001600160a01b0316916315a544519160048083019260209291908290030181865afa15801561030e573d6000803e3d6000fd5b505050506040513d601f19601f820116820180604052508101906103329190611195565b905060005b81811015610571576002546040516361dfbe8d60e01b8152600481018390526001600160a01b038881169216906361dfbe8d90602401602060405180830381865afa15801561038a573d6000803e3d6000fd5b505050506040513d601f19601f820116820180604052508101906103ae9190611178565b6001600160a01b0316141561055f576001600160a01b03861660009081526005602090815260408083208a845290915290205460ff16156104225760405162461bcd60e51b815260206004820152600e60248201526d185b1c9958591e48189a5b99195960921b60448201526064016102bb565b600254604051639f8e355760e01b8152600481018390526000916001600160a01b031690639f8e355790602401600060405180830381865afa15801561046c573d6000803e3d6000fd5b505050506040513d6000823e601f3d908101601f1916820160405261049491908101906111de565b90506104a28988838b6109b0565b600254604051634a916e2960e01b81523360048201526001600160a01b038981166024830152604482018c9052606482018b905290911690634a916e2990608401600060405180830381600087803b1580156104fd57600080fd5b505af1158015610511573d6000803e3d6000fd5b5050604080518b81526001600160a01b038b166020820152338183015290517feb18eb66e4767f3b26369c5edf99d49f301168b7e846acf64273a70d49d3462a9350908190036060019150a1505b8061056981611255565b915050610337565b5050505050505050565b610583610ca5565b61058d6000610cff565b565b600b818154811061059f57600080fd5b6000918252602090912001546001600160a01b0316905081565b6001546040516331a9108f60e11b81526004810183905282916000916001600160a01b0390911690636352211e90602401602060405180830381865afa158015610607573d6000803e3d6000fd5b505050506040513d601f19601f8201168201806040525081019061062b9190611178565b9050336001600160a01b0382161461068f5760405162461bcd60e51b815260206004820152602160248201527f63616c6c657220646f65736e2774206f776e207468697320454e53646f6d61696044820152603760f91b60648201526084016102bb565b600380546001600160a01b0319166001600160a01b03861690811790915560408051638da5cb5b60e01b8152905160009291638da5cb5b9160048083019260209291908290030181865afa1580156106eb573d6000803e3d6000fd5b505050506040513d601f19601f8201168201806040525081019061070f9190611178565b90506001600160a01b038116331461075c5760405162461bcd60e51b815260206004820152601060248201526f3737ba103237b6b0b4b71037bbb732b960811b60448201526064016102bb565b600254604051625efb0b60e41b81526000916001600160a01b0316906305efb0b09061078e9033908b906004016112aa565b602060405180830381865afa1580156107ab573d6000803e3d6000fd5b505050506040513d601f19601f820116820180604052508101906107cf9190611178565b6001600160a01b031614156108f557600b80546001810182556000919091527f0175b7a638427703f0dbe7bb9bbf987a2551717b34e79f33b5b1008d1fa01db90180546001600160a01b0319166001600160a01b038781169190911790915560028054604051634c46272760e11b815292169163988c4e4e916108589189908b906004016112d6565b600060405180830381600087803b15801561087257600080fd5b505af1158015610886573d6000803e3d6000fd5b5050600254604051630ba018b760e31b81526001600160a01b039091169250635d00c5b891506108be9033908a908a90600401611300565b600060405180830381600087803b1580156108d857600080fd5b505af11580156108ec573d6000803e3d6000fd5b5050505061092f565b60405162461bcd60e51b815260206004820152600f60248201526e616c7265616479206973737565642160881b60448201526064016102bb565b505050505050565b61093f610ca5565b6001600160a01b0381166109a45760405162461bcd60e51b815260206004820152602660248201527f4f776e61626c653a206e6577206f776e657220697320746865207a65726f206160448201526564647265737360d01b60648201526084016102bb565b6109ad81610cff565b50565b6109ba8483610d4f565b600154600854604051630178b8bf60e01b815260048101919091526000916001600160a01b031690630178b8bf90602401602060405180830381865afa158015610a08573d6000803e3d6000fd5b505050506040513d601f19601f82011682018060405250810190610a2c9190611178565b6001546008546040516305ef2c7f60e41b81526004810191909152602481018890523060448201526001600160a01b03808416606483015260006084830152929350911690635ef2c7f09060a401600060405180830381600087803b158015610a9457600080fd5b505af1158015610aa8573d6000803e3d6000fd5b5050600154600854604051630c4b7b8560e11b815260048101919091526001600160a01b0385811660248301529091169250631896f70a9150604401600060405180830381600087803b158015610afe57600080fd5b505af1158015610b12573d6000803e3d6000fd5b5050600a54600754604051638b95dd7160e01b81526001600160a01b039092169350638b95dd719250610b4d91603c90600990600401611370565b600060405180830381600087803b158015610b6757600080fd5b505af1158015610b7b573d6000803e3d6000fd5b50506001546008546006546040516306ab592360e01b81526004810192909252602482018a90526001600160a01b03908116604483015290911692506306ab592391506064016020604051808303816000875af1158015610be0573d6000803e3d6000fd5b505050506040513d601f19601f82011682018060405250810190610c049190611195565b506001600160a01b0384811660008181526005602090815260408083208784528252808320805460ff19166001179055928252600481528282208683528152908290208890556008546006548351918252918101899052908316818301529183166060830152517fcc6e575905be59e3e2a0ebe1805959c6f78a4d268432b7e3ae8806b6bf3fdfaa916080908290030190a1610c9e610ee8565b5050505050565b6000546001600160a01b0316331461058d5760405162461bcd60e51b815260206004820181905260248201527f4f776e61626c653a2063616c6c6572206973206e6f7420746865206f776e657260448201526064016102bb565b600080546001600160a01b038381166001600160a01b0319831681178455604051919092169283917f8be0079c531659141344cd1fd0a4f28419497f9722a3daafe3b4186f6b6457e09190a35050565b600680546001600160a01b03191633908117909155604051610d8c919060200160609190911b6bffffffffffffffffffffffff1916815260140190565b60405160208183030381529060405260099080519060200190610db0929190610f1c565b50600081604051602001610dc49190611428565b60408051808303601f1901815282825280516020918201207f93cdeb708b7545dc668eb9280176169d1c33cfd8ed6f04690a0bcc88a93fc4ae91840191909152908201819052915060600160408051808303601f190181528282528051602091820120600881905590830152810184905260600160408051808303601f19018152908290528051602090910120600755600154600854630178b8bf60e01b835260048301526000916001600160a01b0390911690630178b8bf90602401602060405180830381865afa158015610e9e573d6000803e3d6000fd5b505050506040513d601f19601f82011682018060405250810190610ec29190611178565b600a80546001600160a01b0319166001600160a01b039290921691909117905550505050565b600680546001600160a01b03191690556000600781905560088190556040805160208101918290528290526109ad91600991905b828054610f2890611335565b90600052602060002090601f016020900481019282610f4a5760008555610f90565b82601f10610f6357805160ff1916838001178555610f90565b82800160010185558215610f90579182015b82811115610f90578251825591602001919060010190610f75565b50610f9c929150610fa0565b5090565b5b80821115610f9c5760008155600101610fa1565b6001600160a01b03811681146109ad57600080fd5b600080600060608486031215610fdf57600080fd5b83359250602084013591506040840135610ff881610fb5565b809150509250925092565b6000806040838503121561101657600080fd5b823561102181610fb5565b946020939093013593505050565b60006020828403121561104157600080fd5b5035919050565b634e487b7160e01b600052604160045260246000fd5b604051601f8201601f1916810167ffffffffffffffff8111828210171561108757611087611048565b604052919050565b600067ffffffffffffffff8211156110a9576110a9611048565b50601f01601f191660200190565b6000806000606084860312156110cc57600080fd5b833567ffffffffffffffff8111156110e357600080fd5b8401601f810186136110f457600080fd5b80356111076111028261108f565b61105e565b81815287602083850101111561111c57600080fd5b81602084016020830137600060208383010152809550505050602084013561114381610fb5565b929592945050506040919091013590565b60006020828403121561116657600080fd5b813561117181610fb5565b9392505050565b60006020828403121561118a57600080fd5b815161117181610fb5565b6000602082840312156111a757600080fd5b5051919050565b60005b838110156111c95781810151838201526020016111b1565b838111156111d8576000848401525b50505050565b6000602082840312156111f057600080fd5b815167ffffffffffffffff81111561120757600080fd5b8201601f8101841361121857600080fd5b80516112266111028261108f565b81815285602083850101111561123b57600080fd5b61124c8260208301602086016111ae565b95945050505050565b600060001982141561127757634e487b7160e01b600052601160045260246000fd5b5060010190565b600081518084526112968160208601602086016111ae565b601f01601f19169290920160200192915050565b6001600160a01b03831681526040602082018190526000906112ce9083018461127e565b949350505050565b8381526001600160a01b038316602082015260606040820181905260009061124c9083018461127e565b600060018060a01b03808616835260606020840152611322606084018661127e565b9150808416604084015250949350505050565b600181811c9082168061134957607f821691505b6020821081141561136a57634e487b7160e01b600052602260045260246000fd5b50919050565b838152600060208481840152606060408401526000845481600182811c91508083168061139e57607f831692505b8583108114156113bc57634e487b7160e01b85526022600452602485fd5b60608801839052608088018180156113db57600181146113ec57611417565b60ff19861682528782019650611417565b60008b81526020902060005b86811015611411578154848201529085019089016113f8565b83019750505b50949b9a5050505050505050505050565b6000825161143a8184602087016111ae565b919091019291505056fea2646970667358221220bd153ff088be733144b8c2c223bedbc884b8d39dbf035726458ad8424f1523d564736f6c634300080c0033",
  "linkReferences": {},
  "deployedLinkReferences": {}
}