{
  "_format": "hh-sol-artifact-1",
  "contractName": "AnyLinkDomain",
  "sourceName": "contracts/AnyLinkDomain.sol",
  "abi": [
    {
      "inputs": [],
      "stateMutability": "nonpayable",
      "type": "constructor"
    },
    {
      "anonymous": false,
      "inputs": [
        {
          "indexed": false,
          "internalType": "bytes32",
          "name": "node",
          "type": "bytes32"
        },
        {
          "indexed": false,
          "internalType": "bytes32",
          "name": "label",
          "type": "bytes32"
        },
        {
          "indexed": false,
          "internalType": "address",
          "name": "registant",
          "type": "address"
        },
        {
          "indexed": false,
          "internalType": "address",
          "name": "resolver",
          "type": "address"
        }
      ],
      "name": "sendtoEns",
      "type": "event"
    },
    {
      "inputs": [
        {
          "internalType": "uint256",
          "name": "",
          "type": "uint256"
        }
      ],
      "name": "PasscardToDomain",
      "outputs": [
        {
          "internalType": "bytes32",
          "name": "",
          "type": "bytes32"
        }
      ],
      "stateMutability": "view",
      "type": "function"
    },
    {
      "inputs": [
        {
          "internalType": "bytes32",
          "name": "_label",
          "type": "bytes32"
        },
        {
          "internalType": "string",
          "name": "_nodename",
          "type": "string"
        }
      ],
      "name": "claim",
      "outputs": [],
      "stateMutability": "nonpayable",
      "type": "function"
    },
    {
      "inputs": [],
      "name": "controller",
      "outputs": [
        {
          "internalType": "contract IController",
          "name": "",
          "type": "address"
        }
      ],
      "stateMutability": "view",
      "type": "function"
    },
    {
      "inputs": [],
      "name": "ens",
      "outputs": [
        {
          "internalType": "contract IEns",
          "name": "",
          "type": "address"
        }
      ],
      "stateMutability": "view",
      "type": "function"
    },
    {
      "inputs": [
        {
          "internalType": "string",
          "name": "nodename",
          "type": "string"
        }
      ],
      "name": "issueDomain",
      "outputs": [],
      "stateMutability": "nonpayable",
      "type": "function"
    },
    {
      "inputs": [],
      "name": "passcard",
      "outputs": [
        {
          "internalType": "contract PassCard",
          "name": "",
          "type": "address"
        }
      ],
      "stateMutability": "view",
      "type": "function"
    },
    {
      "inputs": [
        {
          "internalType": "uint256",
          "name": "",
          "type": "uint256"
        }
      ],
      "name": "passcardId",
      "outputs": [
        {
          "internalType": "uint256",
          "name": "",
          "type": "uint256"
        }
      ],
      "stateMutability": "view",
      "type": "function"
    },
    {
      "inputs": [],
      "name": "resolver",
      "outputs": [
        {
          "internalType": "contract IResolver",
          "name": "",
          "type": "address"
        }
      ],
      "stateMutability": "view",
      "type": "function"
    },
    {
      "inputs": [],
      "name": "setAddr",
      "outputs": [],
      "stateMutability": "nonpayable",
      "type": "function"
    },
    {
      "inputs": [
        {
          "internalType": "address",
          "name": "_resolver",
          "type": "address"
        }
      ],
      "name": "setResolver",
      "outputs": [],
      "stateMutability": "nonpayable",
      "type": "function"
    },
    {
      "inputs": [],
      "name": "setSubnodeRecord",
      "outputs": [],
      "stateMutability": "nonpayable",
      "type": "function"
    },
    {
      "inputs": [
        {
          "internalType": "address",
          "name": "to",
          "type": "address"
        },
        {
          "internalType": "uint256",
          "name": "tokenId",
          "type": "uint256"
        },
        {
          "internalType": "string",
          "name": "_nodename",
          "type": "string"
        }
      ],
      "name": "transferPassCardAndSubDomain",
      "outputs": [],
      "stateMutability": "nonpayable",
      "type": "function"
    }
  ],
  "bytecode": "0x6080604052600a80546001600160a01b0319167357f1887a8bf19b14fc0df6fd9b2acc9af147ea8517905534801561003657600080fd5b50600880546001600160a01b0319166e0c2e074ec69a0dfb2997ba6c7d2e1e179055610e6b806100676000396000f3fe608060405234801561001057600080fd5b50600436106100b35760003560e01c80634e543b26116100715780634e543b261461016457806374dc483f146101775780639b8be4ee1461018a578063d8ca561a14610192578063f4b381fd1461019a578063f77c4791146101ad57600080fd5b806224a48d146100b857806304f3bcec146100de57806311e84c71146101095780631b62d8721461011e57806332b9afc91461013e5780633f15457f14610151575b600080fd5b6100cb6100c6366004610aff565b6101c0565b6040519081526020015b60405180910390f35b6009546100f1906001600160a01b031681565b6040516001600160a01b0390911681526020016100d5565b61011c610117366004610bbb565b6101e1565b005b6100cb61012c366004610aff565b60016020526000908152604090205481565b61011c61014c366004610c17565b6101ef565b6008546100f1906001600160a01b031681565b61011c610172366004610c70565b610292565b6000546100f1906001600160a01b031681565b61011c6102ff565b61011c610364565b61011c6101a8366004610c94565b61042c565b600a546100f1906001600160a01b031681565b600281815481106101d057600080fd5b600091825260209091200154905081565b6101eb82826104c3565b5050565b6000546040516323b872dd60e01b81523360048201526001600160a01b03858116602483015260448201859052909116906323b872dd90606401600060405180830381600087803b15801561024357600080fd5b505af1158015610257573d6000803e3d6000fd5b50505060008381526001602052604090205490506102758183610860565b610284600654600354866109aa565b61028c610a26565b50505050565b600854600654604051630c4b7b8560e11b815260048101919091526001600160a01b03838116602483015290911690631896f70a90604401600060405180830381600087803b1580156102e457600080fd5b505af11580156102f8573d6000803e3d6000fd5b5050505050565b600954600554604051638b95dd7160e01b81526001600160a01b0390921691638b95dd719161033691603c90600790600401610d0c565b600060405180830381600087803b15801561035057600080fd5b505af115801561028c573d6000803e3d6000fd5b600854600654600354604051630178b8bf60e01b8152600481018390526001600160a01b0390931692635ef2c7f092919030908590630178b8bf90602401602060405180830381865afa1580156103bf573d6000803e3d6000fd5b505050506040513d601f19601f820116820180604052508101906103e39190610dc4565b6040516001600160e01b031960e087901b168152600481019490945260248401929092526001600160a01b0390811660448401521660648201526000608482015260a401610336565b60008160405160200161043f9190610de1565b60408051808303601f19018152908290528051602090910120600a54630a3b53db60e21b83526004830182905230602484015290925082916001600160a01b03909116906328ed4f6c90604401600060405180830381600087803b1580156104a657600080fd5b505af11580156104ba573d6000803e3d6000fd5b50505050505050565b6104cd8282610860565b600854600654600354604051630178b8bf60e01b8152600481018390526001600160a01b0390931692635ef2c7f092919033908590630178b8bf90602401602060405180830381865afa158015610528573d6000803e3d6000fd5b505050506040513d601f19601f8201168201806040525081019061054c9190610dc4565b6040516001600160e01b031960e087901b168152600481019490945260248401929092526001600160a01b0390811660448401521660648201526000608482015260a401600060405180830381600087803b1580156105aa57600080fd5b505af11580156105be573d6000803e3d6000fd5b5050600854600654604051630178b8bf60e01b8152600481018290526001600160a01b039092169350631896f70a9250908390630178b8bf90602401602060405180830381865afa158015610617573d6000803e3d6000fd5b505050506040513d601f19601f8201168201806040525081019061063b9190610dc4565b6040516001600160e01b031960e085901b16815260048101929092526001600160a01b03166024820152604401600060405180830381600087803b15801561068257600080fd5b505af1158015610696573d6000803e3d6000fd5b5050600954600554604051638b95dd7160e01b81526001600160a01b039092169350638b95dd7192506106d191603c90600790600401610d0c565b600060405180830381600087803b1580156106eb57600080fd5b505af11580156106ff573d6000803e3d6000fd5b5050600854600654600354600480546040516306ab592360e01b81529182019390935260248101919091526001600160a01b039182166044820152911692506306ab592391506064016020604051808303816000875af1158015610767573d6000803e3d6000fd5b505050506040513d601f19601f8201168201806040525081019061078b9190610e1c565b5060065460035460048054600854604051630178b8bf60e01b81529283018590527fcc6e575905be59e3e2a0ebe1805959c6f78a4d268432b7e3ae8806b6bf3fdfaa9493926001600160a01b039283169290911690630178b8bf90602401602060405180830381865afa158015610806573d6000803e3d6000fd5b505050506040513d601f19601f8201168201806040525081019061082a9190610dc4565b6040805194855260208501939093526001600160a01b0391821684840152166060830152519081900360800190a16101eb610a26565b600480546001600160a01b03191632179055604051600090610886908390602001610de1565b60408051808303601f1901815282825280516020918201207f93cdeb708b7545dc668eb9280176169d1c33cfd8ed6f04690a0bcc88a93fc4ae91840191909152908201819052915060600160408051808303601f190181528282528051602091820120600681905590830152810184905260600160408051808303601f19018152908290528051602090910120600555600854600654630178b8bf60e01b835260048301526000916001600160a01b0390911690630178b8bf90602401602060405180830381865afa158015610960573d6000803e3d6000fd5b505050506040513d601f19601f820116820180604052508101906109849190610dc4565b600980546001600160a01b0319166001600160a01b039290921691909117905550505050565b6008546040516306ab592360e01b815260048101859052602481018490523360448201526001600160a01b03909116906306ab5923906064016020604051808303816000875af1158015610a02573d6000803e3d6000fd5b505050506040513d601f19601f8201168201806040525081019061028c9190610e1c565b60006003819055600480546001600160a01b031916905560058190556006819055604080516020810191829052829052610a639160079190610a66565b50565b828054610a7290610cd1565b90600052602060002090601f016020900481019282610a945760008555610ada565b82601f10610aad57805160ff1916838001178555610ada565b82800160010185558215610ada579182015b82811115610ada578251825591602001919060010190610abf565b50610ae6929150610aea565b5090565b5b80821115610ae65760008155600101610aeb565b600060208284031215610b1157600080fd5b5035919050565b634e487b7160e01b600052604160045260246000fd5b600082601f830112610b3f57600080fd5b813567ffffffffffffffff80821115610b5a57610b5a610b18565b604051601f8301601f19908116603f01168101908282118183101715610b8257610b82610b18565b81604052838152866020858801011115610b9b57600080fd5b836020870160208301376000602085830101528094505050505092915050565b60008060408385031215610bce57600080fd5b82359150602083013567ffffffffffffffff811115610bec57600080fd5b610bf885828601610b2e565b9150509250929050565b6001600160a01b0381168114610a6357600080fd5b600080600060608486031215610c2c57600080fd5b8335610c3781610c02565b925060208401359150604084013567ffffffffffffffff811115610c5a57600080fd5b610c6686828701610b2e565b9150509250925092565b600060208284031215610c8257600080fd5b8135610c8d81610c02565b9392505050565b600060208284031215610ca657600080fd5b813567ffffffffffffffff811115610cbd57600080fd5b610cc984828501610b2e565b949350505050565b600181811c90821680610ce557607f821691505b60208210811415610d0657634e487b7160e01b600052602260045260246000fd5b50919050565b838152600060208481840152606060408401526000845481600182811c915080831680610d3a57607f831692505b858310811415610d5857634e487b7160e01b85526022600452602485fd5b6060880183905260808801818015610d775760018114610d8857610db3565b60ff19861682528782019650610db3565b60008b81526020902060005b86811015610dad57815484820152908501908901610d94565b83019750505b50949b9a5050505050505050505050565b600060208284031215610dd657600080fd5b8151610c8d81610c02565b6000825160005b81811015610e025760208186018101518583015201610de8565b81811115610e11576000828501525b509190910192915050565b600060208284031215610e2e57600080fd5b505191905056fea2646970667358221220767ed240fbec155258ec4f1a3c8f21a3d4d7a58d7aefca06966686e1dea0f15864736f6c634300080c0033",
  "linkReferences": {},
  "deployedLinkReferences": {}
}