{
  "_format": "hh-sol-artifact-1",
  "contractName": "AnyLinkDomain",
  "sourceName": "contracts/AnyLinkDomain.sol",
  "abi": [
    {
      "inputs": [],
      "stateMutability": "nonpayable",
      "type": "constructor"
    },
    {
      "anonymous": false,
      "inputs": [
        {
          "indexed": false,
          "internalType": "bytes32",
          "name": "node",
          "type": "bytes32"
        },
        {
          "indexed": false,
          "internalType": "bytes32",
          "name": "label",
          "type": "bytes32"
        },
        {
          "indexed": false,
          "internalType": "address",
          "name": "registant",
          "type": "address"
        },
        {
          "indexed": false,
          "internalType": "address",
          "name": "resolver",
          "type": "address"
        }
      ],
      "name": "sendtoEns",
      "type": "event"
    },
    {
      "inputs": [
        {
          "internalType": "uint256",
          "name": "",
          "type": "uint256"
        }
      ],
      "name": "PasscardToDomain",
      "outputs": [
        {
          "internalType": "bytes32",
          "name": "",
          "type": "bytes32"
        }
      ],
      "stateMutability": "view",
      "type": "function"
    },
    {
      "inputs": [
        {
          "internalType": "bytes32",
          "name": "_label",
          "type": "bytes32"
        },
        {
          "internalType": "string",
          "name": "_nodename",
          "type": "string"
        }
      ],
      "name": "claim",
      "outputs": [],
      "stateMutability": "nonpayable",
      "type": "function"
    },
    {
      "inputs": [],
      "name": "controller",
      "outputs": [
        {
          "internalType": "contract IController",
          "name": "",
          "type": "address"
        }
      ],
      "stateMutability": "view",
      "type": "function"
    },
    {
      "inputs": [],
      "name": "ens",
      "outputs": [
        {
          "internalType": "contract IEns",
          "name": "",
          "type": "address"
        }
      ],
      "stateMutability": "view",
      "type": "function"
    },
    {
      "inputs": [
        {
          "internalType": "string",
          "name": "nodename",
          "type": "string"
        }
      ],
      "name": "issueDomain",
      "outputs": [],
      "stateMutability": "nonpayable",
      "type": "function"
    },
    {
      "inputs": [],
      "name": "passcard",
      "outputs": [
        {
          "internalType": "contract PassCard",
          "name": "",
          "type": "address"
        }
      ],
      "stateMutability": "view",
      "type": "function"
    },
    {
      "inputs": [
        {
          "internalType": "uint256",
          "name": "",
          "type": "uint256"
        }
      ],
      "name": "passcardId",
      "outputs": [
        {
          "internalType": "uint256",
          "name": "",
          "type": "uint256"
        }
      ],
      "stateMutability": "view",
      "type": "function"
    },
    {
      "inputs": [],
      "name": "resolver",
      "outputs": [
        {
          "internalType": "contract IResolver",
          "name": "",
          "type": "address"
        }
      ],
      "stateMutability": "view",
      "type": "function"
    },
    {
      "inputs": [],
      "name": "setAddr",
      "outputs": [],
      "stateMutability": "nonpayable",
      "type": "function"
    },
    {
      "inputs": [
        {
          "internalType": "address",
          "name": "_resolver",
          "type": "address"
        }
      ],
      "name": "setResolver",
      "outputs": [],
      "stateMutability": "nonpayable",
      "type": "function"
    },
    {
      "inputs": [
        {
          "internalType": "bytes32",
          "name": "_label",
          "type": "bytes32"
        }
      ],
      "name": "setSubnodeRecord",
      "outputs": [],
      "stateMutability": "nonpayable",
      "type": "function"
    }
  ],
  "bytecode": "0x6080604052600080546001600160a01b0319167357f1887a8bf19b14fc0df6fd9b2acc9af147ea8517905534801561003657600080fd5b50600880546001600160a01b0319166e0c2e074ec69a0dfb2997ba6c7d2e1e179055610c4a806100676000396000f3fe608060405234801561001057600080fd5b50600436106100a85760003560e01c80634e543b26116100715780634e543b261461014657806374dc483f1461015957806376a3969e1461016c5780639b8be4ee1461017f578063f4b381fd14610187578063f77c47911461019a57600080fd5b806224a48d146100ad57806304f3bcec146100d357806311e84c71146100fe5780631b62d872146101135780633f15457f14610133575b600080fd5b6100c06100bb366004610937565b6101ad565b6040519081526020015b60405180910390f35b6009546100e6906001600160a01b031681565b6040516001600160a01b0390911681526020016100ca565b61011161010c3660046109f3565b6101ce565b005b6100c0610121366004610937565b60026020526000908152604090205481565b6008546100e6906001600160a01b031681565b610111610154366004610a4f565b6101dc565b6001546100e6906001600160a01b031681565b61011161017a366004610937565b61024a565b610111610310565b610111610195366004610a73565b61037b565b6000546100e6906001600160a01b031681565b600381815481106101bd57600080fd5b600091825260209091200154905081565b6101d88282610412565b5050565b600854600654604051630c4b7b8560e11b815260048101919091526001600160a01b03838116602483015290911690631896f70a906044015b600060405180830381600087803b15801561022f57600080fd5b505af1158015610243573d6000803e3d6000fd5b5050505050565b600854600654604051630178b8bf60e01b8152600481018290526001600160a01b0390921691635ef2c7f09190849030908590630178b8bf90602401602060405180830381865afa1580156102a3573d6000803e3d6000fd5b505050506040513d601f19601f820116820180604052508101906102c79190610ab0565b6040516001600160e01b031960e087901b168152600481019490945260248401929092526001600160a01b0390811660448401521660648201526000608482015260a401610215565b600954600554604051638b95dd7160e01b81526001600160a01b0390921691638b95dd719161034791603c90600790600401610b08565b600060405180830381600087803b15801561036157600080fd5b505af1158015610375573d6000803e3d6000fd5b50505050565b60008160405160200161038e9190610bc0565b60408051808303601f19018152908290528051602090910120600054630a3b53db60e21b83526004830182905230602484015290925082916001600160a01b03909116906328ed4f6c90604401600060405180830381600087803b1580156103f557600080fd5b505af1158015610409573d6000803e3d6000fd5b50505050505050565b61041c82826106ca565b600854600654604051630178b8bf60e01b815260048101919091526000916001600160a01b031690630178b8bf90602401602060405180830381865afa15801561046a573d6000803e3d6000fd5b505050506040513d601f19601f8201168201806040525081019061048e9190610ab0565b6008546006546040516305ef2c7f60e41b81526004810191909152602481018690523060448201526001600160a01b03808416606483015260006084830152929350911690635ef2c7f09060a401600060405180830381600087803b1580156104f657600080fd5b505af115801561050a573d6000803e3d6000fd5b5050600854600654604051630c4b7b8560e11b815260048101919091526001600160a01b0385811660248301529091169250631896f70a9150604401600060405180830381600087803b15801561056057600080fd5b505af1158015610574573d6000803e3d6000fd5b5050600954600554604051638b95dd7160e01b81526001600160a01b039092169350638b95dd7192506105af91603c90600790600401610b08565b600060405180830381600087803b1580156105c957600080fd5b505af11580156105dd573d6000803e3d6000fd5b5050600854600654600480546040516306ab592360e01b815291820192909252602481018890526001600160a01b039182166044820152911692506306ab592391506064016020604051808303816000875af1158015610641573d6000803e3d6000fd5b505050506040513d601f19601f820116820180604052508101906106659190610bfb565b5060065460045460408051928352602083018690526001600160a01b0391821690830152821660608201527fcc6e575905be59e3e2a0ebe1805959c6f78a4d268432b7e3ae8806b6bf3fdfaa9060800160405180910390a16106c5610863565b505050565b600480546001600160a01b03191632908117909155604051610707919060200160609190911b6bffffffffffffffffffffffff1916815260140190565b6040516020818303038152906040526007908051906020019061072b92919061089e565b5060008160405160200161073f9190610bc0565b60408051808303601f1901815282825280516020918201207f93cdeb708b7545dc668eb9280176169d1c33cfd8ed6f04690a0bcc88a93fc4ae91840191909152908201819052915060600160408051808303601f190181528282528051602091820120600681905590830152810184905260600160408051808303601f19018152908290528051602090910120600555600854600654630178b8bf60e01b835260048301526000916001600160a01b0390911690630178b8bf90602401602060405180830381865afa158015610819573d6000803e3d6000fd5b505050506040513d601f19601f8201168201806040525081019061083d9190610ab0565b600980546001600160a01b0319166001600160a01b039290921691909117905550505050565b600480546001600160a01b031916905560006005819055600681905560408051602081019182905282905261089b916007919061089e565b50565b8280546108aa90610acd565b90600052602060002090601f0160209004810192826108cc5760008555610912565b82601f106108e557805160ff1916838001178555610912565b82800160010185558215610912579182015b828111156109125782518255916020019190600101906108f7565b5061091e929150610922565b5090565b5b8082111561091e5760008155600101610923565b60006020828403121561094957600080fd5b5035919050565b634e487b7160e01b600052604160045260246000fd5b600082601f83011261097757600080fd5b813567ffffffffffffffff8082111561099257610992610950565b604051601f8301601f19908116603f011681019082821181831017156109ba576109ba610950565b816040528381528660208588010111156109d357600080fd5b836020870160208301376000602085830101528094505050505092915050565b60008060408385031215610a0657600080fd5b82359150602083013567ffffffffffffffff811115610a2457600080fd5b610a3085828601610966565b9150509250929050565b6001600160a01b038116811461089b57600080fd5b600060208284031215610a6157600080fd5b8135610a6c81610a3a565b9392505050565b600060208284031215610a8557600080fd5b813567ffffffffffffffff811115610a9c57600080fd5b610aa884828501610966565b949350505050565b600060208284031215610ac257600080fd5b8151610a6c81610a3a565b600181811c90821680610ae157607f821691505b60208210811415610b0257634e487b7160e01b600052602260045260246000fd5b50919050565b838152600060208481840152606060408401526000845481600182811c915080831680610b3657607f831692505b858310811415610b5457634e487b7160e01b85526022600452602485fd5b6060880183905260808801818015610b735760018114610b8457610baf565b60ff19861682528782019650610baf565b60008b81526020902060005b86811015610ba957815484820152908501908901610b90565b83019750505b50949b9a5050505050505050505050565b6000825160005b81811015610be15760208186018101518583015201610bc7565b81811115610bf0576000828501525b509190910192915050565b600060208284031215610c0d57600080fd5b505191905056fea2646970667358221220c1559485beb11968633506e8e7b104b57cb7a292de82d4c457d511f563dca85f64736f6c634300080c0033",
  "linkReferences": {},
  "deployedLinkReferences": {}
}