{
  "_format": "hh-sol-artifact-1",
  "contractName": "AnyLinkDomain",
  "sourceName": "contracts/AnyLinkDomain.sol",
  "abi": [
    {
      "inputs": [],
      "stateMutability": "nonpayable",
      "type": "constructor"
    },
    {
      "anonymous": false,
      "inputs": [
        {
          "indexed": true,
          "internalType": "address",
          "name": "previousOwner",
          "type": "address"
        },
        {
          "indexed": true,
          "internalType": "address",
          "name": "newOwner",
          "type": "address"
        }
      ],
      "name": "OwnershipTransferred",
      "type": "event"
    },
    {
      "anonymous": false,
      "inputs": [
        {
          "indexed": false,
          "internalType": "bytes32",
          "name": "node",
          "type": "bytes32"
        },
        {
          "indexed": false,
          "internalType": "bytes32",
          "name": "label",
          "type": "bytes32"
        },
        {
          "indexed": false,
          "internalType": "address",
          "name": "registant",
          "type": "address"
        },
        {
          "indexed": false,
          "internalType": "address",
          "name": "resolver",
          "type": "address"
        }
      ],
      "name": "sendtoEns",
      "type": "event"
    },
    {
      "inputs": [
        {
          "internalType": "uint256",
          "name": "",
          "type": "uint256"
        }
      ],
      "name": "ENS_RECORD_ARR",
      "outputs": [
        {
          "internalType": "uint256",
          "name": "index",
          "type": "uint256"
        },
        {
          "internalType": "address",
          "name": "contractAddress",
          "type": "address"
        },
        {
          "internalType": "string",
          "name": "domain",
          "type": "string"
        }
      ],
      "stateMutability": "view",
      "type": "function"
    },
    {
      "inputs": [
        {
          "internalType": "address",
          "name": "",
          "type": "address"
        },
        {
          "internalType": "string",
          "name": "",
          "type": "string"
        }
      ],
      "name": "ProJectTeam",
      "outputs": [
        {
          "internalType": "address",
          "name": "",
          "type": "address"
        }
      ],
      "stateMutability": "view",
      "type": "function"
    },
    {
      "inputs": [],
      "name": "StorageDomainAddr",
      "outputs": [
        {
          "internalType": "address",
          "name": "",
          "type": "address"
        }
      ],
      "stateMutability": "view",
      "type": "function"
    },
    {
      "inputs": [
        {
          "internalType": "address",
          "name": "",
          "type": "address"
        },
        {
          "internalType": "address",
          "name": "",
          "type": "address"
        },
        {
          "internalType": "bytes32",
          "name": "",
          "type": "bytes32"
        }
      ],
      "name": "UserSubDomain",
      "outputs": [
        {
          "internalType": "uint256",
          "name": "",
          "type": "uint256"
        }
      ],
      "stateMutability": "view",
      "type": "function"
    },
    {
      "inputs": [
        {
          "components": [
            {
              "internalType": "uint256",
              "name": "index",
              "type": "uint256"
            },
            {
              "internalType": "address",
              "name": "contractAddress",
              "type": "address"
            },
            {
              "internalType": "string",
              "name": "domain",
              "type": "string"
            }
          ],
          "internalType": "struct StorageDomain.ENS_RECORD",
          "name": "ens_record",
          "type": "tuple"
        }
      ],
      "name": "_putENS_RECORD",
      "outputs": [
        {
          "components": [
            {
              "internalType": "uint256",
              "name": "index",
              "type": "uint256"
            },
            {
              "internalType": "address",
              "name": "contractAddress",
              "type": "address"
            },
            {
              "internalType": "string",
              "name": "domain",
              "type": "string"
            }
          ],
          "internalType": "struct StorageDomain.ENS_RECORD",
          "name": "",
          "type": "tuple"
        }
      ],
      "stateMutability": "nonpayable",
      "type": "function"
    },
    {
      "inputs": [
        {
          "internalType": "address",
          "name": "sender",
          "type": "address"
        },
        {
          "internalType": "string",
          "name": "domain",
          "type": "string"
        },
        {
          "internalType": "address",
          "name": "adr",
          "type": "address"
        }
      ],
      "name": "_setProJectTeam",
      "outputs": [],
      "stateMutability": "nonpayable",
      "type": "function"
    },
    {
      "inputs": [
        {
          "internalType": "address",
          "name": "sender",
          "type": "address"
        },
        {
          "internalType": "address",
          "name": "adr",
          "type": "address"
        },
        {
          "internalType": "bytes32",
          "name": "label",
          "type": "bytes32"
        },
        {
          "internalType": "uint256",
          "name": "tokenId",
          "type": "uint256"
        }
      ],
      "name": "_setUserSubDomain",
      "outputs": [],
      "stateMutability": "nonpayable",
      "type": "function"
    },
    {
      "inputs": [
        {
          "internalType": "bytes32",
          "name": "_label",
          "type": "bytes32"
        },
        {
          "internalType": "string",
          "name": "_nodename",
          "type": "string"
        }
      ],
      "name": "claim",
      "outputs": [],
      "stateMutability": "nonpayable",
      "type": "function"
    },
    {
      "inputs": [],
      "name": "controller",
      "outputs": [
        {
          "internalType": "contract IController",
          "name": "",
          "type": "address"
        }
      ],
      "stateMutability": "view",
      "type": "function"
    },
    {
      "inputs": [],
      "name": "ens",
      "outputs": [
        {
          "internalType": "contract IENS",
          "name": "",
          "type": "address"
        }
      ],
      "stateMutability": "view",
      "type": "function"
    },
    {
      "inputs": [],
      "name": "getENSRecordArrLength",
      "outputs": [
        {
          "internalType": "uint256",
          "name": "",
          "type": "uint256"
        }
      ],
      "stateMutability": "view",
      "type": "function"
    },
    {
      "inputs": [],
      "name": "owner",
      "outputs": [
        {
          "internalType": "address",
          "name": "",
          "type": "address"
        }
      ],
      "stateMutability": "view",
      "type": "function"
    },
    {
      "inputs": [
        {
          "internalType": "uint256",
          "name": "",
          "type": "uint256"
        }
      ],
      "name": "passcardId",
      "outputs": [
        {
          "internalType": "uint256",
          "name": "",
          "type": "uint256"
        }
      ],
      "stateMutability": "view",
      "type": "function"
    },
    {
      "inputs": [],
      "name": "renounceOwnership",
      "outputs": [],
      "stateMutability": "nonpayable",
      "type": "function"
    },
    {
      "inputs": [],
      "name": "resolver",
      "outputs": [
        {
          "internalType": "contract IResolver",
          "name": "",
          "type": "address"
        }
      ],
      "stateMutability": "view",
      "type": "function"
    },
    {
      "inputs": [],
      "name": "setAddr",
      "outputs": [],
      "stateMutability": "nonpayable",
      "type": "function"
    },
    {
      "inputs": [
        {
          "internalType": "address",
          "name": "_DaoDomain",
          "type": "address"
        },
        {
          "internalType": "address",
          "name": "_NFTDomain",
          "type": "address"
        },
        {
          "internalType": "address",
          "name": "_AnyLinkDomain",
          "type": "address"
        }
      ],
      "name": "setAuthorityContract",
      "outputs": [],
      "stateMutability": "nonpayable",
      "type": "function"
    },
    {
      "inputs": [
        {
          "internalType": "address",
          "name": "_resolver",
          "type": "address"
        }
      ],
      "name": "setResolver",
      "outputs": [],
      "stateMutability": "nonpayable",
      "type": "function"
    },
    {
      "inputs": [
        {
          "internalType": "address",
          "name": "StorageDomainAdr",
          "type": "address"
        }
      ],
      "name": "setStorafeDomainAdr",
      "outputs": [],
      "stateMutability": "nonpayable",
      "type": "function"
    },
    {
      "inputs": [
        {
          "internalType": "bytes32",
          "name": "_label",
          "type": "bytes32"
        }
      ],
      "name": "setSubnodeRecord",
      "outputs": [],
      "stateMutability": "nonpayable",
      "type": "function"
    },
    {
      "inputs": [],
      "name": "storagedomain",
      "outputs": [
        {
          "internalType": "contract StorageDomain",
          "name": "",
          "type": "address"
        }
      ],
      "stateMutability": "view",
      "type": "function"
    },
    {
      "inputs": [
        {
          "internalType": "address",
          "name": "newOwner",
          "type": "address"
        }
      ],
      "name": "transferOwnership",
      "outputs": [],
      "stateMutability": "nonpayable",
      "type": "function"
    }
  ],
  "bytecode": "0x6080604052600880546001600160a01b0319167357f1887a8bf19b14fc0df6fd9b2acc9af147ea8517905534801561003657600080fd5b5061004033610066565b600180546001600160a01b0319166e0c2e074ec69a0dfb2997ba6c7d2e1e1790556100b6565b600080546001600160a01b038381166001600160a01b0319831681178455604051919092169283917f8be0079c531659141344cd1fd0a4f28419497f9722a3daafe3b4186f6b6457e09190a35050565b6113bc806100c56000396000f3fe608060405234801561001057600080fd5b50600436106101415760003560e01c8063715018a6116100b8578063a28ec7ac1161007c578063a28ec7ac146102a0578063acb4344e146102c2578063bc0b6c4e14610307578063f2fde38b1461031a578063f77c47911461032d578063ff117ae91461034057600080fd5b8063715018a61461023b57806376a3969e146102435780638da5cb5b1461025657806394458c37146102675780639b8be4ee1461029857600080fd5b80631c9e20231161010a5780631c9e2023146101c75780632ad627ea146101da5780633f15457f146101fa57806341a5e6df1461020d57806345b56cc4146102205780634e543b261461022857600080fd5b806224a48d146101465780630125c2c71461016c57806304f3bcec1461018157806311e84c71146101ac57806315a54451146101bf575b600080fd5b610159610154366004610e36565b610384565b6040519081526020015b60405180910390f35b61017f61017a366004610e64565b6103a5565b005b600f54610194906001600160a01b031681565b6040516001600160a01b039091168152602001610163565b61017f6101ba366004610f52565b6103ec565b600454610159565b61017f6101d5366004610f99565b6103fa565b6101ed6101e8366004610ff2565b610458565b60405161016391906110ea565b600154610194906001600160a01b031681565b600954610194906001600160a01b031681565b61019461053a565b61017f610236366004611129565b610549565b61017f6105b7565b61017f610251366004610e36565b6105cb565b6000546001600160a01b0316610194565b61015961027536600461114d565b600360209081526000938452604080852082529284528284209052825290205481565b61017f610691565b6102b36102ae366004610e36565b6106fc565b6040516101639392919061118e565b6101946102d03660046111c1565b600260209081526000928352604090922081518083018401805192815290840192909301919091209152546001600160a01b031681565b61017f610315366004611129565b6107c5565b61017f610328366004611129565b6107ef565b600854610194906001600160a01b031681565b61017f61034e3660046111fb565b6001600160a01b039384166000908152600360209081526040808320959096168252938452848120928152919092529190912055565b600a818154811061039457600080fd5b600091825260209091200154905081565b6103ad61086d565b600580546001600160a01b039485166001600160a01b031991821617909155600680549385169382169390931790925560078054919093169116179055565b6103f682826108c7565b5050565b6001600160a01b038316600090815260026020526040908190209051829190610424908590611241565b90815260405190819003602001902080546001600160a01b03929092166001600160a01b0319909216919091179055505050565b604080516060808201835260008083526020830152918101919091526004805460018101825560009190915282517f8a35acfbc15ff81a39ae7d344fd709f28e8600b4aa8c65c6b64bfe7fe36bd19b60039092029182019081556020808501517f8a35acfbc15ff81a39ae7d344fd709f28e8600b4aa8c65c6b64bfe7fe36bd19c840180546001600160a01b0319166001600160a01b03909216919091179055604085015180518694610531937f8a35acfbc15ff81a39ae7d344fd709f28e8600b4aa8c65c6b64bfe7fe36bd19d909101920190610d9d565b50929392505050565b600061054461086d565b503090565b600154600d54604051630c4b7b8560e11b815260048101919091526001600160a01b03838116602483015290911690631896f70a906044015b600060405180830381600087803b15801561059c57600080fd5b505af11580156105b0573d6000803e3d6000fd5b5050505050565b6105bf61086d565b6105c96000610b80565b565b600154600d54604051630178b8bf60e01b8152600481018290526001600160a01b0390921691635ef2c7f09190849030908590630178b8bf90602401602060405180830381865afa158015610624573d6000803e3d6000fd5b505050506040513d601f19601f82011682018060405250810190610648919061125d565b6040516001600160e01b031960e087901b168152600481019490945260248401929092526001600160a01b0390811660448401521660648201526000608482015260a401610582565b600f54600c54604051638b95dd7160e01b81526001600160a01b0390921691638b95dd71916106c891603c90600e906004016112b5565b600060405180830381600087803b1580156106e257600080fd5b505af11580156106f6573d6000803e3d6000fd5b50505050565b6004818154811061070c57600080fd5b60009182526020909120600390910201805460018201546002830180549294506001600160a01b0390911692916107429061127a565b80601f016020809104026020016040519081016040528092919081815260200182805461076e9061127a565b80156107bb5780601f10610790576101008083540402835291602001916107bb565b820191906000526020600020905b81548152906001019060200180831161079e57829003601f168201915b5050505050905083565b6107cd61086d565b600980546001600160a01b0319166001600160a01b0392909216919091179055565b6107f761086d565b6001600160a01b0381166108615760405162461bcd60e51b815260206004820152602660248201527f4f776e61626c653a206e6577206f776e657220697320746865207a65726f206160448201526564647265737360d01b60648201526084015b60405180910390fd5b61086a81610b80565b50565b6000546001600160a01b031633146105c95760405162461bcd60e51b815260206004820181905260248201527f4f776e61626c653a2063616c6c6572206973206e6f7420746865206f776e65726044820152606401610858565b6108d18282610bd0565b600154600d54604051630178b8bf60e01b815260048101919091526000916001600160a01b031690630178b8bf90602401602060405180830381865afa15801561091f573d6000803e3d6000fd5b505050506040513d601f19601f82011682018060405250810190610943919061125d565b600154600d546040516305ef2c7f60e41b81526004810191909152602481018690523060448201526001600160a01b03808416606483015260006084830152929350911690635ef2c7f09060a401600060405180830381600087803b1580156109ab57600080fd5b505af11580156109bf573d6000803e3d6000fd5b5050600154600d54604051630c4b7b8560e11b815260048101919091526001600160a01b0385811660248301529091169250631896f70a9150604401600060405180830381600087803b158015610a1557600080fd5b505af1158015610a29573d6000803e3d6000fd5b5050600f54600c54604051638b95dd7160e01b81526001600160a01b039092169350638b95dd719250610a6491603c90600e906004016112b5565b600060405180830381600087803b158015610a7e57600080fd5b505af1158015610a92573d6000803e3d6000fd5b5050600154600d54600b546040516306ab592360e01b81526004810192909252602482018890526001600160a01b03908116604483015290911692506306ab592391506064016020604051808303816000875af1158015610af7573d6000803e3d6000fd5b505050506040513d601f19601f82011682018060405250810190610b1b919061136d565b50600d54600b5460408051928352602083018690526001600160a01b0391821690830152821660608201527fcc6e575905be59e3e2a0ebe1805959c6f78a4d268432b7e3ae8806b6bf3fdfaa9060800160405180910390a1610b7b610d69565b505050565b600080546001600160a01b038381166001600160a01b0319831681178455604051919092169283917f8be0079c531659141344cd1fd0a4f28419497f9722a3daafe3b4186f6b6457e09190a35050565b600b80546001600160a01b03191633908117909155604051610c0d919060200160609190911b6bffffffffffffffffffffffff1916815260140190565b604051602081830303815290604052600e9080519060200190610c31929190610d9d565b50600081604051602001610c459190611241565b60408051808303601f1901815282825280516020918201207f93cdeb708b7545dc668eb9280176169d1c33cfd8ed6f04690a0bcc88a93fc4ae91840191909152908201819052915060600160408051808303601f190181528282528051602091820120600d81905590830152810184905260600160408051808303601f19018152908290528051602090910120600c55600154600d54630178b8bf60e01b835260048301526000916001600160a01b0390911690630178b8bf90602401602060405180830381865afa158015610d1f573d6000803e3d6000fd5b505050506040513d601f19601f82011682018060405250810190610d43919061125d565b600f80546001600160a01b0319166001600160a01b039290921691909117905550505050565b600b80546001600160a01b03191690556000600c819055600d81905560408051602081019182905282905261086a91600e91905b828054610da99061127a565b90600052602060002090601f016020900481019282610dcb5760008555610e11565b82601f10610de457805160ff1916838001178555610e11565b82800160010185558215610e11579182015b82811115610e11578251825591602001919060010190610df6565b50610e1d929150610e21565b5090565b5b80821115610e1d5760008155600101610e22565b600060208284031215610e4857600080fd5b5035919050565b6001600160a01b038116811461086a57600080fd5b600080600060608486031215610e7957600080fd5b8335610e8481610e4f565b92506020840135610e9481610e4f565b91506040840135610ea481610e4f565b809150509250925092565b634e487b7160e01b600052604160045260246000fd5b600082601f830112610ed657600080fd5b813567ffffffffffffffff80821115610ef157610ef1610eaf565b604051601f8301601f19908116603f01168101908282118183101715610f1957610f19610eaf565b81604052838152866020858801011115610f3257600080fd5b836020870160208301376000602085830101528094505050505092915050565b60008060408385031215610f6557600080fd5b82359150602083013567ffffffffffffffff811115610f8357600080fd5b610f8f85828601610ec5565b9150509250929050565b600080600060608486031215610fae57600080fd5b8335610fb981610e4f565b9250602084013567ffffffffffffffff811115610fd557600080fd5b610fe186828701610ec5565b9250506040840135610ea481610e4f565b60006020828403121561100457600080fd5b813567ffffffffffffffff8082111561101c57600080fd5b908301906060828603121561103057600080fd5b60405160608101818110838211171561104b5761104b610eaf565b60405282358152602083013561106081610e4f565b602082015260408301358281111561107757600080fd5b61108387828601610ec5565b60408301525095945050505050565b60005b838110156110ad578181015183820152602001611095565b838111156106f65750506000910152565b600081518084526110d6816020860160208601611092565b601f01601f19169290920160200192915050565b602081528151602082015260018060a01b0360208301511660408201526000604083015160608084015261112160808401826110be565b949350505050565b60006020828403121561113b57600080fd5b813561114681610e4f565b9392505050565b60008060006060848603121561116257600080fd5b833561116d81610e4f565b9250602084013561117d81610e4f565b929592945050506040919091013590565b8381526001600160a01b03831660208201526060604082018190526000906111b8908301846110be565b95945050505050565b600080604083850312156111d457600080fd5b82356111df81610e4f565b9150602083013567ffffffffffffffff811115610f8357600080fd5b6000806000806080858703121561121157600080fd5b843561121c81610e4f565b9350602085013561122c81610e4f565b93969395505050506040820135916060013590565b60008251611253818460208701611092565b9190910192915050565b60006020828403121561126f57600080fd5b815161114681610e4f565b600181811c9082168061128e57607f821691505b602082108114156112af57634e487b7160e01b600052602260045260246000fd5b50919050565b838152600060208481840152606060408401526000845481600182811c9150808316806112e357607f831692505b85831081141561130157634e487b7160e01b85526022600452602485fd5b606088018390526080880181801561132057600181146113315761135c565b60ff1986168252878201965061135c565b60008b81526020902060005b868110156113565781548482015290850190890161133d565b83019750505b50949b9a5050505050505050505050565b60006020828403121561137f57600080fd5b505191905056fea2646970667358221220da31c0f2f21fbd9c57b562359633c712c89f7f9200f100e17b0d97b0c9ff8d3064736f6c634300080c0033",
  "linkReferences": {},
  "deployedLinkReferences": {}
}