{
  "_format": "hh-sol-artifact-1",
  "contractName": "SetAzukiDomain",
  "sourceName": "contracts/SetAzukiDomain.sol",
  "abi": [
    {
      "inputs": [],
      "stateMutability": "nonpayable",
      "type": "constructor"
    },
    {
      "anonymous": false,
      "inputs": [
        {
          "indexed": false,
          "internalType": "bytes32",
          "name": "node",
          "type": "bytes32"
        },
        {
          "indexed": false,
          "internalType": "bytes32",
          "name": "label",
          "type": "bytes32"
        },
        {
          "indexed": false,
          "internalType": "address",
          "name": "registant",
          "type": "address"
        },
        {
          "indexed": false,
          "internalType": "address",
          "name": "resolver",
          "type": "address"
        }
      ],
      "name": "sendtoEns",
      "type": "event"
    },
    {
      "inputs": [],
      "name": "azuki",
      "outputs": [
        {
          "internalType": "contract IAzuki",
          "name": "",
          "type": "address"
        }
      ],
      "stateMutability": "view",
      "type": "function"
    },
    {
      "inputs": [],
      "name": "ens",
      "outputs": [
        {
          "internalType": "contract ENS",
          "name": "",
          "type": "address"
        }
      ],
      "stateMutability": "view",
      "type": "function"
    },
    {
      "inputs": [],
      "name": "resolver",
      "outputs": [
        {
          "internalType": "contract IResolver",
          "name": "",
          "type": "address"
        }
      ],
      "stateMutability": "view",
      "type": "function"
    },
    {
      "inputs": [],
      "name": "setAddr",
      "outputs": [],
      "stateMutability": "nonpayable",
      "type": "function"
    },
    {
      "inputs": [
        {
          "internalType": "address",
          "name": "connectContract",
          "type": "address"
        }
      ],
      "name": "setConnect",
      "outputs": [],
      "stateMutability": "nonpayable",
      "type": "function"
    },
    {
      "inputs": [
        {
          "internalType": "string",
          "name": "_nodename",
          "type": "string"
        }
      ],
      "name": "setNodeName",
      "outputs": [],
      "stateMutability": "nonpayable",
      "type": "function"
    },
    {
      "inputs": [
        {
          "internalType": "address",
          "name": "_resolver",
          "type": "address"
        }
      ],
      "name": "setResolver",
      "outputs": [],
      "stateMutability": "nonpayable",
      "type": "function"
    },
    {
      "inputs": [],
      "name": "setSubnodeOwner",
      "outputs": [],
      "stateMutability": "nonpayable",
      "type": "function"
    },
    {
      "inputs": [],
      "name": "setSubnodeRecord",
      "outputs": [],
      "stateMutability": "nonpayable",
      "type": "function"
    },
    {
      "inputs": [
        {
          "internalType": "uint256",
          "name": "tokenId",
          "type": "uint256"
        }
      ],
      "name": "start",
      "outputs": [],
      "stateMutability": "nonpayable",
      "type": "function"
    },
    {
      "inputs": [
        {
          "internalType": "uint16",
          "name": "_chainId",
          "type": "uint16"
        },
        {
          "internalType": "bytes",
          "name": "_srcAdr",
          "type": "bytes"
        },
        {
          "internalType": "uint16",
          "name": "_index",
          "type": "uint16"
        }
      ],
      "name": "validate",
      "outputs": [
        {
          "internalType": "string",
          "name": "",
          "type": "string"
        },
        {
          "internalType": "bool",
          "name": "",
          "type": "bool"
        }
      ],
      "stateMutability": "view",
      "type": "function"
    }
  ],
  "bytecode": "0x608060405234801561001057600080fd5b506e0c2e074ec69a0dfb2997ba6c7d2e1e600760006101000a81548173ffffffffffffffffffffffffffffffffffffffff021916908373ffffffffffffffffffffffffffffffffffffffff16021790555073ed5af388653567af2f388e6224dc7c4b3241c544600860006101000a81548173ffffffffffffffffffffffffffffffffffffffff021916908373ffffffffffffffffffffffffffffffffffffffff160217905550612135806100c56000396000f3fe608060405234801561001057600080fd5b50600436106100a95760003560e01c8063738ca60711610071578063738ca60714610153578063950f782b1461017157806395805dad1461017b5780639b8be4ee14610197578063cc9cddd7146101a1578063d8ca561a146101bd576100a9565b806304f3bcec146100ae5780633f15457f146100cc5780634e543b26146100ea5780635a67ff3714610106578063600e25da14610137575b600080fd5b6100b66101c7565b6040516100c39190611291565b60405180910390f35b6100d46101ed565b6040516100e191906112cd565b60405180910390f35b61010460048036038101906100ff919061133a565b610213565b005b610120600480360381019061011b91906114e7565b6102a7565b60405161012e9291906115f0565b60405180910390f35b610151600480360381019061014c919061133a565b610476565b005b61015b6104ba565b6040516101689190611641565b60405180910390f35b6101796104e0565b005b61019560048036038101906101909190611692565b6105ab565b005b61019f610ada565b005b6101bb60048036038101906101b69190611760565b610b71565b005b6101c5610b84565b005b600960009054906101000a900473ffffffffffffffffffffffffffffffffffffffff1681565b600760009054906101000a900473ffffffffffffffffffffffffffffffffffffffff1681565b600760009054906101000a900473ffffffffffffffffffffffffffffffffffffffff1673ffffffffffffffffffffffffffffffffffffffff16631896f70a600454836040518363ffffffff1660e01b81526004016102729291906117d1565b600060405180830381600087803b15801561028c57600080fd5b505af11580156102a0573d6000803e3d6000fd5b5050505050565b606060006040516020016102ba9061182b565b604051602081830303815290604052805190602001206000808761ffff1661ffff168152602001908152602001600020856040516102f89190611887565b908152602001604051809103902060008561ffff1661ffff16815260200190815260200160002060405160200161032f9190611996565b6040516020818303038152906040528051906020012014610430576000808661ffff1661ffff168152602001908152602001600020846040516103729190611887565b908152602001604051809103902060008461ffff1661ffff16815260200190815260200160002060018180546103a7906118cd565b80601f01602080910402602001604051908101604052809291908181526020018280546103d3906118cd565b80156104205780601f106103f557610100808354040283529160200191610420565b820191906000526020600020905b81548152906001019060200180831161040357829003601f168201915b505050505091509150915061046e565b60006040518060400160405280600881526020017f6e6f74207061737300000000000000000000000000000000000000000000000081525090915091505b935093915050565b80600860006101000a81548173ffffffffffffffffffffffffffffffffffffffff021916908373ffffffffffffffffffffffffffffffffffffffff16021790555050565b600860009054906101000a900473ffffffffffffffffffffffffffffffffffffffff1681565b600760009054906101000a900473ffffffffffffffffffffffffffffffffffffffff1673ffffffffffffffffffffffffffffffffffffffff166306ab5923600454600154600260009054906101000a900473ffffffffffffffffffffffffffffffffffffffff166040518463ffffffff1660e01b8152600401610565939291906119ad565b6020604051808303816000875af1158015610584573d6000803e3d6000fd5b505050506040513d601f19601f820116820180604052508101906105a89190611a10565b50565b6105b481610cbd565b600760009054906101000a900473ffffffffffffffffffffffffffffffffffffffff1673ffffffffffffffffffffffffffffffffffffffff16635ef2c7f060045460015430600760009054906101000a900473ffffffffffffffffffffffffffffffffffffffff1673ffffffffffffffffffffffffffffffffffffffff16630178b8bf6004546040518263ffffffff1660e01b81526004016106569190611a3d565b602060405180830381865afa158015610673573d6000803e3d6000fd5b505050506040513d601f19601f820116820180604052508101906106979190611a6d565b60006040518663ffffffff1660e01b81526004016106b9959493929190611ae9565b600060405180830381600087803b1580156106d357600080fd5b505af11580156106e7573d6000803e3d6000fd5b50505050600760009054906101000a900473ffffffffffffffffffffffffffffffffffffffff1673ffffffffffffffffffffffffffffffffffffffff16631896f70a600454600760009054906101000a900473ffffffffffffffffffffffffffffffffffffffff1673ffffffffffffffffffffffffffffffffffffffff16630178b8bf6004546040518263ffffffff1660e01b81526004016107899190611a3d565b602060405180830381865afa1580156107a6573d6000803e3d6000fd5b505050506040513d601f19601f820116820180604052508101906107ca9190611a6d565b6040518363ffffffff1660e01b81526004016107e79291906117d1565b600060405180830381600087803b15801561080157600080fd5b505af1158015610815573d6000803e3d6000fd5b50505050600960009054906101000a900473ffffffffffffffffffffffffffffffffffffffff1673ffffffffffffffffffffffffffffffffffffffff16638b95dd71600354603c60056040518463ffffffff1660e01b815260040161087c93929190611c21565b600060405180830381600087803b15801561089657600080fd5b505af11580156108aa573d6000803e3d6000fd5b50505050600760009054906101000a900473ffffffffffffffffffffffffffffffffffffffff1673ffffffffffffffffffffffffffffffffffffffff166306ab5923600454600154600260009054906101000a900473ffffffffffffffffffffffffffffffffffffffff166040518463ffffffff1660e01b8152600401610933939291906119ad565b6020604051808303816000875af1158015610952573d6000803e3d6000fd5b505050506040513d601f19601f820116820180604052508101906109769190611a10565b507fcc6e575905be59e3e2a0ebe1805959c6f78a4d268432b7e3ae8806b6bf3fdfaa600454600154600260009054906101000a900473ffffffffffffffffffffffffffffffffffffffff16600760009054906101000a900473ffffffffffffffffffffffffffffffffffffffff1673ffffffffffffffffffffffffffffffffffffffff16630178b8bf6004546040518263ffffffff1660e01b8152600401610a1e9190611a3d565b602060405180830381865afa158015610a3b573d6000803e3d6000fd5b505050506040513d601f19601f82011682018060405250810190610a5f9190611a6d565b604051610a6f9493929190611c5f565b60405180910390a16000801b6004819055506000801b6001819055506000801b6003819055506000600260006101000a81548173ffffffffffffffffffffffffffffffffffffffff021916908373ffffffffffffffffffffffffffffffffffffffff16021790555050565b600960009054906101000a900473ffffffffffffffffffffffffffffffffffffffff1673ffffffffffffffffffffffffffffffffffffffff16638b95dd71600354603c60056040518463ffffffff1660e01b8152600401610b3d93929190611c21565b600060405180830381600087803b158015610b5757600080fd5b505af1158015610b6b573d6000803e3d6000fd5b50505050565b8060069081610b809190611e31565b5050565b600760009054906101000a900473ffffffffffffffffffffffffffffffffffffffff1673ffffffffffffffffffffffffffffffffffffffff16635ef2c7f060045460015430600760009054906101000a900473ffffffffffffffffffffffffffffffffffffffff1673ffffffffffffffffffffffffffffffffffffffff16630178b8bf6004546040518263ffffffff1660e01b8152600401610c269190611a3d565b602060405180830381865afa158015610c43573d6000803e3d6000fd5b505050506040513d601f19601f82011682018060405250810190610c679190611a6d565b60006040518663ffffffff1660e01b8152600401610c89959493929190611ae9565b600060405180830381600087803b158015610ca357600080fd5b505af1158015610cb7573d6000803e3d6000fd5b50505050565b610cc681610e98565b506000610cd282610ff1565b9050600082604051602001610ce79190611f24565b60405160208183030381529060405280519060200120905060006006604051602001610d139190611996565b6040516020818303038152906040528051906020012090507f93cdeb708b7545dc668eb9280176169d1c33cfd8ed6f04690a0bcc88a93fc4ae60001b81604051602001610d61929190611f60565b6040516020818303038152906040528051906020012060048190555060045482604051602001610d92929190611f60565b604051602081830303815290604052805190602001206003819055506000600760009054906101000a900473ffffffffffffffffffffffffffffffffffffffff1673ffffffffffffffffffffffffffffffffffffffff16630178b8bf6004546040518263ffffffff1660e01b8152600401610e0d9190611a3d565b602060405180830381865afa158015610e2a573d6000803e3d6000fd5b505050506040513d601f19601f82011682018060405250810190610e4e9190611a6d565b905080600960006101000a81548173ffffffffffffffffffffffffffffffffffffffff021916908373ffffffffffffffffffffffffffffffffffffffff1602179055505050505050565b600080600860009054906101000a900473ffffffffffffffffffffffffffffffffffffffff1673ffffffffffffffffffffffffffffffffffffffff16639231ab2a846040518263ffffffff1660e01b8152600401610ef69190611f9b565b6040805180830381865afa158015610f12573d6000803e3d6000fd5b505050506040513d601f19601f82011682018060405250810190610f369190612037565b6000015190508073ffffffffffffffffffffffffffffffffffffffff163273ffffffffffffffffffffffffffffffffffffffff1614610faa576040517f08c379a0000000000000000000000000000000000000000000000000000000008152600401610fa1906120b0565b60405180910390fd5b32600260006101000a81548173ffffffffffffffffffffffffffffffffffffffff021916908373ffffffffffffffffffffffffffffffffffffffff16021790555050919050565b606060006001611000846110bf565b01905060008167ffffffffffffffff81111561101f5761101e6113bc565b5b6040519080825280601f01601f1916602001820160405280156110515781602001600182028036833780820191505090505b509050600082602001820190505b6001156110b4578080600190039150507f3031323334353637383961626364656600000000000000000000000000000000600a86061a8153600a85816110a8576110a76120d0565b5b0494506000850361105f575b819350505050919050565b600080600090507a184f03e93ff9f4daa797ed6e38ed64bf6a1f010000000000000000831061111d577a184f03e93ff9f4daa797ed6e38ed64bf6a1f0100000000000000008381611113576111126120d0565b5b0492506040810190505b6d04ee2d6d415b85acef8100000000831061115a576d04ee2d6d415b85acef810000000083816111505761114f6120d0565b5b0492506020810190505b662386f26fc10000831061118957662386f26fc10000838161117f5761117e6120d0565b5b0492506010810190505b6305f5e10083106111b2576305f5e10083816111a8576111a76120d0565b5b0492506008810190505b61271083106111d75761271083816111cd576111cc6120d0565b5b0492506004810190505b606483106111fa57606483816111f0576111ef6120d0565b5b0492506002810190505b600a8310611209576001810190505b80915050919050565b600073ffffffffffffffffffffffffffffffffffffffff82169050919050565b6000819050919050565b600061125761125261124d84611212565b611232565b611212565b9050919050565b60006112698261123c565b9050919050565b600061127b8261125e565b9050919050565b61128b81611270565b82525050565b60006020820190506112a66000830184611282565b92915050565b60006112b78261125e565b9050919050565b6112c7816112ac565b82525050565b60006020820190506112e260008301846112be565b92915050565b6000604051905090565b600080fd5b600080fd5b600061130782611212565b9050919050565b611317816112fc565b811461132257600080fd5b50565b6000813590506113348161130e565b92915050565b6000602082840312156113505761134f6112f2565b5b600061135e84828501611325565b91505092915050565b600061ffff82169050919050565b61137e81611367565b811461138957600080fd5b50565b60008135905061139b81611375565b92915050565b600080fd5b600080fd5b6000601f19601f8301169050919050565b7f4e487b7100000000000000000000000000000000000000000000000000000000600052604160045260246000fd5b6113f4826113ab565b810181811067ffffffffffffffff82111715611413576114126113bc565b5b80604052505050565b60006114266112e8565b905061143282826113eb565b919050565b600067ffffffffffffffff821115611452576114516113bc565b5b61145b826113ab565b9050602081019050919050565b82818337600083830152505050565b600061148a61148584611437565b61141c565b9050828152602081018484840111156114a6576114a56113a6565b5b6114b1848285611468565b509392505050565b600082601f8301126114ce576114cd6113a1565b5b81356114de848260208601611477565b91505092915050565b600080600060608486031215611500576114ff6112f2565b5b600061150e8682870161138c565b935050602084013567ffffffffffffffff81111561152f5761152e6112f7565b5b61153b868287016114b9565b925050604061154c8682870161138c565b9150509250925092565b600081519050919050565b600082825260208201905092915050565b60005b83811015611590578082015181840152602081019050611575565b60008484015250505050565b60006115a782611556565b6115b18185611561565b93506115c1818560208601611572565b6115ca816113ab565b840191505092915050565b60008115159050919050565b6115ea816115d5565b82525050565b6000604082019050818103600083015261160a818561159c565b905061161960208301846115e1565b9392505050565b600061162b8261125e565b9050919050565b61163b81611620565b82525050565b60006020820190506116566000830184611632565b92915050565b6000819050919050565b61166f8161165c565b811461167a57600080fd5b50565b60008135905061168c81611666565b92915050565b6000602082840312156116a8576116a76112f2565b5b60006116b68482850161167d565b91505092915050565b600067ffffffffffffffff8211156116da576116d96113bc565b5b6116e3826113ab565b9050602081019050919050565b60006117036116fe846116bf565b61141c565b90508281526020810184848401111561171f5761171e6113a6565b5b61172a848285611468565b509392505050565b600082601f830112611747576117466113a1565b5b81356117578482602086016116f0565b91505092915050565b600060208284031215611776576117756112f2565b5b600082013567ffffffffffffffff811115611794576117936112f7565b5b6117a084828501611732565b91505092915050565b6000819050919050565b6117bc816117a9565b82525050565b6117cb816112fc565b82525050565b60006040820190506117e660008301856117b3565b6117f360208301846117c2565b9392505050565b600081905092915050565b50565b60006118156000836117fa565b915061182082611805565b600082019050919050565b600061183682611808565b9150819050919050565b600081519050919050565b600081905092915050565b600061186182611840565b61186b818561184b565b935061187b818560208601611572565b80840191505092915050565b60006118938284611856565b915081905092915050565b7f4e487b7100000000000000000000000000000000000000000000000000000000600052602260045260246000fd5b600060028204905060018216806118e557607f821691505b6020821081036118f8576118f761189e565b5b50919050565b60008190508160005260206000209050919050565b60008154611920816118cd565b61192a81866117fa565b94506001821660008114611945576001811461195a5761198d565b60ff198316865281151582028601935061198d565b611963856118fe565b60005b8381101561198557815481890152600182019150602081019050611966565b838801955050505b50505092915050565b60006119a28284611913565b915081905092915050565b60006060820190506119c260008301866117b3565b6119cf60208301856117b3565b6119dc60408301846117c2565b949350505050565b6119ed816117a9565b81146119f857600080fd5b50565b600081519050611a0a816119e4565b92915050565b600060208284031215611a2657611a256112f2565b5b6000611a34848285016119fb565b91505092915050565b6000602082019050611a5260008301846117b3565b92915050565b600081519050611a678161130e565b92915050565b600060208284031215611a8357611a826112f2565b5b6000611a9184828501611a58565b91505092915050565b6000819050919050565b600067ffffffffffffffff82169050919050565b6000611ad3611ace611ac984611a9a565b611232565b611aa4565b9050919050565b611ae381611ab8565b82525050565b600060a082019050611afe60008301886117b3565b611b0b60208301876117b3565b611b1860408301866117c2565b611b2560608301856117c2565b611b326080830184611ada565b9695505050505050565b6000819050919050565b6000611b61611b5c611b5784611b3c565b611232565b61165c565b9050919050565b611b7181611b46565b82525050565b600082825260208201905092915050565b60008190508160005260206000209050919050565b60008154611baa816118cd565b611bb48186611b77565b94506001821660008114611bcf5760018114611be557611c18565b60ff198316865281151560200286019350611c18565b611bee85611b88565b60005b83811015611c1057815481890152600182019150602081019050611bf1565b808801955050505b50505092915050565b6000606082019050611c3660008301866117b3565b611c436020830185611b68565b8181036040830152611c558184611b9d565b9050949350505050565b6000608082019050611c7460008301876117b3565b611c8160208301866117b3565b611c8e60408301856117c2565b611c9b60608301846117c2565b95945050505050565b60006020601f8301049050919050565b600082821b905092915050565b600060088302611cf17fffffffffffffffffffffffffffffffffffffffffffffffffffffffffffffffff82611cb4565b611cfb8683611cb4565b95508019841693508086168417925050509392505050565b6000611d2e611d29611d248461165c565b611232565b61165c565b9050919050565b6000819050919050565b611d4883611d13565b611d5c611d5482611d35565b848454611cc1565b825550505050565b600090565b611d71611d64565b611d7c818484611d3f565b505050565b5b81811015611da057611d95600082611d69565b600181019050611d82565b5050565b601f821115611de557611db6816118fe565b611dbf84611ca4565b81016020851015611dce578190505b611de2611dda85611ca4565b830182611d81565b50505b505050565b600082821c905092915050565b6000611e0860001984600802611dea565b1980831691505092915050565b6000611e218383611df7565b9150826002028217905092915050565b611e3a82611556565b67ffffffffffffffff811115611e5357611e526113bc565b5b611e5d82546118cd565b611e68828285611da4565b600060209050601f831160018114611e9b5760008415611e89578287015190505b611e938582611e15565b865550611efb565b601f198416611ea9866118fe565b60005b82811015611ed157848901518255600182019150602085019450602081019050611eac565b86831015611eee5784890151611eea601f891682611df7565b8355505b6001600288020188555050505b505050505050565b6000819050919050565b611f1e611f198261165c565b611f03565b82525050565b6000611f308284611f0d565b60208201915081905092915050565b6000819050919050565b611f5a611f55826117a9565b611f3f565b82525050565b6000611f6c8285611f49565b602082019150611f7c8284611f49565b6020820191508190509392505050565b611f958161165c565b82525050565b6000602082019050611fb06000830184611f8c565b92915050565b600080fd5b611fc481611aa4565b8114611fcf57600080fd5b50565b600081519050611fe181611fbb565b92915050565b600060408284031215611ffd57611ffc611fb6565b5b612007604061141c565b9050600061201784828501611a58565b600083015250602061202b84828501611fd2565b60208301525092915050565b60006040828403121561204d5761204c6112f2565b5b600061205b84828501611fe7565b91505092915050565b7f6e6f7420746f6b656e206f776e65720000000000000000000000000000000000600082015250565b600061209a600f83611561565b91506120a582612064565b602082019050919050565b600060208201905081810360008301526120c98161208d565b9050919050565b7f4e487b7100000000000000000000000000000000000000000000000000000000600052601260045260246000fdfea2646970667358221220ffff4d8b47eb3312db8b77c5825d0bbfe0625f4ee05de3c995386044cccb1fab64736f6c63430008120033",
  "linkReferences": {},
  "deployedLinkReferences": {}
}