{
  "_format": "hh-sol-artifact-1",
  "contractName": "DaoDomain",
  "sourceName": "contracts/DaoDomain.sol",
  "abi": [
    {
      "inputs": [],
      "stateMutability": "nonpayable",
      "type": "constructor"
    },
    {
      "anonymous": false,
      "inputs": [
        {
          "indexed": false,
          "internalType": "bytes32",
          "name": "node",
          "type": "bytes32"
        },
        {
          "indexed": false,
          "internalType": "bytes32",
          "name": "label",
          "type": "bytes32"
        },
        {
          "indexed": false,
          "internalType": "address",
          "name": "registant",
          "type": "address"
        },
        {
          "indexed": false,
          "internalType": "address",
          "name": "resolver",
          "type": "address"
        }
      ],
      "name": "sendtoEns",
      "type": "event"
    },
    {
      "inputs": [
        {
          "internalType": "uint256",
          "name": "",
          "type": "uint256"
        }
      ],
      "name": "PasscardToDomain",
      "outputs": [
        {
          "internalType": "bytes32",
          "name": "",
          "type": "bytes32"
        }
      ],
      "stateMutability": "view",
      "type": "function"
    },
    {
      "inputs": [
        {
          "internalType": "bytes32",
          "name": "_label",
          "type": "bytes32"
        },
        {
          "internalType": "uint256",
          "name": "tokenId",
          "type": "uint256"
        },
        {
          "internalType": "string",
          "name": "_nodename",
          "type": "string"
        }
      ],
      "name": "claim",
      "outputs": [],
      "stateMutability": "nonpayable",
      "type": "function"
    },
    {
      "inputs": [],
      "name": "controller",
      "outputs": [
        {
          "internalType": "contract IController",
          "name": "",
          "type": "address"
        }
      ],
      "stateMutability": "view",
      "type": "function"
    },
    {
      "inputs": [],
      "name": "ens",
      "outputs": [
        {
          "internalType": "contract IEns",
          "name": "",
          "type": "address"
        }
      ],
      "stateMutability": "view",
      "type": "function"
    },
    {
      "inputs": [
        {
          "internalType": "string",
          "name": "nodename",
          "type": "string"
        }
      ],
      "name": "issueDomain",
      "outputs": [],
      "stateMutability": "nonpayable",
      "type": "function"
    },
    {
      "inputs": [],
      "name": "passcard",
      "outputs": [
        {
          "internalType": "contract PassCard",
          "name": "",
          "type": "address"
        }
      ],
      "stateMutability": "view",
      "type": "function"
    },
    {
      "inputs": [
        {
          "internalType": "uint256",
          "name": "",
          "type": "uint256"
        }
      ],
      "name": "passcardId",
      "outputs": [
        {
          "internalType": "uint256",
          "name": "",
          "type": "uint256"
        }
      ],
      "stateMutability": "view",
      "type": "function"
    },
    {
      "inputs": [],
      "name": "resolver",
      "outputs": [
        {
          "internalType": "contract IResolver",
          "name": "",
          "type": "address"
        }
      ],
      "stateMutability": "view",
      "type": "function"
    },
    {
      "inputs": [],
      "name": "setAddr",
      "outputs": [],
      "stateMutability": "nonpayable",
      "type": "function"
    },
    {
      "inputs": [
        {
          "internalType": "address",
          "name": "_resolver",
          "type": "address"
        }
      ],
      "name": "setResolver",
      "outputs": [],
      "stateMutability": "nonpayable",
      "type": "function"
    },
    {
      "inputs": [],
      "name": "setSubnodeRecord",
      "outputs": [],
      "stateMutability": "nonpayable",
      "type": "function"
    },
    {
      "inputs": [
        {
          "internalType": "address",
          "name": "to",
          "type": "address"
        },
        {
          "internalType": "uint256",
          "name": "tokenId",
          "type": "uint256"
        },
        {
          "internalType": "string",
          "name": "_nodename",
          "type": "string"
        }
      ],
      "name": "transferPassCardAndSubDomain",
      "outputs": [],
      "stateMutability": "nonpayable",
      "type": "function"
    }
  ],
  "bytecode": "0x6080604052600a80546001600160a01b0319167357f1887a8bf19b14fc0df6fd9b2acc9af147ea8517905534801561003657600080fd5b50600880546001600160a01b0319166e0c2e074ec69a0dfb2997ba6c7d2e1e179055610f5c806100676000396000f3fe608060405234801561001057600080fd5b50600436106100b35760003560e01c80635e219c48116100715780635e219c481461016457806374dc483f146101775780639b8be4ee1461018a578063d8ca561a14610192578063f4b381fd1461019a578063f77c4791146101ad57600080fd5b806224a48d146100b857806304f3bcec146100de5780631b62d8721461010957806332b9afc9146101295780633f15457f1461013e5780634e543b2614610151575b600080fd5b6100cb6100c6366004610bfd565b6101c0565b6040519081526020015b60405180910390f35b6009546100f1906001600160a01b031681565b6040516001600160a01b0390911681526020016100d5565b6100cb610117366004610bfd565b60016020526000908152604090205481565b61013c610137366004610cce565b6101e1565b005b6008546100f1906001600160a01b031681565b61013c61015f366004610d27565b610284565b61013c610172366004610d4b565b6102f1565b6000546100f1906001600160a01b031681565b61013c6103bb565b61013c610420565b61013c6101a8366004610d85565b6104e8565b600a546100f1906001600160a01b031681565b600281815481106101d057600080fd5b600091825260209091200154905081565b6000546040516323b872dd60e01b81523360048201526001600160a01b03858116602483015260448201859052909116906323b872dd90606401600060405180830381600087803b15801561023557600080fd5b505af1158015610249573d6000803e3d6000fd5b5050506000838152600160205260409020549050610267818361057f565b610276600654600354866106c9565b61027e610745565b50505050565b600854600654604051630c4b7b8560e11b815260048101919091526001600160a01b03838116602483015290911690631896f70a90604401600060405180830381600087803b1580156102d657600080fd5b505af11580156102ea573d6000803e3d6000fd5b5050505050565b600080546040516331a9108f60e11b8152600481018590528492916001600160a01b031690636352211e90602401602060405180830381865afa15801561033c573d6000803e3d6000fd5b505050506040513d601f19601f820116820180604052508101906103609190610dc2565b9050336001600160a01b038216146103b05760405162461bcd60e51b815260206004820152600f60248201526e3737ba103a37b5b2b71037bbb732b960891b604482015260640160405180910390fd5b6102ea848685610785565b600954600554604051638b95dd7160e01b81526001600160a01b0390921691638b95dd71916103f291603c90600790600401610e1a565b600060405180830381600087803b15801561040c57600080fd5b505af115801561027e573d6000803e3d6000fd5b600854600654600354604051630178b8bf60e01b8152600481018390526001600160a01b0390931692635ef2c7f092919030908590630178b8bf90602401602060405180830381865afa15801561047b573d6000803e3d6000fd5b505050506040513d601f19601f8201168201806040525081019061049f9190610dc2565b6040516001600160e01b031960e087901b168152600481019490945260248401929092526001600160a01b0390811660448401521660648201526000608482015260a4016103f2565b6000816040516020016104fb9190610ed2565b60408051808303601f19018152908290528051602090910120600a54630a3b53db60e21b83526004830182905230602484015290925082916001600160a01b03909116906328ed4f6c90604401600060405180830381600087803b15801561056257600080fd5b505af1158015610576573d6000803e3d6000fd5b50505050505050565b600480546001600160a01b031916321790556040516000906105a5908390602001610ed2565b60408051808303601f1901815282825280516020918201207f93cdeb708b7545dc668eb9280176169d1c33cfd8ed6f04690a0bcc88a93fc4ae91840191909152908201819052915060600160408051808303601f190181528282528051602091820120600681905590830152810184905260600160408051808303601f19018152908290528051602090910120600555600854600654630178b8bf60e01b835260048301526000916001600160a01b0390911690630178b8bf90602401602060405180830381865afa15801561067f573d6000803e3d6000fd5b505050506040513d601f19601f820116820180604052508101906106a39190610dc2565b600980546001600160a01b0319166001600160a01b039290921691909117905550505050565b6008546040516306ab592360e01b815260048101859052602481018490523360448201526001600160a01b03909116906306ab5923906064016020604051808303816000875af1158015610721573d6000803e3d6000fd5b505050506040513d601f19601f8201168201806040525081019061027e9190610f0d565b60006003819055600480546001600160a01b0319169055600581905560068190556040805160208101918290528290526107829160079190610b64565b50565b61078f828261057f565b600854600654600354604051630178b8bf60e01b8152600481018390526001600160a01b0390931692635ef2c7f092919033908590630178b8bf90602401602060405180830381865afa1580156107ea573d6000803e3d6000fd5b505050506040513d601f19601f8201168201806040525081019061080e9190610dc2565b6040516001600160e01b031960e087901b168152600481019490945260248401929092526001600160a01b0390811660448401521660648201526000608482015260a401600060405180830381600087803b15801561086c57600080fd5b505af1158015610880573d6000803e3d6000fd5b5050600854600654604051630178b8bf60e01b8152600481018290526001600160a01b039092169350631896f70a9250908390630178b8bf90602401602060405180830381865afa1580156108d9573d6000803e3d6000fd5b505050506040513d601f19601f820116820180604052508101906108fd9190610dc2565b6040516001600160e01b031960e085901b16815260048101929092526001600160a01b03166024820152604401600060405180830381600087803b15801561094457600080fd5b505af1158015610958573d6000803e3d6000fd5b5050600954600554604051638b95dd7160e01b81526001600160a01b039092169350638b95dd71925061099391603c90600790600401610e1a565b600060405180830381600087803b1580156109ad57600080fd5b505af11580156109c1573d6000803e3d6000fd5b5050600854600654600354600480546040516306ab592360e01b81529182019390935260248101919091526001600160a01b039182166044820152911692506306ab592391506064016020604051808303816000875af1158015610a29573d6000803e3d6000fd5b505050506040513d601f19601f82011682018060405250810190610a4d9190610f0d565b5060065460035460048054600854604051630178b8bf60e01b81529283018590527fcc6e575905be59e3e2a0ebe1805959c6f78a4d268432b7e3ae8806b6bf3fdfaa9493926001600160a01b039283169290911690630178b8bf90602401602060405180830381865afa158015610ac8573d6000803e3d6000fd5b505050506040513d601f19601f82011682018060405250810190610aec9190610dc2565b6040805194855260208501939093526001600160a01b0391821684840152166060830152519081900360800190a1610b22610745565b506002805460018181019092557f405787fa12a823e0f2b7631cc41b3ba8828b3321ca811111fa75cd3aa3bb5ace018390556000928352602052604090912055565b828054610b7090610ddf565b90600052602060002090601f016020900481019282610b925760008555610bd8565b82601f10610bab57805160ff1916838001178555610bd8565b82800160010185558215610bd8579182015b82811115610bd8578251825591602001919060010190610bbd565b50610be4929150610be8565b5090565b5b80821115610be45760008155600101610be9565b600060208284031215610c0f57600080fd5b5035919050565b6001600160a01b038116811461078257600080fd5b634e487b7160e01b600052604160045260246000fd5b600082601f830112610c5257600080fd5b813567ffffffffffffffff80821115610c6d57610c6d610c2b565b604051601f8301601f19908116603f01168101908282118183101715610c9557610c95610c2b565b81604052838152866020858801011115610cae57600080fd5b836020870160208301376000602085830101528094505050505092915050565b600080600060608486031215610ce357600080fd5b8335610cee81610c16565b925060208401359150604084013567ffffffffffffffff811115610d1157600080fd5b610d1d86828701610c41565b9150509250925092565b600060208284031215610d3957600080fd5b8135610d4481610c16565b9392505050565b600080600060608486031215610d6057600080fd5b8335925060208401359150604084013567ffffffffffffffff811115610d1157600080fd5b600060208284031215610d9757600080fd5b813567ffffffffffffffff811115610dae57600080fd5b610dba84828501610c41565b949350505050565b600060208284031215610dd457600080fd5b8151610d4481610c16565b600181811c90821680610df357607f821691505b60208210811415610e1457634e487b7160e01b600052602260045260246000fd5b50919050565b838152600060208481840152606060408401526000845481600182811c915080831680610e4857607f831692505b858310811415610e6657634e487b7160e01b85526022600452602485fd5b6060880183905260808801818015610e855760018114610e9657610ec1565b60ff19861682528782019650610ec1565b60008b81526020902060005b86811015610ebb57815484820152908501908901610ea2565b83019750505b50949b9a5050505050505050505050565b6000825160005b81811015610ef35760208186018101518583015201610ed9565b81811115610f02576000828501525b509190910192915050565b600060208284031215610f1f57600080fd5b505191905056fea2646970667358221220df4da06b3d80303d8b9e146faa1feaad3191ff8943ec2ae41b9523306ae9ce2764736f6c634300080c0033",
  "linkReferences": {},
  "deployedLinkReferences": {}
}