{
  "_format": "hh-sol-artifact-1",
  "contractName": "DaoDomain",
  "sourceName": "contracts/DaoDomain.sol",
  "abi": [
    {
      "inputs": [],
      "stateMutability": "nonpayable",
      "type": "constructor"
    },
    {
      "anonymous": false,
      "inputs": [
        {
          "indexed": true,
          "internalType": "address",
          "name": "previousOwner",
          "type": "address"
        },
        {
          "indexed": true,
          "internalType": "address",
          "name": "newOwner",
          "type": "address"
        }
      ],
      "name": "OwnershipTransferred",
      "type": "event"
    },
    {
      "anonymous": false,
      "inputs": [
        {
          "indexed": false,
          "internalType": "bytes32",
          "name": "node",
          "type": "bytes32"
        },
        {
          "indexed": false,
          "internalType": "bytes32",
          "name": "label",
          "type": "bytes32"
        },
        {
          "indexed": false,
          "internalType": "address",
          "name": "registant",
          "type": "address"
        },
        {
          "indexed": false,
          "internalType": "address",
          "name": "resolver",
          "type": "address"
        }
      ],
      "name": "sendtoEns",
      "type": "event"
    },
    {
      "inputs": [
        {
          "internalType": "uint256",
          "name": "",
          "type": "uint256"
        }
      ],
      "name": "ENS_RECORD_ARR",
      "outputs": [
        {
          "internalType": "uint256",
          "name": "index",
          "type": "uint256"
        },
        {
          "internalType": "address",
          "name": "contractAddress",
          "type": "address"
        },
        {
          "internalType": "string",
          "name": "domain",
          "type": "string"
        }
      ],
      "stateMutability": "view",
      "type": "function"
    },
    {
      "inputs": [
        {
          "internalType": "address",
          "name": "",
          "type": "address"
        },
        {
          "internalType": "uint256",
          "name": "",
          "type": "uint256"
        }
      ],
      "name": "PasscardToBind",
      "outputs": [
        {
          "internalType": "bool",
          "name": "",
          "type": "bool"
        }
      ],
      "stateMutability": "view",
      "type": "function"
    },
    {
      "inputs": [
        {
          "internalType": "address",
          "name": "",
          "type": "address"
        },
        {
          "internalType": "uint256",
          "name": "",
          "type": "uint256"
        }
      ],
      "name": "PasscardToDomain",
      "outputs": [
        {
          "internalType": "bytes32",
          "name": "",
          "type": "bytes32"
        }
      ],
      "stateMutability": "view",
      "type": "function"
    },
    {
      "inputs": [
        {
          "internalType": "address",
          "name": "",
          "type": "address"
        },
        {
          "internalType": "string",
          "name": "",
          "type": "string"
        }
      ],
      "name": "ProJectTeam",
      "outputs": [
        {
          "internalType": "address",
          "name": "",
          "type": "address"
        }
      ],
      "stateMutability": "view",
      "type": "function"
    },
    {
      "inputs": [],
      "name": "StorageDomainAddr",
      "outputs": [
        {
          "internalType": "address",
          "name": "",
          "type": "address"
        }
      ],
      "stateMutability": "view",
      "type": "function"
    },
    {
      "inputs": [
        {
          "internalType": "address",
          "name": "",
          "type": "address"
        },
        {
          "internalType": "address",
          "name": "",
          "type": "address"
        },
        {
          "internalType": "bytes32",
          "name": "",
          "type": "bytes32"
        }
      ],
      "name": "UserSubDomain",
      "outputs": [
        {
          "internalType": "uint256",
          "name": "",
          "type": "uint256"
        }
      ],
      "stateMutability": "view",
      "type": "function"
    },
    {
      "inputs": [
        {
          "components": [
            {
              "internalType": "uint256",
              "name": "index",
              "type": "uint256"
            },
            {
              "internalType": "address",
              "name": "contractAddress",
              "type": "address"
            },
            {
              "internalType": "string",
              "name": "domain",
              "type": "string"
            }
          ],
          "internalType": "struct StorageDomain.ENS_RECORD",
          "name": "ens_record",
          "type": "tuple"
        }
      ],
      "name": "_putENS_RECORD",
      "outputs": [
        {
          "components": [
            {
              "internalType": "uint256",
              "name": "index",
              "type": "uint256"
            },
            {
              "internalType": "address",
              "name": "contractAddress",
              "type": "address"
            },
            {
              "internalType": "string",
              "name": "domain",
              "type": "string"
            }
          ],
          "internalType": "struct StorageDomain.ENS_RECORD",
          "name": "",
          "type": "tuple"
        }
      ],
      "stateMutability": "nonpayable",
      "type": "function"
    },
    {
      "inputs": [
        {
          "internalType": "address",
          "name": "sender",
          "type": "address"
        },
        {
          "internalType": "string",
          "name": "domain",
          "type": "string"
        },
        {
          "internalType": "address",
          "name": "adr",
          "type": "address"
        }
      ],
      "name": "_setProJectTeam",
      "outputs": [],
      "stateMutability": "nonpayable",
      "type": "function"
    },
    {
      "inputs": [
        {
          "internalType": "address",
          "name": "sender",
          "type": "address"
        },
        {
          "internalType": "address",
          "name": "adr",
          "type": "address"
        },
        {
          "internalType": "bytes32",
          "name": "label",
          "type": "bytes32"
        },
        {
          "internalType": "uint256",
          "name": "tokenId",
          "type": "uint256"
        }
      ],
      "name": "_setUserSubDomain",
      "outputs": [],
      "stateMutability": "nonpayable",
      "type": "function"
    },
    {
      "inputs": [
        {
          "internalType": "bytes32",
          "name": "_label",
          "type": "bytes32"
        },
        {
          "internalType": "uint256",
          "name": "tokenId",
          "type": "uint256"
        },
        {
          "internalType": "address",
          "name": "_passcardAdr",
          "type": "address"
        }
      ],
      "name": "claim",
      "outputs": [],
      "stateMutability": "nonpayable",
      "type": "function"
    },
    {
      "inputs": [],
      "name": "controller",
      "outputs": [
        {
          "internalType": "contract IController",
          "name": "",
          "type": "address"
        }
      ],
      "stateMutability": "view",
      "type": "function"
    },
    {
      "inputs": [],
      "name": "ens",
      "outputs": [
        {
          "internalType": "contract IENS",
          "name": "",
          "type": "address"
        }
      ],
      "stateMutability": "view",
      "type": "function"
    },
    {
      "inputs": [],
      "name": "getAllPassCard",
      "outputs": [
        {
          "internalType": "uint256[]",
          "name": "",
          "type": "uint256[]"
        }
      ],
      "stateMutability": "view",
      "type": "function"
    },
    {
      "inputs": [],
      "name": "getENSRecordArrLength",
      "outputs": [
        {
          "internalType": "uint256",
          "name": "",
          "type": "uint256"
        }
      ],
      "stateMutability": "view",
      "type": "function"
    },
    {
      "inputs": [],
      "name": "getPassCardFactoryAddr",
      "outputs": [
        {
          "internalType": "address",
          "name": "",
          "type": "address"
        }
      ],
      "stateMutability": "view",
      "type": "function"
    },
    {
      "inputs": [
        {
          "internalType": "uint256",
          "name": "tokenId",
          "type": "uint256"
        }
      ],
      "name": "getPassCardStatus",
      "outputs": [
        {
          "internalType": "bool",
          "name": "",
          "type": "bool"
        }
      ],
      "stateMutability": "view",
      "type": "function"
    },
    {
      "inputs": [
        {
          "internalType": "string",
          "name": "name",
          "type": "string"
        },
        {
          "internalType": "string",
          "name": "symbol",
          "type": "string"
        },
        {
          "internalType": "uint256",
          "name": "_tokenId",
          "type": "uint256"
        },
        {
          "internalType": "bool",
          "name": "transferable",
          "type": "bool"
        },
        {
          "internalType": "bool",
          "name": "revokable",
          "type": "bool"
        },
        {
          "internalType": "address[]",
          "name": "_address",
          "type": "address[]"
        }
      ],
      "name": "issueDomain",
      "outputs": [],
      "stateMutability": "nonpayable",
      "type": "function"
    },
    {
      "inputs": [],
      "name": "owner",
      "outputs": [
        {
          "internalType": "address",
          "name": "",
          "type": "address"
        }
      ],
      "stateMutability": "view",
      "type": "function"
    },
    {
      "inputs": [],
      "name": "passcard",
      "outputs": [
        {
          "internalType": "contract PassCard",
          "name": "",
          "type": "address"
        }
      ],
      "stateMutability": "view",
      "type": "function"
    },
    {
      "inputs": [],
      "name": "renounceOwnership",
      "outputs": [],
      "stateMutability": "nonpayable",
      "type": "function"
    },
    {
      "inputs": [],
      "name": "resolver",
      "outputs": [
        {
          "internalType": "contract IResolver",
          "name": "",
          "type": "address"
        }
      ],
      "stateMutability": "view",
      "type": "function"
    },
    {
      "inputs": [
        {
          "internalType": "uint256",
          "name": "tokenId",
          "type": "uint256"
        },
        {
          "internalType": "string",
          "name": "_nodename",
          "type": "string"
        },
        {
          "internalType": "address",
          "name": "_passcardAdr",
          "type": "address"
        }
      ],
      "name": "revoke",
      "outputs": [],
      "stateMutability": "nonpayable",
      "type": "function"
    },
    {
      "inputs": [
        {
          "internalType": "address",
          "name": "_DaoDomain",
          "type": "address"
        },
        {
          "internalType": "address",
          "name": "_NFTDomain",
          "type": "address"
        },
        {
          "internalType": "address",
          "name": "_AnyLinkDomain",
          "type": "address"
        }
      ],
      "name": "setAuthorityContract",
      "outputs": [],
      "stateMutability": "nonpayable",
      "type": "function"
    },
    {
      "inputs": [
        {
          "internalType": "address",
          "name": "newOwner",
          "type": "address"
        }
      ],
      "name": "transferOwnership",
      "outputs": [],
      "stateMutability": "nonpayable",
      "type": "function"
    },
    {
      "inputs": [
        {
          "internalType": "address",
          "name": "to",
          "type": "address"
        },
        {
          "internalType": "uint256",
          "name": "tokenId",
          "type": "uint256"
        },
        {
          "internalType": "string",
          "name": "_nodename",
          "type": "string"
        },
        {
          "internalType": "address",
          "name": "_passcardAdr",
          "type": "address"
        }
      ],
      "name": "transferPassCardAndSubDomain",
      "outputs": [],
      "stateMutability": "nonpayable",
      "type": "function"
    }
  ],
  "bytecode": "0x6080604052600880547357f1887a8bf19b14fc0df6fd9b2acc9af147ea856001600160a01b0319918216811790925560098054909116909117905534801561004657600080fd5b50600080546001600160a01b0319167357f1887a8bf19b14fc0df6fd9b2acc9af147ea8517905561007c6100773390565b6100a2565b600080546001600160a01b0319166e0c2e074ec69a0dfb2997ba6c7d2e1e1790556100f4565b600180546001600160a01b038381166001600160a01b0319831681179093556040519116919082907f8be0079c531659141344cd1fd0a4f28419497f9722a3daafe3b4186f6b6457e090600090a35050565b61448580620001046000396000f3fe60806040523480156200001157600080fd5b5060043610620001925760003560e01c8063783423d211620000f0578063acb4344e11620000a3578063ee702970116200007a578063ee702970146200042a578063f2fde38b1462000443578063f77c4791146200045a578063ff117ae9146200046e57600080fd5b8063acb4344e146200039a578063b6b8066414620003e2578063c28ab4bb14620003f957600080fd5b8063783423d214620002c95780638da5cb5b146200030b5780638f9d3c99146200031d57806394458c3714620003345780639acdce451462000368578063a28ec7ac146200037257600080fd5b80633a28825d11620001495780633a28825d14620002485780633a9962e1146200025f5780633f15457f146200028d57806345b56cc414620002a1578063715018a614620002ab57806374dc483f14620002b557600080fd5b80630125c2c7146200019757806304f3bcec14620001b057806304f73fe414620001e157806315a5445114620001f85780631c9e2023146200020b5780632ad627ea1462000222575b600080fd5b620001ae620001a836600462001929565b620004b5565b005b601254620001c4906001600160a01b031681565b6040516001600160a01b0390911681526020015b60405180910390f35b620001ae620001f23660046200197b565b620004fe565b6004545b604051908152602001620001d8565b620001ae6200021c36600462001a6d565b62000798565b620002396200023336600462001ace565b620007f8565b604051620001d8919062001bda565b620001ae6200025936600462001c1b565b620008dc565b620001fc6200027036600462001c8f565b600c60209081526000928352604080842090915290825290205481565b600054620001c4906001600160a01b031681565b620001c462000ad2565b620001ae62000ae3565b600b54620001c4906001600160a01b031681565b620002fa620002da36600462001cbe565b336000908152600d60209081526040808320938352929052205460ff1690565b6040519015158152602001620001d8565b6001546001600160a01b0316620001c4565b620001ae6200032e36600462001cee565b62000afb565b620001fc6200034536600462001de7565b600360209081526000938452604080852082529284528284209052825290205481565b620001c462000e2c565b620003896200038336600462001cbe565b62000e3d565b604051620001d89392919062001e2d565b620001c4620003ab36600462001e62565b600260209081526000928352604090922081518083018401805192815290840192909301919091209152546001600160a01b031681565b620001ae620003f336600462001eb8565b62000f0f565b620002fa6200040a36600462001c8f565b600d60209081526000928352604080842090915290825290205460ff1681565b6200043462001122565b604051620001d8919062001eed565b620001ae6200045436600462001f33565b62001196565b600854620001c4906001600160a01b031681565b620001ae6200047f36600462001f5a565b6001600160a01b039384166000908152600360209081526040808320959096168252938452848120928152919092529190912055565b620004bf62001215565b600580546001600160a01b039485166001600160a01b031991821617909155600680549385169382169390931790925560078054919093169116179055565b600b80546001600160a01b0319166001600160a01b0383169081179091556040516331a9108f60e11b8152600481018490528391839160009190636352211e90602401602060405180830381865afa1580156200055f573d6000803e3d6000fd5b505050506040513d601f19601f8201168201806040525081019062000585919062001fa5565b9050336001600160a01b03821614620005bb5760405162461bcd60e51b8152600401620005b29062001fc5565b60405180910390fd5b6000620005c760045490565b905060005b818110156200078e57856001600160a01b031660048281548110620005f557620005f562001fee565b60009182526020909120600160039092020101546001600160a01b0316141562000192576001600160a01b0386166000908152600d602090815260408083208a845290915290205460ff1615620006815760405162461bcd60e51b815260206004820152600f60248201526e185b1c9958591e4818db185a5b5959608a1b6044820152606401620005b2565b60006004828154811062000699576200069962001fee565b90600052602060002090600302016002018054620006b79062002004565b80601f0160208091040260200160405190810160405280929190818152602001828054620006e59062002004565b8015620007365780601f106200070a5761010080835404028352916020019162000736565b820191906000526020600020905b8154815290600101906020018083116200071857829003601f168201915b505050505090506200074a888a8362001271565b3360009081526003602090815260408083206001600160a01b038b16845282528083208c845290915290208890555080620007858162002041565b915050620005cc565b5050505050505050565b6001600160a01b038316600090815260026020526040908190209051829190620007c49085906200206b565b90815260405190819003602001902080546001600160a01b03929092166001600160a01b0319909216919091179055505050565b604080516060808201835260008083526020830152918101919091526004805460018101825560009190915282517f8a35acfbc15ff81a39ae7d344fd709f28e8600b4aa8c65c6b64bfe7fe36bd19b60039092029182019081556020808501517f8a35acfbc15ff81a39ae7d344fd709f28e8600b4aa8c65c6b64bfe7fe36bd19c840180546001600160a01b0319166001600160a01b03909216919091179055604085015180518694620008d3937f8a35acfbc15ff81a39ae7d344fd709f28e8600b4aa8c65c6b64bfe7fe36bd19d9091019201906200185f565b50929392505050565b600b80546001600160a01b0319166001600160a01b0383169081179091556040516331a9108f60e11b8152600481018590528491839160009190636352211e90602401602060405180830381865afa1580156200093d573d6000803e3d6000fd5b505050506040513d601f19601f8201168201806040525081019062000963919062001fa5565b9050336001600160a01b03821614620009905760405162461bcd60e51b8152600401620005b29062001fc5565b600b546040516323b872dd60e01b81523360048201526001600160a01b03898116602483015260448201899052909116906323b872dd90606401600060405180830381600087803b158015620009e557600080fd5b505af1158015620009fa573d6000803e3d6000fd5b5050600b546001600160a01b03166000908152600c602090815260408083208b8452909152902054915062000a32905081876200157f565b600080546010546040516305ef2c7f60e41b81526001600160a01b0390921692635ef2c7f09262000a6d929186918190819060040162002089565b600060405180830381600087803b15801562000a8857600080fd5b505af115801562000a9d573d6000803e3d6000fd5b5050600b546001600160a01b03166000908152600c602090815260408083208c8452909152812055506200078e905062001720565b600062000ade62001215565b503090565b62000aed62001215565b62000af960006200175a565b565b600080546040516331a9108f60e11b8152600481018890528792916001600160a01b031690636352211e90602401602060405180830381865afa15801562000b47573d6000803e3d6000fd5b505050506040513d601f19601f8201168201806040525081019062000b6d919062001fa5565b9050336001600160a01b0382161462000bd35760405162461bcd60e51b815260206004820152602160248201527f63616c6c657220646f65736e2774206f776e207468697320454e53646f6d61696044820152603760f91b6064820152608401620005b2565b33600090815260026020526040808220905162000bf2908c906200206b565b908152604051908190036020019020546001600160a01b0316141562000d0e57600062000c228a8a888a620017ac565b600b80546001600160a01b0319166001600160a01b038316908117909155604051634edae98f60e01b815291925090634edae98f9062000c699088908890600401620020bf565b600060405180830381600087803b15801562000c8457600080fd5b505af115801562000c99573d6000803e3d6000fd5b50505050600b60009054906101000a90046001600160a01b03166001600160a01b031663641bd7196040518163ffffffff1660e01b8152600401600060405180830381600087803b15801562000cee57600080fd5b505af115801562000d03573d6000803e3d6000fd5b505050505062000e21565b33600090815260026020526040808220905162000d2d908c906200206b565b90815260405190819003602001812054600b80546001600160a01b0319166001600160a01b039092169182179055634edae98f60e01b825291508190634edae98f9062000d819088908890600401620020bf565b600060405180830381600087803b15801562000d9c57600080fd5b505af115801562000db1573d6000803e3d6000fd5b50505050600b60009054906101000a90046001600160a01b03166001600160a01b031663641bd7196040518163ffffffff1660e01b8152600401600060405180830381600087803b15801562000e0657600080fd5b505af115801562000e1b573d6000803e3d6000fd5b50505050505b505050505050505050565b600062000e3862000ad2565b905090565b6004818154811062000e4e57600080fd5b60009182526020909120600390910201805460018201546002830180549294506001600160a01b03909116929162000e869062002004565b80601f016020809104026020016040519081016040528092919081815260200182805462000eb49062002004565b801562000f055780601f1062000ed95761010080835404028352916020019162000f05565b820191906000526020600020905b81548152906001019060200180831162000ee757829003601f168201915b5050505050905083565b600b80546001600160a01b0319166001600160a01b0383169081179091556040516331a9108f60e11b8152600481018590528491839160009190636352211e90602401602060405180830381865afa15801562000f70573d6000803e3d6000fd5b505050506040513d601f19601f8201168201806040525081019062000f96919062001fa5565b9050336001600160a01b0382161462000fc35760405162461bcd60e51b8152600401620005b29062001fc5565b600b54604051630852cd8d60e31b8152600481018890526001600160a01b03909116906342966c6890602401600060405180830381600087803b1580156200100a57600080fd5b505af11580156200101f573d6000803e3d6000fd5b5050600b546001600160a01b03166000908152600c602090815260408083208b8452909152902054915062001057905081876200157f565b600080546010546040516305ef2c7f60e41b81526001600160a01b0390921692635ef2c7f09262001092929186918190819060040162002089565b600060405180830381600087803b158015620010ad57600080fd5b505af1158015620010c2573d6000803e3d6000fd5b50505050620010d062001720565b5050600b80546001600160a01b039081166000908152600c602090815260408083208a8452825280832083905593549092168152600d8252828120978152969052909420805460ff1916905550505050565b600b5460405163d284ad4960e01b81523360048201526060916001600160a01b03169063d284ad4990602401600060405180830381865afa1580156200116c573d6000803e3d6000fd5b505050506040513d6000823e601f3d908101601f1916820160405262000e38919081019062002111565b620011a062001215565b6001600160a01b038116620012075760405162461bcd60e51b815260206004820152602660248201527f4f776e61626c653a206e6577206f776e657220697320746865207a65726f206160448201526564647265737360d01b6064820152608401620005b2565b62001212816200175a565b50565b6001546001600160a01b0316331462000af95760405162461bcd60e51b815260206004820181905260248201527f4f776e61626c653a2063616c6c6572206973206e6f7420746865206f776e65726044820152606401620005b2565b6200127d82826200157f565b60008054601054604051630178b8bf60e01b81526001600160a01b0390921691630178b8bf91620012b49160040190815260200190565b602060405180830381865afa158015620012d2573d6000803e3d6000fd5b505050506040513d601f19601f82011682018060405250810190620012f8919062001fa5565b600080546010546040516305ef2c7f60e41b81529394506001600160a01b0390911692635ef2c7f0926200133792918891309188919060040162002089565b600060405180830381600087803b1580156200135257600080fd5b505af115801562001367573d6000803e3d6000fd5b5050600054601054604051630c4b7b8560e11b815260048101919091526001600160a01b0385811660248301529091169250631896f70a9150604401600060405180830381600087803b158015620013be57600080fd5b505af1158015620013d3573d6000803e3d6000fd5b5050601254600f54604051638b95dd7160e01b81526001600160a01b039092169350638b95dd7192506200141091603c90601190600401620021c2565b600060405180830381600087803b1580156200142b57600080fd5b505af115801562001440573d6000803e3d6000fd5b5050600054601054600e546040516306ab592360e01b81526004810192909252602482018890526001600160a01b03908116604483015290911692506306ab592391506064016020604051808303816000875af1158015620014a6573d6000803e3d6000fd5b505050506040513d601f19601f82011682018060405250810190620014cc919062002282565b50601054600e5460408051928352602083018690526001600160a01b0391821690830152821660608201527fcc6e575905be59e3e2a0ebe1805959c6f78a4d268432b7e3ae8806b6bf3fdfaa9060800160405180910390a16200152e62001720565b5050600b80546001600160a01b039081166000908152600c6020908152604080832087845282528083209590955592549091168152600d82528281209381529290529020805460ff19166001179055565b600e80546001600160a01b03191633908117909155604051620015bd919060200160609190911b6bffffffffffffffffffffffff1916815260140190565b60405160208183030381529060405260119080519060200190620015e39291906200185f565b50600081604051602001620015f991906200206b565b60408051808303601f1901815282825280516020918201207f93cdeb708b7545dc668eb9280176169d1c33cfd8ed6f04690a0bcc88a93fc4ae91840191909152908201819052915060600160408051808303601f190181528282528051602091820120601081905590830152810184905260600160408051808303601f19018152908290528051602090910120600f5560008054601054630178b8bf60e01b8452600484015290916001600160a01b0390911690630178b8bf90602401602060405180830381865afa158015620016d4573d6000803e3d6000fd5b505050506040513d601f19601f82011682018060405250810190620016fa919062001fa5565b601280546001600160a01b0319166001600160a01b039290921691909117905550505050565b600e80546001600160a01b03191690556000600f81905560108190556040805160208101918290528290526200121291601191906200185f565b600180546001600160a01b038381166001600160a01b0319831681179093556040519116919082907f8be0079c531659141344cd1fd0a4f28419497f9722a3daafe3b4186f6b6457e090600090a35050565b60008085858585604051620017c190620018ee565b620017d094939291906200229c565b604051809103906000f080158015620017ed573d6000803e3d6000fd5b5090506200181e60405180606001604052806000815260200160006001600160a01b03168152602001606081525090565b600081526001600160a01b0382166020820152604081018790526200184381620007f8565b50620018553388836020015162000798565b5095945050505050565b8280546200186d9062002004565b90600052602060002090601f016020900481019282620018915760008555620018dc565b82601f10620018ac57805160ff1916838001178555620018dc565b82800160010185558215620018dc579182015b82811115620018dc578251825591602001919060010190620018bf565b50620018ea929150620018fc565b5090565b61217180620022df83390190565b5b80821115620018ea5760008155600101620018fd565b6001600160a01b03811681146200121257600080fd5b6000806000606084860312156200193f57600080fd5b83356200194c8162001913565b925060208401356200195e8162001913565b91506040840135620019708162001913565b809150509250925092565b6000806000606084860312156200199157600080fd5b83359250602084013591506040840135620019708162001913565b634e487b7160e01b600052604160045260246000fd5b604051601f8201601f1916810167ffffffffffffffff81118282101715620019ee57620019ee620019ac565b604052919050565b600082601f83011262001a0857600080fd5b813567ffffffffffffffff81111562001a255762001a25620019ac565b62001a3a601f8201601f1916602001620019c2565b81815284602083860101111562001a5057600080fd5b816020850160208301376000918101602001919091529392505050565b60008060006060848603121562001a8357600080fd5b833562001a908162001913565b9250602084013567ffffffffffffffff81111562001aad57600080fd5b62001abb86828701620019f6565b9250506040840135620019708162001913565b60006020828403121562001ae157600080fd5b813567ffffffffffffffff8082111562001afa57600080fd5b908301906060828603121562001b0f57600080fd5b60405160608101818110838211171562001b2d5762001b2d620019ac565b60405282358152602083013562001b448162001913565b602082015260408301358281111562001b5c57600080fd5b62001b6a87828601620019f6565b60408301525095945050505050565b60005b8381101562001b9657818101518382015260200162001b7c565b8381111562001ba6576000848401525b50505050565b6000815180845262001bc681602086016020860162001b79565b601f01601f19169290920160200192915050565b602081528151602082015260018060a01b0360208301511660408201526000604083015160608084015262001c13608084018262001bac565b949350505050565b6000806000806080858703121562001c3257600080fd5b843562001c3f8162001913565b935060208501359250604085013567ffffffffffffffff81111562001c6357600080fd5b62001c7187828801620019f6565b925050606085013562001c848162001913565b939692955090935050565b6000806040838503121562001ca357600080fd5b823562001cb08162001913565b946020939093013593505050565b60006020828403121562001cd157600080fd5b5035919050565b8035801515811462001ce957600080fd5b919050565b600080600080600080600060c0888a03121562001d0a57600080fd5b873567ffffffffffffffff8082111562001d2357600080fd5b62001d318b838c01620019f6565b985060208a013591508082111562001d4857600080fd5b62001d568b838c01620019f6565b975060408a0135965062001d6d60608b0162001cd8565b955062001d7d60808b0162001cd8565b945060a08a013591508082111562001d9457600080fd5b818a0191508a601f83011262001da957600080fd5b81358181111562001db957600080fd5b8b60208260051b850101111562001dcf57600080fd5b60208301945080935050505092959891949750929550565b60008060006060848603121562001dfd57600080fd5b833562001e0a8162001913565b9250602084013562001e1c8162001913565b929592945050506040919091013590565b8381526001600160a01b038316602082015260606040820181905260009062001e599083018462001bac565b95945050505050565b6000806040838503121562001e7657600080fd5b823562001e838162001913565b9150602083013567ffffffffffffffff81111562001ea057600080fd5b62001eae85828601620019f6565b9150509250929050565b60008060006060848603121562001ece57600080fd5b83359250602084013567ffffffffffffffff81111562001aad57600080fd5b6020808252825182820181905260009190848201906040850190845b8181101562001f275783518352928401929184019160010162001f09565b50909695505050505050565b60006020828403121562001f4657600080fd5b813562001f538162001913565b9392505050565b6000806000806080858703121562001f7157600080fd5b843562001f7e8162001913565b9350602085013562001f908162001913565b93969395505050506040820135916060013590565b60006020828403121562001fb857600080fd5b815162001f538162001913565b6020808252600f908201526e3737ba103a37b5b2b71037bbb732b960891b604082015260600190565b634e487b7160e01b600052603260045260246000fd5b600181811c908216806200201957607f821691505b602082108114156200203b57634e487b7160e01b600052602260045260246000fd5b50919050565b60006000198214156200206457634e487b7160e01b600052601160045260246000fd5b5060010190565b600082516200207f81846020870162001b79565b9190910192915050565b94855260208501939093526001600160a01b03918216604085015216606083015267ffffffffffffffff16608082015260a00190565b60208082528181018390526000908460408401835b8681101562002106578235620020ea8162001913565b6001600160a01b031682529183019190830190600101620020d4565b509695505050505050565b600060208083850312156200212557600080fd5b825167ffffffffffffffff808211156200213e57600080fd5b818501915085601f8301126200215357600080fd5b815181811115620021685762002168620019ac565b8060051b91506200217b848301620019c2565b81815291830184019184810190888411156200219657600080fd5b938501935b83851015620021b6578451825293850193908501906200219b565b98975050505050505050565b838152600060208481840152606060408401526000845481600182811c915080831680620021f157607f831692505b8583108114156200221057634e487b7160e01b85526022600452602485fd5b6060880183905260808801818015620022325760018114620022445762002271565b60ff1986168252878201965062002271565b60008b81526020902060005b868110156200226b5781548482015290850190890162002250565b83019750505b50949b9a5050505050505050505050565b6000602082840312156200229557600080fd5b5051919050565b608081526000620022b1608083018762001bac565b8281036020840152620022c5818762001bac565b941515604084015250509015156060909101529291505056fe60c06040523480156200001157600080fd5b506040516200217138038062002171833981016040819052620000349162000272565b8351849084906200004d906000906020850190620000e9565b50805162000063906001906020840190620000e9565b50506006805460ff19169055506200007b336200008f565b901515608052151560a052506200033e9050565b600680546001600160a01b03838116610100818102610100600160a81b031985161790945560405193909204169182907f8be0079c531659141344cd1fd0a4f28419497f9722a3daafe3b4186f6b6457e090600090a35050565b828054620000f79062000301565b90600052602060002090601f0160209004810192826200011b576000855562000166565b82601f106200013657805160ff191683800117855562000166565b8280016001018555821562000166579182015b828111156200016657825182559160200191906001019062000149565b506200017492915062000178565b5090565b5b8082111562000174576000815560010162000179565b634e487b7160e01b600052604160045260246000fd5b600082601f830112620001b757600080fd5b81516001600160401b0380821115620001d457620001d46200018f565b604051601f8301601f19908116603f01168101908282118183101715620001ff57620001ff6200018f565b816040528381526020925086838588010111156200021c57600080fd5b600091505b8382101562000240578582018301518183018401529082019062000221565b83821115620002525760008385830101525b9695505050505050565b805180151581146200026d57600080fd5b919050565b600080600080608085870312156200028957600080fd5b84516001600160401b0380821115620002a157600080fd5b620002af88838901620001a5565b95506020870151915080821115620002c657600080fd5b50620002d587828801620001a5565b935050620002e6604086016200025c565b9150620002f6606086016200025c565b905092959194509250565b600181811c908216806200031657607f821691505b602082108114156200033857634e487b7160e01b600052602260045260246000fd5b50919050565b60805160a051611dff620003726000396000818161033201526106660152600081816103cd01526107430152611dff6000f3fe608060405234801561001057600080fd5b50600436106101c45760003560e01c8063715018a6116100f9578063b88d4fde11610097578063d284ad4911610071578063d284ad49146103a8578063e11360b3146103c8578063e985e9c5146103ef578063f2fde38b1461042b57600080fd5b8063b88d4fde1461036f578063c87b56dd14610382578063ccb8c1e01461039557600080fd5b80638da5cb5b116100d35780638da5cb5b1461031757806392ff0d311461032d57806395d89b4114610354578063a22cb4651461035c57600080fd5b8063715018a6146102f45780638456cb59146102fc5780638747336c1461030457600080fd5b806342966c68116101665780635c975abb116101405780635c975abb146102ad5780636352211e146102b8578063641bd719146102cb57806370a08231146102d357600080fd5b806342966c68146102745780634edae98f146102875780635393db361461029a57600080fd5b8063095ea7b3116101a2578063095ea7b31461023157806323b872dd146102465780633f4ba83a1461025957806342842e0e1461026157600080fd5b806301ffc9a7146101c957806306fdde03146101f1578063081812fc14610206575b600080fd5b6101dc6101d736600461180d565b61043e565b60405190151581526020015b60405180910390f35b6101f9610490565b6040516101e89190611882565b610219610214366004611895565b610522565b6040516001600160a01b0390911681526020016101e8565b61024461023f3660046118ca565b610549565b005b6102446102543660046118f4565b610664565b61024461070c565b61024461026f3660046118f4565b61071e565b610244610282366004611895565b610739565b61024461029536600461197c565b61081e565b6102196102a8366004611895565b61086f565b60065460ff166101dc565b6102196102c6366004611895565b610899565b6102446108f9565b6102e66102e13660046119be565b61099c565b6040519081526020016101e8565b610244610a22565b610244610a34565b6102e66103123660046118ca565b610a44565b60065461010090046001600160a01b0316610219565b6101dc7f000000000000000000000000000000000000000000000000000000000000000081565b6101f9610a75565b61024461036a3660046119d9565b610a84565b61024461037d366004611a2b565b610a93565b6101f9610390366004611895565b610acb565b6102e66103a336600461197c565b610b3f565b6103bb6103b63660046119be565b610b8a565b6040516101e89190611b07565b6101dc7f000000000000000000000000000000000000000000000000000000000000000081565b6101dc6103fd366004611b4b565b6001600160a01b03918216600090815260056020908152604080832093909416825291909152205460ff1690565b6102446104393660046119be565b610bf6565b60006001600160e01b031982166380ac58cd60e01b148061046f57506001600160e01b03198216635b5e139f60e01b145b8061048a57506301ffc9a760e01b6001600160e01b03198316145b92915050565b60606000805461049f90611b7e565b80601f01602080910402602001604051908101604052809291908181526020018280546104cb90611b7e565b80156105185780601f106104ed57610100808354040283529160200191610518565b820191906000526020600020905b8154815290600101906020018083116104fb57829003601f168201915b5050505050905090565b600061052d82610c6c565b506000908152600460205260409020546001600160a01b031690565b600061055482610899565b9050806001600160a01b0316836001600160a01b031614156105c75760405162461bcd60e51b815260206004820152602160248201527f4552433732313a20617070726f76616c20746f2063757272656e74206f776e656044820152603960f91b60648201526084015b60405180910390fd5b336001600160a01b03821614806105e357506105e381336103fd565b6106555760405162461bcd60e51b815260206004820152603d60248201527f4552433732313a20617070726f76652063616c6c6572206973206e6f7420746f60448201527f6b656e206f776e6572206f7220617070726f76656420666f7220616c6c00000060648201526084016105be565b61065f8383610ccb565b505050565b7f00000000000000000000000000000000000000000000000000000000000000006106db5760405162461bcd60e51b815260206004820152602160248201527f74686973207061737363617264206973206e6f74207472616e7366657261626c6044820152606560f81b60648201526084016105be565b6106e53282610d39565b6107015760405162461bcd60e51b81526004016105be90611bb9565b61065f838383610db8565b610714610f29565b61071c610f89565b565b61065f83838360405180602001604052806000815250610a93565b610741610f29565b7f00000000000000000000000000000000000000000000000000000000000000006107ae5760405162461bcd60e51b815260206004820152601e60248201527f74686973207061737363617264206973206e6f74207265766f6b61626c65000060448201526064016105be565b6107b83382610d39565b6108125760405162461bcd60e51b815260206004820152602560248201527f63616c6c6572206973206e6f7420746f6b656e206f776e6572206f72206170706044820152641c9bdd995960da1b60648201526084016105be565b61081b81610fdb565b50565b610826610f29565b61083260088383611765565b507fd65971f3e19593881e8ddb6a1ab6b4bcb2aa79f5aa0ed58c93d1b0b031d1679360086040516108639190611c06565b60405180910390a15050565b6008818154811061087f57600080fd5b6000918252602090912001546001600160a01b0316905081565b6000818152600260205260408120546001600160a01b03168061048a5760405162461bcd60e51b8152602060048201526018602482015277115490cdcc8c4e881a5b9d985b1a59081d1bdad95b88125160421b60448201526064016105be565b610901610f29565b60085461093f5760405162461bcd60e51b815260206004820152600c60248201526b1859191c995cdcc81b9d5b1b60a21b60448201526064016105be565b60085460005b8181101561098f5761097d6008828154811061096357610963611c4a565b6000918252602090912001546001600160a01b031661107e565b8061098781611c76565b915050610945565b5061081b600860006117c8565b60006001600160a01b038216610a065760405162461bcd60e51b815260206004820152602960248201527f4552433732313a2061646472657373207a65726f206973206e6f7420612076616044820152683634b21037bbb732b960b91b60648201526084016105be565b506001600160a01b031660009081526003602052604090205490565b610a2a610f29565b61071c60006110d7565b610a3c610f29565b61071c611131565b60096020528160005260406000208181548110610a6057600080fd5b90600052602060002001600091509150505481565b60606001805461049f90611b7e565b610a8f33838361116e565b5050565b610a9d3383610d39565b610ab95760405162461bcd60e51b81526004016105be90611bb9565b610ac58484848461123d565b50505050565b6060610ad682610c6c565b6000610aed60408051602081019091526000815290565b90506000815111610b0d5760405180602001604052806000815250610b38565b80610b1784611270565b604051602001610b28929190611c91565b6040516020818303038152906040525b9392505050565b6000805b82811015610b8357838382818110610b5d57610b5d611c4a565b9050602002013582610b6f9190611cc0565b915080610b7b81611c76565b915050610b43565b5092915050565b6001600160a01b038116600090815260096020908152604091829020805483518184028101840190945280845260609392830182828015610bea57602002820191906000526020600020905b815481526020019060010190808311610bd6575b50505050509050919050565b610bfe610f29565b6001600160a01b038116610c635760405162461bcd60e51b815260206004820152602660248201527f4f776e61626c653a206e6577206f776e657220697320746865207a65726f206160448201526564647265737360d01b60648201526084016105be565b61081b816110d7565b6000818152600260205260409020546001600160a01b031661081b5760405162461bcd60e51b8152602060048201526018602482015277115490cdcc8c4e881a5b9d985b1a59081d1bdad95b88125160421b60448201526064016105be565b600081815260046020526040902080546001600160a01b0319166001600160a01b0384169081179091558190610d0082610899565b6001600160a01b03167f8c5be1e5ebec7d5bd14f71427d1e84f3dd0314c0f7b2291e5b200ac8c7c3b92560405160405180910390a45050565b600080610d4583610899565b9050806001600160a01b0316846001600160a01b03161480610d8c57506001600160a01b0380821660009081526005602090815260408083209388168352929052205460ff165b80610db05750836001600160a01b0316610da584610522565b6001600160a01b0316145b949350505050565b826001600160a01b0316610dcb82610899565b6001600160a01b031614610df15760405162461bcd60e51b81526004016105be90611cd8565b6001600160a01b038216610e535760405162461bcd60e51b8152602060048201526024808201527f4552433732313a207472616e7366657220746f20746865207a65726f206164646044820152637265737360e01b60648201526084016105be565b610e60838383600161130d565b826001600160a01b0316610e7382610899565b6001600160a01b031614610e995760405162461bcd60e51b81526004016105be90611cd8565b600081815260046020908152604080832080546001600160a01b03199081169091556001600160a01b0387811680865260038552838620805460001901905590871680865283862080546001019055868652600290945282852080549092168417909155905184937fddf252ad1be2c89b69c2b068fc378daa952ba7f163c4a11628f55a4df523b3ef91a4505050565b6006546001600160a01b0361010090910416331461071c5760405162461bcd60e51b815260206004820181905260248201527f4f776e61626c653a2063616c6c6572206973206e6f7420746865206f776e657260448201526064016105be565b610f9161131a565b6006805460ff191690557f5db9ee0a495bf2e6ff9c91a7834c1ba4fdd244a5e8aa4e537bd38aeae4b073aa335b6040516001600160a01b03909116815260200160405180910390a1565b6000610fe682610899565b9050610ff681600084600161130d565b610fff82610899565b600083815260046020908152604080832080546001600160a01b03199081169091556001600160a01b0385168085526003845282852080546000190190558785526002909352818420805490911690555192935084927fddf252ad1be2c89b69c2b068fc378daa952ba7f163c4a11628f55a4df523b3ef908390a45050565b611086610f29565b600061109160075490565b90506110a1600780546001019055565b6110ab8282611363565b6001600160a01b0390911660009081526009602090815260408220805460018101825590835291200155565b600680546001600160a01b03838116610100818102610100600160a81b031985161790945560405193909204169182907f8be0079c531659141344cd1fd0a4f28419497f9722a3daafe3b4186f6b6457e090600090a35050565b61113961137d565b6006805460ff191660011790557f62e78cea01bee320cd4e420270b5ea74000d11b0c9f74754ebdbfc544b05a258610fbe3390565b816001600160a01b0316836001600160a01b031614156111d05760405162461bcd60e51b815260206004820152601960248201527f4552433732313a20617070726f766520746f2063616c6c65720000000000000060448201526064016105be565b6001600160a01b03838116600081815260056020908152604080832094871680845294825291829020805460ff191686151590811790915591519182527f17307eab39ab6107e8899845ad3d59bd9653f200f220920489ca2b5937696c31910160405180910390a3505050565b611248848484610db8565b611254848484846113c3565b610ac55760405162461bcd60e51b81526004016105be90611d1d565b6060600061127d836114c1565b600101905060008167ffffffffffffffff81111561129d5761129d611a15565b6040519080825280601f01601f1916602001820160405280156112c7576020820181803683370190505b5090508181016020015b600019016f181899199a1a9b1b9c1cb0b131b232b360811b600a86061a8153600a850494508461130057611305565b6112d1565b509392505050565b61131561137d565b610ac5565b60065460ff1661071c5760405162461bcd60e51b815260206004820152601460248201527314185d5cd8589b194e881b9bdd081c185d5cd95960621b60448201526064016105be565b610a8f828260405180602001604052806000815250611599565b60065460ff161561071c5760405162461bcd60e51b815260206004820152601060248201526f14185d5cd8589b194e881c185d5cd95960821b60448201526064016105be565b60006001600160a01b0384163b156114b657604051630a85bd0160e11b81526001600160a01b0385169063150b7a0290611407903390899088908890600401611d6f565b6020604051808303816000875af1925050508015611442575060408051601f3d908101601f1916820190925261143f91810190611dac565b60015b61149c573d808015611470576040519150601f19603f3d011682016040523d82523d6000602084013e611475565b606091505b5080516114945760405162461bcd60e51b81526004016105be90611d1d565b805181602001fd5b6001600160e01b031916630a85bd0160e11b149050610db0565b506001949350505050565b60008072184f03e93ff9f4daa797ed6e38ed64bf6a1f0160401b83106115005772184f03e93ff9f4daa797ed6e38ed64bf6a1f0160401b830492506040015b6d04ee2d6d415b85acef8100000000831061152c576d04ee2d6d415b85acef8100000000830492506020015b662386f26fc10000831061154a57662386f26fc10000830492506010015b6305f5e1008310611562576305f5e100830492506008015b612710831061157657612710830492506004015b60648310611588576064830492506002015b600a831061048a5760010192915050565b6115a383836115cc565b6115b060008484846113c3565b61065f5760405162461bcd60e51b81526004016105be90611d1d565b6001600160a01b0382166116225760405162461bcd60e51b815260206004820181905260248201527f4552433732313a206d696e7420746f20746865207a65726f206164647265737360448201526064016105be565b6000818152600260205260409020546001600160a01b0316156116875760405162461bcd60e51b815260206004820152601c60248201527f4552433732313a20746f6b656e20616c7265616479206d696e7465640000000060448201526064016105be565b61169560008383600161130d565b6000818152600260205260409020546001600160a01b0316156116fa5760405162461bcd60e51b815260206004820152601c60248201527f4552433732313a20746f6b656e20616c7265616479206d696e7465640000000060448201526064016105be565b6001600160a01b038216600081815260036020908152604080832080546001019055848352600290915280822080546001600160a01b0319168417905551839291907fddf252ad1be2c89b69c2b068fc378daa952ba7f163c4a11628f55a4df523b3ef908290a45050565b8280548282559060005260206000209081019282156117b8579160200282015b828111156117b85781546001600160a01b0319166001600160a01b03843516178255602090920191600190910190611785565b506117c49291506117e2565b5090565b508054600082559060005260206000209081019061081b91905b5b808211156117c457600081556001016117e3565b6001600160e01b03198116811461081b57600080fd5b60006020828403121561181f57600080fd5b8135610b38816117f7565b60005b8381101561184557818101518382015260200161182d565b83811115610ac55750506000910152565b6000815180845261186e81602086016020860161182a565b601f01601f19169290920160200192915050565b602081526000610b386020830184611856565b6000602082840312156118a757600080fd5b5035919050565b80356001600160a01b03811681146118c557600080fd5b919050565b600080604083850312156118dd57600080fd5b6118e6836118ae565b946020939093013593505050565b60008060006060848603121561190957600080fd5b611912846118ae565b9250611920602085016118ae565b9150604084013590509250925092565b60008083601f84011261194257600080fd5b50813567ffffffffffffffff81111561195a57600080fd5b6020830191508360208260051b850101111561197557600080fd5b9250929050565b6000806020838503121561198f57600080fd5b823567ffffffffffffffff8111156119a657600080fd5b6119b285828601611930565b90969095509350505050565b6000602082840312156119d057600080fd5b610b38826118ae565b600080604083850312156119ec57600080fd5b6119f5836118ae565b915060208301358015158114611a0a57600080fd5b809150509250929050565b634e487b7160e01b600052604160045260246000fd5b60008060008060808587031215611a4157600080fd5b611a4a856118ae565b9350611a58602086016118ae565b925060408501359150606085013567ffffffffffffffff80821115611a7c57600080fd5b818701915087601f830112611a9057600080fd5b813581811115611aa257611aa2611a15565b604051601f8201601f19908116603f01168101908382118183101715611aca57611aca611a15565b816040528281528a6020848701011115611ae357600080fd5b82602086016020830137600060208483010152809550505050505092959194509250565b6020808252825182820181905260009190848201906040850190845b81811015611b3f57835183529284019291840191600101611b23565b50909695505050505050565b60008060408385031215611b5e57600080fd5b611b67836118ae565b9150611b75602084016118ae565b90509250929050565b600181811c90821680611b9257607f821691505b60208210811415611bb357634e487b7160e01b600052602260045260246000fd5b50919050565b6020808252602d908201527f4552433732313a2063616c6c6572206973206e6f7420746f6b656e206f776e6560408201526c1c881bdc88185c1c1c9bdd9959609a1b606082015260800190565b6020808252825482820181905260008481528281209092916040850190845b81811015611b3f5783546001600160a01b031683526001938401939285019201611c25565b634e487b7160e01b600052603260045260246000fd5b634e487b7160e01b600052601160045260246000fd5b6000600019821415611c8a57611c8a611c60565b5060010190565b60008351611ca381846020880161182a565b835190830190611cb781836020880161182a565b01949350505050565b60008219821115611cd357611cd3611c60565b500190565b60208082526025908201527f4552433732313a207472616e736665722066726f6d20696e636f72726563742060408201526437bbb732b960d91b606082015260800190565b60208082526032908201527f4552433732313a207472616e7366657220746f206e6f6e20455243373231526560408201527131b2b4bb32b91034b6b83632b6b2b73a32b960711b606082015260800190565b6001600160a01b0385811682528416602082015260408101839052608060608201819052600090611da290830184611856565b9695505050505050565b600060208284031215611dbe57600080fd5b8151610b38816117f756fea26469706673582212202cd021975698b0b362d17ad0ef5916293d42e894918a1f0cb62f72647bcb8d4c64736f6c634300080c0033a264697066735822122025ee6bea6193d1af2067a483b492cc67d066fbb8217a2b517088ed1c6f70f2ec64736f6c634300080c0033",
  "linkReferences": {},
  "deployedLinkReferences": {}
}