{
  "_format": "hh-sol-artifact-1",
  "contractName": "DaoDomain",
  "sourceName": "contracts/DaoDomain.sol",
  "abi": [
    {
      "inputs": [],
      "stateMutability": "nonpayable",
      "type": "constructor"
    },
    {
      "anonymous": false,
      "inputs": [
        {
          "indexed": false,
          "internalType": "bytes32",
          "name": "node",
          "type": "bytes32"
        },
        {
          "indexed": false,
          "internalType": "bytes32",
          "name": "label",
          "type": "bytes32"
        },
        {
          "indexed": false,
          "internalType": "address",
          "name": "registant",
          "type": "address"
        },
        {
          "indexed": false,
          "internalType": "address",
          "name": "resolver",
          "type": "address"
        }
      ],
      "name": "sendtoEns",
      "type": "event"
    },
    {
      "inputs": [
        {
          "internalType": "uint256",
          "name": "",
          "type": "uint256"
        }
      ],
      "name": "PasscardToBind",
      "outputs": [
        {
          "internalType": "bool",
          "name": "",
          "type": "bool"
        }
      ],
      "stateMutability": "view",
      "type": "function"
    },
    {
      "inputs": [
        {
          "internalType": "uint256",
          "name": "",
          "type": "uint256"
        }
      ],
      "name": "PasscardToDomain",
      "outputs": [
        {
          "internalType": "bytes32",
          "name": "",
          "type": "bytes32"
        }
      ],
      "stateMutability": "view",
      "type": "function"
    },
    {
      "inputs": [
        {
          "internalType": "bytes32",
          "name": "_label",
          "type": "bytes32"
        },
        {
          "internalType": "uint256",
          "name": "tokenId",
          "type": "uint256"
        },
        {
          "internalType": "string",
          "name": "_nodename",
          "type": "string"
        }
      ],
      "name": "claim",
      "outputs": [],
      "stateMutability": "nonpayable",
      "type": "function"
    },
    {
      "inputs": [],
      "name": "controller",
      "outputs": [
        {
          "internalType": "contract IController",
          "name": "",
          "type": "address"
        }
      ],
      "stateMutability": "view",
      "type": "function"
    },
    {
      "inputs": [],
      "name": "ens",
      "outputs": [
        {
          "internalType": "contract IEns",
          "name": "",
          "type": "address"
        }
      ],
      "stateMutability": "view",
      "type": "function"
    },
    {
      "inputs": [],
      "name": "getAllPassCard",
      "outputs": [
        {
          "internalType": "uint256[]",
          "name": "",
          "type": "uint256[]"
        }
      ],
      "stateMutability": "view",
      "type": "function"
    },
    {
      "inputs": [
        {
          "internalType": "uint256",
          "name": "tokenId",
          "type": "uint256"
        }
      ],
      "name": "getPassCardStatus",
      "outputs": [
        {
          "internalType": "bool",
          "name": "",
          "type": "bool"
        }
      ],
      "stateMutability": "view",
      "type": "function"
    },
    {
      "inputs": [
        {
          "internalType": "string",
          "name": "nodename",
          "type": "string"
        }
      ],
      "name": "issueDomain",
      "outputs": [],
      "stateMutability": "nonpayable",
      "type": "function"
    },
    {
      "inputs": [],
      "name": "passcard",
      "outputs": [
        {
          "internalType": "contract PassCard",
          "name": "",
          "type": "address"
        }
      ],
      "stateMutability": "view",
      "type": "function"
    },
    {
      "inputs": [],
      "name": "resolver",
      "outputs": [
        {
          "internalType": "contract IResolver",
          "name": "",
          "type": "address"
        }
      ],
      "stateMutability": "view",
      "type": "function"
    },
    {
      "inputs": [
        {
          "internalType": "address",
          "name": "to",
          "type": "address"
        }
      ],
      "name": "setAddr",
      "outputs": [],
      "stateMutability": "nonpayable",
      "type": "function"
    },
    {
      "inputs": [
        {
          "internalType": "address",
          "name": "_adr",
          "type": "address"
        }
      ],
      "name": "setPassCard",
      "outputs": [],
      "stateMutability": "nonpayable",
      "type": "function"
    },
    {
      "inputs": [
        {
          "internalType": "address",
          "name": "_resolver",
          "type": "address"
        }
      ],
      "name": "setResolver",
      "outputs": [],
      "stateMutability": "nonpayable",
      "type": "function"
    },
    {
      "inputs": [
        {
          "internalType": "bytes32",
          "name": "_label",
          "type": "bytes32"
        }
      ],
      "name": "setSubnodeRecord",
      "outputs": [],
      "stateMutability": "nonpayable",
      "type": "function"
    },
    {
      "inputs": [
        {
          "internalType": "uint256",
          "name": "tokenId",
          "type": "uint256"
        },
        {
          "internalType": "bytes32",
          "name": "_label",
          "type": "bytes32"
        },
        {
          "internalType": "string",
          "name": "_nodename",
          "type": "string"
        }
      ],
      "name": "startDAO",
      "outputs": [],
      "stateMutability": "nonpayable",
      "type": "function"
    },
    {
      "inputs": [
        {
          "internalType": "address",
          "name": "to",
          "type": "address"
        },
        {
          "internalType": "uint256",
          "name": "tokenId",
          "type": "uint256"
        },
        {
          "internalType": "string",
          "name": "_nodename",
          "type": "string"
        }
      ],
      "name": "transferPassCardAndSubDomain",
      "outputs": [],
      "stateMutability": "nonpayable",
      "type": "function"
    }
  ],
  "bytecode": "0x6080604052600080547357f1887a8bf19b14fc0df6fd9b2acc9af147ea856001600160a01b0319918216811790925560018054909116909117905534801561004657600080fd5b50600980546001600160a01b0319166e0c2e074ec69a0dfb2997ba6c7d2e1e179055611186806100776000396000f3fe608060405234801561001057600080fd5b50600436106101005760003560e01c8063783423d211610097578063ee70297011610066578063ee70297014610253578063f4b381fd14610268578063f6b457de1461027b578063f77c4791146102ab57600080fd5b8063783423d2146101d7578063d1bd97da1461020a578063d1d80fdf1461022d578063edb41d211461024057600080fd5b80634e543b26116100d35780634e543b261461018b5780635e219c481461019e57806374dc483f146101b157806376a3969e146101c457600080fd5b806304f3bcec146101055780631b62d8721461013557806332b9afc9146101635780633f15457f14610178575b600080fd5b600a54610118906001600160a01b031681565b6040516001600160a01b0390911681526020015b60405180910390f35b610155610143366004610ca5565b60036020526000908152604090205481565b60405190815260200161012c565b610176610171366004610d8a565b6102be565b005b600954610118906001600160a01b031681565b610176610199366004610de3565b6103be565b6101766101ac366004610e07565b61042c565b600254610118906001600160a01b031681565b6101766101d2366004610ca5565b6104f9565b6101fa6101e5366004610ca5565b60009081526004602052604090205460ff1690565b604051901515815260200161012c565b6101fa610218366004610ca5565b60046020526000908152604090205460ff1681565b61017661023b366004610de3565b610598565b61017661024e366004610e07565b610635565b61025b610902565b60405161012c9190610e41565b610176610276366004610e85565b610978565b610176610289366004610de3565b600280546001600160a01b0319166001600160a01b0392909216919091179055565b600054610118906001600160a01b031681565b6002546040516323b872dd60e01b81523360048201526001600160a01b03858116602483015260448201859052909116906323b872dd90606401600060405180830381600087803b15801561031257600080fd5b505af1158015610326573d6000803e3d6000fd5b50505060008381526003602052604090205490506103448183610a38565b6009546007546040516305ef2c7f60e41b81526001600160a01b0390921691635ef2c7f09161037e91859060009081908190600401610ec2565b600060405180830381600087803b15801561039857600080fd5b505af11580156103ac573d6000803e3d6000fd5b505050506103b8610bd1565b50505050565b600954600754604051630c4b7b8560e11b815260048101919091526001600160a01b03838116602483015290911690631896f70a906044015b600060405180830381600087803b15801561041157600080fd5b505af1158015610425573d6000803e3d6000fd5b5050505050565b6002546040516331a9108f60e11b81526004810184905283916000916001600160a01b0390911690636352211e90602401602060405180830381865afa15801561047a573d6000803e3d6000fd5b505050506040513d601f19601f8201168201806040525081019061049e9190610ef8565b9050336001600160a01b038216146104ee5760405162461bcd60e51b815260206004820152600f60248201526e3737ba103a37b5b2b71037bbb732b960891b604482015260640160405180910390fd5b610425848685610635565b600954600754604051630178b8bf60e01b8152600481018290526001600160a01b0390921691635ef2c7f09190849030908590630178b8bf90602401602060405180830381865afa158015610552573d6000803e3d6000fd5b505050506040513d601f19601f820116820180604052508101906105769190610ef8565b60006040518663ffffffff1660e01b81526004016103f7959493929190610ec2565b6040516bffffffffffffffffffffffff19606083901b16602082015260009060340160408051601f1981840301815290829052600a54600654638b95dd7160e01b84529193506001600160a01b031691638b95dd71916105ff91603c908690600401610f41565b600060405180830381600087803b15801561061957600080fd5b505af115801561062d573d6000803e3d6000fd5b505050505050565b61063f8282610a38565b600954600754604051630178b8bf60e01b815260048101919091526000916001600160a01b031690630178b8bf90602401602060405180830381865afa15801561068d573d6000803e3d6000fd5b505050506040513d601f19601f820116820180604052508101906106b19190610ef8565b6009546007546040516305ef2c7f60e41b81529293506001600160a01b0390911691635ef2c7f0916106ee91879030908790600090600401610ec2565b600060405180830381600087803b15801561070857600080fd5b505af115801561071c573d6000803e3d6000fd5b5050600954600754604051630c4b7b8560e11b815260048101919091526001600160a01b0385811660248301529091169250631896f70a9150604401600060405180830381600087803b15801561077257600080fd5b505af1158015610786573d6000803e3d6000fd5b5050600a54600654604051638b95dd7160e01b81526001600160a01b039092169350638b95dd7192506107c191603c90600890600401610fbd565b600060405180830381600087803b1580156107db57600080fd5b505af11580156107ef573d6000803e3d6000fd5b50506009546007546005546040516306ab592360e01b81526004810192909252602482018890526001600160a01b03908116604483015290911692506306ab592391506064016020604051808303816000875af1158015610854573d6000803e3d6000fd5b505050506040513d601f19601f820116820180604052508101906108789190611075565b5060075460055460408051928352602083018690526001600160a01b0391821690830152821660608201527fcc6e575905be59e3e2a0ebe1805959c6f78a4d268432b7e3ae8806b6bf3fdfaa9060800160405180910390a16108d8610bd1565b5050600091825260036020908152604080842092909255600490529020805460ff19166001179055565b60025460405163d284ad4960e01b81523360048201526060916001600160a01b03169063d284ad4990602401600060405180830381865afa15801561094b573d6000803e3d6000fd5b505050506040513d6000823e601f3d908101601f19168201604052610973919081019061108e565b905090565b60008160405160200161098b9190611134565b60408051808303601f190181529082905280516020909101206001546024830182905230604484015290925082916001600160a01b039091169060640160408051601f198184030181529181526020820180516001600160e01b0316630a3b53db60e21b179052516109fd9190611134565b600060405180830381855af49150503d806000811461062d576040519150601f19603f3d011682016040523d82523d6000602084013e61062d565b600580546001600160a01b03191632908117909155604051610a75919060200160609190911b6bffffffffffffffffffffffff1916815260140190565b60405160208183030381529060405260089080519060200190610a99929190610c0c565b50600081604051602001610aad9190611134565b60408051808303601f1901815282825280516020918201207f93cdeb708b7545dc668eb9280176169d1c33cfd8ed6f04690a0bcc88a93fc4ae91840191909152908201819052915060600160408051808303601f190181528282528051602091820120600781905590830152810184905260600160408051808303601f19018152908290528051602090910120600655600954600754630178b8bf60e01b835260048301526000916001600160a01b0390911690630178b8bf90602401602060405180830381865afa158015610b87573d6000803e3d6000fd5b505050506040513d601f19601f82011682018060405250810190610bab9190610ef8565b600a80546001600160a01b0319166001600160a01b039290921691909117905550505050565b600580546001600160a01b0319169055600060068190556007819055604080516020810191829052829052610c099160089190610c0c565b50565b828054610c1890610f82565b90600052602060002090601f016020900481019282610c3a5760008555610c80565b82601f10610c5357805160ff1916838001178555610c80565b82800160010185558215610c80579182015b82811115610c80578251825591602001919060010190610c65565b50610c8c929150610c90565b5090565b5b80821115610c8c5760008155600101610c91565b600060208284031215610cb757600080fd5b5035919050565b6001600160a01b0381168114610c0957600080fd5b634e487b7160e01b600052604160045260246000fd5b604051601f8201601f1916810167ffffffffffffffff81118282101715610d1257610d12610cd3565b604052919050565b600082601f830112610d2b57600080fd5b813567ffffffffffffffff811115610d4557610d45610cd3565b610d58601f8201601f1916602001610ce9565b818152846020838601011115610d6d57600080fd5b816020850160208301376000918101602001919091529392505050565b600080600060608486031215610d9f57600080fd5b8335610daa81610cbe565b925060208401359150604084013567ffffffffffffffff811115610dcd57600080fd5b610dd986828701610d1a565b9150509250925092565b600060208284031215610df557600080fd5b8135610e0081610cbe565b9392505050565b600080600060608486031215610e1c57600080fd5b8335925060208401359150604084013567ffffffffffffffff811115610dcd57600080fd5b6020808252825182820181905260009190848201906040850190845b81811015610e7957835183529284019291840191600101610e5d565b50909695505050505050565b600060208284031215610e9757600080fd5b813567ffffffffffffffff811115610eae57600080fd5b610eba84828501610d1a565b949350505050565b94855260208501939093526001600160a01b03918216604085015216606083015267ffffffffffffffff16608082015260a00190565b600060208284031215610f0a57600080fd5b8151610e0081610cbe565b60005b83811015610f30578181015183820152602001610f18565b838111156103b85750506000910152565b8381528260208201526060604082015260008251806060840152610f6c816080850160208701610f15565b601f01601f191691909101608001949350505050565b600181811c90821680610f9657607f821691505b60208210811415610fb757634e487b7160e01b600052602260045260246000fd5b50919050565b838152600060208481840152606060408401526000845481600182811c915080831680610feb57607f831692505b85831081141561100957634e487b7160e01b85526022600452602485fd5b6060880183905260808801818015611028576001811461103957611064565b60ff19861682528782019650611064565b60008b81526020902060005b8681101561105e57815484820152908501908901611045565b83019750505b50949b9a5050505050505050505050565b60006020828403121561108757600080fd5b5051919050565b600060208083850312156110a157600080fd5b825167ffffffffffffffff808211156110b957600080fd5b818501915085601f8301126110cd57600080fd5b8151818111156110df576110df610cd3565b8060051b91506110f0848301610ce9565b818152918301840191848101908884111561110a57600080fd5b938501935b838510156111285784518252938501939085019061110f565b98975050505050505050565b60008251611146818460208701610f15565b919091019291505056fea2646970667358221220f9903018558bcc59e09aef5e4072ad9934a6a0ad3fbe8b3dbc234659d0aaad3b64736f6c634300080c0033",
  "linkReferences": {},
  "deployedLinkReferences": {}
}