{
  "_format": "hh-sol-artifact-1",
  "contractName": "DaoDomain",
  "sourceName": "contracts/DaoDomain.sol",
  "abi": [
    {
      "inputs": [
        {
          "internalType": "address",
          "name": "_storagemainAddr",
          "type": "address"
        }
      ],
      "stateMutability": "nonpayable",
      "type": "constructor"
    },
    {
      "anonymous": false,
      "inputs": [
        {
          "indexed": true,
          "internalType": "address",
          "name": "previousOwner",
          "type": "address"
        },
        {
          "indexed": true,
          "internalType": "address",
          "name": "newOwner",
          "type": "address"
        }
      ],
      "name": "OwnershipTransferred",
      "type": "event"
    },
    {
      "anonymous": false,
      "inputs": [
        {
          "indexed": false,
          "internalType": "uint256",
          "name": "tokenId",
          "type": "uint256"
        },
        {
          "indexed": false,
          "internalType": "address",
          "name": "passcardAdr",
          "type": "address"
        },
        {
          "indexed": false,
          "internalType": "address",
          "name": "user",
          "type": "address"
        }
      ],
      "name": "claimed",
      "type": "event"
    },
    {
      "anonymous": false,
      "inputs": [
        {
          "indexed": false,
          "internalType": "bytes32",
          "name": "node",
          "type": "bytes32"
        },
        {
          "indexed": false,
          "internalType": "bytes32",
          "name": "label",
          "type": "bytes32"
        },
        {
          "indexed": false,
          "internalType": "address",
          "name": "registant",
          "type": "address"
        },
        {
          "indexed": false,
          "internalType": "address",
          "name": "resolver",
          "type": "address"
        }
      ],
      "name": "sendtoEns",
      "type": "event"
    },
    {
      "inputs": [
        {
          "internalType": "uint256",
          "name": "",
          "type": "uint256"
        }
      ],
      "name": "PassCardAddr",
      "outputs": [
        {
          "internalType": "address",
          "name": "",
          "type": "address"
        }
      ],
      "stateMutability": "view",
      "type": "function"
    },
    {
      "inputs": [
        {
          "internalType": "address",
          "name": "",
          "type": "address"
        },
        {
          "internalType": "uint256",
          "name": "",
          "type": "uint256"
        }
      ],
      "name": "PasscardToBind",
      "outputs": [
        {
          "internalType": "bool",
          "name": "",
          "type": "bool"
        }
      ],
      "stateMutability": "view",
      "type": "function"
    },
    {
      "inputs": [
        {
          "internalType": "address",
          "name": "",
          "type": "address"
        },
        {
          "internalType": "uint256",
          "name": "",
          "type": "uint256"
        }
      ],
      "name": "PasscardToDomain",
      "outputs": [
        {
          "internalType": "bytes32",
          "name": "",
          "type": "bytes32"
        }
      ],
      "stateMutability": "view",
      "type": "function"
    },
    {
      "inputs": [
        {
          "internalType": "bytes32",
          "name": "_label",
          "type": "bytes32"
        },
        {
          "internalType": "uint256",
          "name": "tokenId",
          "type": "uint256"
        },
        {
          "internalType": "address",
          "name": "_passcardAdr",
          "type": "address"
        }
      ],
      "name": "claim",
      "outputs": [],
      "stateMutability": "nonpayable",
      "type": "function"
    },
    {
      "inputs": [],
      "name": "ens",
      "outputs": [
        {
          "internalType": "contract IENS",
          "name": "",
          "type": "address"
        }
      ],
      "stateMutability": "view",
      "type": "function"
    },
    {
      "inputs": [],
      "name": "getAllPassCard",
      "outputs": [
        {
          "internalType": "uint256[]",
          "name": "",
          "type": "uint256[]"
        }
      ],
      "stateMutability": "view",
      "type": "function"
    },
    {
      "inputs": [],
      "name": "getPassCardFactoryAddr",
      "outputs": [
        {
          "internalType": "address",
          "name": "",
          "type": "address"
        }
      ],
      "stateMutability": "view",
      "type": "function"
    },
    {
      "inputs": [
        {
          "internalType": "uint256",
          "name": "tokenId",
          "type": "uint256"
        }
      ],
      "name": "getPassCardStatus",
      "outputs": [
        {
          "internalType": "bool",
          "name": "",
          "type": "bool"
        }
      ],
      "stateMutability": "view",
      "type": "function"
    },
    {
      "inputs": [],
      "name": "getStorageDomainAddress",
      "outputs": [
        {
          "internalType": "address",
          "name": "",
          "type": "address"
        }
      ],
      "stateMutability": "view",
      "type": "function"
    },
    {
      "inputs": [
        {
          "internalType": "string",
          "name": "name",
          "type": "string"
        },
        {
          "internalType": "string",
          "name": "symbol",
          "type": "string"
        },
        {
          "internalType": "uint256",
          "name": "_tokenId",
          "type": "uint256"
        },
        {
          "internalType": "bool",
          "name": "transferable",
          "type": "bool"
        },
        {
          "internalType": "bool",
          "name": "revokable",
          "type": "bool"
        },
        {
          "internalType": "address[]",
          "name": "_address",
          "type": "address[]"
        }
      ],
      "name": "issueDomain",
      "outputs": [],
      "stateMutability": "nonpayable",
      "type": "function"
    },
    {
      "inputs": [],
      "name": "owner",
      "outputs": [
        {
          "internalType": "address",
          "name": "",
          "type": "address"
        }
      ],
      "stateMutability": "view",
      "type": "function"
    },
    {
      "inputs": [],
      "name": "passcard",
      "outputs": [
        {
          "internalType": "contract PassCard",
          "name": "",
          "type": "address"
        }
      ],
      "stateMutability": "view",
      "type": "function"
    },
    {
      "inputs": [],
      "name": "renounceOwnership",
      "outputs": [],
      "stateMutability": "nonpayable",
      "type": "function"
    },
    {
      "inputs": [],
      "name": "resolver",
      "outputs": [
        {
          "internalType": "contract IResolver",
          "name": "",
          "type": "address"
        }
      ],
      "stateMutability": "view",
      "type": "function"
    },
    {
      "inputs": [
        {
          "internalType": "uint256",
          "name": "tokenId",
          "type": "uint256"
        },
        {
          "internalType": "string",
          "name": "_nodename",
          "type": "string"
        },
        {
          "internalType": "address",
          "name": "_passcardAdr",
          "type": "address"
        }
      ],
      "name": "revoke",
      "outputs": [],
      "stateMutability": "nonpayable",
      "type": "function"
    },
    {
      "inputs": [],
      "name": "storagedomain",
      "outputs": [
        {
          "internalType": "contract IStorageDomain",
          "name": "",
          "type": "address"
        }
      ],
      "stateMutability": "view",
      "type": "function"
    },
    {
      "inputs": [
        {
          "internalType": "address",
          "name": "newOwner",
          "type": "address"
        }
      ],
      "name": "transferOwnership",
      "outputs": [],
      "stateMutability": "nonpayable",
      "type": "function"
    },
    {
      "inputs": [
        {
          "internalType": "address",
          "name": "to",
          "type": "address"
        },
        {
          "internalType": "uint256",
          "name": "tokenId",
          "type": "uint256"
        },
        {
          "internalType": "string",
          "name": "_nodename",
          "type": "string"
        },
        {
          "internalType": "address",
          "name": "_passcardAdr",
          "type": "address"
        }
      ],
      "name": "transferPassCardAndSubDomain",
      "outputs": [],
      "stateMutability": "nonpayable",
      "type": "function"
    }
  ],
  "bytecode": "0x60806040523480156200001157600080fd5b50604051620042613803806200426183398101604081905262000034916200010d565b600080546001600160a01b0319167357f1887a8bf19b14fc0df6fd9b2acc9af147ea85179055806200006d620000673390565b620000bb565b600280546001600160a01b039283166001600160a01b0319918216179091556000805482166e0c2e074ec69a0dfb2997ba6c7d2e1e179055600480549390921692169190911790556200013f565b600180546001600160a01b038381166001600160a01b0319831681179093556040519116919082907f8be0079c531659141344cd1fd0a4f28419497f9722a3daafe3b4186f6b6457e090600090a35050565b6000602082840312156200012057600080fd5b81516001600160a01b03811681146200013857600080fd5b9392505050565b614112806200014f6000396000f3fe60806040523480156200001157600080fd5b50600436106200012d5760003560e01c8063783423d211620000af5780639acdce45116200007a5780639acdce4514620002a2578063b6b8066414620002ac578063c28ab4bb14620002c3578063ee70297014620002f4578063f2fde38b146200030d57600080fd5b8063783423d2146200022d5780638da5cb5b146200026f5780638f9d3c99146200028157806398666470146200029857600080fd5b80633a9962e111620000fc5780633a9962e114620001aa5780633f15457f14620001e757806341a5e6df14620001fb578063715018a6146200020f57806374dc483f146200021957600080fd5b806303f0f6cf146200013257806304f3bcec146200016657806304f73fe4146200017a5780633a28825d1462000193575b600080fd5b620001496200014336600462001724565b62000324565b6040516001600160a01b0390911681526020015b60405180910390f35b600c5462000149906001600160a01b031681565b620001916200018b36600462001754565b6200034f565b005b62000191620001a436600462001861565b620006db565b620001d8620001bb366004620018d5565b600660209081526000928352604080842090915290825290205481565b6040519081526020016200015d565b60005462000149906001600160a01b031681565b60025462000149906001600160a01b031681565b62000191620008d1565b60055462000149906001600160a01b031681565b6200025e6200023e36600462001724565b336000908152600760209081526040808320938352929052205460ff1690565b60405190151581526020016200015d565b6001546001600160a01b031662000149565b62000191620002923660046200191a565b620008e9565b6200014962000c13565b6200014962000c94565b62000191620002bd36600462001a13565b62000ca0565b6200025e620002d4366004620018d5565b600760209081526000928352604080842090915290825290205460ff1681565b620002fe62000eb3565b6040516200015d919062001a69565b620001916200031e36600462001aaf565b62000f27565b600d81815481106200033557600080fd5b6000918252602090912001546001600160a01b0316905081565b600580546001600160a01b0319166001600160a01b0383169081179091556040516331a9108f60e11b8152600481018490528391839160009190636352211e90602401602060405180830381865afa158015620003b0573d6000803e3d6000fd5b505050506040513d601f19601f82011682018060405250810190620003d6919062001ad6565b9050336001600160a01b038216146200040c5760405162461bcd60e51b8152600401620004039062001af6565b60405180910390fd5b600254604080516315a5445160e01b815290516000926001600160a01b0316916315a544519160048083019260209291908290030181865afa15801562000457573d6000803e3d6000fd5b505050506040513d601f19601f820116820180604052508101906200047d919062001b1f565b905060005b81811015620006d157600480546040516361dfbe8d60e01b81529182018390526001600160a01b03888116929116906361dfbe8d90602401602060405180830381865afa158015620004d8573d6000803e3d6000fd5b505050506040513d601f19601f82011682018060405250810190620004fe919062001ad6565b6001600160a01b03161415620006bc576001600160a01b03861660009081526007602090815260408083208a845290915290205460ff1615620005765760405162461bcd60e51b815260206004820152600f60248201526e185b1c9958591e4818db185a5b5959608a1b604482015260640162000403565b60048054604051639f8e355760e01b81529182018390526000916001600160a01b0390911690639f8e355790602401600060405180830381865afa158015620005c3573d6000803e3d6000fd5b505050506040513d6000823e601f3d908101601f19168201604052620005ed919081019062001b6c565b9050620005fc888a8362000fa6565b60048054604051634a916e2960e01b815233928101929092526001600160a01b038981166024840152604483018c9052606483018b90521690634a916e2990608401600060405180830381600087803b1580156200065957600080fd5b505af11580156200066e573d6000803e3d6000fd5b5050604080518b81526001600160a01b038b166020820152338183015290517feb18eb66e4767f3b26369c5edf99d49f301168b7e846acf64273a70d49d3462a9350908190036060019150a1505b80620006c88162001bec565b91505062000482565b5050505050505050565b600580546001600160a01b0319166001600160a01b0383169081179091556040516331a9108f60e11b8152600481018590528491839160009190636352211e90602401602060405180830381865afa1580156200073c573d6000803e3d6000fd5b505050506040513d601f19601f8201168201806040525081019062000762919062001ad6565b9050336001600160a01b038216146200078f5760405162461bcd60e51b8152600401620004039062001af6565b6005546040516323b872dd60e01b81523360048201526001600160a01b03898116602483015260448201899052909116906323b872dd90606401600060405180830381600087803b158015620007e457600080fd5b505af1158015620007f9573d6000803e3d6000fd5b50506005546001600160a01b031660009081526006602090815260408083208b845290915290205491506200083190508187620012b4565b60008054600a546040516305ef2c7f60e41b81526001600160a01b0390921692635ef2c7f0926200086c929186918190819060040162001c16565b600060405180830381600087803b1580156200088757600080fd5b505af11580156200089c573d6000803e3d6000fd5b50506005546001600160a01b031660009081526006602090815260408083208c845290915281205550620006d1905062001455565b620008db6200148f565b620008e76000620014eb565b565b60048054604051625efb0b60e41b81526000926001600160a01b03909216916305efb0b0916200091e9133918d910162001c7a565b602060405180830381865afa1580156200093c573d6000803e3d6000fd5b505050506040513d601f19601f8201168201806040525081019062000962919062001ad6565b6001600160a01b0316141562000aaa57600062000982888886886200153d565b600d80546001810182556000919091527fd7b6990105719101dabeb77144f2a3385c8033acd3af97e9423a695e81ad1eb50180546001600160a01b0383166001600160a01b031991821681179092556005805490911682179055604051634edae98f60e01b815291925090634edae98f9062000a05908690869060040162001ca8565b600060405180830381600087803b15801562000a2057600080fd5b505af115801562000a35573d6000803e3d6000fd5b50505050600560009054906101000a90046001600160a01b03166001600160a01b031663641bd7196040518163ffffffff1660e01b8152600401600060405180830381600087803b15801562000a8a57600080fd5b505af115801562000a9f573d6000803e3d6000fd5b505050505062000c0a565b60048054604051625efb0b60e41b81526000926001600160a01b03909216916305efb0b09162000adf9133918d910162001c7a565b602060405180830381865afa15801562000afd573d6000803e3d6000fd5b505050506040513d601f19601f8201168201806040525081019062000b23919062001ad6565b600580546001600160a01b0319166001600160a01b038316908117909155604051634edae98f60e01b815291925090634edae98f9062000b6a908690869060040162001ca8565b600060405180830381600087803b15801562000b8557600080fd5b505af115801562000b9a573d6000803e3d6000fd5b50505050600560009054906101000a90046001600160a01b03166001600160a01b031663641bd7196040518163ffffffff1660e01b8152600401600060405180830381600087803b15801562000bef57600080fd5b505af115801562000c04573d6000803e3d6000fd5b50505050505b50505050505050565b6000600460009054906101000a90046001600160a01b03166001600160a01b0316634b9b0eb16040518163ffffffff1660e01b8152600401602060405180830381865afa15801562000c69573d6000803e3d6000fd5b505050506040513d601f19601f8201168201806040525081019062000c8f919062001ad6565b905090565b600062000c8f6200165f565b600580546001600160a01b0319166001600160a01b0383169081179091556040516331a9108f60e11b8152600481018590528491839160009190636352211e90602401602060405180830381865afa15801562000d01573d6000803e3d6000fd5b505050506040513d601f19601f8201168201806040525081019062000d27919062001ad6565b9050336001600160a01b0382161462000d545760405162461bcd60e51b8152600401620004039062001af6565b600554604051630852cd8d60e31b8152600481018890526001600160a01b03909116906342966c6890602401600060405180830381600087803b15801562000d9b57600080fd5b505af115801562000db0573d6000803e3d6000fd5b50506005546001600160a01b031660009081526006602090815260408083208b8452909152902054915062000de890508187620012b4565b60008054600a546040516305ef2c7f60e41b81526001600160a01b0390921692635ef2c7f09262000e23929186918190819060040162001c16565b600060405180830381600087803b15801562000e3e57600080fd5b505af115801562000e53573d6000803e3d6000fd5b5050505062000e6162001455565b5050600580546001600160a01b0390811660009081526006602090815260408083208a845282528083208390559354909216815260078252828120978152969052909420805460ff1916905550505050565b60055460405163d284ad4960e01b81523360048201526060916001600160a01b03169063d284ad4990602401600060405180830381865afa15801562000efd573d6000803e3d6000fd5b505050506040513d6000823e601f3d908101601f1916820160405262000c8f919081019062001cfa565b62000f316200148f565b6001600160a01b03811662000f985760405162461bcd60e51b815260206004820152602660248201527f4f776e61626c653a206e6577206f776e657220697320746865207a65726f206160448201526564647265737360d01b606482015260840162000403565b62000fa381620014eb565b50565b62000fb28282620012b4565b60008054600a54604051630178b8bf60e01b81526001600160a01b0390921691630178b8bf9162000fe99160040190815260200190565b602060405180830381865afa15801562001007573d6000803e3d6000fd5b505050506040513d601f19601f820116820180604052508101906200102d919062001ad6565b60008054600a546040516305ef2c7f60e41b81529394506001600160a01b0390911692635ef2c7f0926200106c92918891309188919060040162001c16565b600060405180830381600087803b1580156200108757600080fd5b505af11580156200109c573d6000803e3d6000fd5b5050600054600a54604051630c4b7b8560e11b815260048101919091526001600160a01b0385811660248301529091169250631896f70a9150604401600060405180830381600087803b158015620010f357600080fd5b505af115801562001108573d6000803e3d6000fd5b5050600c54600954604051638b95dd7160e01b81526001600160a01b039092169350638b95dd7192506200114591603c90600b9060040162001de8565b600060405180830381600087803b1580156200116057600080fd5b505af115801562001175573d6000803e3d6000fd5b5050600054600a546008546040516306ab592360e01b81526004810192909252602482018890526001600160a01b03908116604483015290911692506306ab592391506064016020604051808303816000875af1158015620011db573d6000803e3d6000fd5b505050506040513d601f19601f8201168201806040525081019062001201919062001b1f565b50600a5460085460408051928352602083018690526001600160a01b0391821690830152821660608201527fcc6e575905be59e3e2a0ebe1805959c6f78a4d268432b7e3ae8806b6bf3fdfaa9060800160405180910390a16200126362001455565b5050600580546001600160a01b03908116600090815260066020908152604080832087845282528083209590955592549091168152600782528281209381529290529020805460ff19166001179055565b600880546001600160a01b03191633908117909155604051620012f2919060200160609190911b6bffffffffffffffffffffffff1916815260140190565b604051602081830303815290604052600b90805190602001906200131892919062001670565b506000816040516020016200132e919062001ea8565b60408051808303601f1901815282825280516020918201207f93cdeb708b7545dc668eb9280176169d1c33cfd8ed6f04690a0bcc88a93fc4ae91840191909152908201819052915060600160408051808303601f190181528282528051602091820120600a81905590830152810184905260600160408051808303601f1901815290829052805160209091012060095560008054600a54630178b8bf60e01b8452600484015290916001600160a01b0390911690630178b8bf90602401602060405180830381865afa15801562001409573d6000803e3d6000fd5b505050506040513d601f19601f820116820180604052508101906200142f919062001ad6565b600c80546001600160a01b0319166001600160a01b039290921691909117905550505050565b600880546001600160a01b031916905560006009819055600a81905560408051602081019182905282905262000fa391600b919062001670565b6001546001600160a01b03163314620008e75760405162461bcd60e51b815260206004820181905260248201527f4f776e61626c653a2063616c6c6572206973206e6f7420746865206f776e6572604482015260640162000403565b600180546001600160a01b038381166001600160a01b0319831681179093556040519116919082907f8be0079c531659141344cd1fd0a4f28419497f9722a3daafe3b4186f6b6457e090600090a35050565b600080858585856040516200155290620016ff565b62001561949392919062001ec6565b604051809103906000f0801580156200157e573d6000803e3d6000fd5b50600254604051634c46272760e11b81529192506001600160a01b03169063988c4e4e90620015b79060009085908b9060040162001f08565b600060405180830381600087803b158015620015d257600080fd5b505af1158015620015e7573d6000803e3d6000fd5b5050600254604051630ba018b760e31b81526001600160a01b039091169250635d00c5b89150620016219033908a90869060040162001f34565b600060405180830381600087803b1580156200163c57600080fd5b505af115801562001651573d6000803e3d6000fd5b509298975050505050505050565b60006200166b6200148f565b503090565b8280546200167e9062001dab565b90600052602060002090601f016020900481019282620016a25760008555620016ed565b82601f10620016bd57805160ff1916838001178555620016ed565b82800160010185558215620016ed579182015b82811115620016ed578251825591602001919060010190620016d0565b50620016fb9291506200170d565b5090565b6121718062001f6c83390190565b5b80821115620016fb57600081556001016200170e565b6000602082840312156200173757600080fd5b5035919050565b6001600160a01b038116811462000fa357600080fd5b6000806000606084860312156200176a57600080fd5b8335925060208401359150604084013562001785816200173e565b809150509250925092565b634e487b7160e01b600052604160045260246000fd5b604051601f8201601f1916810167ffffffffffffffff81118282101715620017d257620017d262001790565b604052919050565b600067ffffffffffffffff821115620017f757620017f762001790565b50601f01601f191660200190565b600082601f8301126200181757600080fd5b81356200182e6200182882620017da565b620017a6565b8181528460208386010111156200184457600080fd5b816020850160208301376000918101602001919091529392505050565b600080600080608085870312156200187857600080fd5b843562001885816200173e565b935060208501359250604085013567ffffffffffffffff811115620018a957600080fd5b620018b78782880162001805565b9250506060850135620018ca816200173e565b939692955090935050565b60008060408385031215620018e957600080fd5b8235620018f6816200173e565b946020939093013593505050565b803580151581146200191557600080fd5b919050565b600080600080600080600060c0888a0312156200193657600080fd5b873567ffffffffffffffff808211156200194f57600080fd5b6200195d8b838c0162001805565b985060208a01359150808211156200197457600080fd5b620019828b838c0162001805565b975060408a013596506200199960608b0162001904565b9550620019a960808b0162001904565b945060a08a0135915080821115620019c057600080fd5b818a0191508a601f830112620019d557600080fd5b813581811115620019e557600080fd5b8b60208260051b8501011115620019fb57600080fd5b60208301945080935050505092959891949750929550565b60008060006060848603121562001a2957600080fd5b83359250602084013567ffffffffffffffff81111562001a4857600080fd5b62001a568682870162001805565b925050604084013562001785816200173e565b6020808252825182820181905260009190848201906040850190845b8181101562001aa35783518352928401929184019160010162001a85565b50909695505050505050565b60006020828403121562001ac257600080fd5b813562001acf816200173e565b9392505050565b60006020828403121562001ae957600080fd5b815162001acf816200173e565b6020808252600f908201526e3737ba103a37b5b2b71037bbb732b960891b604082015260600190565b60006020828403121562001b3257600080fd5b5051919050565b60005b8381101562001b5657818101518382015260200162001b3c565b8381111562001b66576000848401525b50505050565b60006020828403121562001b7f57600080fd5b815167ffffffffffffffff81111562001b9757600080fd5b8201601f8101841362001ba957600080fd5b805162001bba6200182882620017da565b81815285602083850101111562001bd057600080fd5b62001be382602083016020860162001b39565b95945050505050565b600060001982141562001c0f57634e487b7160e01b600052601160045260246000fd5b5060010190565b94855260208501939093526001600160a01b03918216604085015216606083015267ffffffffffffffff16608082015260a00190565b6000815180845262001c6681602086016020860162001b39565b601f01601f19169290920160200192915050565b6001600160a01b038316815260406020820181905260009062001ca09083018462001c4c565b949350505050565b60208082528181018390526000908460408401835b8681101562001cef57823562001cd3816200173e565b6001600160a01b03168252918301919083019060010162001cbd565b509695505050505050565b6000602080838503121562001d0e57600080fd5b825167ffffffffffffffff8082111562001d2757600080fd5b818501915085601f83011262001d3c57600080fd5b81518181111562001d515762001d5162001790565b8060051b915062001d64848301620017a6565b818152918301840191848101908884111562001d7f57600080fd5b938501935b8385101562001d9f5784518252938501939085019062001d84565b98975050505050505050565b600181811c9082168062001dc057607f821691505b6020821081141562001de257634e487b7160e01b600052602260045260246000fd5b50919050565b838152600060208481840152606060408401526000845481600182811c91508083168062001e1757607f831692505b85831081141562001e3657634e487b7160e01b85526022600452602485fd5b606088018390526080880181801562001e58576001811462001e6a5762001e97565b60ff1986168252878201965062001e97565b60008b81526020902060005b8681101562001e915781548482015290850190890162001e76565b83019750505b50949b9a5050505050505050505050565b6000825162001ebc81846020870162001b39565b9190910192915050565b60808152600062001edb608083018762001c4c565b828103602084015262001eef818762001c4c565b9415156040840152505090151560609091015292915050565b8381526001600160a01b038316602082015260606040820181905260009062001be39083018462001c4c565b600060018060a01b0380861683526060602084015262001f58606084018662001c4c565b915080841660408401525094935050505056fe60c06040523480156200001157600080fd5b506040516200217138038062002171833981016040819052620000349162000272565b8351849084906200004d906000906020850190620000e9565b50805162000063906001906020840190620000e9565b50506006805460ff19169055506200007b336200008f565b901515608052151560a052506200033e9050565b600680546001600160a01b03838116610100818102610100600160a81b031985161790945560405193909204169182907f8be0079c531659141344cd1fd0a4f28419497f9722a3daafe3b4186f6b6457e090600090a35050565b828054620000f79062000301565b90600052602060002090601f0160209004810192826200011b576000855562000166565b82601f106200013657805160ff191683800117855562000166565b8280016001018555821562000166579182015b828111156200016657825182559160200191906001019062000149565b506200017492915062000178565b5090565b5b8082111562000174576000815560010162000179565b634e487b7160e01b600052604160045260246000fd5b600082601f830112620001b757600080fd5b81516001600160401b0380821115620001d457620001d46200018f565b604051601f8301601f19908116603f01168101908282118183101715620001ff57620001ff6200018f565b816040528381526020925086838588010111156200021c57600080fd5b600091505b8382101562000240578582018301518183018401529082019062000221565b83821115620002525760008385830101525b9695505050505050565b805180151581146200026d57600080fd5b919050565b600080600080608085870312156200028957600080fd5b84516001600160401b0380821115620002a157600080fd5b620002af88838901620001a5565b95506020870151915080821115620002c657600080fd5b50620002d587828801620001a5565b935050620002e6604086016200025c565b9150620002f6606086016200025c565b905092959194509250565b600181811c908216806200031657607f821691505b602082108114156200033857634e487b7160e01b600052602260045260246000fd5b50919050565b60805160a051611dff620003726000396000818161033201526106660152600081816103cd01526107430152611dff6000f3fe608060405234801561001057600080fd5b50600436106101c45760003560e01c8063715018a6116100f9578063b88d4fde11610097578063d284ad4911610071578063d284ad49146103a8578063e11360b3146103c8578063e985e9c5146103ef578063f2fde38b1461042b57600080fd5b8063b88d4fde1461036f578063c87b56dd14610382578063ccb8c1e01461039557600080fd5b80638da5cb5b116100d35780638da5cb5b1461031757806392ff0d311461032d57806395d89b4114610354578063a22cb4651461035c57600080fd5b8063715018a6146102f45780638456cb59146102fc5780638747336c1461030457600080fd5b806342966c68116101665780635c975abb116101405780635c975abb146102ad5780636352211e146102b8578063641bd719146102cb57806370a08231146102d357600080fd5b806342966c68146102745780634edae98f146102875780635393db361461029a57600080fd5b8063095ea7b3116101a2578063095ea7b31461023157806323b872dd146102465780633f4ba83a1461025957806342842e0e1461026157600080fd5b806301ffc9a7146101c957806306fdde03146101f1578063081812fc14610206575b600080fd5b6101dc6101d736600461180d565b61043e565b60405190151581526020015b60405180910390f35b6101f9610490565b6040516101e89190611882565b610219610214366004611895565b610522565b6040516001600160a01b0390911681526020016101e8565b61024461023f3660046118ca565b610549565b005b6102446102543660046118f4565b610664565b61024461070c565b61024461026f3660046118f4565b61071e565b610244610282366004611895565b610739565b61024461029536600461197c565b61081e565b6102196102a8366004611895565b61086f565b60065460ff166101dc565b6102196102c6366004611895565b610899565b6102446108f9565b6102e66102e13660046119be565b61099c565b6040519081526020016101e8565b610244610a22565b610244610a34565b6102e66103123660046118ca565b610a44565b60065461010090046001600160a01b0316610219565b6101dc7f000000000000000000000000000000000000000000000000000000000000000081565b6101f9610a75565b61024461036a3660046119d9565b610a84565b61024461037d366004611a2b565b610a93565b6101f9610390366004611895565b610acb565b6102e66103a336600461197c565b610b3f565b6103bb6103b63660046119be565b610b8a565b6040516101e89190611b07565b6101dc7f000000000000000000000000000000000000000000000000000000000000000081565b6101dc6103fd366004611b4b565b6001600160a01b03918216600090815260056020908152604080832093909416825291909152205460ff1690565b6102446104393660046119be565b610bf6565b60006001600160e01b031982166380ac58cd60e01b148061046f57506001600160e01b03198216635b5e139f60e01b145b8061048a57506301ffc9a760e01b6001600160e01b03198316145b92915050565b60606000805461049f90611b7e565b80601f01602080910402602001604051908101604052809291908181526020018280546104cb90611b7e565b80156105185780601f106104ed57610100808354040283529160200191610518565b820191906000526020600020905b8154815290600101906020018083116104fb57829003601f168201915b5050505050905090565b600061052d82610c6c565b506000908152600460205260409020546001600160a01b031690565b600061055482610899565b9050806001600160a01b0316836001600160a01b031614156105c75760405162461bcd60e51b815260206004820152602160248201527f4552433732313a20617070726f76616c20746f2063757272656e74206f776e656044820152603960f91b60648201526084015b60405180910390fd5b336001600160a01b03821614806105e357506105e381336103fd565b6106555760405162461bcd60e51b815260206004820152603d60248201527f4552433732313a20617070726f76652063616c6c6572206973206e6f7420746f60448201527f6b656e206f776e6572206f7220617070726f76656420666f7220616c6c00000060648201526084016105be565b61065f8383610ccb565b505050565b7f00000000000000000000000000000000000000000000000000000000000000006106db5760405162461bcd60e51b815260206004820152602160248201527f74686973207061737363617264206973206e6f74207472616e7366657261626c6044820152606560f81b60648201526084016105be565b6106e53282610d39565b6107015760405162461bcd60e51b81526004016105be90611bb9565b61065f838383610db8565b610714610f29565b61071c610f89565b565b61065f83838360405180602001604052806000815250610a93565b610741610f29565b7f00000000000000000000000000000000000000000000000000000000000000006107ae5760405162461bcd60e51b815260206004820152601e60248201527f74686973207061737363617264206973206e6f74207265766f6b61626c65000060448201526064016105be565b6107b83282610d39565b6108125760405162461bcd60e51b815260206004820152602560248201527f63616c6c6572206973206e6f7420746f6b656e206f776e6572206f72206170706044820152641c9bdd995960da1b60648201526084016105be565b61081b81610fdb565b50565b610826610f29565b61083260088383611765565b507fd65971f3e19593881e8ddb6a1ab6b4bcb2aa79f5aa0ed58c93d1b0b031d1679360086040516108639190611c06565b60405180910390a15050565b6008818154811061087f57600080fd5b6000918252602090912001546001600160a01b0316905081565b6000818152600260205260408120546001600160a01b03168061048a5760405162461bcd60e51b8152602060048201526018602482015277115490cdcc8c4e881a5b9d985b1a59081d1bdad95b88125160421b60448201526064016105be565b610901610f29565b60085461093f5760405162461bcd60e51b815260206004820152600c60248201526b1859191c995cdcc81b9d5b1b60a21b60448201526064016105be565b60085460005b8181101561098f5761097d6008828154811061096357610963611c4a565b6000918252602090912001546001600160a01b031661107e565b8061098781611c76565b915050610945565b5061081b600860006117c8565b60006001600160a01b038216610a065760405162461bcd60e51b815260206004820152602960248201527f4552433732313a2061646472657373207a65726f206973206e6f7420612076616044820152683634b21037bbb732b960b91b60648201526084016105be565b506001600160a01b031660009081526003602052604090205490565b610a2a610f29565b61071c60006110d7565b610a3c610f29565b61071c611131565b60096020528160005260406000208181548110610a6057600080fd5b90600052602060002001600091509150505481565b60606001805461049f90611b7e565b610a8f33838361116e565b5050565b610a9d3383610d39565b610ab95760405162461bcd60e51b81526004016105be90611bb9565b610ac58484848461123d565b50505050565b6060610ad682610c6c565b6000610aed60408051602081019091526000815290565b90506000815111610b0d5760405180602001604052806000815250610b38565b80610b1784611270565b604051602001610b28929190611c91565b6040516020818303038152906040525b9392505050565b6000805b82811015610b8357838382818110610b5d57610b5d611c4a565b9050602002013582610b6f9190611cc0565b915080610b7b81611c76565b915050610b43565b5092915050565b6001600160a01b038116600090815260096020908152604091829020805483518184028101840190945280845260609392830182828015610bea57602002820191906000526020600020905b815481526020019060010190808311610bd6575b50505050509050919050565b610bfe610f29565b6001600160a01b038116610c635760405162461bcd60e51b815260206004820152602660248201527f4f776e61626c653a206e6577206f776e657220697320746865207a65726f206160448201526564647265737360d01b60648201526084016105be565b61081b816110d7565b6000818152600260205260409020546001600160a01b031661081b5760405162461bcd60e51b8152602060048201526018602482015277115490cdcc8c4e881a5b9d985b1a59081d1bdad95b88125160421b60448201526064016105be565b600081815260046020526040902080546001600160a01b0319166001600160a01b0384169081179091558190610d0082610899565b6001600160a01b03167f8c5be1e5ebec7d5bd14f71427d1e84f3dd0314c0f7b2291e5b200ac8c7c3b92560405160405180910390a45050565b600080610d4583610899565b9050806001600160a01b0316846001600160a01b03161480610d8c57506001600160a01b0380821660009081526005602090815260408083209388168352929052205460ff165b80610db05750836001600160a01b0316610da584610522565b6001600160a01b0316145b949350505050565b826001600160a01b0316610dcb82610899565b6001600160a01b031614610df15760405162461bcd60e51b81526004016105be90611cd8565b6001600160a01b038216610e535760405162461bcd60e51b8152602060048201526024808201527f4552433732313a207472616e7366657220746f20746865207a65726f206164646044820152637265737360e01b60648201526084016105be565b610e60838383600161130d565b826001600160a01b0316610e7382610899565b6001600160a01b031614610e995760405162461bcd60e51b81526004016105be90611cd8565b600081815260046020908152604080832080546001600160a01b03199081169091556001600160a01b0387811680865260038552838620805460001901905590871680865283862080546001019055868652600290945282852080549092168417909155905184937fddf252ad1be2c89b69c2b068fc378daa952ba7f163c4a11628f55a4df523b3ef91a4505050565b6006546001600160a01b0361010090910416331461071c5760405162461bcd60e51b815260206004820181905260248201527f4f776e61626c653a2063616c6c6572206973206e6f7420746865206f776e657260448201526064016105be565b610f9161131a565b6006805460ff191690557f5db9ee0a495bf2e6ff9c91a7834c1ba4fdd244a5e8aa4e537bd38aeae4b073aa335b6040516001600160a01b03909116815260200160405180910390a1565b6000610fe682610899565b9050610ff681600084600161130d565b610fff82610899565b600083815260046020908152604080832080546001600160a01b03199081169091556001600160a01b0385168085526003845282852080546000190190558785526002909352818420805490911690555192935084927fddf252ad1be2c89b69c2b068fc378daa952ba7f163c4a11628f55a4df523b3ef908390a45050565b611086610f29565b600061109160075490565b90506110a1600780546001019055565b6110ab8282611363565b6001600160a01b0390911660009081526009602090815260408220805460018101825590835291200155565b600680546001600160a01b03838116610100818102610100600160a81b031985161790945560405193909204169182907f8be0079c531659141344cd1fd0a4f28419497f9722a3daafe3b4186f6b6457e090600090a35050565b61113961137d565b6006805460ff191660011790557f62e78cea01bee320cd4e420270b5ea74000d11b0c9f74754ebdbfc544b05a258610fbe3390565b816001600160a01b0316836001600160a01b031614156111d05760405162461bcd60e51b815260206004820152601960248201527f4552433732313a20617070726f766520746f2063616c6c65720000000000000060448201526064016105be565b6001600160a01b03838116600081815260056020908152604080832094871680845294825291829020805460ff191686151590811790915591519182527f17307eab39ab6107e8899845ad3d59bd9653f200f220920489ca2b5937696c31910160405180910390a3505050565b611248848484610db8565b611254848484846113c3565b610ac55760405162461bcd60e51b81526004016105be90611d1d565b6060600061127d836114c1565b600101905060008167ffffffffffffffff81111561129d5761129d611a15565b6040519080825280601f01601f1916602001820160405280156112c7576020820181803683370190505b5090508181016020015b600019016f181899199a1a9b1b9c1cb0b131b232b360811b600a86061a8153600a850494508461130057611305565b6112d1565b509392505050565b61131561137d565b610ac5565b60065460ff1661071c5760405162461bcd60e51b815260206004820152601460248201527314185d5cd8589b194e881b9bdd081c185d5cd95960621b60448201526064016105be565b610a8f828260405180602001604052806000815250611599565b60065460ff161561071c5760405162461bcd60e51b815260206004820152601060248201526f14185d5cd8589b194e881c185d5cd95960821b60448201526064016105be565b60006001600160a01b0384163b156114b657604051630a85bd0160e11b81526001600160a01b0385169063150b7a0290611407903390899088908890600401611d6f565b6020604051808303816000875af1925050508015611442575060408051601f3d908101601f1916820190925261143f91810190611dac565b60015b61149c573d808015611470576040519150601f19603f3d011682016040523d82523d6000602084013e611475565b606091505b5080516114945760405162461bcd60e51b81526004016105be90611d1d565b805181602001fd5b6001600160e01b031916630a85bd0160e11b149050610db0565b506001949350505050565b60008072184f03e93ff9f4daa797ed6e38ed64bf6a1f0160401b83106115005772184f03e93ff9f4daa797ed6e38ed64bf6a1f0160401b830492506040015b6d04ee2d6d415b85acef8100000000831061152c576d04ee2d6d415b85acef8100000000830492506020015b662386f26fc10000831061154a57662386f26fc10000830492506010015b6305f5e1008310611562576305f5e100830492506008015b612710831061157657612710830492506004015b60648310611588576064830492506002015b600a831061048a5760010192915050565b6115a383836115cc565b6115b060008484846113c3565b61065f5760405162461bcd60e51b81526004016105be90611d1d565b6001600160a01b0382166116225760405162461bcd60e51b815260206004820181905260248201527f4552433732313a206d696e7420746f20746865207a65726f206164647265737360448201526064016105be565b6000818152600260205260409020546001600160a01b0316156116875760405162461bcd60e51b815260206004820152601c60248201527f4552433732313a20746f6b656e20616c7265616479206d696e7465640000000060448201526064016105be565b61169560008383600161130d565b6000818152600260205260409020546001600160a01b0316156116fa5760405162461bcd60e51b815260206004820152601c60248201527f4552433732313a20746f6b656e20616c7265616479206d696e7465640000000060448201526064016105be565b6001600160a01b038216600081815260036020908152604080832080546001019055848352600290915280822080546001600160a01b0319168417905551839291907fddf252ad1be2c89b69c2b068fc378daa952ba7f163c4a11628f55a4df523b3ef908290a45050565b8280548282559060005260206000209081019282156117b8579160200282015b828111156117b85781546001600160a01b0319166001600160a01b03843516178255602090920191600190910190611785565b506117c49291506117e2565b5090565b508054600082559060005260206000209081019061081b91905b5b808211156117c457600081556001016117e3565b6001600160e01b03198116811461081b57600080fd5b60006020828403121561181f57600080fd5b8135610b38816117f7565b60005b8381101561184557818101518382015260200161182d565b83811115610ac55750506000910152565b6000815180845261186e81602086016020860161182a565b601f01601f19169290920160200192915050565b602081526000610b386020830184611856565b6000602082840312156118a757600080fd5b5035919050565b80356001600160a01b03811681146118c557600080fd5b919050565b600080604083850312156118dd57600080fd5b6118e6836118ae565b946020939093013593505050565b60008060006060848603121561190957600080fd5b611912846118ae565b9250611920602085016118ae565b9150604084013590509250925092565b60008083601f84011261194257600080fd5b50813567ffffffffffffffff81111561195a57600080fd5b6020830191508360208260051b850101111561197557600080fd5b9250929050565b6000806020838503121561198f57600080fd5b823567ffffffffffffffff8111156119a657600080fd5b6119b285828601611930565b90969095509350505050565b6000602082840312156119d057600080fd5b610b38826118ae565b600080604083850312156119ec57600080fd5b6119f5836118ae565b915060208301358015158114611a0a57600080fd5b809150509250929050565b634e487b7160e01b600052604160045260246000fd5b60008060008060808587031215611a4157600080fd5b611a4a856118ae565b9350611a58602086016118ae565b925060408501359150606085013567ffffffffffffffff80821115611a7c57600080fd5b818701915087601f830112611a9057600080fd5b813581811115611aa257611aa2611a15565b604051601f8201601f19908116603f01168101908382118183101715611aca57611aca611a15565b816040528281528a6020848701011115611ae357600080fd5b82602086016020830137600060208483010152809550505050505092959194509250565b6020808252825182820181905260009190848201906040850190845b81811015611b3f57835183529284019291840191600101611b23565b50909695505050505050565b60008060408385031215611b5e57600080fd5b611b67836118ae565b9150611b75602084016118ae565b90509250929050565b600181811c90821680611b9257607f821691505b60208210811415611bb357634e487b7160e01b600052602260045260246000fd5b50919050565b6020808252602d908201527f4552433732313a2063616c6c6572206973206e6f7420746f6b656e206f776e6560408201526c1c881bdc88185c1c1c9bdd9959609a1b606082015260800190565b6020808252825482820181905260008481528281209092916040850190845b81811015611b3f5783546001600160a01b031683526001938401939285019201611c25565b634e487b7160e01b600052603260045260246000fd5b634e487b7160e01b600052601160045260246000fd5b6000600019821415611c8a57611c8a611c60565b5060010190565b60008351611ca381846020880161182a565b835190830190611cb781836020880161182a565b01949350505050565b60008219821115611cd357611cd3611c60565b500190565b60208082526025908201527f4552433732313a207472616e736665722066726f6d20696e636f72726563742060408201526437bbb732b960d91b606082015260800190565b60208082526032908201527f4552433732313a207472616e7366657220746f206e6f6e20455243373231526560408201527131b2b4bb32b91034b6b83632b6b2b73a32b960711b606082015260800190565b6001600160a01b0385811682528416602082015260408101839052608060608201819052600090611da290830184611856565b9695505050505050565b600060208284031215611dbe57600080fd5b8151610b38816117f756fea26469706673582212203d2895df9bd572a54cc440e4aafc301e69d33e37fabcf86ab0c7cde6f45e631d64736f6c634300080c0033a264697066735822122029299c2d75d9cb5072c4c7ed448fb07e482eb544ff6c2f89423fd6fb378e878164736f6c634300080c0033",
  "linkReferences": {},
  "deployedLinkReferences": {}
}