{
  "_format": "hh-sol-artifact-1",
  "contractName": "Test",
  "sourceName": "contracts/Test.sol",
  "abi": [
    {
      "inputs": [
        {
          "internalType": "string",
          "name": "_nodename",
          "type": "string"
        }
      ],
      "name": "get",
      "outputs": [],
      "stateMutability": "nonpayable",
      "type": "function"
    },
    {
      "inputs": [],
      "name": "res",
      "outputs": [
        {
          "internalType": "address",
          "name": "",
          "type": "address"
        }
      ],
      "stateMutability": "view",
      "type": "function"
    }
  ],
  "bytecode": "0x6080604052600080546001600160a01b0319166e0c2e074ec69a0dfb2997ba6c7d2e1e17905534801561003157600080fd5b506102f1806100416000396000f3fe608060405234801561001057600080fd5b50600436106100365760003560e01c8063693ec85e1461003b5780636f10e28514610050575b600080fd5b61004e61004936600461019f565b61007f565b005b600154610063906001600160a01b031681565b6040516001600160a01b03909116815260200160405180910390f35b6000816040516020016100929190610250565b60408051808303601f1901815282825280516020918201207f93cdeb708b7545dc668eb9280176169d1c33cfd8ed6f04690a0bcc88a93fc4ae91840191909152908201819052915060009060600160408051808303601f19018152908290528051602090910120600054630178b8bf60e01b8352600483018290529092506001600160a01b031690630178b8bf90602401602060405180830381865afa158015610140573d6000803e3d6000fd5b505050506040513d601f19601f82011682018060405250810190610164919061028b565b600180546001600160a01b0319166001600160a01b0392909216919091179055505050565b634e487b7160e01b600052604160045260246000fd5b6000602082840312156101b157600080fd5b813567ffffffffffffffff808211156101c957600080fd5b818401915084601f8301126101dd57600080fd5b8135818111156101ef576101ef610189565b604051601f8201601f19908116603f0116810190838211818310171561021757610217610189565b8160405282815287602084870101111561023057600080fd5b826020860160208301376000928101602001929092525095945050505050565b6000825160005b818110156102715760208186018101518583015201610257565b81811115610280576000828501525b509190910192915050565b60006020828403121561029d57600080fd5b81516001600160a01b03811681146102b457600080fd5b939250505056fea26469706673582212207e68b029a1eb349ca1e438530c9d04c086e4da1317af4cfa29f4a5a281780bec64736f6c634300080c0033",
  "linkReferences": {},
  "deployedLinkReferences": {}
}