{
  "_format": "hh-sol-artifact-1",
  "contractName": "BatchNFTs",
  "sourceName": "contracts/BatchNFTs.sol",
  "abi": [
    {
      "inputs": [
        {
          "internalType": "uint256",
          "name": "_startTime",
          "type": "uint256"
        },
        {
          "internalType": "bool",
          "name": "_paused",
          "type": "bool"
        }
      ],
      "stateMutability": "nonpayable",
      "type": "constructor"
    },
    {
      "inputs": [],
      "name": "ApprovalCallerNotOwnerNorApproved",
      "type": "error"
    },
    {
      "inputs": [],
      "name": "ApprovalQueryForNonexistentToken",
      "type": "error"
    },
    {
      "inputs": [],
      "name": "BalanceQueryForZeroAddress",
      "type": "error"
    },
    {
      "inputs": [],
      "name": "MintERC2309QuantityExceedsLimit",
      "type": "error"
    },
    {
      "inputs": [],
      "name": "MintToZeroAddress",
      "type": "error"
    },
    {
      "inputs": [],
      "name": "MintZeroQuantity",
      "type": "error"
    },
    {
      "inputs": [],
      "name": "OwnerQueryForNonexistentToken",
      "type": "error"
    },
    {
      "inputs": [],
      "name": "OwnershipNotInitializedForExtraData",
      "type": "error"
    },
    {
      "inputs": [],
      "name": "TransferCallerNotOwnerNorApproved",
      "type": "error"
    },
    {
      "inputs": [],
      "name": "TransferFromIncorrectOwner",
      "type": "error"
    },
    {
      "inputs": [],
      "name": "TransferToNonERC721ReceiverImplementer",
      "type": "error"
    },
    {
      "inputs": [],
      "name": "TransferToZeroAddress",
      "type": "error"
    },
    {
      "inputs": [],
      "name": "URIQueryForNonexistentToken",
      "type": "error"
    },
    {
      "anonymous": false,
      "inputs": [
        {
          "indexed": true,
          "internalType": "address",
          "name": "owner",
          "type": "address"
        },
        {
          "indexed": true,
          "internalType": "address",
          "name": "approved",
          "type": "address"
        },
        {
          "indexed": true,
          "internalType": "uint256",
          "name": "tokenId",
          "type": "uint256"
        }
      ],
      "name": "Approval",
      "type": "event"
    },
    {
      "anonymous": false,
      "inputs": [
        {
          "indexed": true,
          "internalType": "address",
          "name": "owner",
          "type": "address"
        },
        {
          "indexed": true,
          "internalType": "address",
          "name": "operator",
          "type": "address"
        },
        {
          "indexed": false,
          "internalType": "bool",
          "name": "approved",
          "type": "bool"
        }
      ],
      "name": "ApprovalForAll",
      "type": "event"
    },
    {
      "anonymous": false,
      "inputs": [
        {
          "indexed": true,
          "internalType": "uint256",
          "name": "fromTokenId",
          "type": "uint256"
        },
        {
          "indexed": false,
          "internalType": "uint256",
          "name": "toTokenId",
          "type": "uint256"
        },
        {
          "indexed": true,
          "internalType": "address",
          "name": "from",
          "type": "address"
        },
        {
          "indexed": true,
          "internalType": "address",
          "name": "to",
          "type": "address"
        }
      ],
      "name": "ConsecutiveTransfer",
      "type": "event"
    },
    {
      "anonymous": false,
      "inputs": [
        {
          "indexed": true,
          "internalType": "address",
          "name": "previousOwner",
          "type": "address"
        },
        {
          "indexed": true,
          "internalType": "address",
          "name": "newOwner",
          "type": "address"
        }
      ],
      "name": "OwnershipTransferred",
      "type": "event"
    },
    {
      "anonymous": false,
      "inputs": [
        {
          "indexed": true,
          "internalType": "address",
          "name": "from",
          "type": "address"
        },
        {
          "indexed": true,
          "internalType": "address",
          "name": "to",
          "type": "address"
        },
        {
          "indexed": true,
          "internalType": "uint256",
          "name": "tokenId",
          "type": "uint256"
        }
      ],
      "name": "Transfer",
      "type": "event"
    },
    {
      "inputs": [],
      "name": "MAX_SUPPLY",
      "outputs": [
        {
          "internalType": "uint256",
          "name": "",
          "type": "uint256"
        }
      ],
      "stateMutability": "view",
      "type": "function"
    },
    {
      "inputs": [],
      "name": "PRICE_PER_TOKEN",
      "outputs": [
        {
          "internalType": "uint256",
          "name": "",
          "type": "uint256"
        }
      ],
      "stateMutability": "view",
      "type": "function"
    },
    {
      "inputs": [],
      "name": "START_TIME",
      "outputs": [
        {
          "internalType": "uint256",
          "name": "",
          "type": "uint256"
        }
      ],
      "stateMutability": "view",
      "type": "function"
    },
    {
      "inputs": [
        {
          "internalType": "address",
          "name": "to",
          "type": "address"
        },
        {
          "internalType": "uint256",
          "name": "tokenId",
          "type": "uint256"
        }
      ],
      "name": "approve",
      "outputs": [],
      "stateMutability": "payable",
      "type": "function"
    },
    {
      "inputs": [
        {
          "internalType": "address",
          "name": "owner",
          "type": "address"
        }
      ],
      "name": "balanceOf",
      "outputs": [
        {
          "internalType": "uint256",
          "name": "",
          "type": "uint256"
        }
      ],
      "stateMutability": "view",
      "type": "function"
    },
    {
      "inputs": [
        {
          "internalType": "uint256",
          "name": "tokenId",
          "type": "uint256"
        }
      ],
      "name": "getApproved",
      "outputs": [
        {
          "internalType": "address",
          "name": "",
          "type": "address"
        }
      ],
      "stateMutability": "view",
      "type": "function"
    },
    {
      "inputs": [
        {
          "internalType": "address",
          "name": "owner",
          "type": "address"
        },
        {
          "internalType": "address",
          "name": "operator",
          "type": "address"
        }
      ],
      "name": "isApprovedForAll",
      "outputs": [
        {
          "internalType": "bool",
          "name": "",
          "type": "bool"
        }
      ],
      "stateMutability": "view",
      "type": "function"
    },
    {
      "inputs": [
        {
          "internalType": "address",
          "name": "to",
          "type": "address"
        },
        {
          "internalType": "uint256",
          "name": "quantity",
          "type": "uint256"
        }
      ],
      "name": "mint",
      "outputs": [],
      "stateMutability": "payable",
      "type": "function"
    },
    {
      "inputs": [],
      "name": "mintPaused",
      "outputs": [
        {
          "internalType": "bool",
          "name": "",
          "type": "bool"
        }
      ],
      "stateMutability": "view",
      "type": "function"
    },
    {
      "inputs": [],
      "name": "name",
      "outputs": [
        {
          "internalType": "string",
          "name": "",
          "type": "string"
        }
      ],
      "stateMutability": "view",
      "type": "function"
    },
    {
      "inputs": [],
      "name": "owner",
      "outputs": [
        {
          "internalType": "address",
          "name": "",
          "type": "address"
        }
      ],
      "stateMutability": "view",
      "type": "function"
    },
    {
      "inputs": [
        {
          "internalType": "uint256",
          "name": "tokenId",
          "type": "uint256"
        }
      ],
      "name": "ownerOf",
      "outputs": [
        {
          "internalType": "address",
          "name": "",
          "type": "address"
        }
      ],
      "stateMutability": "view",
      "type": "function"
    },
    {
      "inputs": [
        {
          "internalType": "bool",
          "name": "_paused",
          "type": "bool"
        }
      ],
      "name": "pauseMint",
      "outputs": [],
      "stateMutability": "nonpayable",
      "type": "function"
    },
    {
      "inputs": [],
      "name": "renounceOwnership",
      "outputs": [],
      "stateMutability": "nonpayable",
      "type": "function"
    },
    {
      "inputs": [
        {
          "internalType": "address",
          "name": "from",
          "type": "address"
        },
        {
          "internalType": "address",
          "name": "to",
          "type": "address"
        },
        {
          "internalType": "uint256",
          "name": "tokenId",
          "type": "uint256"
        }
      ],
      "name": "safeTransferFrom",
      "outputs": [],
      "stateMutability": "payable",
      "type": "function"
    },
    {
      "inputs": [
        {
          "internalType": "address",
          "name": "from",
          "type": "address"
        },
        {
          "internalType": "address",
          "name": "to",
          "type": "address"
        },
        {
          "internalType": "uint256",
          "name": "tokenId",
          "type": "uint256"
        },
        {
          "internalType": "bytes",
          "name": "_data",
          "type": "bytes"
        }
      ],
      "name": "safeTransferFrom",
      "outputs": [],
      "stateMutability": "payable",
      "type": "function"
    },
    {
      "inputs": [
        {
          "internalType": "address",
          "name": "operator",
          "type": "address"
        },
        {
          "internalType": "bool",
          "name": "approved",
          "type": "bool"
        }
      ],
      "name": "setApprovalForAll",
      "outputs": [],
      "stateMutability": "nonpayable",
      "type": "function"
    },
    {
      "inputs": [
        {
          "internalType": "string",
          "name": "baseURI",
          "type": "string"
        }
      ],
      "name": "setBaseURI",
      "outputs": [],
      "stateMutability": "nonpayable",
      "type": "function"
    },
    {
      "inputs": [
        {
          "internalType": "bytes4",
          "name": "interfaceId",
          "type": "bytes4"
        }
      ],
      "name": "supportsInterface",
      "outputs": [
        {
          "internalType": "bool",
          "name": "",
          "type": "bool"
        }
      ],
      "stateMutability": "view",
      "type": "function"
    },
    {
      "inputs": [],
      "name": "symbol",
      "outputs": [
        {
          "internalType": "string",
          "name": "",
          "type": "string"
        }
      ],
      "stateMutability": "view",
      "type": "function"
    },
    {
      "inputs": [
        {
          "internalType": "uint256",
          "name": "tokenId",
          "type": "uint256"
        }
      ],
      "name": "tokenURI",
      "outputs": [
        {
          "internalType": "string",
          "name": "",
          "type": "string"
        }
      ],
      "stateMutability": "view",
      "type": "function"
    },
    {
      "inputs": [],
      "name": "totalSupply",
      "outputs": [
        {
          "internalType": "uint256",
          "name": "",
          "type": "uint256"
        }
      ],
      "stateMutability": "view",
      "type": "function"
    },
    {
      "inputs": [
        {
          "internalType": "address",
          "name": "from",
          "type": "address"
        },
        {
          "internalType": "address",
          "name": "to",
          "type": "address"
        },
        {
          "internalType": "uint256",
          "name": "tokenId",
          "type": "uint256"
        }
      ],
      "name": "transferFrom",
      "outputs": [],
      "stateMutability": "payable",
      "type": "function"
    },
    {
      "inputs": [
        {
          "internalType": "address",
          "name": "newOwner",
          "type": "address"
        }
      ],
      "name": "transferOwnership",
      "outputs": [],
      "stateMutability": "nonpayable",
      "type": "function"
    },
    {
      "inputs": [],
      "name": "withdraw",
      "outputs": [],
      "stateMutability": "nonpayable",
      "type": "function"
    }
  ],
  "bytecode": "0x60a06040523480156200001157600080fd5b5060405162001794380380620017948339810160408190526200003491620001d5565b6040518060400160405280600881526020016714185cdcd0d85c9960c21b815250604051806040016040528060038152602001621410d160ea1b8152506200008b62000085620000db60201b60201c565b620000df565b8151620000a09060039060208501906200012f565b508051620000b69060049060208401906200012f565b50600060015550506080919091526009805460ff191691151591909117905562000249565b3390565b600080546001600160a01b038381166001600160a01b0319831681178455604051919092169283917f8be0079c531659141344cd1fd0a4f28419497f9722a3daafe3b4186f6b6457e09190a35050565b8280546200013d906200020c565b90600052602060002090601f016020900481019282620001615760008555620001ac565b82601f106200017c57805160ff1916838001178555620001ac565b82800160010185558215620001ac579182015b82811115620001ac5782518255916020019190600101906200018f565b50620001ba929150620001be565b5090565b5b80821115620001ba5760008155600101620001bf565b60008060408385031215620001e957600080fd5b82519150602083015180151581146200020157600080fd5b809150509250929050565b600181811c908216806200022157607f821691505b602082108114156200024357634e487b7160e01b600052602260045260246000fd5b50919050565b6080516115286200026c600039600081816103d801526108bc01526115286000f3fe6080604052600436106101665760003560e01c806370a08231116100d1578063a22cb4651161008a578063ddaa26ad11610064578063ddaa26ad146103c6578063e985e9c5146103fa578063f2fde38b14610443578063f30e6e771461046357600080fd5b8063a22cb46514610373578063b88d4fde14610393578063c87b56dd146103a657600080fd5b806370a08231146102d6578063715018a6146102f65780637e4831d31461030b578063833b9499146103255780638da5cb5b1461034057806395d89b411461035e57600080fd5b806332cb6b0c1161012357806332cb6b0c146102455780633ccfd60b1461025b57806340c10f191461027057806342842e0e1461028357806355f804b3146102965780636352211e146102b657600080fd5b806301ffc9a71461016b57806306fdde03146101a0578063081812fc146101c2578063095ea7b3146101fa57806318160ddd1461020f57806323b872dd14610232575b600080fd5b34801561017757600080fd5b5061018b6101863660046110b7565b610483565b60405190151581526020015b60405180910390f35b3480156101ac57600080fd5b506101b56104d5565b604051610197919061112c565b3480156101ce57600080fd5b506101e26101dd36600461113f565b610567565b6040516001600160a01b039091168152602001610197565b61020d610208366004611174565b6105ab565b005b34801561021b57600080fd5b50600254600154035b604051908152602001610197565b61020d61024036600461119e565b61064b565b34801561025157600080fd5b506102246101f481565b34801561026757600080fd5b5061020d6107dc565b61020d61027e366004611174565b610876565b61020d61029136600461119e565b6109d6565b3480156102a257600080fd5b5061020d6102b13660046111da565b6109f6565b3480156102c257600080fd5b506101e26102d136600461113f565b610a0a565b3480156102e257600080fd5b506102246102f136600461124c565b610a15565b34801561030257600080fd5b5061020d610a64565b34801561031757600080fd5b5060095461018b9060ff1681565b34801561033157600080fd5b50610224662386f26fc1000081565b34801561034c57600080fd5b506000546001600160a01b03166101e2565b34801561036a57600080fd5b506101b5610a78565b34801561037f57600080fd5b5061020d61038e366004611277565b610a87565b61020d6103a13660046112c0565b610af3565b3480156103b257600080fd5b506101b56103c136600461113f565b610b3d565b3480156103d257600080fd5b506102247f000000000000000000000000000000000000000000000000000000000000000081565b34801561040657600080fd5b5061018b61041536600461139c565b6001600160a01b03918216600090815260086020908152604080832093909416825291909152205460ff1690565b34801561044f57600080fd5b5061020d61045e36600461124c565b610bc2565b34801561046f57600080fd5b5061020d61047e3660046113c6565b610c38565b60006301ffc9a760e01b6001600160e01b0319831614806104b457506380ac58cd60e01b6001600160e01b03198316145b806104cf5750635b5e139f60e01b6001600160e01b03198316145b92915050565b6060600380546104e4906113e1565b80601f0160208091040260200160405190810160405280929190818152602001828054610510906113e1565b801561055d5780601f106105325761010080835404028352916020019161055d565b820191906000526020600020905b81548152906001019060200180831161054057829003601f168201915b5050505050905090565b600061057282610c99565b61058f576040516333d1c03960e21b815260040160405180910390fd5b506000908152600760205260409020546001600160a01b031690565b60006105b682610a0a565b9050336001600160a01b038216146105ef576105d28133610415565b6105ef576040516367d9dca160e11b815260040160405180910390fd5b60008281526007602052604080822080546001600160a01b0319166001600160a01b0387811691821790925591518593918516917f8c5be1e5ebec7d5bd14f71427d1e84f3dd0314c0f7b2291e5b200ac8c7c3b92591a4505050565b600061065682610cc1565b9050836001600160a01b0316816001600160a01b0316146106895760405162a1148160e81b815260040160405180910390fd5b60008281526007602052604090208054338082146001600160a01b038816909114176106d6576106b98633610415565b6106d657604051632ce44b5f60e11b815260040160405180910390fd5b6001600160a01b0385166106fd57604051633a954ecd60e21b815260040160405180910390fd5b801561070857600082555b6001600160a01b038681166000908152600660205260408082208054600019019055918716808252919020805460010190554260a01b17600160e11b17600085815260056020526040902055600160e11b831661079357600184016000818152600560205260409020546107915760015481146107915760008181526005602052604090208490555b505b83856001600160a01b0316876001600160a01b03167fddf252ad1be2c89b69c2b068fc378daa952ba7f163c4a11628f55a4df523b3ef60405160405180910390a4505050505050565b6107e4610d22565b604051600090339047908381818185875af1925050503d8060008114610826576040519150601f19603f3d011682016040523d82523d6000602084013e61082b565b606091505b50509050806108735760405162461bcd60e51b815260206004820152600f60248201526e151c985b9cd9995c8811985a5b1959608a1b60448201526064015b60405180910390fd5b50565b60095460ff16156108ba5760405162461bcd60e51b815260206004820152600e60248201526d135a5b9d081a5cc81c185d5cd95960921b604482015260640161086a565b7f000000000000000000000000000000000000000000000000000000000000000042101561091d5760405162461bcd60e51b815260206004820152601060248201526f14d85b19481b9bdd081cdd185c9d195960821b604482015260640161086a565b6101f48161092a60015490565b6109349190611432565b11156109735760405162461bcd60e51b815260206004820152600e60248201526d13585e0814dd5c1c1b1e48121a5d60921b604482015260640161086a565b610984662386f26fc100008261144a565b3410156109c85760405162461bcd60e51b8152602060048201526012602482015271496e73756666696369656e742046756e647360701b604482015260640161086a565b6109d28282610d7c565b5050565b6109f183838360405180602001604052806000815250610af3565b505050565b6109fe610d22565b6109f1600a8383611008565b60006104cf82610cc1565b60006001600160a01b038216610a3e576040516323d3ad8160e21b815260040160405180910390fd5b506001600160a01b031660009081526006602052604090205467ffffffffffffffff1690565b610a6c610d22565b610a766000610e73565b565b6060600480546104e4906113e1565b3360008181526008602090815260408083206001600160a01b03871680855290835292819020805460ff191686151590811790915590519081529192917f17307eab39ab6107e8899845ad3d59bd9653f200f220920489ca2b5937696c31910160405180910390a35050565b610afe84848461064b565b6001600160a01b0383163b15610b3757610b1a84848484610ec3565b610b37576040516368d2bf6b60e11b815260040160405180910390fd5b50505050565b6060610b4882610c99565b610b6557604051630a14c4b560e41b815260040160405180910390fd5b6000610b6f610fab565b9050805160001415610b905760405180602001604052806000815250610bbb565b80610b9a84610fba565b604051602001610bab929190611469565b6040516020818303038152906040525b9392505050565b610bca610d22565b6001600160a01b038116610c2f5760405162461bcd60e51b815260206004820152602660248201527f4f776e61626c653a206e6577206f776e657220697320746865207a65726f206160448201526564647265737360d01b606482015260840161086a565b61087381610e73565b610c40610d22565b60095460ff1615610c865760405162461bcd60e51b815260206004820152601060248201526f21b7b73a3930b1ba103830bab9b2b21760811b604482015260640161086a565b6009805460ff1916911515919091179055565b6000600154821080156104cf575050600090815260056020526040902054600160e01b161590565b600081600154811015610d0957600081815260056020526040902054600160e01b8116610d07575b80610bbb575060001901600081815260056020526040902054610ce9565b505b604051636f96cda160e11b815260040160405180910390fd5b6000546001600160a01b03163314610a765760405162461bcd60e51b815260206004820181905260248201527f4f776e61626c653a2063616c6c6572206973206e6f7420746865206f776e6572604482015260640161086a565b60015481610d9d5760405163b562e8dd60e01b815260040160405180910390fd5b6001600160a01b03831660008181526006602090815260408083208054680100000000000000018802019055848352600590915281206001851460e11b4260a01b178317905582840190839083907fddf252ad1be2c89b69c2b068fc378daa952ba7f163c4a11628f55a4df523b3ef8180a4600183015b818114610e4c57808360007fddf252ad1be2c89b69c2b068fc378daa952ba7f163c4a11628f55a4df523b3ef600080a4600101610e14565b5081610e6a57604051622e076360e81b815260040160405180910390fd5b60015550505050565b600080546001600160a01b038381166001600160a01b0319831681178455604051919092169283917f8be0079c531659141344cd1fd0a4f28419497f9722a3daafe3b4186f6b6457e09190a35050565b604051630a85bd0160e11b81526000906001600160a01b0385169063150b7a0290610ef8903390899088908890600401611498565b6020604051808303816000875af1925050508015610f33575060408051601f3d908101601f19168201909252610f30918101906114d5565b60015b610f8e573d808015610f61576040519150601f19603f3d011682016040523d82523d6000602084013e610f66565b606091505b508051610f86576040516368d2bf6b60e11b815260040160405180910390fd5b805181602001fd5b6001600160e01b031916630a85bd0160e11b149050949350505050565b6060600a80546104e4906113e1565b606060a06040510180604052602081039150506000815280825b600183039250600a81066030018353600a900480610ff157610ff6565b610fd4565b50819003601f19909101908152919050565b828054611014906113e1565b90600052602060002090601f016020900481019282611036576000855561107c565b82601f1061104f5782800160ff1982351617855561107c565b8280016001018555821561107c579182015b8281111561107c578235825591602001919060010190611061565b5061108892915061108c565b5090565b5b80821115611088576000815560010161108d565b6001600160e01b03198116811461087357600080fd5b6000602082840312156110c957600080fd5b8135610bbb816110a1565b60005b838110156110ef5781810151838201526020016110d7565b83811115610b375750506000910152565b600081518084526111188160208601602086016110d4565b601f01601f19169290920160200192915050565b602081526000610bbb6020830184611100565b60006020828403121561115157600080fd5b5035919050565b80356001600160a01b038116811461116f57600080fd5b919050565b6000806040838503121561118757600080fd5b61119083611158565b946020939093013593505050565b6000806000606084860312156111b357600080fd5b6111bc84611158565b92506111ca60208501611158565b9150604084013590509250925092565b600080602083850312156111ed57600080fd5b823567ffffffffffffffff8082111561120557600080fd5b818501915085601f83011261121957600080fd5b81358181111561122857600080fd5b86602082850101111561123a57600080fd5b60209290920196919550909350505050565b60006020828403121561125e57600080fd5b610bbb82611158565b8035801515811461116f57600080fd5b6000806040838503121561128a57600080fd5b61129383611158565b91506112a160208401611267565b90509250929050565b634e487b7160e01b600052604160045260246000fd5b600080600080608085870312156112d657600080fd5b6112df85611158565b93506112ed60208601611158565b925060408501359150606085013567ffffffffffffffff8082111561131157600080fd5b818701915087601f83011261132557600080fd5b813581811115611337576113376112aa565b604051601f8201601f19908116603f0116810190838211818310171561135f5761135f6112aa565b816040528281528a602084870101111561137857600080fd5b82602086016020830137600060208483010152809550505050505092959194509250565b600080604083850312156113af57600080fd5b6113b883611158565b91506112a160208401611158565b6000602082840312156113d857600080fd5b610bbb82611267565b600181811c908216806113f557607f821691505b6020821081141561141657634e487b7160e01b600052602260045260246000fd5b50919050565b634e487b7160e01b600052601160045260246000fd5b600082198211156114455761144561141c565b500190565b60008160001904831182151516156114645761146461141c565b500290565b6000835161147b8184602088016110d4565b83519083019061148f8183602088016110d4565b01949350505050565b6001600160a01b03858116825284166020820152604081018390526080606082018190526000906114cb90830184611100565b9695505050505050565b6000602082840312156114e757600080fd5b8151610bbb816110a156fea2646970667358221220149207a23882e079f2e0e8b5755056db9cc9ff66aa87459d2bf349858b14198a64736f6c634300080c0033",
  "linkReferences": {},
  "deployedLinkReferences": {}
}