{
  "_format": "hh-sol-artifact-1",
  "contractName": "PassCard",
  "sourceName": "contracts/PassCard.sol",
  "abi": [
    {
      "inputs": [
        {
          "internalType": "string",
          "name": "name",
          "type": "string"
        },
        {
          "internalType": "string",
          "name": "symbol",
          "type": "string"
        },
        {
          "internalType": "bool",
          "name": "_revokable",
          "type": "bool"
        },
        {
          "internalType": "bool",
          "name": "_transferable",
          "type": "bool"
        }
      ],
      "stateMutability": "nonpayable",
      "type": "constructor"
    },
    {
      "anonymous": false,
      "inputs": [
        {
          "indexed": false,
          "internalType": "address[]",
          "name": "addr",
          "type": "address[]"
        }
      ],
      "name": "AddressSet",
      "type": "event"
    },
    {
      "anonymous": false,
      "inputs": [
        {
          "indexed": true,
          "internalType": "address",
          "name": "owner",
          "type": "address"
        },
        {
          "indexed": true,
          "internalType": "address",
          "name": "approved",
          "type": "address"
        },
        {
          "indexed": true,
          "internalType": "uint256",
          "name": "tokenId",
          "type": "uint256"
        }
      ],
      "name": "Approval",
      "type": "event"
    },
    {
      "anonymous": false,
      "inputs": [
        {
          "indexed": true,
          "internalType": "address",
          "name": "owner",
          "type": "address"
        },
        {
          "indexed": true,
          "internalType": "address",
          "name": "operator",
          "type": "address"
        },
        {
          "indexed": false,
          "internalType": "bool",
          "name": "approved",
          "type": "bool"
        }
      ],
      "name": "ApprovalForAll",
      "type": "event"
    },
    {
      "anonymous": false,
      "inputs": [
        {
          "indexed": true,
          "internalType": "address",
          "name": "previousOwner",
          "type": "address"
        },
        {
          "indexed": true,
          "internalType": "address",
          "name": "newOwner",
          "type": "address"
        }
      ],
      "name": "OwnershipTransferred",
      "type": "event"
    },
    {
      "anonymous": false,
      "inputs": [
        {
          "indexed": false,
          "internalType": "address",
          "name": "account",
          "type": "address"
        }
      ],
      "name": "Paused",
      "type": "event"
    },
    {
      "anonymous": false,
      "inputs": [
        {
          "indexed": true,
          "internalType": "address",
          "name": "from",
          "type": "address"
        },
        {
          "indexed": true,
          "internalType": "address",
          "name": "to",
          "type": "address"
        },
        {
          "indexed": true,
          "internalType": "uint256",
          "name": "tokenId",
          "type": "uint256"
        }
      ],
      "name": "Transfer",
      "type": "event"
    },
    {
      "anonymous": false,
      "inputs": [
        {
          "indexed": false,
          "internalType": "address",
          "name": "account",
          "type": "address"
        }
      ],
      "name": "Unpaused",
      "type": "event"
    },
    {
      "inputs": [
        {
          "internalType": "uint256",
          "name": "",
          "type": "uint256"
        }
      ],
      "name": "airdropAdr",
      "outputs": [
        {
          "internalType": "address",
          "name": "",
          "type": "address"
        }
      ],
      "stateMutability": "view",
      "type": "function"
    },
    {
      "inputs": [
        {
          "internalType": "address",
          "name": "to",
          "type": "address"
        },
        {
          "internalType": "uint256",
          "name": "tokenId",
          "type": "uint256"
        }
      ],
      "name": "approve",
      "outputs": [],
      "stateMutability": "nonpayable",
      "type": "function"
    },
    {
      "inputs": [
        {
          "internalType": "address",
          "name": "owner",
          "type": "address"
        }
      ],
      "name": "balanceOf",
      "outputs": [
        {
          "internalType": "uint256",
          "name": "",
          "type": "uint256"
        }
      ],
      "stateMutability": "view",
      "type": "function"
    },
    {
      "inputs": [
        {
          "internalType": "uint256",
          "name": "tokenId",
          "type": "uint256"
        }
      ],
      "name": "burn",
      "outputs": [],
      "stateMutability": "nonpayable",
      "type": "function"
    },
    {
      "inputs": [
        {
          "internalType": "uint256",
          "name": "tokenId",
          "type": "uint256"
        }
      ],
      "name": "getApproved",
      "outputs": [
        {
          "internalType": "address",
          "name": "",
          "type": "address"
        }
      ],
      "stateMutability": "view",
      "type": "function"
    },
    {
      "inputs": [
        {
          "internalType": "uint256[]",
          "name": "_arr",
          "type": "uint256[]"
        }
      ],
      "name": "getSum",
      "outputs": [
        {
          "internalType": "uint256",
          "name": "sum",
          "type": "uint256"
        }
      ],
      "stateMutability": "pure",
      "type": "function"
    },
    {
      "inputs": [
        {
          "internalType": "address",
          "name": "_owner",
          "type": "address"
        }
      ],
      "name": "getallTokenId",
      "outputs": [
        {
          "internalType": "uint256[]",
          "name": "",
          "type": "uint256[]"
        }
      ],
      "stateMutability": "view",
      "type": "function"
    },
    {
      "inputs": [
        {
          "internalType": "address",
          "name": "owner",
          "type": "address"
        },
        {
          "internalType": "address",
          "name": "operator",
          "type": "address"
        }
      ],
      "name": "isApprovedForAll",
      "outputs": [
        {
          "internalType": "bool",
          "name": "",
          "type": "bool"
        }
      ],
      "stateMutability": "view",
      "type": "function"
    },
    {
      "inputs": [],
      "name": "multiTransferToken",
      "outputs": [],
      "stateMutability": "nonpayable",
      "type": "function"
    },
    {
      "inputs": [],
      "name": "name",
      "outputs": [
        {
          "internalType": "string",
          "name": "",
          "type": "string"
        }
      ],
      "stateMutability": "view",
      "type": "function"
    },
    {
      "inputs": [],
      "name": "owner",
      "outputs": [
        {
          "internalType": "address",
          "name": "",
          "type": "address"
        }
      ],
      "stateMutability": "view",
      "type": "function"
    },
    {
      "inputs": [
        {
          "internalType": "uint256",
          "name": "tokenId",
          "type": "uint256"
        }
      ],
      "name": "ownerOf",
      "outputs": [
        {
          "internalType": "address",
          "name": "",
          "type": "address"
        }
      ],
      "stateMutability": "view",
      "type": "function"
    },
    {
      "inputs": [],
      "name": "pause",
      "outputs": [],
      "stateMutability": "nonpayable",
      "type": "function"
    },
    {
      "inputs": [],
      "name": "paused",
      "outputs": [
        {
          "internalType": "bool",
          "name": "",
          "type": "bool"
        }
      ],
      "stateMutability": "view",
      "type": "function"
    },
    {
      "inputs": [],
      "name": "renounceOwnership",
      "outputs": [],
      "stateMutability": "nonpayable",
      "type": "function"
    },
    {
      "inputs": [],
      "name": "revokable",
      "outputs": [
        {
          "internalType": "bool",
          "name": "",
          "type": "bool"
        }
      ],
      "stateMutability": "view",
      "type": "function"
    },
    {
      "inputs": [
        {
          "internalType": "address",
          "name": "from",
          "type": "address"
        },
        {
          "internalType": "address",
          "name": "to",
          "type": "address"
        },
        {
          "internalType": "uint256",
          "name": "tokenId",
          "type": "uint256"
        }
      ],
      "name": "safeTransferFrom",
      "outputs": [],
      "stateMutability": "nonpayable",
      "type": "function"
    },
    {
      "inputs": [
        {
          "internalType": "address",
          "name": "from",
          "type": "address"
        },
        {
          "internalType": "address",
          "name": "to",
          "type": "address"
        },
        {
          "internalType": "uint256",
          "name": "tokenId",
          "type": "uint256"
        },
        {
          "internalType": "bytes",
          "name": "data",
          "type": "bytes"
        }
      ],
      "name": "safeTransferFrom",
      "outputs": [],
      "stateMutability": "nonpayable",
      "type": "function"
    },
    {
      "inputs": [
        {
          "internalType": "address[]",
          "name": "_address",
          "type": "address[]"
        }
      ],
      "name": "setAirDropAddr",
      "outputs": [],
      "stateMutability": "nonpayable",
      "type": "function"
    },
    {
      "inputs": [
        {
          "internalType": "address",
          "name": "operator",
          "type": "address"
        },
        {
          "internalType": "bool",
          "name": "approved",
          "type": "bool"
        }
      ],
      "name": "setApprovalForAll",
      "outputs": [],
      "stateMutability": "nonpayable",
      "type": "function"
    },
    {
      "inputs": [
        {
          "internalType": "bytes4",
          "name": "interfaceId",
          "type": "bytes4"
        }
      ],
      "name": "supportsInterface",
      "outputs": [
        {
          "internalType": "bool",
          "name": "",
          "type": "bool"
        }
      ],
      "stateMutability": "view",
      "type": "function"
    },
    {
      "inputs": [],
      "name": "symbol",
      "outputs": [
        {
          "internalType": "string",
          "name": "",
          "type": "string"
        }
      ],
      "stateMutability": "view",
      "type": "function"
    },
    {
      "inputs": [
        {
          "internalType": "uint256",
          "name": "tokenId",
          "type": "uint256"
        }
      ],
      "name": "tokenURI",
      "outputs": [
        {
          "internalType": "string",
          "name": "",
          "type": "string"
        }
      ],
      "stateMutability": "view",
      "type": "function"
    },
    {
      "inputs": [
        {
          "internalType": "address",
          "name": "",
          "type": "address"
        },
        {
          "internalType": "uint256",
          "name": "",
          "type": "uint256"
        }
      ],
      "name": "tokenids",
      "outputs": [
        {
          "internalType": "uint256",
          "name": "",
          "type": "uint256"
        }
      ],
      "stateMutability": "view",
      "type": "function"
    },
    {
      "inputs": [
        {
          "internalType": "address",
          "name": "from",
          "type": "address"
        },
        {
          "internalType": "address",
          "name": "to",
          "type": "address"
        },
        {
          "internalType": "uint256",
          "name": "tokenId",
          "type": "uint256"
        }
      ],
      "name": "transferFrom",
      "outputs": [],
      "stateMutability": "nonpayable",
      "type": "function"
    },
    {
      "inputs": [
        {
          "internalType": "address",
          "name": "newOwner",
          "type": "address"
        }
      ],
      "name": "transferOwnership",
      "outputs": [],
      "stateMutability": "nonpayable",
      "type": "function"
    },
    {
      "inputs": [],
      "name": "transferable",
      "outputs": [
        {
          "internalType": "bool",
          "name": "",
          "type": "bool"
        }
      ],
      "stateMutability": "view",
      "type": "function"
    },
    {
      "inputs": [],
      "name": "unpause",
      "outputs": [],
      "stateMutability": "nonpayable",
      "type": "function"
    }
  ],
  "bytecode": "0x60c06040523480156200001157600080fd5b506040516200217138038062002171833981016040819052620000349162000272565b8351849084906200004d906000906020850190620000e9565b50805162000063906001906020840190620000e9565b50506006805460ff19169055506200007b336200008f565b901515608052151560a052506200033e9050565b600680546001600160a01b03838116610100818102610100600160a81b031985161790945560405193909204169182907f8be0079c531659141344cd1fd0a4f28419497f9722a3daafe3b4186f6b6457e090600090a35050565b828054620000f79062000301565b90600052602060002090601f0160209004810192826200011b576000855562000166565b82601f106200013657805160ff191683800117855562000166565b8280016001018555821562000166579182015b828111156200016657825182559160200191906001019062000149565b506200017492915062000178565b5090565b5b8082111562000174576000815560010162000179565b634e487b7160e01b600052604160045260246000fd5b600082601f830112620001b757600080fd5b81516001600160401b0380821115620001d457620001d46200018f565b604051601f8301601f19908116603f01168101908282118183101715620001ff57620001ff6200018f565b816040528381526020925086838588010111156200021c57600080fd5b600091505b8382101562000240578582018301518183018401529082019062000221565b83821115620002525760008385830101525b9695505050505050565b805180151581146200026d57600080fd5b919050565b600080600080608085870312156200028957600080fd5b84516001600160401b0380821115620002a157600080fd5b620002af88838901620001a5565b95506020870151915080821115620002c657600080fd5b50620002d587828801620001a5565b935050620002e6604086016200025c565b9150620002f6606086016200025c565b905092959194509250565b600181811c908216806200031657607f821691505b602082108114156200033857634e487b7160e01b600052602260045260246000fd5b50919050565b60805160a051611dff620003726000396000818161033201526106660152600081816103cd01526107430152611dff6000f3fe608060405234801561001057600080fd5b50600436106101c45760003560e01c8063715018a6116100f9578063b88d4fde11610097578063d284ad4911610071578063d284ad49146103a8578063e11360b3146103c8578063e985e9c5146103ef578063f2fde38b1461042b57600080fd5b8063b88d4fde1461036f578063c87b56dd14610382578063ccb8c1e01461039557600080fd5b80638da5cb5b116100d35780638da5cb5b1461031757806392ff0d311461032d57806395d89b4114610354578063a22cb4651461035c57600080fd5b8063715018a6146102f45780638456cb59146102fc5780638747336c1461030457600080fd5b806342966c68116101665780635c975abb116101405780635c975abb146102ad5780636352211e146102b8578063641bd719146102cb57806370a08231146102d357600080fd5b806342966c68146102745780634edae98f146102875780635393db361461029a57600080fd5b8063095ea7b3116101a2578063095ea7b31461023157806323b872dd146102465780633f4ba83a1461025957806342842e0e1461026157600080fd5b806301ffc9a7146101c957806306fdde03146101f1578063081812fc14610206575b600080fd5b6101dc6101d736600461180d565b61043e565b60405190151581526020015b60405180910390f35b6101f9610490565b6040516101e89190611882565b610219610214366004611895565b610522565b6040516001600160a01b0390911681526020016101e8565b61024461023f3660046118ca565b610549565b005b6102446102543660046118f4565b610664565b61024461070c565b61024461026f3660046118f4565b61071e565b610244610282366004611895565b610739565b61024461029536600461197c565b61081e565b6102196102a8366004611895565b61086f565b60065460ff166101dc565b6102196102c6366004611895565b610899565b6102446108f9565b6102e66102e13660046119be565b61099c565b6040519081526020016101e8565b610244610a22565b610244610a34565b6102e66103123660046118ca565b610a44565b60065461010090046001600160a01b0316610219565b6101dc7f000000000000000000000000000000000000000000000000000000000000000081565b6101f9610a75565b61024461036a3660046119d9565b610a84565b61024461037d366004611a2b565b610a93565b6101f9610390366004611895565b610acb565b6102e66103a336600461197c565b610b3f565b6103bb6103b63660046119be565b610b8a565b6040516101e89190611b07565b6101dc7f000000000000000000000000000000000000000000000000000000000000000081565b6101dc6103fd366004611b4b565b6001600160a01b03918216600090815260056020908152604080832093909416825291909152205460ff1690565b6102446104393660046119be565b610bf6565b60006001600160e01b031982166380ac58cd60e01b148061046f57506001600160e01b03198216635b5e139f60e01b145b8061048a57506301ffc9a760e01b6001600160e01b03198316145b92915050565b60606000805461049f90611b7e565b80601f01602080910402602001604051908101604052809291908181526020018280546104cb90611b7e565b80156105185780601f106104ed57610100808354040283529160200191610518565b820191906000526020600020905b8154815290600101906020018083116104fb57829003601f168201915b5050505050905090565b600061052d82610c6c565b506000908152600460205260409020546001600160a01b031690565b600061055482610899565b9050806001600160a01b0316836001600160a01b031614156105c75760405162461bcd60e51b815260206004820152602160248201527f4552433732313a20617070726f76616c20746f2063757272656e74206f776e656044820152603960f91b60648201526084015b60405180910390fd5b336001600160a01b03821614806105e357506105e381336103fd565b6106555760405162461bcd60e51b815260206004820152603d60248201527f4552433732313a20617070726f76652063616c6c6572206973206e6f7420746f60448201527f6b656e206f776e6572206f7220617070726f76656420666f7220616c6c00000060648201526084016105be565b61065f8383610ccb565b505050565b7f00000000000000000000000000000000000000000000000000000000000000006106db5760405162461bcd60e51b815260206004820152602160248201527f74686973207061737363617264206973206e6f74207472616e7366657261626c6044820152606560f81b60648201526084016105be565b6106e53282610d39565b6107015760405162461bcd60e51b81526004016105be90611bb9565b61065f838383610db8565b610714610f29565b61071c610f89565b565b61065f83838360405180602001604052806000815250610a93565b610741610f29565b7f00000000000000000000000000000000000000000000000000000000000000006107ae5760405162461bcd60e51b815260206004820152601e60248201527f74686973207061737363617264206973206e6f74207265766f6b61626c65000060448201526064016105be565b6107b83382610d39565b6108125760405162461bcd60e51b815260206004820152602560248201527f63616c6c6572206973206e6f7420746f6b656e206f776e6572206f72206170706044820152641c9bdd995960da1b60648201526084016105be565b61081b81610fdb565b50565b610826610f29565b61083260088383611765565b507fd65971f3e19593881e8ddb6a1ab6b4bcb2aa79f5aa0ed58c93d1b0b031d1679360086040516108639190611c06565b60405180910390a15050565b6008818154811061087f57600080fd5b6000918252602090912001546001600160a01b0316905081565b6000818152600260205260408120546001600160a01b03168061048a5760405162461bcd60e51b8152602060048201526018602482015277115490cdcc8c4e881a5b9d985b1a59081d1bdad95b88125160421b60448201526064016105be565b610901610f29565b60085461093f5760405162461bcd60e51b815260206004820152600c60248201526b1859191c995cdcc81b9d5b1b60a21b60448201526064016105be565b60085460005b8181101561098f5761097d6008828154811061096357610963611c4a565b6000918252602090912001546001600160a01b031661107e565b8061098781611c76565b915050610945565b5061081b600860006117c8565b60006001600160a01b038216610a065760405162461bcd60e51b815260206004820152602960248201527f4552433732313a2061646472657373207a65726f206973206e6f7420612076616044820152683634b21037bbb732b960b91b60648201526084016105be565b506001600160a01b031660009081526003602052604090205490565b610a2a610f29565b61071c60006110d7565b610a3c610f29565b61071c611131565b60096020528160005260406000208181548110610a6057600080fd5b90600052602060002001600091509150505481565b60606001805461049f90611b7e565b610a8f33838361116e565b5050565b610a9d3383610d39565b610ab95760405162461bcd60e51b81526004016105be90611bb9565b610ac58484848461123d565b50505050565b6060610ad682610c6c565b6000610aed60408051602081019091526000815290565b90506000815111610b0d5760405180602001604052806000815250610b38565b80610b1784611270565b604051602001610b28929190611c91565b6040516020818303038152906040525b9392505050565b6000805b82811015610b8357838382818110610b5d57610b5d611c4a565b9050602002013582610b6f9190611cc0565b915080610b7b81611c76565b915050610b43565b5092915050565b6001600160a01b038116600090815260096020908152604091829020805483518184028101840190945280845260609392830182828015610bea57602002820191906000526020600020905b815481526020019060010190808311610bd6575b50505050509050919050565b610bfe610f29565b6001600160a01b038116610c635760405162461bcd60e51b815260206004820152602660248201527f4f776e61626c653a206e6577206f776e657220697320746865207a65726f206160448201526564647265737360d01b60648201526084016105be565b61081b816110d7565b6000818152600260205260409020546001600160a01b031661081b5760405162461bcd60e51b8152602060048201526018602482015277115490cdcc8c4e881a5b9d985b1a59081d1bdad95b88125160421b60448201526064016105be565b600081815260046020526040902080546001600160a01b0319166001600160a01b0384169081179091558190610d0082610899565b6001600160a01b03167f8c5be1e5ebec7d5bd14f71427d1e84f3dd0314c0f7b2291e5b200ac8c7c3b92560405160405180910390a45050565b600080610d4583610899565b9050806001600160a01b0316846001600160a01b03161480610d8c57506001600160a01b0380821660009081526005602090815260408083209388168352929052205460ff165b80610db05750836001600160a01b0316610da584610522565b6001600160a01b0316145b949350505050565b826001600160a01b0316610dcb82610899565b6001600160a01b031614610df15760405162461bcd60e51b81526004016105be90611cd8565b6001600160a01b038216610e535760405162461bcd60e51b8152602060048201526024808201527f4552433732313a207472616e7366657220746f20746865207a65726f206164646044820152637265737360e01b60648201526084016105be565b610e60838383600161130d565b826001600160a01b0316610e7382610899565b6001600160a01b031614610e995760405162461bcd60e51b81526004016105be90611cd8565b600081815260046020908152604080832080546001600160a01b03199081169091556001600160a01b0387811680865260038552838620805460001901905590871680865283862080546001019055868652600290945282852080549092168417909155905184937fddf252ad1be2c89b69c2b068fc378daa952ba7f163c4a11628f55a4df523b3ef91a4505050565b6006546001600160a01b0361010090910416331461071c5760405162461bcd60e51b815260206004820181905260248201527f4f776e61626c653a2063616c6c6572206973206e6f7420746865206f776e657260448201526064016105be565b610f9161131a565b6006805460ff191690557f5db9ee0a495bf2e6ff9c91a7834c1ba4fdd244a5e8aa4e537bd38aeae4b073aa335b6040516001600160a01b03909116815260200160405180910390a1565b6000610fe682610899565b9050610ff681600084600161130d565b610fff82610899565b600083815260046020908152604080832080546001600160a01b03199081169091556001600160a01b0385168085526003845282852080546000190190558785526002909352818420805490911690555192935084927fddf252ad1be2c89b69c2b068fc378daa952ba7f163c4a11628f55a4df523b3ef908390a45050565b611086610f29565b600061109160075490565b90506110a1600780546001019055565b6110ab8282611363565b6001600160a01b0390911660009081526009602090815260408220805460018101825590835291200155565b600680546001600160a01b03838116610100818102610100600160a81b031985161790945560405193909204169182907f8be0079c531659141344cd1fd0a4f28419497f9722a3daafe3b4186f6b6457e090600090a35050565b61113961137d565b6006805460ff191660011790557f62e78cea01bee320cd4e420270b5ea74000d11b0c9f74754ebdbfc544b05a258610fbe3390565b816001600160a01b0316836001600160a01b031614156111d05760405162461bcd60e51b815260206004820152601960248201527f4552433732313a20617070726f766520746f2063616c6c65720000000000000060448201526064016105be565b6001600160a01b03838116600081815260056020908152604080832094871680845294825291829020805460ff191686151590811790915591519182527f17307eab39ab6107e8899845ad3d59bd9653f200f220920489ca2b5937696c31910160405180910390a3505050565b611248848484610db8565b611254848484846113c3565b610ac55760405162461bcd60e51b81526004016105be90611d1d565b6060600061127d836114c1565b600101905060008167ffffffffffffffff81111561129d5761129d611a15565b6040519080825280601f01601f1916602001820160405280156112c7576020820181803683370190505b5090508181016020015b600019016f181899199a1a9b1b9c1cb0b131b232b360811b600a86061a8153600a850494508461130057611305565b6112d1565b509392505050565b61131561137d565b610ac5565b60065460ff1661071c5760405162461bcd60e51b815260206004820152601460248201527314185d5cd8589b194e881b9bdd081c185d5cd95960621b60448201526064016105be565b610a8f828260405180602001604052806000815250611599565b60065460ff161561071c5760405162461bcd60e51b815260206004820152601060248201526f14185d5cd8589b194e881c185d5cd95960821b60448201526064016105be565b60006001600160a01b0384163b156114b657604051630a85bd0160e11b81526001600160a01b0385169063150b7a0290611407903390899088908890600401611d6f565b6020604051808303816000875af1925050508015611442575060408051601f3d908101601f1916820190925261143f91810190611dac565b60015b61149c573d808015611470576040519150601f19603f3d011682016040523d82523d6000602084013e611475565b606091505b5080516114945760405162461bcd60e51b81526004016105be90611d1d565b805181602001fd5b6001600160e01b031916630a85bd0160e11b149050610db0565b506001949350505050565b60008072184f03e93ff9f4daa797ed6e38ed64bf6a1f0160401b83106115005772184f03e93ff9f4daa797ed6e38ed64bf6a1f0160401b830492506040015b6d04ee2d6d415b85acef8100000000831061152c576d04ee2d6d415b85acef8100000000830492506020015b662386f26fc10000831061154a57662386f26fc10000830492506010015b6305f5e1008310611562576305f5e100830492506008015b612710831061157657612710830492506004015b60648310611588576064830492506002015b600a831061048a5760010192915050565b6115a383836115cc565b6115b060008484846113c3565b61065f5760405162461bcd60e51b81526004016105be90611d1d565b6001600160a01b0382166116225760405162461bcd60e51b815260206004820181905260248201527f4552433732313a206d696e7420746f20746865207a65726f206164647265737360448201526064016105be565b6000818152600260205260409020546001600160a01b0316156116875760405162461bcd60e51b815260206004820152601c60248201527f4552433732313a20746f6b656e20616c7265616479206d696e7465640000000060448201526064016105be565b61169560008383600161130d565b6000818152600260205260409020546001600160a01b0316156116fa5760405162461bcd60e51b815260206004820152601c60248201527f4552433732313a20746f6b656e20616c7265616479206d696e7465640000000060448201526064016105be565b6001600160a01b038216600081815260036020908152604080832080546001019055848352600290915280822080546001600160a01b0319168417905551839291907fddf252ad1be2c89b69c2b068fc378daa952ba7f163c4a11628f55a4df523b3ef908290a45050565b8280548282559060005260206000209081019282156117b8579160200282015b828111156117b85781546001600160a01b0319166001600160a01b03843516178255602090920191600190910190611785565b506117c49291506117e2565b5090565b508054600082559060005260206000209081019061081b91905b5b808211156117c457600081556001016117e3565b6001600160e01b03198116811461081b57600080fd5b60006020828403121561181f57600080fd5b8135610b38816117f7565b60005b8381101561184557818101518382015260200161182d565b83811115610ac55750506000910152565b6000815180845261186e81602086016020860161182a565b601f01601f19169290920160200192915050565b602081526000610b386020830184611856565b6000602082840312156118a757600080fd5b5035919050565b80356001600160a01b03811681146118c557600080fd5b919050565b600080604083850312156118dd57600080fd5b6118e6836118ae565b946020939093013593505050565b60008060006060848603121561190957600080fd5b611912846118ae565b9250611920602085016118ae565b9150604084013590509250925092565b60008083601f84011261194257600080fd5b50813567ffffffffffffffff81111561195a57600080fd5b6020830191508360208260051b850101111561197557600080fd5b9250929050565b6000806020838503121561198f57600080fd5b823567ffffffffffffffff8111156119a657600080fd5b6119b285828601611930565b90969095509350505050565b6000602082840312156119d057600080fd5b610b38826118ae565b600080604083850312156119ec57600080fd5b6119f5836118ae565b915060208301358015158114611a0a57600080fd5b809150509250929050565b634e487b7160e01b600052604160045260246000fd5b60008060008060808587031215611a4157600080fd5b611a4a856118ae565b9350611a58602086016118ae565b925060408501359150606085013567ffffffffffffffff80821115611a7c57600080fd5b818701915087601f830112611a9057600080fd5b813581811115611aa257611aa2611a15565b604051601f8201601f19908116603f01168101908382118183101715611aca57611aca611a15565b816040528281528a6020848701011115611ae357600080fd5b82602086016020830137600060208483010152809550505050505092959194509250565b6020808252825182820181905260009190848201906040850190845b81811015611b3f57835183529284019291840191600101611b23565b50909695505050505050565b60008060408385031215611b5e57600080fd5b611b67836118ae565b9150611b75602084016118ae565b90509250929050565b600181811c90821680611b9257607f821691505b60208210811415611bb357634e487b7160e01b600052602260045260246000fd5b50919050565b6020808252602d908201527f4552433732313a2063616c6c6572206973206e6f7420746f6b656e206f776e6560408201526c1c881bdc88185c1c1c9bdd9959609a1b606082015260800190565b6020808252825482820181905260008481528281209092916040850190845b81811015611b3f5783546001600160a01b031683526001938401939285019201611c25565b634e487b7160e01b600052603260045260246000fd5b634e487b7160e01b600052601160045260246000fd5b6000600019821415611c8a57611c8a611c60565b5060010190565b60008351611ca381846020880161182a565b835190830190611cb781836020880161182a565b01949350505050565b60008219821115611cd357611cd3611c60565b500190565b60208082526025908201527f4552433732313a207472616e736665722066726f6d20696e636f72726563742060408201526437bbb732b960d91b606082015260800190565b60208082526032908201527f4552433732313a207472616e7366657220746f206e6f6e20455243373231526560408201527131b2b4bb32b91034b6b83632b6b2b73a32b960711b606082015260800190565b6001600160a01b0385811682528416602082015260408101839052608060608201819052600090611da290830184611856565b9695505050505050565b600060208284031215611dbe57600080fd5b8151610b38816117f756fea26469706673582212202cd021975698b0b362d17ad0ef5916293d42e894918a1f0cb62f72647bcb8d4c64736f6c634300080c0033",
  "linkReferences": {},
  "deployedLinkReferences": {}
}