{
  "_format": "hh-sol-artifact-1",
  "contractName": "PassCard",
  "sourceName": "contracts/PassCard.sol",
  "abi": [
    {
      "inputs": [],
      "stateMutability": "nonpayable",
      "type": "constructor"
    },
    {
      "anonymous": false,
      "inputs": [
        {
          "indexed": false,
          "internalType": "address[]",
          "name": "addr",
          "type": "address[]"
        }
      ],
      "name": "AddressSet",
      "type": "event"
    },
    {
      "anonymous": false,
      "inputs": [
        {
          "indexed": true,
          "internalType": "address",
          "name": "owner",
          "type": "address"
        },
        {
          "indexed": true,
          "internalType": "address",
          "name": "approved",
          "type": "address"
        },
        {
          "indexed": true,
          "internalType": "uint256",
          "name": "tokenId",
          "type": "uint256"
        }
      ],
      "name": "Approval",
      "type": "event"
    },
    {
      "anonymous": false,
      "inputs": [
        {
          "indexed": true,
          "internalType": "address",
          "name": "owner",
          "type": "address"
        },
        {
          "indexed": true,
          "internalType": "address",
          "name": "operator",
          "type": "address"
        },
        {
          "indexed": false,
          "internalType": "bool",
          "name": "approved",
          "type": "bool"
        }
      ],
      "name": "ApprovalForAll",
      "type": "event"
    },
    {
      "anonymous": false,
      "inputs": [
        {
          "indexed": true,
          "internalType": "address",
          "name": "previousOwner",
          "type": "address"
        },
        {
          "indexed": true,
          "internalType": "address",
          "name": "newOwner",
          "type": "address"
        }
      ],
      "name": "OwnershipTransferred",
      "type": "event"
    },
    {
      "anonymous": false,
      "inputs": [
        {
          "indexed": false,
          "internalType": "address",
          "name": "account",
          "type": "address"
        }
      ],
      "name": "Paused",
      "type": "event"
    },
    {
      "anonymous": false,
      "inputs": [
        {
          "indexed": true,
          "internalType": "address",
          "name": "from",
          "type": "address"
        },
        {
          "indexed": true,
          "internalType": "address",
          "name": "to",
          "type": "address"
        },
        {
          "indexed": true,
          "internalType": "uint256",
          "name": "tokenId",
          "type": "uint256"
        }
      ],
      "name": "Transfer",
      "type": "event"
    },
    {
      "anonymous": false,
      "inputs": [
        {
          "indexed": false,
          "internalType": "address",
          "name": "account",
          "type": "address"
        }
      ],
      "name": "Unpaused",
      "type": "event"
    },
    {
      "inputs": [
        {
          "internalType": "uint256",
          "name": "",
          "type": "uint256"
        }
      ],
      "name": "airdropAdr",
      "outputs": [
        {
          "internalType": "address",
          "name": "",
          "type": "address"
        }
      ],
      "stateMutability": "view",
      "type": "function"
    },
    {
      "inputs": [
        {
          "internalType": "address",
          "name": "to",
          "type": "address"
        },
        {
          "internalType": "uint256",
          "name": "tokenId",
          "type": "uint256"
        }
      ],
      "name": "approve",
      "outputs": [],
      "stateMutability": "nonpayable",
      "type": "function"
    },
    {
      "inputs": [
        {
          "internalType": "address",
          "name": "owner",
          "type": "address"
        }
      ],
      "name": "balanceOf",
      "outputs": [
        {
          "internalType": "uint256",
          "name": "",
          "type": "uint256"
        }
      ],
      "stateMutability": "view",
      "type": "function"
    },
    {
      "inputs": [
        {
          "internalType": "uint256",
          "name": "tokenId",
          "type": "uint256"
        }
      ],
      "name": "burn",
      "outputs": [],
      "stateMutability": "nonpayable",
      "type": "function"
    },
    {
      "inputs": [
        {
          "internalType": "uint256",
          "name": "tokenId",
          "type": "uint256"
        }
      ],
      "name": "getApproved",
      "outputs": [
        {
          "internalType": "address",
          "name": "",
          "type": "address"
        }
      ],
      "stateMutability": "view",
      "type": "function"
    },
    {
      "inputs": [
        {
          "internalType": "uint256[]",
          "name": "_arr",
          "type": "uint256[]"
        }
      ],
      "name": "getSum",
      "outputs": [
        {
          "internalType": "uint256",
          "name": "sum",
          "type": "uint256"
        }
      ],
      "stateMutability": "pure",
      "type": "function"
    },
    {
      "inputs": [
        {
          "internalType": "address",
          "name": "owner",
          "type": "address"
        },
        {
          "internalType": "address",
          "name": "operator",
          "type": "address"
        }
      ],
      "name": "isApprovedForAll",
      "outputs": [
        {
          "internalType": "bool",
          "name": "",
          "type": "bool"
        }
      ],
      "stateMutability": "view",
      "type": "function"
    },
    {
      "inputs": [],
      "name": "multiTransferToken",
      "outputs": [],
      "stateMutability": "nonpayable",
      "type": "function"
    },
    {
      "inputs": [],
      "name": "name",
      "outputs": [
        {
          "internalType": "string",
          "name": "",
          "type": "string"
        }
      ],
      "stateMutability": "view",
      "type": "function"
    },
    {
      "inputs": [],
      "name": "owner",
      "outputs": [
        {
          "internalType": "address",
          "name": "",
          "type": "address"
        }
      ],
      "stateMutability": "view",
      "type": "function"
    },
    {
      "inputs": [
        {
          "internalType": "uint256",
          "name": "tokenId",
          "type": "uint256"
        }
      ],
      "name": "ownerOf",
      "outputs": [
        {
          "internalType": "address",
          "name": "",
          "type": "address"
        }
      ],
      "stateMutability": "view",
      "type": "function"
    },
    {
      "inputs": [],
      "name": "pause",
      "outputs": [],
      "stateMutability": "nonpayable",
      "type": "function"
    },
    {
      "inputs": [],
      "name": "paused",
      "outputs": [
        {
          "internalType": "bool",
          "name": "",
          "type": "bool"
        }
      ],
      "stateMutability": "view",
      "type": "function"
    },
    {
      "inputs": [],
      "name": "renounceOwnership",
      "outputs": [],
      "stateMutability": "nonpayable",
      "type": "function"
    },
    {
      "inputs": [
        {
          "internalType": "address",
          "name": "from",
          "type": "address"
        },
        {
          "internalType": "address",
          "name": "to",
          "type": "address"
        },
        {
          "internalType": "uint256",
          "name": "tokenId",
          "type": "uint256"
        }
      ],
      "name": "safeTransferFrom",
      "outputs": [],
      "stateMutability": "nonpayable",
      "type": "function"
    },
    {
      "inputs": [
        {
          "internalType": "address",
          "name": "from",
          "type": "address"
        },
        {
          "internalType": "address",
          "name": "to",
          "type": "address"
        },
        {
          "internalType": "uint256",
          "name": "tokenId",
          "type": "uint256"
        },
        {
          "internalType": "bytes",
          "name": "data",
          "type": "bytes"
        }
      ],
      "name": "safeTransferFrom",
      "outputs": [],
      "stateMutability": "nonpayable",
      "type": "function"
    },
    {
      "inputs": [
        {
          "internalType": "address[]",
          "name": "_address",
          "type": "address[]"
        }
      ],
      "name": "setAirDropAddr",
      "outputs": [],
      "stateMutability": "nonpayable",
      "type": "function"
    },
    {
      "inputs": [
        {
          "internalType": "address",
          "name": "operator",
          "type": "address"
        },
        {
          "internalType": "bool",
          "name": "approved",
          "type": "bool"
        }
      ],
      "name": "setApprovalForAll",
      "outputs": [],
      "stateMutability": "nonpayable",
      "type": "function"
    },
    {
      "inputs": [],
      "name": "subdomain",
      "outputs": [
        {
          "internalType": "contract SetSubDomain",
          "name": "",
          "type": "address"
        }
      ],
      "stateMutability": "view",
      "type": "function"
    },
    {
      "inputs": [
        {
          "internalType": "bytes4",
          "name": "interfaceId",
          "type": "bytes4"
        }
      ],
      "name": "supportsInterface",
      "outputs": [
        {
          "internalType": "bool",
          "name": "",
          "type": "bool"
        }
      ],
      "stateMutability": "view",
      "type": "function"
    },
    {
      "inputs": [],
      "name": "symbol",
      "outputs": [
        {
          "internalType": "string",
          "name": "",
          "type": "string"
        }
      ],
      "stateMutability": "view",
      "type": "function"
    },
    {
      "inputs": [
        {
          "internalType": "uint256",
          "name": "tokenId",
          "type": "uint256"
        }
      ],
      "name": "tokenURI",
      "outputs": [
        {
          "internalType": "string",
          "name": "",
          "type": "string"
        }
      ],
      "stateMutability": "view",
      "type": "function"
    },
    {
      "inputs": [
        {
          "internalType": "address",
          "name": "from",
          "type": "address"
        },
        {
          "internalType": "address",
          "name": "to",
          "type": "address"
        },
        {
          "internalType": "uint256",
          "name": "tokenId",
          "type": "uint256"
        }
      ],
      "name": "transferFrom",
      "outputs": [],
      "stateMutability": "nonpayable",
      "type": "function"
    },
    {
      "inputs": [
        {
          "internalType": "address",
          "name": "newOwner",
          "type": "address"
        }
      ],
      "name": "transferOwnership",
      "outputs": [],
      "stateMutability": "nonpayable",
      "type": "function"
    },
    {
      "inputs": [],
      "name": "unpause",
      "outputs": [],
      "stateMutability": "nonpayable",
      "type": "function"
    }
  ],
  "bytecode": "0x60806040523480156200001157600080fd5b50604080518082018252600881526714185cdcd0d85c9960c21b6020808301918252835180850190945260038452621410d160ea1b9084015281519192916200005d91600091620000eb565b50805162000073906001906020840190620000eb565b50506006805460ff19169055506200008b3362000091565b620001ce565b600680546001600160a01b03838116610100818102610100600160a81b031985161790945560405193909204169182907f8be0079c531659141344cd1fd0a4f28419497f9722a3daafe3b4186f6b6457e090600090a35050565b828054620000f99062000191565b90600052602060002090601f0160209004810192826200011d576000855562000168565b82601f106200013857805160ff191683800117855562000168565b8280016001018555821562000168579182015b82811115620001685782518255916020019190600101906200014b565b50620001769291506200017a565b5090565b5b808211156200017657600081556001016200017b565b600181811c90821680620001a657607f821691505b60208210811415620001c857634e487b7160e01b600052602260045260246000fd5b50919050565b611b0580620001de6000396000f3fe608060405234801561001057600080fd5b50600436106101735760003560e01c8063641bd719116100de57806395d89b4111610097578063c87b56dd11610071578063c87b56dd1461030a578063ccb8c1e01461031d578063e985e9c514610330578063f2fde38b1461036c57600080fd5b806395d89b41146102dc578063a22cb465146102e4578063b88d4fde146102f757600080fd5b8063641bd7191461027a57806370a0823114610282578063715018a6146102a357806377fcff50146102ab5780638456cb59146102be5780638da5cb5b146102c657600080fd5b806342842e0e1161013057806342842e0e1461021057806342966c68146102235780634edae98f146102365780635393db36146102495780635c975abb1461025c5780636352211e1461026757600080fd5b806301ffc9a71461017857806306fdde03146101a0578063081812fc146101b5578063095ea7b3146101e057806323b872dd146101f55780633f4ba83a14610208575b600080fd5b61018b61018636600461154b565b61037f565b60405190151581526020015b60405180910390f35b6101a86103d1565b60405161019791906115c0565b6101c86101c33660046115d3565b610463565b6040516001600160a01b039091168152602001610197565b6101f36101ee366004611608565b61048a565b005b6101f3610203366004611632565b6105a5565b6101f36105d6565b6101f361021e366004611632565b6105e8565b6101f36102313660046115d3565b610603565b6101f36102443660046116ba565b610635565b6101c86102573660046115d3565b61067e565b60065460ff1661018b565b6101c86102753660046115d3565b6106a8565b6101f3610708565b6102956102903660046116fc565b6107a3565b604051908152602001610197565b6101f3610829565b6009546101c8906001600160a01b031681565b6101f361083b565b60065461010090046001600160a01b03166101c8565b6101a861084b565b6101f36102f2366004611717565b61085a565b6101f3610305366004611769565b610869565b6101a86103183660046115d3565b6108a1565b61029561032b3660046116ba565b610915565b61018b61033e366004611845565b6001600160a01b03918216600090815260056020908152604080832093909416825291909152205460ff1690565b6101f361037a3660046116fc565b610960565b60006001600160e01b031982166380ac58cd60e01b14806103b057506001600160e01b03198216635b5e139f60e01b145b806103cb57506301ffc9a760e01b6001600160e01b03198316145b92915050565b6060600080546103e090611878565b80601f016020809104026020016040519081016040528092919081815260200182805461040c90611878565b80156104595780601f1061042e57610100808354040283529160200191610459565b820191906000526020600020905b81548152906001019060200180831161043c57829003601f168201915b5050505050905090565b600061046e826109d6565b506000908152600460205260409020546001600160a01b031690565b6000610495826106a8565b9050806001600160a01b0316836001600160a01b031614156105085760405162461bcd60e51b815260206004820152602160248201527f4552433732313a20617070726f76616c20746f2063757272656e74206f776e656044820152603960f91b60648201526084015b60405180910390fd5b336001600160a01b03821614806105245750610524813361033e565b6105965760405162461bcd60e51b815260206004820152603d60248201527f4552433732313a20617070726f76652063616c6c6572206973206e6f7420746f60448201527f6b656e206f776e6572206f7220617070726f76656420666f7220616c6c00000060648201526084016104ff565b6105a08383610a35565b505050565b6105af3282610aa3565b6105cb5760405162461bcd60e51b81526004016104ff906118b3565b6105a0838383610b22565b6105de610c93565b6105e6610cf3565b565b6105a083838360405180602001604052806000815250610869565b61060d3382610aa3565b6106295760405162461bcd60e51b81526004016104ff906118b3565b61063281610d45565b50565b610641600883836114a3565b507fd65971f3e19593881e8ddb6a1ab6b4bcb2aa79f5aa0ed58c93d1b0b031d1679360086040516106729190611900565b60405180910390a15050565b6008818154811061068e57600080fd5b6000918252602090912001546001600160a01b0316905081565b6000818152600260205260408120546001600160a01b0316806103cb5760405162461bcd60e51b8152602060048201526018602482015277115490cdcc8c4e881a5b9d985b1a59081d1bdad95b88125160421b60448201526064016104ff565b6008546107465760405162461bcd60e51b815260206004820152600c60248201526b1859191c995cdcc81b9d5b1b60a21b60448201526064016104ff565b60085460005b81811015610796576107846008828154811061076a5761076a611950565b6000918252602090912001546001600160a01b0316610de8565b8061078e8161197c565b91505061074c565b5061063260086000611506565b60006001600160a01b03821661080d5760405162461bcd60e51b815260206004820152602960248201527f4552433732313a2061646472657373207a65726f206973206e6f7420612076616044820152683634b21037bbb732b960b91b60648201526084016104ff565b506001600160a01b031660009081526003602052604090205490565b610831610c93565b6105e66000610e15565b610843610c93565b6105e6610e6f565b6060600180546103e090611878565b610865338383610eac565b5050565b6108733383610aa3565b61088f5760405162461bcd60e51b81526004016104ff906118b3565b61089b84848484610f7b565b50505050565b60606108ac826109d6565b60006108c360408051602081019091526000815290565b905060008151116108e3576040518060200160405280600081525061090e565b806108ed84610fae565b6040516020016108fe929190611997565b6040516020818303038152906040525b9392505050565b6000805b828110156109595783838281811061093357610933611950565b905060200201358261094591906119c6565b9150806109518161197c565b915050610919565b5092915050565b610968610c93565b6001600160a01b0381166109cd5760405162461bcd60e51b815260206004820152602660248201527f4f776e61626c653a206e6577206f776e657220697320746865207a65726f206160448201526564647265737360d01b60648201526084016104ff565b61063281610e15565b6000818152600260205260409020546001600160a01b03166106325760405162461bcd60e51b8152602060048201526018602482015277115490cdcc8c4e881a5b9d985b1a59081d1bdad95b88125160421b60448201526064016104ff565b600081815260046020526040902080546001600160a01b0319166001600160a01b0384169081179091558190610a6a826106a8565b6001600160a01b03167f8c5be1e5ebec7d5bd14f71427d1e84f3dd0314c0f7b2291e5b200ac8c7c3b92560405160405180910390a45050565b600080610aaf836106a8565b9050806001600160a01b0316846001600160a01b03161480610af657506001600160a01b0380821660009081526005602090815260408083209388168352929052205460ff165b80610b1a5750836001600160a01b0316610b0f84610463565b6001600160a01b0316145b949350505050565b826001600160a01b0316610b35826106a8565b6001600160a01b031614610b5b5760405162461bcd60e51b81526004016104ff906119de565b6001600160a01b038216610bbd5760405162461bcd60e51b8152602060048201526024808201527f4552433732313a207472616e7366657220746f20746865207a65726f206164646044820152637265737360e01b60648201526084016104ff565b610bca838383600161104b565b826001600160a01b0316610bdd826106a8565b6001600160a01b031614610c035760405162461bcd60e51b81526004016104ff906119de565b600081815260046020908152604080832080546001600160a01b03199081169091556001600160a01b0387811680865260038552838620805460001901905590871680865283862080546001019055868652600290945282852080549092168417909155905184937fddf252ad1be2c89b69c2b068fc378daa952ba7f163c4a11628f55a4df523b3ef91a4505050565b6006546001600160a01b036101009091041633146105e65760405162461bcd60e51b815260206004820181905260248201527f4f776e61626c653a2063616c6c6572206973206e6f7420746865206f776e657260448201526064016104ff565b610cfb611058565b6006805460ff191690557f5db9ee0a495bf2e6ff9c91a7834c1ba4fdd244a5e8aa4e537bd38aeae4b073aa335b6040516001600160a01b03909116815260200160405180910390a1565b6000610d50826106a8565b9050610d6081600084600161104b565b610d69826106a8565b600083815260046020908152604080832080546001600160a01b03199081169091556001600160a01b0385168085526003845282852080546000190190558785526002909352818420805490911690555192935084927fddf252ad1be2c89b69c2b068fc378daa952ba7f163c4a11628f55a4df523b3ef908390a45050565b610df0610c93565b6000610dfb60075490565b9050610e0b600780546001019055565b61086582826110a1565b600680546001600160a01b03838116610100818102610100600160a81b031985161790945560405193909204169182907f8be0079c531659141344cd1fd0a4f28419497f9722a3daafe3b4186f6b6457e090600090a35050565b610e776110bb565b6006805460ff191660011790557f62e78cea01bee320cd4e420270b5ea74000d11b0c9f74754ebdbfc544b05a258610d283390565b816001600160a01b0316836001600160a01b03161415610f0e5760405162461bcd60e51b815260206004820152601960248201527f4552433732313a20617070726f766520746f2063616c6c65720000000000000060448201526064016104ff565b6001600160a01b03838116600081815260056020908152604080832094871680845294825291829020805460ff191686151590811790915591519182527f17307eab39ab6107e8899845ad3d59bd9653f200f220920489ca2b5937696c31910160405180910390a3505050565b610f86848484610b22565b610f9284848484611101565b61089b5760405162461bcd60e51b81526004016104ff90611a23565b60606000610fbb836111ff565b600101905060008167ffffffffffffffff811115610fdb57610fdb611753565b6040519080825280601f01601f191660200182016040528015611005576020820181803683370190505b5090508181016020015b600019016f181899199a1a9b1b9c1cb0b131b232b360811b600a86061a8153600a850494508461103e57611043565b61100f565b509392505050565b6110536110bb565b61089b565b60065460ff166105e65760405162461bcd60e51b815260206004820152601460248201527314185d5cd8589b194e881b9bdd081c185d5cd95960621b60448201526064016104ff565b6108658282604051806020016040528060008152506112d7565b60065460ff16156105e65760405162461bcd60e51b815260206004820152601060248201526f14185d5cd8589b194e881c185d5cd95960821b60448201526064016104ff565b60006001600160a01b0384163b156111f457604051630a85bd0160e11b81526001600160a01b0385169063150b7a0290611145903390899088908890600401611a75565b6020604051808303816000875af1925050508015611180575060408051601f3d908101601f1916820190925261117d91810190611ab2565b60015b6111da573d8080156111ae576040519150601f19603f3d011682016040523d82523d6000602084013e6111b3565b606091505b5080516111d25760405162461bcd60e51b81526004016104ff90611a23565b805181602001fd5b6001600160e01b031916630a85bd0160e11b149050610b1a565b506001949350505050565b60008072184f03e93ff9f4daa797ed6e38ed64bf6a1f0160401b831061123e5772184f03e93ff9f4daa797ed6e38ed64bf6a1f0160401b830492506040015b6d04ee2d6d415b85acef8100000000831061126a576d04ee2d6d415b85acef8100000000830492506020015b662386f26fc10000831061128857662386f26fc10000830492506010015b6305f5e10083106112a0576305f5e100830492506008015b61271083106112b457612710830492506004015b606483106112c6576064830492506002015b600a83106103cb5760010192915050565b6112e1838361130a565b6112ee6000848484611101565b6105a05760405162461bcd60e51b81526004016104ff90611a23565b6001600160a01b0382166113605760405162461bcd60e51b815260206004820181905260248201527f4552433732313a206d696e7420746f20746865207a65726f206164647265737360448201526064016104ff565b6000818152600260205260409020546001600160a01b0316156113c55760405162461bcd60e51b815260206004820152601c60248201527f4552433732313a20746f6b656e20616c7265616479206d696e7465640000000060448201526064016104ff565b6113d360008383600161104b565b6000818152600260205260409020546001600160a01b0316156114385760405162461bcd60e51b815260206004820152601c60248201527f4552433732313a20746f6b656e20616c7265616479206d696e7465640000000060448201526064016104ff565b6001600160a01b038216600081815260036020908152604080832080546001019055848352600290915280822080546001600160a01b0319168417905551839291907fddf252ad1be2c89b69c2b068fc378daa952ba7f163c4a11628f55a4df523b3ef908290a45050565b8280548282559060005260206000209081019282156114f6579160200282015b828111156114f65781546001600160a01b0319166001600160a01b038435161782556020909201916001909101906114c3565b50611502929150611520565b5090565b508054600082559060005260206000209081019061063291905b5b808211156115025760008155600101611521565b6001600160e01b03198116811461063257600080fd5b60006020828403121561155d57600080fd5b813561090e81611535565b60005b8381101561158357818101518382015260200161156b565b8381111561089b5750506000910152565b600081518084526115ac816020860160208601611568565b601f01601f19169290920160200192915050565b60208152600061090e6020830184611594565b6000602082840312156115e557600080fd5b5035919050565b80356001600160a01b038116811461160357600080fd5b919050565b6000806040838503121561161b57600080fd5b611624836115ec565b946020939093013593505050565b60008060006060848603121561164757600080fd5b611650846115ec565b925061165e602085016115ec565b9150604084013590509250925092565b60008083601f84011261168057600080fd5b50813567ffffffffffffffff81111561169857600080fd5b6020830191508360208260051b85010111156116b357600080fd5b9250929050565b600080602083850312156116cd57600080fd5b823567ffffffffffffffff8111156116e457600080fd5b6116f08582860161166e565b90969095509350505050565b60006020828403121561170e57600080fd5b61090e826115ec565b6000806040838503121561172a57600080fd5b611733836115ec565b91506020830135801515811461174857600080fd5b809150509250929050565b634e487b7160e01b600052604160045260246000fd5b6000806000806080858703121561177f57600080fd5b611788856115ec565b9350611796602086016115ec565b925060408501359150606085013567ffffffffffffffff808211156117ba57600080fd5b818701915087601f8301126117ce57600080fd5b8135818111156117e0576117e0611753565b604051601f8201601f19908116603f0116810190838211818310171561180857611808611753565b816040528281528a602084870101111561182157600080fd5b82602086016020830137600060208483010152809550505050505092959194509250565b6000806040838503121561185857600080fd5b611861836115ec565b915061186f602084016115ec565b90509250929050565b600181811c9082168061188c57607f821691505b602082108114156118ad57634e487b7160e01b600052602260045260246000fd5b50919050565b6020808252602d908201527f4552433732313a2063616c6c6572206973206e6f7420746f6b656e206f776e6560408201526c1c881bdc88185c1c1c9bdd9959609a1b606082015260800190565b6020808252825482820181905260008481528281209092916040850190845b818110156119445783546001600160a01b03168352600193840193928501920161191f565b50909695505050505050565b634e487b7160e01b600052603260045260246000fd5b634e487b7160e01b600052601160045260246000fd5b600060001982141561199057611990611966565b5060010190565b600083516119a9818460208801611568565b8351908301906119bd818360208801611568565b01949350505050565b600082198211156119d9576119d9611966565b500190565b60208082526025908201527f4552433732313a207472616e736665722066726f6d20696e636f72726563742060408201526437bbb732b960d91b606082015260800190565b60208082526032908201527f4552433732313a207472616e7366657220746f206e6f6e20455243373231526560408201527131b2b4bb32b91034b6b83632b6b2b73a32b960711b606082015260800190565b6001600160a01b0385811682528416602082015260408101839052608060608201819052600090611aa890830184611594565b9695505050505050565b600060208284031215611ac457600080fd5b815161090e8161153556fea26469706673582212208fd846c42404600610310b4cc25485d780aebb07e4c5852605dad2079886b9b064736f6c634300080c0033",
  "linkReferences": {},
  "deployedLinkReferences": {}
}