{
  "_format": "hh-sol-artifact-1",
  "contractName": "PassCard",
  "sourceName": "contracts/PassCard.sol",
  "abi": [
    {
      "inputs": [
        {
          "internalType": "string",
          "name": "name",
          "type": "string"
        },
        {
          "internalType": "string",
          "name": "symbol",
          "type": "string"
        }
      ],
      "stateMutability": "nonpayable",
      "type": "constructor"
    },
    {
      "anonymous": false,
      "inputs": [
        {
          "indexed": false,
          "internalType": "address[]",
          "name": "addr",
          "type": "address[]"
        }
      ],
      "name": "AddressSet",
      "type": "event"
    },
    {
      "anonymous": false,
      "inputs": [
        {
          "indexed": true,
          "internalType": "address",
          "name": "owner",
          "type": "address"
        },
        {
          "indexed": true,
          "internalType": "address",
          "name": "approved",
          "type": "address"
        },
        {
          "indexed": true,
          "internalType": "uint256",
          "name": "tokenId",
          "type": "uint256"
        }
      ],
      "name": "Approval",
      "type": "event"
    },
    {
      "anonymous": false,
      "inputs": [
        {
          "indexed": true,
          "internalType": "address",
          "name": "owner",
          "type": "address"
        },
        {
          "indexed": true,
          "internalType": "address",
          "name": "operator",
          "type": "address"
        },
        {
          "indexed": false,
          "internalType": "bool",
          "name": "approved",
          "type": "bool"
        }
      ],
      "name": "ApprovalForAll",
      "type": "event"
    },
    {
      "anonymous": false,
      "inputs": [
        {
          "indexed": true,
          "internalType": "address",
          "name": "previousOwner",
          "type": "address"
        },
        {
          "indexed": true,
          "internalType": "address",
          "name": "newOwner",
          "type": "address"
        }
      ],
      "name": "OwnershipTransferred",
      "type": "event"
    },
    {
      "anonymous": false,
      "inputs": [
        {
          "indexed": false,
          "internalType": "address",
          "name": "account",
          "type": "address"
        }
      ],
      "name": "Paused",
      "type": "event"
    },
    {
      "anonymous": false,
      "inputs": [
        {
          "indexed": true,
          "internalType": "address",
          "name": "from",
          "type": "address"
        },
        {
          "indexed": true,
          "internalType": "address",
          "name": "to",
          "type": "address"
        },
        {
          "indexed": true,
          "internalType": "uint256",
          "name": "tokenId",
          "type": "uint256"
        }
      ],
      "name": "Transfer",
      "type": "event"
    },
    {
      "anonymous": false,
      "inputs": [
        {
          "indexed": false,
          "internalType": "address",
          "name": "account",
          "type": "address"
        }
      ],
      "name": "Unpaused",
      "type": "event"
    },
    {
      "inputs": [
        {
          "internalType": "uint256",
          "name": "",
          "type": "uint256"
        }
      ],
      "name": "airdropAdr",
      "outputs": [
        {
          "internalType": "address",
          "name": "",
          "type": "address"
        }
      ],
      "stateMutability": "view",
      "type": "function"
    },
    {
      "inputs": [
        {
          "internalType": "address",
          "name": "to",
          "type": "address"
        },
        {
          "internalType": "uint256",
          "name": "tokenId",
          "type": "uint256"
        }
      ],
      "name": "approve",
      "outputs": [],
      "stateMutability": "nonpayable",
      "type": "function"
    },
    {
      "inputs": [
        {
          "internalType": "address",
          "name": "owner",
          "type": "address"
        }
      ],
      "name": "balanceOf",
      "outputs": [
        {
          "internalType": "uint256",
          "name": "",
          "type": "uint256"
        }
      ],
      "stateMutability": "view",
      "type": "function"
    },
    {
      "inputs": [
        {
          "internalType": "uint256",
          "name": "tokenId",
          "type": "uint256"
        }
      ],
      "name": "burn",
      "outputs": [],
      "stateMutability": "nonpayable",
      "type": "function"
    },
    {
      "inputs": [
        {
          "internalType": "uint256",
          "name": "tokenId",
          "type": "uint256"
        }
      ],
      "name": "getApproved",
      "outputs": [
        {
          "internalType": "address",
          "name": "",
          "type": "address"
        }
      ],
      "stateMutability": "view",
      "type": "function"
    },
    {
      "inputs": [
        {
          "internalType": "uint256[]",
          "name": "_arr",
          "type": "uint256[]"
        }
      ],
      "name": "getSum",
      "outputs": [
        {
          "internalType": "uint256",
          "name": "sum",
          "type": "uint256"
        }
      ],
      "stateMutability": "pure",
      "type": "function"
    },
    {
      "inputs": [
        {
          "internalType": "address",
          "name": "_owner",
          "type": "address"
        }
      ],
      "name": "getallTokenId",
      "outputs": [
        {
          "internalType": "uint256[]",
          "name": "",
          "type": "uint256[]"
        }
      ],
      "stateMutability": "view",
      "type": "function"
    },
    {
      "inputs": [
        {
          "internalType": "address",
          "name": "owner",
          "type": "address"
        },
        {
          "internalType": "address",
          "name": "operator",
          "type": "address"
        }
      ],
      "name": "isApprovedForAll",
      "outputs": [
        {
          "internalType": "bool",
          "name": "",
          "type": "bool"
        }
      ],
      "stateMutability": "view",
      "type": "function"
    },
    {
      "inputs": [],
      "name": "multiTransferToken",
      "outputs": [],
      "stateMutability": "nonpayable",
      "type": "function"
    },
    {
      "inputs": [],
      "name": "name",
      "outputs": [
        {
          "internalType": "string",
          "name": "",
          "type": "string"
        }
      ],
      "stateMutability": "view",
      "type": "function"
    },
    {
      "inputs": [],
      "name": "owner",
      "outputs": [
        {
          "internalType": "address",
          "name": "",
          "type": "address"
        }
      ],
      "stateMutability": "view",
      "type": "function"
    },
    {
      "inputs": [
        {
          "internalType": "uint256",
          "name": "tokenId",
          "type": "uint256"
        }
      ],
      "name": "ownerOf",
      "outputs": [
        {
          "internalType": "address",
          "name": "",
          "type": "address"
        }
      ],
      "stateMutability": "view",
      "type": "function"
    },
    {
      "inputs": [],
      "name": "pause",
      "outputs": [],
      "stateMutability": "nonpayable",
      "type": "function"
    },
    {
      "inputs": [],
      "name": "paused",
      "outputs": [
        {
          "internalType": "bool",
          "name": "",
          "type": "bool"
        }
      ],
      "stateMutability": "view",
      "type": "function"
    },
    {
      "inputs": [],
      "name": "renounceOwnership",
      "outputs": [],
      "stateMutability": "nonpayable",
      "type": "function"
    },
    {
      "inputs": [],
      "name": "revokable",
      "outputs": [
        {
          "internalType": "bool",
          "name": "",
          "type": "bool"
        }
      ],
      "stateMutability": "view",
      "type": "function"
    },
    {
      "inputs": [
        {
          "internalType": "address",
          "name": "from",
          "type": "address"
        },
        {
          "internalType": "address",
          "name": "to",
          "type": "address"
        },
        {
          "internalType": "uint256",
          "name": "tokenId",
          "type": "uint256"
        }
      ],
      "name": "safeTransferFrom",
      "outputs": [],
      "stateMutability": "nonpayable",
      "type": "function"
    },
    {
      "inputs": [
        {
          "internalType": "address",
          "name": "from",
          "type": "address"
        },
        {
          "internalType": "address",
          "name": "to",
          "type": "address"
        },
        {
          "internalType": "uint256",
          "name": "tokenId",
          "type": "uint256"
        },
        {
          "internalType": "bytes",
          "name": "data",
          "type": "bytes"
        }
      ],
      "name": "safeTransferFrom",
      "outputs": [],
      "stateMutability": "nonpayable",
      "type": "function"
    },
    {
      "inputs": [
        {
          "internalType": "address[]",
          "name": "_address",
          "type": "address[]"
        }
      ],
      "name": "setAirDropAddr",
      "outputs": [],
      "stateMutability": "nonpayable",
      "type": "function"
    },
    {
      "inputs": [
        {
          "internalType": "address",
          "name": "operator",
          "type": "address"
        },
        {
          "internalType": "bool",
          "name": "approved",
          "type": "bool"
        }
      ],
      "name": "setApprovalForAll",
      "outputs": [],
      "stateMutability": "nonpayable",
      "type": "function"
    },
    {
      "inputs": [
        {
          "internalType": "bytes4",
          "name": "interfaceId",
          "type": "bytes4"
        }
      ],
      "name": "supportsInterface",
      "outputs": [
        {
          "internalType": "bool",
          "name": "",
          "type": "bool"
        }
      ],
      "stateMutability": "view",
      "type": "function"
    },
    {
      "inputs": [],
      "name": "symbol",
      "outputs": [
        {
          "internalType": "string",
          "name": "",
          "type": "string"
        }
      ],
      "stateMutability": "view",
      "type": "function"
    },
    {
      "inputs": [
        {
          "internalType": "uint256",
          "name": "tokenId",
          "type": "uint256"
        }
      ],
      "name": "tokenURI",
      "outputs": [
        {
          "internalType": "string",
          "name": "",
          "type": "string"
        }
      ],
      "stateMutability": "view",
      "type": "function"
    },
    {
      "inputs": [
        {
          "internalType": "address",
          "name": "",
          "type": "address"
        },
        {
          "internalType": "uint256",
          "name": "",
          "type": "uint256"
        }
      ],
      "name": "tokenids",
      "outputs": [
        {
          "internalType": "uint256",
          "name": "",
          "type": "uint256"
        }
      ],
      "stateMutability": "view",
      "type": "function"
    },
    {
      "inputs": [
        {
          "internalType": "address",
          "name": "from",
          "type": "address"
        },
        {
          "internalType": "address",
          "name": "to",
          "type": "address"
        },
        {
          "internalType": "uint256",
          "name": "tokenId",
          "type": "uint256"
        }
      ],
      "name": "transferFrom",
      "outputs": [],
      "stateMutability": "nonpayable",
      "type": "function"
    },
    {
      "inputs": [
        {
          "internalType": "address",
          "name": "newOwner",
          "type": "address"
        }
      ],
      "name": "transferOwnership",
      "outputs": [],
      "stateMutability": "nonpayable",
      "type": "function"
    },
    {
      "inputs": [],
      "name": "unpause",
      "outputs": [],
      "stateMutability": "nonpayable",
      "type": "function"
    }
  ],
  "bytecode": "0x60806040523480156200001157600080fd5b5060405162001f7038038062001f70833981016040819052620000349162000250565b8151829082906200004d906000906020850190620000dd565b50805162000063906001906020840190620000dd565b50506006805460ff19169055506200007b3362000083565b5050620002f7565b600680546001600160a01b03838116610100818102610100600160a81b031985161790945560405193909204169182907f8be0079c531659141344cd1fd0a4f28419497f9722a3daafe3b4186f6b6457e090600090a35050565b828054620000eb90620002ba565b90600052602060002090601f0160209004810192826200010f57600085556200015a565b82601f106200012a57805160ff19168380011785556200015a565b828001600101855582156200015a579182015b828111156200015a5782518255916020019190600101906200013d565b50620001689291506200016c565b5090565b5b808211156200016857600081556001016200016d565b634e487b7160e01b600052604160045260246000fd5b600082601f830112620001ab57600080fd5b81516001600160401b0380821115620001c857620001c862000183565b604051601f8301601f19908116603f01168101908282118183101715620001f357620001f362000183565b816040528381526020925086838588010111156200021057600080fd5b600091505b8382101562000234578582018301518183018401529082019062000215565b83821115620002465760008385830101525b9695505050505050565b600080604083850312156200026457600080fd5b82516001600160401b03808211156200027c57600080fd5b6200028a8683870162000199565b93506020850151915080821115620002a157600080fd5b50620002b08582860162000199565b9150509250929050565b600181811c90821680620002cf57607f821691505b60208210811415620002f157634e487b7160e01b600052602260045260246000fd5b50919050565b611c6980620003076000396000f3fe608060405234801561001057600080fd5b50600436106101a95760003560e01c806370a08231116100f9578063b88d4fde11610097578063d284ad4911610071578063d284ad4914610366578063e11360b314610386578063e985e9c514610393578063f2fde38b146103cf57600080fd5b8063b88d4fde1461032d578063c87b56dd14610340578063ccb8c1e01461035357600080fd5b80638747336c116100d35780638747336c146102e95780638da5cb5b146102fc57806395d89b4114610312578063a22cb4651461031a57600080fd5b806370a08231146102b8578063715018a6146102d95780638456cb59146102e157600080fd5b806342842e0e116101665780635393db36116101405780635393db361461027f5780635c975abb146102925780636352211e1461029d578063641bd719146102b057600080fd5b806342842e0e1461024657806342966c68146102595780634edae98f1461026c57600080fd5b806301ffc9a7146101ae57806306fdde03146101d6578063081812fc146101eb578063095ea7b31461021657806323b872dd1461022b5780633f4ba83a1461023e575b600080fd5b6101c16101bc366004611677565b6103e2565b60405190151581526020015b60405180910390f35b6101de610434565b6040516101cd91906116ec565b6101fe6101f93660046116ff565b6104c6565b6040516001600160a01b0390911681526020016101cd565b610229610224366004611734565b6104ed565b005b61022961023936600461175e565b610608565b610229610639565b61022961025436600461175e565b61064b565b6102296102673660046116ff565b610666565b61022961027a3660046117e6565b610698565b6101fe61028d3660046116ff565b6106e1565b60065460ff166101c1565b6101fe6102ab3660046116ff565b61070b565b61022961076b565b6102cb6102c6366004611828565b610806565b6040519081526020016101cd565b61022961088c565b61022961089e565b6102cb6102f7366004611734565b6108ae565b60065461010090046001600160a01b03166101fe565b6101de6108df565b610229610328366004611843565b6108ee565b61022961033b366004611895565b6108fd565b6101de61034e3660046116ff565b610935565b6102cb6103613660046117e6565b6109a9565b610379610374366004611828565b6109f4565b6040516101cd9190611971565b600a546101c19060ff1681565b6101c16103a13660046119b5565b6001600160a01b03918216600090815260056020908152604080832093909416825291909152205460ff1690565b6102296103dd366004611828565b610a60565b60006001600160e01b031982166380ac58cd60e01b148061041357506001600160e01b03198216635b5e139f60e01b145b8061042e57506301ffc9a760e01b6001600160e01b03198316145b92915050565b606060008054610443906119e8565b80601f016020809104026020016040519081016040528092919081815260200182805461046f906119e8565b80156104bc5780601f10610491576101008083540402835291602001916104bc565b820191906000526020600020905b81548152906001019060200180831161049f57829003601f168201915b5050505050905090565b60006104d182610ad6565b506000908152600460205260409020546001600160a01b031690565b60006104f88261070b565b9050806001600160a01b0316836001600160a01b0316141561056b5760405162461bcd60e51b815260206004820152602160248201527f4552433732313a20617070726f76616c20746f2063757272656e74206f776e656044820152603960f91b60648201526084015b60405180910390fd5b336001600160a01b0382161480610587575061058781336103a1565b6105f95760405162461bcd60e51b815260206004820152603d60248201527f4552433732313a20617070726f76652063616c6c6572206973206e6f7420746f60448201527f6b656e206f776e6572206f7220617070726f76656420666f7220616c6c0000006064820152608401610562565b6106038383610b35565b505050565b6106123282610ba3565b61062e5760405162461bcd60e51b815260040161056290611a23565b610603838383610c22565b610641610d93565b610649610df3565b565b610603838383604051806020016040528060008152506108fd565b6106703382610ba3565b61068c5760405162461bcd60e51b815260040161056290611a23565b61069581610e45565b50565b6106a4600883836115cf565b507fd65971f3e19593881e8ddb6a1ab6b4bcb2aa79f5aa0ed58c93d1b0b031d1679360086040516106d59190611a70565b60405180910390a15050565b600881815481106106f157600080fd5b6000918252602090912001546001600160a01b0316905081565b6000818152600260205260408120546001600160a01b03168061042e5760405162461bcd60e51b8152602060048201526018602482015277115490cdcc8c4e881a5b9d985b1a59081d1bdad95b88125160421b6044820152606401610562565b6008546107a95760405162461bcd60e51b815260206004820152600c60248201526b1859191c995cdcc81b9d5b1b60a21b6044820152606401610562565b60085460005b818110156107f9576107e7600882815481106107cd576107cd611ab4565b6000918252602090912001546001600160a01b0316610ee8565b806107f181611ae0565b9150506107af565b5061069560086000611632565b60006001600160a01b0382166108705760405162461bcd60e51b815260206004820152602960248201527f4552433732313a2061646472657373207a65726f206973206e6f7420612076616044820152683634b21037bbb732b960b91b6064820152608401610562565b506001600160a01b031660009081526003602052604090205490565b610894610d93565b6106496000610f41565b6108a6610d93565b610649610f9b565b600960205281600052604060002081815481106108ca57600080fd5b90600052602060002001600091509150505481565b606060018054610443906119e8565b6108f9338383610fd8565b5050565b6109073383610ba3565b6109235760405162461bcd60e51b815260040161056290611a23565b61092f848484846110a7565b50505050565b606061094082610ad6565b600061095760408051602081019091526000815290565b9050600081511161097757604051806020016040528060008152506109a2565b80610981846110da565b604051602001610992929190611afb565b6040516020818303038152906040525b9392505050565b6000805b828110156109ed578383828181106109c7576109c7611ab4565b90506020020135826109d99190611b2a565b9150806109e581611ae0565b9150506109ad565b5092915050565b6001600160a01b038116600090815260096020908152604091829020805483518184028101840190945280845260609392830182828015610a5457602002820191906000526020600020905b815481526020019060010190808311610a40575b50505050509050919050565b610a68610d93565b6001600160a01b038116610acd5760405162461bcd60e51b815260206004820152602660248201527f4f776e61626c653a206e6577206f776e657220697320746865207a65726f206160448201526564647265737360d01b6064820152608401610562565b61069581610f41565b6000818152600260205260409020546001600160a01b03166106955760405162461bcd60e51b8152602060048201526018602482015277115490cdcc8c4e881a5b9d985b1a59081d1bdad95b88125160421b6044820152606401610562565b600081815260046020526040902080546001600160a01b0319166001600160a01b0384169081179091558190610b6a8261070b565b6001600160a01b03167f8c5be1e5ebec7d5bd14f71427d1e84f3dd0314c0f7b2291e5b200ac8c7c3b92560405160405180910390a45050565b600080610baf8361070b565b9050806001600160a01b0316846001600160a01b03161480610bf657506001600160a01b0380821660009081526005602090815260408083209388168352929052205460ff165b80610c1a5750836001600160a01b0316610c0f846104c6565b6001600160a01b0316145b949350505050565b826001600160a01b0316610c358261070b565b6001600160a01b031614610c5b5760405162461bcd60e51b815260040161056290611b42565b6001600160a01b038216610cbd5760405162461bcd60e51b8152602060048201526024808201527f4552433732313a207472616e7366657220746f20746865207a65726f206164646044820152637265737360e01b6064820152608401610562565b610cca8383836001611177565b826001600160a01b0316610cdd8261070b565b6001600160a01b031614610d035760405162461bcd60e51b815260040161056290611b42565b600081815260046020908152604080832080546001600160a01b03199081169091556001600160a01b0387811680865260038552838620805460001901905590871680865283862080546001019055868652600290945282852080549092168417909155905184937fddf252ad1be2c89b69c2b068fc378daa952ba7f163c4a11628f55a4df523b3ef91a4505050565b6006546001600160a01b036101009091041633146106495760405162461bcd60e51b815260206004820181905260248201527f4f776e61626c653a2063616c6c6572206973206e6f7420746865206f776e65726044820152606401610562565b610dfb611184565b6006805460ff191690557f5db9ee0a495bf2e6ff9c91a7834c1ba4fdd244a5e8aa4e537bd38aeae4b073aa335b6040516001600160a01b03909116815260200160405180910390a1565b6000610e508261070b565b9050610e60816000846001611177565b610e698261070b565b600083815260046020908152604080832080546001600160a01b03199081169091556001600160a01b0385168085526003845282852080546000190190558785526002909352818420805490911690555192935084927fddf252ad1be2c89b69c2b068fc378daa952ba7f163c4a11628f55a4df523b3ef908390a45050565b610ef0610d93565b6000610efb60075490565b9050610f0b600780546001019055565b610f1582826111cd565b6001600160a01b0390911660009081526009602090815260408220805460018101825590835291200155565b600680546001600160a01b03838116610100818102610100600160a81b031985161790945560405193909204169182907f8be0079c531659141344cd1fd0a4f28419497f9722a3daafe3b4186f6b6457e090600090a35050565b610fa36111e7565b6006805460ff191660011790557f62e78cea01bee320cd4e420270b5ea74000d11b0c9f74754ebdbfc544b05a258610e283390565b816001600160a01b0316836001600160a01b0316141561103a5760405162461bcd60e51b815260206004820152601960248201527f4552433732313a20617070726f766520746f2063616c6c6572000000000000006044820152606401610562565b6001600160a01b03838116600081815260056020908152604080832094871680845294825291829020805460ff191686151590811790915591519182527f17307eab39ab6107e8899845ad3d59bd9653f200f220920489ca2b5937696c31910160405180910390a3505050565b6110b2848484610c22565b6110be8484848461122d565b61092f5760405162461bcd60e51b815260040161056290611b87565b606060006110e78361132b565b600101905060008167ffffffffffffffff8111156111075761110761187f565b6040519080825280601f01601f191660200182016040528015611131576020820181803683370190505b5090508181016020015b600019016f181899199a1a9b1b9c1cb0b131b232b360811b600a86061a8153600a850494508461116a5761116f565b61113b565b509392505050565b61117f6111e7565b61092f565b60065460ff166106495760405162461bcd60e51b815260206004820152601460248201527314185d5cd8589b194e881b9bdd081c185d5cd95960621b6044820152606401610562565b6108f9828260405180602001604052806000815250611403565b60065460ff16156106495760405162461bcd60e51b815260206004820152601060248201526f14185d5cd8589b194e881c185d5cd95960821b6044820152606401610562565b60006001600160a01b0384163b1561132057604051630a85bd0160e11b81526001600160a01b0385169063150b7a0290611271903390899088908890600401611bd9565b6020604051808303816000875af19250505080156112ac575060408051601f3d908101601f191682019092526112a991810190611c16565b60015b611306573d8080156112da576040519150601f19603f3d011682016040523d82523d6000602084013e6112df565b606091505b5080516112fe5760405162461bcd60e51b815260040161056290611b87565b805181602001fd5b6001600160e01b031916630a85bd0160e11b149050610c1a565b506001949350505050565b60008072184f03e93ff9f4daa797ed6e38ed64bf6a1f0160401b831061136a5772184f03e93ff9f4daa797ed6e38ed64bf6a1f0160401b830492506040015b6d04ee2d6d415b85acef81000000008310611396576d04ee2d6d415b85acef8100000000830492506020015b662386f26fc1000083106113b457662386f26fc10000830492506010015b6305f5e10083106113cc576305f5e100830492506008015b61271083106113e057612710830492506004015b606483106113f2576064830492506002015b600a831061042e5760010192915050565b61140d8383611436565b61141a600084848461122d565b6106035760405162461bcd60e51b815260040161056290611b87565b6001600160a01b03821661148c5760405162461bcd60e51b815260206004820181905260248201527f4552433732313a206d696e7420746f20746865207a65726f20616464726573736044820152606401610562565b6000818152600260205260409020546001600160a01b0316156114f15760405162461bcd60e51b815260206004820152601c60248201527f4552433732313a20746f6b656e20616c7265616479206d696e746564000000006044820152606401610562565b6114ff600083836001611177565b6000818152600260205260409020546001600160a01b0316156115645760405162461bcd60e51b815260206004820152601c60248201527f4552433732313a20746f6b656e20616c7265616479206d696e746564000000006044820152606401610562565b6001600160a01b038216600081815260036020908152604080832080546001019055848352600290915280822080546001600160a01b0319168417905551839291907fddf252ad1be2c89b69c2b068fc378daa952ba7f163c4a11628f55a4df523b3ef908290a45050565b828054828255906000526020600020908101928215611622579160200282015b828111156116225781546001600160a01b0319166001600160a01b038435161782556020909201916001909101906115ef565b5061162e92915061164c565b5090565b508054600082559060005260206000209081019061069591905b5b8082111561162e576000815560010161164d565b6001600160e01b03198116811461069557600080fd5b60006020828403121561168957600080fd5b81356109a281611661565b60005b838110156116af578181015183820152602001611697565b8381111561092f5750506000910152565b600081518084526116d8816020860160208601611694565b601f01601f19169290920160200192915050565b6020815260006109a260208301846116c0565b60006020828403121561171157600080fd5b5035919050565b80356001600160a01b038116811461172f57600080fd5b919050565b6000806040838503121561174757600080fd5b61175083611718565b946020939093013593505050565b60008060006060848603121561177357600080fd5b61177c84611718565b925061178a60208501611718565b9150604084013590509250925092565b60008083601f8401126117ac57600080fd5b50813567ffffffffffffffff8111156117c457600080fd5b6020830191508360208260051b85010111156117df57600080fd5b9250929050565b600080602083850312156117f957600080fd5b823567ffffffffffffffff81111561181057600080fd5b61181c8582860161179a565b90969095509350505050565b60006020828403121561183a57600080fd5b6109a282611718565b6000806040838503121561185657600080fd5b61185f83611718565b91506020830135801515811461187457600080fd5b809150509250929050565b634e487b7160e01b600052604160045260246000fd5b600080600080608085870312156118ab57600080fd5b6118b485611718565b93506118c260208601611718565b925060408501359150606085013567ffffffffffffffff808211156118e657600080fd5b818701915087601f8301126118fa57600080fd5b81358181111561190c5761190c61187f565b604051601f8201601f19908116603f011681019083821181831017156119345761193461187f565b816040528281528a602084870101111561194d57600080fd5b82602086016020830137600060208483010152809550505050505092959194509250565b6020808252825182820181905260009190848201906040850190845b818110156119a95783518352928401929184019160010161198d565b50909695505050505050565b600080604083850312156119c857600080fd5b6119d183611718565b91506119df60208401611718565b90509250929050565b600181811c908216806119fc57607f821691505b60208210811415611a1d57634e487b7160e01b600052602260045260246000fd5b50919050565b6020808252602d908201527f4552433732313a2063616c6c6572206973206e6f7420746f6b656e206f776e6560408201526c1c881bdc88185c1c1c9bdd9959609a1b606082015260800190565b6020808252825482820181905260008481528281209092916040850190845b818110156119a95783546001600160a01b031683526001938401939285019201611a8f565b634e487b7160e01b600052603260045260246000fd5b634e487b7160e01b600052601160045260246000fd5b6000600019821415611af457611af4611aca565b5060010190565b60008351611b0d818460208801611694565b835190830190611b21818360208801611694565b01949350505050565b60008219821115611b3d57611b3d611aca565b500190565b60208082526025908201527f4552433732313a207472616e736665722066726f6d20696e636f72726563742060408201526437bbb732b960d91b606082015260800190565b60208082526032908201527f4552433732313a207472616e7366657220746f206e6f6e20455243373231526560408201527131b2b4bb32b91034b6b83632b6b2b73a32b960711b606082015260800190565b6001600160a01b0385811682528416602082015260408101839052608060608201819052600090611c0c908301846116c0565b9695505050505050565b600060208284031215611c2857600080fd5b81516109a28161166156fea2646970667358221220e13f6cf1a642832d6240663645cdb89393d6d4b4578fdbe361f6831e0f1fa46764736f6c634300080c0033",
  "linkReferences": {},
  "deployedLinkReferences": {}
}