{"contracts/DaoDomain.sol":{"DaoDomain":{"abi":[{"inputs":[],"stateMutability":"nonpayable","type":"constructor"},{"anonymous":false,"inputs":[{"indexed":false,"internalType":"bytes32","name":"node","type":"bytes32"},{"indexed":false,"internalType":"bytes32","name":"label","type":"bytes32"},{"indexed":false,"internalType":"address","name":"registant","type":"address"},{"indexed":false,"internalType":"address","name":"resolver","type":"address"}],"name":"sendtoEns","type":"event"},{"inputs":[{"internalType":"uint256","name":"","type":"uint256"}],"name":"PasscardToBind","outputs":[{"internalType":"bool","name":"","type":"bool"}],"stateMutability":"view","type":"function"},{"inputs":[{"internalType":"uint256","name":"","type":"uint256"}],"name":"PasscardToDomain","outputs":[{"internalType":"bytes32","name":"","type":"bytes32"}],"stateMutability":"view","type":"function"},{"inputs":[{"internalType":"bytes32","name":"_label","type":"bytes32"},{"internalType":"uint256","name":"tokenId","type":"uint256"},{"internalType":"string","name":"_nodename","type":"string"}],"name":"claim","outputs":[],"stateMutability":"nonpayable","type":"function"},{"inputs":[],"name":"controller","outputs":[{"internalType":"contract IController","name":"","type":"address"}],"stateMutability":"view","type":"function"},{"inputs":[],"name":"ens","outputs":[{"internalType":"contract IEns","name":"","type":"address"}],"stateMutability":"view","type":"function"},{"inputs":[],"name":"getAllPassCard","outputs":[{"internalType":"uint256[]","name":"","type":"uint256[]"}],"stateMutability":"view","type":"function"},{"inputs":[{"internalType":"uint256","name":"tokenId","type":"uint256"}],"name":"getPassCardStatus","outputs":[{"internalType":"bool","name":"","type":"bool"}],"stateMutability":"view","type":"function"},{"inputs":[{"internalType":"string","name":"nodename","type":"string"}],"name":"issueDomain","outputs":[],"stateMutability":"nonpayable","type":"function"},{"inputs":[],"name":"passcard","outputs":[{"internalType":"contract PassCard","name":"","type":"address"}],"stateMutability":"view","type":"function"},{"inputs":[],"name":"resolver","outputs":[{"internalType":"contract IResolver","name":"","type":"address"}],"stateMutability":"view","type":"function"},{"inputs":[{"internalType":"address","name":"to","type":"address"}],"name":"setAddr","outputs":[],"stateMutability":"nonpayable","type":"function"},{"inputs":[{"internalType":"address","name":"_adr","type":"address"}],"name":"setPassCard","outputs":[],"stateMutability":"nonpayable","type":"function"},{"inputs":[{"internalType":"address","name":"_resolver","type":"address"}],"name":"setResolver","outputs":[],"stateMutability":"nonpayable","type":"function"},{"inputs":[{"internalType":"bytes32","name":"_label","type":"bytes32"}],"name":"setSubnodeRecord","outputs":[],"stateMutability":"nonpayable","type":"function"},{"inputs":[{"internalType":"uint256","name":"tokenId","type":"uint256"},{"internalType":"bytes32","name":"_label","type":"bytes32"},{"internalType":"string","name":"_nodename","type":"string"}],"name":"startDAO","outputs":[],"stateMutability":"nonpayable","type":"function"},{"inputs":[{"internalType":"address","name":"to","type":"address"},{"internalType":"uint256","name":"tokenId","type":"uint256"},{"internalType":"string","name":"_nodename","type":"string"}],"name":"transferPassCardAndSubDomain","outputs":[],"stateMutability":"nonpayable","type":"function"}],"evm":{"bytecode":{"linkReferences":{},"object":"6080604052600080547357f1887a8bf19b14fc0df6fd9b2acc9af147ea856001600160a01b0319918216811790925560018054909116909117905534801561004657600080fd5b50600980546001600160a01b0319166e0c2e074ec69a0dfb2997ba6c7d2e1e179055611186806100776000396000f3fe608060405234801561001057600080fd5b50600436106101005760003560e01c8063783423d211610097578063ee70297011610066578063ee70297014610253578063f4b381fd14610268578063f6b457de1461027b578063f77c4791146102ab57600080fd5b8063783423d2146101d7578063d1bd97da1461020a578063d1d80fdf1461022d578063edb41d211461024057600080fd5b80634e543b26116100d35780634e543b261461018b5780635e219c481461019e57806374dc483f146101b157806376a3969e146101c457600080fd5b806304f3bcec146101055780631b62d8721461013557806332b9afc9146101635780633f15457f14610178575b600080fd5b600a54610118906001600160a01b031681565b6040516001600160a01b0390911681526020015b60405180910390f35b610155610143366004610ca5565b60036020526000908152604090205481565b60405190815260200161012c565b610176610171366004610d8a565b6102be565b005b600954610118906001600160a01b031681565b610176610199366004610de3565b6103be565b6101766101ac366004610e07565b61042c565b600254610118906001600160a01b031681565b6101766101d2366004610ca5565b6104f9565b6101fa6101e5366004610ca5565b60009081526004602052604090205460ff1690565b604051901515815260200161012c565b6101fa610218366004610ca5565b60046020526000908152604090205460ff1681565b61017661023b366004610de3565b610598565b61017661024e366004610e07565b610635565b61025b610902565b60405161012c9190610e41565b610176610276366004610e85565b610978565b610176610289366004610de3565b600280546001600160a01b0319166001600160a01b0392909216919091179055565b600054610118906001600160a01b031681565b6002546040516323b872dd60e01b81523360048201526001600160a01b03858116602483015260448201859052909116906323b872dd90606401600060405180830381600087803b15801561031257600080fd5b505af1158015610326573d6000803e3d6000fd5b50505060008381526003602052604090205490506103448183610a38565b6009546007546040516305ef2c7f60e41b81526001600160a01b0390921691635ef2c7f09161037e91859060009081908190600401610ec2565b600060405180830381600087803b15801561039857600080fd5b505af11580156103ac573d6000803e3d6000fd5b505050506103b8610bd1565b50505050565b600954600754604051630c4b7b8560e11b815260048101919091526001600160a01b03838116602483015290911690631896f70a906044015b600060405180830381600087803b15801561041157600080fd5b505af1158015610425573d6000803e3d6000fd5b5050505050565b6002546040516331a9108f60e11b81526004810184905283916000916001600160a01b0390911690636352211e90602401602060405180830381865afa15801561047a573d6000803e3d6000fd5b505050506040513d601f19601f8201168201806040525081019061049e9190610ef8565b9050336001600160a01b038216146104ee5760405162461bcd60e51b815260206004820152600f60248201526e3737ba103a37b5b2b71037bbb732b960891b604482015260640160405180910390fd5b610425848685610635565b600954600754604051630178b8bf60e01b8152600481018290526001600160a01b0390921691635ef2c7f09190849030908590630178b8bf90602401602060405180830381865afa158015610552573d6000803e3d6000fd5b505050506040513d601f19601f820116820180604052508101906105769190610ef8565b60006040518663ffffffff1660e01b81526004016103f7959493929190610ec2565b6040516bffffffffffffffffffffffff19606083901b16602082015260009060340160408051601f1981840301815290829052600a54600654638b95dd7160e01b84529193506001600160a01b031691638b95dd71916105ff91603c908690600401610f41565b600060405180830381600087803b15801561061957600080fd5b505af115801561062d573d6000803e3d6000fd5b505050505050565b61063f8282610a38565b600954600754604051630178b8bf60e01b815260048101919091526000916001600160a01b031690630178b8bf90602401602060405180830381865afa15801561068d573d6000803e3d6000fd5b505050506040513d601f19601f820116820180604052508101906106b19190610ef8565b6009546007546040516305ef2c7f60e41b81529293506001600160a01b0390911691635ef2c7f0916106ee91879030908790600090600401610ec2565b600060405180830381600087803b15801561070857600080fd5b505af115801561071c573d6000803e3d6000fd5b5050600954600754604051630c4b7b8560e11b815260048101919091526001600160a01b0385811660248301529091169250631896f70a9150604401600060405180830381600087803b15801561077257600080fd5b505af1158015610786573d6000803e3d6000fd5b5050600a54600654604051638b95dd7160e01b81526001600160a01b039092169350638b95dd7192506107c191603c90600890600401610fbd565b600060405180830381600087803b1580156107db57600080fd5b505af11580156107ef573d6000803e3d6000fd5b50506009546007546005546040516306ab592360e01b81526004810192909252602482018890526001600160a01b03908116604483015290911692506306ab592391506064016020604051808303816000875af1158015610854573d6000803e3d6000fd5b505050506040513d601f19601f820116820180604052508101906108789190611075565b5060075460055460408051928352602083018690526001600160a01b0391821690830152821660608201527fcc6e575905be59e3e2a0ebe1805959c6f78a4d268432b7e3ae8806b6bf3fdfaa9060800160405180910390a16108d8610bd1565b5050600091825260036020908152604080842092909255600490529020805460ff19166001179055565b60025460405163d284ad4960e01b81523360048201526060916001600160a01b03169063d284ad4990602401600060405180830381865afa15801561094b573d6000803e3d6000fd5b505050506040513d6000823e601f3d908101601f19168201604052610973919081019061108e565b905090565b60008160405160200161098b9190611134565b60408051808303601f190181529082905280516020909101206001546024830182905230604484015290925082916001600160a01b039091169060640160408051601f198184030181529181526020820180516001600160e01b0316630a3b53db60e21b179052516109fd9190611134565b600060405180830381855af49150503d806000811461062d576040519150601f19603f3d011682016040523d82523d6000602084013e61062d565b600580546001600160a01b03191632908117909155604051610a75919060200160609190911b6bffffffffffffffffffffffff1916815260140190565b60405160208183030381529060405260089080519060200190610a99929190610c0c565b50600081604051602001610aad9190611134565b60408051808303601f1901815282825280516020918201207f93cdeb708b7545dc668eb9280176169d1c33cfd8ed6f04690a0bcc88a93fc4ae91840191909152908201819052915060600160408051808303601f190181528282528051602091820120600781905590830152810184905260600160408051808303601f19018152908290528051602090910120600655600954600754630178b8bf60e01b835260048301526000916001600160a01b0390911690630178b8bf90602401602060405180830381865afa158015610b87573d6000803e3d6000fd5b505050506040513d601f19601f82011682018060405250810190610bab9190610ef8565b600a80546001600160a01b0319166001600160a01b039290921691909117905550505050565b600580546001600160a01b0319169055600060068190556007819055604080516020810191829052829052610c099160089190610c0c565b50565b828054610c1890610f82565b90600052602060002090601f016020900481019282610c3a5760008555610c80565b82601f10610c5357805160ff1916838001178555610c80565b82800160010185558215610c80579182015b82811115610c80578251825591602001919060010190610c65565b50610c8c929150610c90565b5090565b5b80821115610c8c5760008155600101610c91565b600060208284031215610cb757600080fd5b5035919050565b6001600160a01b0381168114610c0957600080fd5b634e487b7160e01b600052604160045260246000fd5b604051601f8201601f1916810167ffffffffffffffff81118282101715610d1257610d12610cd3565b604052919050565b600082601f830112610d2b57600080fd5b813567ffffffffffffffff811115610d4557610d45610cd3565b610d58601f8201601f1916602001610ce9565b818152846020838601011115610d6d57600080fd5b816020850160208301376000918101602001919091529392505050565b600080600060608486031215610d9f57600080fd5b8335610daa81610cbe565b925060208401359150604084013567ffffffffffffffff811115610dcd57600080fd5b610dd986828701610d1a565b9150509250925092565b600060208284031215610df557600080fd5b8135610e0081610cbe565b9392505050565b600080600060608486031215610e1c57600080fd5b8335925060208401359150604084013567ffffffffffffffff811115610dcd57600080fd5b6020808252825182820181905260009190848201906040850190845b81811015610e7957835183529284019291840191600101610e5d565b50909695505050505050565b600060208284031215610e9757600080fd5b813567ffffffffffffffff811115610eae57600080fd5b610eba84828501610d1a565b949350505050565b94855260208501939093526001600160a01b03918216604085015216606083015267ffffffffffffffff16608082015260a00190565b600060208284031215610f0a57600080fd5b8151610e0081610cbe565b60005b83811015610f30578181015183820152602001610f18565b838111156103b85750506000910152565b8381528260208201526060604082015260008251806060840152610f6c816080850160208701610f15565b601f01601f191691909101608001949350505050565b600181811c90821680610f9657607f821691505b60208210811415610fb757634e487b7160e01b600052602260045260246000fd5b50919050565b838152600060208481840152606060408401526000845481600182811c915080831680610feb57607f831692505b85831081141561100957634e487b7160e01b85526022600452602485fd5b6060880183905260808801818015611028576001811461103957611064565b60ff19861682528782019650611064565b60008b81526020902060005b8681101561105e57815484820152908501908901611045565b83019750505b50949b9a5050505050505050505050565b60006020828403121561108757600080fd5b5051919050565b600060208083850312156110a157600080fd5b825167ffffffffffffffff808211156110b957600080fd5b818501915085601f8301126110cd57600080fd5b8151818111156110df576110df610cd3565b8060051b91506110f0848301610ce9565b818152918301840191848101908884111561110a57600080fd5b938501935b838510156111285784518252938501939085019061110f565b98975050505050505050565b60008251611146818460208701610f15565b919091019291505056fea2646970667358221220f9903018558bcc59e09aef5e4072ad9934a6a0ad3fbe8b3dbc234659d0aaad3b64736f6c634300080c0033","opcodes":"PUSH1 0x80 PUSH1 0x40 MSTORE PUSH1 0x0 DUP1 SLOAD PUSH20 0x57F1887A8BF19B14FC0DF6FD9B2ACC9AF147EA85 PUSH1 0x1 PUSH1 0x1 PUSH1 0xA0 SHL SUB NOT SWAP2 DUP3 AND DUP2 OR SWAP1 SWAP3 SSTORE PUSH1 0x1 DUP1 SLOAD SWAP1 SWAP2 AND SWAP1 SWAP2 OR SWAP1 SSTORE CALLVALUE DUP1 ISZERO PUSH2 0x46 JUMPI PUSH1 0x0 DUP1 REVERT JUMPDEST POP PUSH1 0x9 DUP1 SLOAD PUSH1 0x1 PUSH1 0x1 PUSH1 0xA0 SHL SUB NOT AND PUSH15 0xC2E074EC69A0DFB2997BA6C7D2E1E OR SWAP1 SSTORE PUSH2 0x1186 DUP1 PUSH2 0x77 PUSH1 0x0 CODECOPY PUSH1 0x0 RETURN INVALID PUSH1 0x80 PUSH1 0x40 MSTORE CALLVALUE DUP1 ISZERO PUSH2 0x10 JUMPI PUSH1 0x0 DUP1 REVERT JUMPDEST POP PUSH1 0x4 CALLDATASIZE LT PUSH2 0x100 JUMPI PUSH1 0x0 CALLDATALOAD PUSH1 0xE0 SHR DUP1 PUSH4 0x783423D2 GT PUSH2 0x97 JUMPI DUP1 PUSH4 0xEE702970 GT PUSH2 0x66 JUMPI DUP1 PUSH4 0xEE702970 EQ PUSH2 0x253 JUMPI DUP1 PUSH4 0xF4B381FD EQ PUSH2 0x268 JUMPI DUP1 PUSH4 0xF6B457DE EQ PUSH2 0x27B JUMPI DUP1 PUSH4 0xF77C4791 EQ PUSH2 0x2AB JUMPI PUSH1 0x0 DUP1 REVERT JUMPDEST DUP1 PUSH4 0x783423D2 EQ PUSH2 0x1D7 JUMPI DUP1 PUSH4 0xD1BD97DA EQ PUSH2 0x20A JUMPI DUP1 PUSH4 0xD1D80FDF EQ PUSH2 0x22D JUMPI DUP1 PUSH4 0xEDB41D21 EQ PUSH2 0x240 JUMPI PUSH1 0x0 DUP1 REVERT JUMPDEST DUP1 PUSH4 0x4E543B26 GT PUSH2 0xD3 JUMPI DUP1 PUSH4 0x4E543B26 EQ PUSH2 0x18B JUMPI DUP1 PUSH4 0x5E219C48 EQ PUSH2 0x19E JUMPI DUP1 PUSH4 0x74DC483F EQ PUSH2 0x1B1 JUMPI DUP1 PUSH4 0x76A3969E EQ PUSH2 0x1C4 JUMPI PUSH1 0x0 DUP1 REVERT JUMPDEST DUP1 PUSH4 0x4F3BCEC EQ PUSH2 0x105 JUMPI DUP1 PUSH4 0x1B62D872 EQ PUSH2 0x135 JUMPI DUP1 PUSH4 0x32B9AFC9 EQ PUSH2 0x163 JUMPI DUP1 PUSH4 0x3F15457F EQ PUSH2 0x178 JUMPI JUMPDEST PUSH1 0x0 DUP1 REVERT JUMPDEST PUSH1 0xA SLOAD PUSH2 0x118 SWAP1 PUSH1 0x1 PUSH1 0x1 PUSH1 0xA0 SHL SUB AND DUP2 JUMP JUMPDEST PUSH1 0x40 MLOAD PUSH1 0x1 PUSH1 0x1 PUSH1 0xA0 SHL SUB SWAP1 SWAP2 AND DUP2 MSTORE PUSH1 0x20 ADD JUMPDEST PUSH1 0x40 MLOAD DUP1 SWAP2 SUB SWAP1 RETURN JUMPDEST PUSH2 0x155 PUSH2 0x143 CALLDATASIZE PUSH1 0x4 PUSH2 0xCA5 JUMP JUMPDEST PUSH1 0x3 PUSH1 0x20 MSTORE PUSH1 0x0 SWAP1 DUP2 MSTORE PUSH1 0x40 SWAP1 KECCAK256 SLOAD DUP2 JUMP JUMPDEST PUSH1 0x40 MLOAD SWAP1 DUP2 MSTORE PUSH1 0x20 ADD PUSH2 0x12C JUMP JUMPDEST PUSH2 0x176 PUSH2 0x171 CALLDATASIZE PUSH1 0x4 PUSH2 0xD8A JUMP JUMPDEST PUSH2 0x2BE JUMP JUMPDEST STOP JUMPDEST PUSH1 0x9 SLOAD PUSH2 0x118 SWAP1 PUSH1 0x1 PUSH1 0x1 PUSH1 0xA0 SHL SUB AND DUP2 JUMP JUMPDEST PUSH2 0x176 PUSH2 0x199 CALLDATASIZE PUSH1 0x4 PUSH2 0xDE3 JUMP JUMPDEST PUSH2 0x3BE JUMP JUMPDEST PUSH2 0x176 PUSH2 0x1AC CALLDATASIZE PUSH1 0x4 PUSH2 0xE07 JUMP JUMPDEST PUSH2 0x42C JUMP JUMPDEST PUSH1 0x2 SLOAD PUSH2 0x118 SWAP1 PUSH1 0x1 PUSH1 0x1 PUSH1 0xA0 SHL SUB AND DUP2 JUMP JUMPDEST PUSH2 0x176 PUSH2 0x1D2 CALLDATASIZE PUSH1 0x4 PUSH2 0xCA5 JUMP JUMPDEST PUSH2 0x4F9 JUMP JUMPDEST PUSH2 0x1FA PUSH2 0x1E5 CALLDATASIZE PUSH1 0x4 PUSH2 0xCA5 JUMP JUMPDEST PUSH1 0x0 SWAP1 DUP2 MSTORE PUSH1 0x4 PUSH1 0x20 MSTORE PUSH1 0x40 SWAP1 KECCAK256 SLOAD PUSH1 0xFF AND SWAP1 JUMP JUMPDEST PUSH1 0x40 MLOAD SWAP1 ISZERO ISZERO DUP2 MSTORE PUSH1 0x20 ADD PUSH2 0x12C JUMP JUMPDEST PUSH2 0x1FA PUSH2 0x218 CALLDATASIZE PUSH1 0x4 PUSH2 0xCA5 JUMP JUMPDEST PUSH1 0x4 PUSH1 0x20 MSTORE PUSH1 0x0 SWAP1 DUP2 MSTORE PUSH1 0x40 SWAP1 KECCAK256 SLOAD PUSH1 0xFF AND DUP2 JUMP JUMPDEST PUSH2 0x176 PUSH2 0x23B CALLDATASIZE PUSH1 0x4 PUSH2 0xDE3 JUMP JUMPDEST PUSH2 0x598 JUMP JUMPDEST PUSH2 0x176 PUSH2 0x24E CALLDATASIZE PUSH1 0x4 PUSH2 0xE07 JUMP JUMPDEST PUSH2 0x635 JUMP JUMPDEST PUSH2 0x25B PUSH2 0x902 JUMP JUMPDEST PUSH1 0x40 MLOAD PUSH2 0x12C SWAP2 SWAP1 PUSH2 0xE41 JUMP JUMPDEST PUSH2 0x176 PUSH2 0x276 CALLDATASIZE PUSH1 0x4 PUSH2 0xE85 JUMP JUMPDEST PUSH2 0x978 JUMP JUMPDEST PUSH2 0x176 PUSH2 0x289 CALLDATASIZE PUSH1 0x4 PUSH2 0xDE3 JUMP JUMPDEST PUSH1 0x2 DUP1 SLOAD PUSH1 0x1 PUSH1 0x1 PUSH1 0xA0 SHL SUB NOT AND PUSH1 0x1 PUSH1 0x1 PUSH1 0xA0 SHL SUB SWAP3 SWAP1 SWAP3 AND SWAP2 SWAP1 SWAP2 OR SWAP1 SSTORE JUMP JUMPDEST PUSH1 0x0 SLOAD PUSH2 0x118 SWAP1 PUSH1 0x1 PUSH1 0x1 PUSH1 0xA0 SHL SUB AND DUP2 JUMP JUMPDEST PUSH1 0x2 SLOAD PUSH1 0x40 MLOAD PUSH4 0x23B872DD PUSH1 0xE0 SHL DUP2 MSTORE CALLER PUSH1 0x4 DUP3 ADD MSTORE PUSH1 0x1 PUSH1 0x1 PUSH1 0xA0 SHL SUB DUP6 DUP2 AND PUSH1 0x24 DUP4 ADD MSTORE PUSH1 0x44 DUP3 ADD DUP6 SWAP1 MSTORE SWAP1 SWAP2 AND SWAP1 PUSH4 0x23B872DD SWAP1 PUSH1 0x64 ADD PUSH1 0x0 PUSH1 0x40 MLOAD DUP1 DUP4 SUB DUP2 PUSH1 0x0 DUP8 DUP1 EXTCODESIZE ISZERO DUP1 ISZERO PUSH2 0x312 JUMPI PUSH1 0x0 DUP1 REVERT JUMPDEST POP GAS CALL ISZERO DUP1 ISZERO PUSH2 0x326 JUMPI RETURNDATASIZE PUSH1 0x0 DUP1 RETURNDATACOPY RETURNDATASIZE PUSH1 0x0 REVERT JUMPDEST POP POP POP PUSH1 0x0 DUP4 DUP2 MSTORE PUSH1 0x3 PUSH1 0x20 MSTORE PUSH1 0x40 SWAP1 KECCAK256 SLOAD SWAP1 POP PUSH2 0x344 DUP2 DUP4 PUSH2 0xA38 JUMP JUMPDEST PUSH1 0x9 SLOAD PUSH1 0x7 SLOAD PUSH1 0x40 MLOAD PUSH4 0x5EF2C7F PUSH1 0xE4 SHL DUP2 MSTORE PUSH1 0x1 PUSH1 0x1 PUSH1 0xA0 SHL SUB SWAP1 SWAP3 AND SWAP2 PUSH4 0x5EF2C7F0 SWAP2 PUSH2 0x37E SWAP2 DUP6 SWAP1 PUSH1 0x0 SWAP1 DUP2 SWAP1 DUP2 SWAP1 PUSH1 0x4 ADD PUSH2 0xEC2 JUMP JUMPDEST PUSH1 0x0 PUSH1 0x40 MLOAD DUP1 DUP4 SUB DUP2 PUSH1 0x0 DUP8 DUP1 EXTCODESIZE ISZERO DUP1 ISZERO PUSH2 0x398 JUMPI PUSH1 0x0 DUP1 REVERT JUMPDEST POP GAS CALL ISZERO DUP1 ISZERO PUSH2 0x3AC JUMPI RETURNDATASIZE PUSH1 0x0 DUP1 RETURNDATACOPY RETURNDATASIZE PUSH1 0x0 REVERT JUMPDEST POP POP POP POP PUSH2 0x3B8 PUSH2 0xBD1 JUMP JUMPDEST POP POP POP POP JUMP JUMPDEST PUSH1 0x9 SLOAD PUSH1 0x7 SLOAD PUSH1 0x40 MLOAD PUSH4 0xC4B7B85 PUSH1 0xE1 SHL DUP2 MSTORE PUSH1 0x4 DUP2 ADD SWAP2 SWAP1 SWAP2 MSTORE PUSH1 0x1 PUSH1 0x1 PUSH1 0xA0 SHL SUB DUP4 DUP2 AND PUSH1 0x24 DUP4 ADD MSTORE SWAP1 SWAP2 AND SWAP1 PUSH4 0x1896F70A SWAP1 PUSH1 0x44 ADD JUMPDEST PUSH1 0x0 PUSH1 0x40 MLOAD DUP1 DUP4 SUB DUP2 PUSH1 0x0 DUP8 DUP1 EXTCODESIZE ISZERO DUP1 ISZERO PUSH2 0x411 JUMPI PUSH1 0x0 DUP1 REVERT JUMPDEST POP GAS CALL ISZERO DUP1 ISZERO PUSH2 0x425 JUMPI RETURNDATASIZE PUSH1 0x0 DUP1 RETURNDATACOPY RETURNDATASIZE PUSH1 0x0 REVERT JUMPDEST POP POP POP POP POP JUMP JUMPDEST PUSH1 0x2 SLOAD PUSH1 0x40 MLOAD PUSH4 0x31A9108F PUSH1 0xE1 SHL DUP2 MSTORE PUSH1 0x4 DUP2 ADD DUP5 SWAP1 MSTORE DUP4 SWAP2 PUSH1 0x0 SWAP2 PUSH1 0x1 PUSH1 0x1 PUSH1 0xA0 SHL SUB SWAP1 SWAP2 AND SWAP1 PUSH4 0x6352211E SWAP1 PUSH1 0x24 ADD PUSH1 0x20 PUSH1 0x40 MLOAD DUP1 DUP4 SUB DUP2 DUP7 GAS STATICCALL ISZERO DUP1 ISZERO PUSH2 0x47A JUMPI RETURNDATASIZE PUSH1 0x0 DUP1 RETURNDATACOPY RETURNDATASIZE PUSH1 0x0 REVERT JUMPDEST POP POP POP POP PUSH1 0x40 MLOAD RETURNDATASIZE PUSH1 0x1F NOT PUSH1 0x1F DUP3 ADD AND DUP3 ADD DUP1 PUSH1 0x40 MSTORE POP DUP2 ADD SWAP1 PUSH2 0x49E SWAP2 SWAP1 PUSH2 0xEF8 JUMP JUMPDEST SWAP1 POP CALLER PUSH1 0x1 PUSH1 0x1 PUSH1 0xA0 SHL SUB DUP3 AND EQ PUSH2 0x4EE JUMPI PUSH1 0x40 MLOAD PUSH3 0x461BCD PUSH1 0xE5 SHL DUP2 MSTORE PUSH1 0x20 PUSH1 0x4 DUP3 ADD MSTORE PUSH1 0xF PUSH1 0x24 DUP3 ADD MSTORE PUSH15 0x3737BA103A37B5B2B71037BBB732B9 PUSH1 0x89 SHL PUSH1 0x44 DUP3 ADD MSTORE PUSH1 0x64 ADD PUSH1 0x40 MLOAD DUP1 SWAP2 SUB SWAP1 REVERT JUMPDEST PUSH2 0x425 DUP5 DUP7 DUP6 PUSH2 0x635 JUMP JUMPDEST PUSH1 0x9 SLOAD PUSH1 0x7 SLOAD PUSH1 0x40 MLOAD PUSH4 0x178B8BF PUSH1 0xE0 SHL DUP2 MSTORE PUSH1 0x4 DUP2 ADD DUP3 SWAP1 MSTORE PUSH1 0x1 PUSH1 0x1 PUSH1 0xA0 SHL SUB SWAP1 SWAP3 AND SWAP2 PUSH4 0x5EF2C7F0 SWAP2 SWAP1 DUP5 SWAP1 ADDRESS SWAP1 DUP6 SWAP1 PUSH4 0x178B8BF SWAP1 PUSH1 0x24 ADD PUSH1 0x20 PUSH1 0x40 MLOAD DUP1 DUP4 SUB DUP2 DUP7 GAS STATICCALL ISZERO DUP1 ISZERO PUSH2 0x552 JUMPI RETURNDATASIZE PUSH1 0x0 DUP1 RETURNDATACOPY RETURNDATASIZE PUSH1 0x0 REVERT JUMPDEST POP POP POP POP PUSH1 0x40 MLOAD RETURNDATASIZE PUSH1 0x1F NOT PUSH1 0x1F DUP3 ADD AND DUP3 ADD DUP1 PUSH1 0x40 MSTORE POP DUP2 ADD SWAP1 PUSH2 0x576 SWAP2 SWAP1 PUSH2 0xEF8 JUMP JUMPDEST PUSH1 0x0 PUSH1 0x40 MLOAD DUP7 PUSH4 0xFFFFFFFF AND PUSH1 0xE0 SHL DUP2 MSTORE PUSH1 0x4 ADD PUSH2 0x3F7 SWAP6 SWAP5 SWAP4 SWAP3 SWAP2 SWAP1 PUSH2 0xEC2 JUMP JUMPDEST PUSH1 0x40 MLOAD PUSH12 0xFFFFFFFFFFFFFFFFFFFFFFFF NOT PUSH1 0x60 DUP4 SWAP1 SHL AND PUSH1 0x20 DUP3 ADD MSTORE PUSH1 0x0 SWAP1 PUSH1 0x34 ADD PUSH1 0x40 DUP1 MLOAD PUSH1 0x1F NOT DUP2 DUP5 SUB ADD DUP2 MSTORE SWAP1 DUP3 SWAP1 MSTORE PUSH1 0xA SLOAD PUSH1 0x6 SLOAD PUSH4 0x8B95DD71 PUSH1 0xE0 SHL DUP5 MSTORE SWAP2 SWAP4 POP PUSH1 0x1 PUSH1 0x1 PUSH1 0xA0 SHL SUB AND SWAP2 PUSH4 0x8B95DD71 SWAP2 PUSH2 0x5FF SWAP2 PUSH1 0x3C SWAP1 DUP7 SWAP1 PUSH1 0x4 ADD PUSH2 0xF41 JUMP JUMPDEST PUSH1 0x0 PUSH1 0x40 MLOAD DUP1 DUP4 SUB DUP2 PUSH1 0x0 DUP8 DUP1 EXTCODESIZE ISZERO DUP1 ISZERO PUSH2 0x619 JUMPI PUSH1 0x0 DUP1 REVERT JUMPDEST POP GAS CALL ISZERO DUP1 ISZERO PUSH2 0x62D JUMPI RETURNDATASIZE PUSH1 0x0 DUP1 RETURNDATACOPY RETURNDATASIZE PUSH1 0x0 REVERT JUMPDEST POP POP POP POP POP POP JUMP JUMPDEST PUSH2 0x63F DUP3 DUP3 PUSH2 0xA38 JUMP JUMPDEST PUSH1 0x9 SLOAD PUSH1 0x7 SLOAD PUSH1 0x40 MLOAD PUSH4 0x178B8BF PUSH1 0xE0 SHL DUP2 MSTORE PUSH1 0x4 DUP2 ADD SWAP2 SWAP1 SWAP2 MSTORE PUSH1 0x0 SWAP2 PUSH1 0x1 PUSH1 0x1 PUSH1 0xA0 SHL SUB AND SWAP1 PUSH4 0x178B8BF SWAP1 PUSH1 0x24 ADD PUSH1 0x20 PUSH1 0x40 MLOAD DUP1 DUP4 SUB DUP2 DUP7 GAS STATICCALL ISZERO DUP1 ISZERO PUSH2 0x68D JUMPI RETURNDATASIZE PUSH1 0x0 DUP1 RETURNDATACOPY RETURNDATASIZE PUSH1 0x0 REVERT JUMPDEST POP POP POP POP PUSH1 0x40 MLOAD RETURNDATASIZE PUSH1 0x1F NOT PUSH1 0x1F DUP3 ADD AND DUP3 ADD DUP1 PUSH1 0x40 MSTORE POP DUP2 ADD SWAP1 PUSH2 0x6B1 SWAP2 SWAP1 PUSH2 0xEF8 JUMP JUMPDEST PUSH1 0x9 SLOAD PUSH1 0x7 SLOAD PUSH1 0x40 MLOAD PUSH4 0x5EF2C7F PUSH1 0xE4 SHL DUP2 MSTORE SWAP3 SWAP4 POP PUSH1 0x1 PUSH1 0x1 PUSH1 0xA0 SHL SUB SWAP1 SWAP2 AND SWAP2 PUSH4 0x5EF2C7F0 SWAP2 PUSH2 0x6EE SWAP2 DUP8 SWAP1 ADDRESS SWAP1 DUP8 SWAP1 PUSH1 0x0 SWAP1 PUSH1 0x4 ADD PUSH2 0xEC2 JUMP JUMPDEST PUSH1 0x0 PUSH1 0x40 MLOAD DUP1 DUP4 SUB DUP2 PUSH1 0x0 DUP8 DUP1 EXTCODESIZE ISZERO DUP1 ISZERO PUSH2 0x708 JUMPI PUSH1 0x0 DUP1 REVERT JUMPDEST POP GAS CALL ISZERO DUP1 ISZERO PUSH2 0x71C JUMPI RETURNDATASIZE PUSH1 0x0 DUP1 RETURNDATACOPY RETURNDATASIZE PUSH1 0x0 REVERT JUMPDEST POP POP PUSH1 0x9 SLOAD PUSH1 0x7 SLOAD PUSH1 0x40 MLOAD PUSH4 0xC4B7B85 PUSH1 0xE1 SHL DUP2 MSTORE PUSH1 0x4 DUP2 ADD SWAP2 SWAP1 SWAP2 MSTORE PUSH1 0x1 PUSH1 0x1 PUSH1 0xA0 SHL SUB DUP6 DUP2 AND PUSH1 0x24 DUP4 ADD MSTORE SWAP1 SWAP2 AND SWAP3 POP PUSH4 0x1896F70A SWAP2 POP PUSH1 0x44 ADD PUSH1 0x0 PUSH1 0x40 MLOAD DUP1 DUP4 SUB DUP2 PUSH1 0x0 DUP8 DUP1 EXTCODESIZE ISZERO DUP1 ISZERO PUSH2 0x772 JUMPI PUSH1 0x0 DUP1 REVERT JUMPDEST POP GAS CALL ISZERO DUP1 ISZERO PUSH2 0x786 JUMPI RETURNDATASIZE PUSH1 0x0 DUP1 RETURNDATACOPY RETURNDATASIZE PUSH1 0x0 REVERT JUMPDEST POP POP PUSH1 0xA SLOAD PUSH1 0x6 SLOAD PUSH1 0x40 MLOAD PUSH4 0x8B95DD71 PUSH1 0xE0 SHL DUP2 MSTORE PUSH1 0x1 PUSH1 0x1 PUSH1 0xA0 SHL SUB SWAP1 SWAP3 AND SWAP4 POP PUSH4 0x8B95DD71 SWAP3 POP PUSH2 0x7C1 SWAP2 PUSH1 0x3C SWAP1 PUSH1 0x8 SWAP1 PUSH1 0x4 ADD PUSH2 0xFBD JUMP JUMPDEST PUSH1 0x0 PUSH1 0x40 MLOAD DUP1 DUP4 SUB DUP2 PUSH1 0x0 DUP8 DUP1 EXTCODESIZE ISZERO DUP1 ISZERO PUSH2 0x7DB JUMPI PUSH1 0x0 DUP1 REVERT JUMPDEST POP GAS CALL ISZERO DUP1 ISZERO PUSH2 0x7EF JUMPI RETURNDATASIZE PUSH1 0x0 DUP1 RETURNDATACOPY RETURNDATASIZE PUSH1 0x0 REVERT JUMPDEST POP POP PUSH1 0x9 SLOAD PUSH1 0x7 SLOAD PUSH1 0x5 SLOAD PUSH1 0x40 MLOAD PUSH4 0x6AB5923 PUSH1 0xE0 SHL DUP2 MSTORE PUSH1 0x4 DUP2 ADD SWAP3 SWAP1 SWAP3 MSTORE PUSH1 0x24 DUP3 ADD DUP9 SWAP1 MSTORE PUSH1 0x1 PUSH1 0x1 PUSH1 0xA0 SHL SUB SWAP1 DUP2 AND PUSH1 0x44 DUP4 ADD MSTORE SWAP1 SWAP2 AND SWAP3 POP PUSH4 0x6AB5923 SWAP2 POP PUSH1 0x64 ADD PUSH1 0x20 PUSH1 0x40 MLOAD DUP1 DUP4 SUB DUP2 PUSH1 0x0 DUP8 GAS CALL ISZERO DUP1 ISZERO PUSH2 0x854 JUMPI RETURNDATASIZE PUSH1 0x0 DUP1 RETURNDATACOPY RETURNDATASIZE PUSH1 0x0 REVERT JUMPDEST POP POP POP POP PUSH1 0x40 MLOAD RETURNDATASIZE PUSH1 0x1F NOT PUSH1 0x1F DUP3 ADD AND DUP3 ADD DUP1 PUSH1 0x40 MSTORE POP DUP2 ADD SWAP1 PUSH2 0x878 SWAP2 SWAP1 PUSH2 0x1075 JUMP JUMPDEST POP PUSH1 0x7 SLOAD PUSH1 0x5 SLOAD PUSH1 0x40 DUP1 MLOAD SWAP3 DUP4 MSTORE PUSH1 0x20 DUP4 ADD DUP7 SWAP1 MSTORE PUSH1 0x1 PUSH1 0x1 PUSH1 0xA0 SHL SUB SWAP2 DUP3 AND SWAP1 DUP4 ADD MSTORE DUP3 AND PUSH1 0x60 DUP3 ADD MSTORE PUSH32 0xCC6E575905BE59E3E2A0EBE1805959C6F78A4D268432B7E3AE8806B6BF3FDFAA SWAP1 PUSH1 0x80 ADD PUSH1 0x40 MLOAD DUP1 SWAP2 SUB SWAP1 LOG1 PUSH2 0x8D8 PUSH2 0xBD1 JUMP JUMPDEST POP POP PUSH1 0x0 SWAP2 DUP3 MSTORE PUSH1 0x3 PUSH1 0x20 SWAP1 DUP2 MSTORE PUSH1 0x40 DUP1 DUP5 KECCAK256 SWAP3 SWAP1 SWAP3 SSTORE PUSH1 0x4 SWAP1 MSTORE SWAP1 KECCAK256 DUP1 SLOAD PUSH1 0xFF NOT AND PUSH1 0x1 OR SWAP1 SSTORE JUMP JUMPDEST PUSH1 0x2 SLOAD PUSH1 0x40 MLOAD PUSH4 0xD284AD49 PUSH1 0xE0 SHL DUP2 MSTORE CALLER PUSH1 0x4 DUP3 ADD MSTORE PUSH1 0x60 SWAP2 PUSH1 0x1 PUSH1 0x1 PUSH1 0xA0 SHL SUB AND SWAP1 PUSH4 0xD284AD49 SWAP1 PUSH1 0x24 ADD PUSH1 0x0 PUSH1 0x40 MLOAD DUP1 DUP4 SUB DUP2 DUP7 GAS STATICCALL ISZERO DUP1 ISZERO PUSH2 0x94B JUMPI RETURNDATASIZE PUSH1 0x0 DUP1 RETURNDATACOPY RETURNDATASIZE PUSH1 0x0 REVERT JUMPDEST POP POP POP POP PUSH1 0x40 MLOAD RETURNDATASIZE PUSH1 0x0 DUP3 RETURNDATACOPY PUSH1 0x1F RETURNDATASIZE SWAP1 DUP2 ADD PUSH1 0x1F NOT AND DUP3 ADD PUSH1 0x40 MSTORE PUSH2 0x973 SWAP2 SWAP1 DUP2 ADD SWAP1 PUSH2 0x108E JUMP JUMPDEST SWAP1 POP SWAP1 JUMP JUMPDEST PUSH1 0x0 DUP2 PUSH1 0x40 MLOAD PUSH1 0x20 ADD PUSH2 0x98B SWAP2 SWAP1 PUSH2 0x1134 JUMP JUMPDEST PUSH1 0x40 DUP1 MLOAD DUP1 DUP4 SUB PUSH1 0x1F NOT ADD DUP2 MSTORE SWAP1 DUP3 SWAP1 MSTORE DUP1 MLOAD PUSH1 0x20 SWAP1 SWAP2 ADD KECCAK256 PUSH1 0x1 SLOAD PUSH1 0x24 DUP4 ADD DUP3 SWAP1 MSTORE ADDRESS PUSH1 0x44 DUP5 ADD MSTORE SWAP1 SWAP3 POP DUP3 SWAP2 PUSH1 0x1 PUSH1 0x1 PUSH1 0xA0 SHL SUB SWAP1 SWAP2 AND SWAP1 PUSH1 0x64 ADD PUSH1 0x40 DUP1 MLOAD PUSH1 0x1F NOT DUP2 DUP5 SUB ADD DUP2 MSTORE SWAP2 DUP2 MSTORE PUSH1 0x20 DUP3 ADD DUP1 MLOAD PUSH1 0x1 PUSH1 0x1 PUSH1 0xE0 SHL SUB AND PUSH4 0xA3B53DB PUSH1 0xE2 SHL OR SWAP1 MSTORE MLOAD PUSH2 0x9FD SWAP2 SWAP1 PUSH2 0x1134 JUMP JUMPDEST PUSH1 0x0 PUSH1 0x40 MLOAD DUP1 DUP4 SUB DUP2 DUP6 GAS DELEGATECALL SWAP2 POP POP RETURNDATASIZE DUP1 PUSH1 0x0 DUP2 EQ PUSH2 0x62D JUMPI PUSH1 0x40 MLOAD SWAP2 POP PUSH1 0x1F NOT PUSH1 0x3F RETURNDATASIZE ADD AND DUP3 ADD PUSH1 0x40 MSTORE RETURNDATASIZE DUP3 MSTORE RETURNDATASIZE PUSH1 0x0 PUSH1 0x20 DUP5 ADD RETURNDATACOPY PUSH2 0x62D JUMP JUMPDEST PUSH1 0x5 DUP1 SLOAD PUSH1 0x1 PUSH1 0x1 PUSH1 0xA0 SHL SUB NOT AND ORIGIN SWAP1 DUP2 OR SWAP1 SWAP2 SSTORE PUSH1 0x40 MLOAD PUSH2 0xA75 SWAP2 SWAP1 PUSH1 0x20 ADD PUSH1 0x60 SWAP2 SWAP1 SWAP2 SHL PUSH12 0xFFFFFFFFFFFFFFFFFFFFFFFF NOT AND DUP2 MSTORE PUSH1 0x14 ADD SWAP1 JUMP JUMPDEST PUSH1 0x40 MLOAD PUSH1 0x20 DUP2 DUP4 SUB SUB DUP2 MSTORE SWAP1 PUSH1 0x40 MSTORE PUSH1 0x8 SWAP1 DUP1 MLOAD SWAP1 PUSH1 0x20 ADD SWAP1 PUSH2 0xA99 SWAP3 SWAP2 SWAP1 PUSH2 0xC0C JUMP JUMPDEST POP PUSH1 0x0 DUP2 PUSH1 0x40 MLOAD PUSH1 0x20 ADD PUSH2 0xAAD SWAP2 SWAP1 PUSH2 0x1134 JUMP JUMPDEST PUSH1 0x40 DUP1 MLOAD DUP1 DUP4 SUB PUSH1 0x1F NOT ADD DUP2 MSTORE DUP3 DUP3 MSTORE DUP1 MLOAD PUSH1 0x20 SWAP2 DUP3 ADD KECCAK256 PUSH32 0x93CDEB708B7545DC668EB9280176169D1C33CFD8ED6F04690A0BCC88A93FC4AE SWAP2 DUP5 ADD SWAP2 SWAP1 SWAP2 MSTORE SWAP1 DUP3 ADD DUP2 SWAP1 MSTORE SWAP2 POP PUSH1 0x60 ADD PUSH1 0x40 DUP1 MLOAD DUP1 DUP4 SUB PUSH1 0x1F NOT ADD DUP2 MSTORE DUP3 DUP3 MSTORE DUP1 MLOAD PUSH1 0x20 SWAP2 DUP3 ADD KECCAK256 PUSH1 0x7 DUP2 SWAP1 SSTORE SWAP1 DUP4 ADD MSTORE DUP2 ADD DUP5 SWAP1 MSTORE PUSH1 0x60 ADD PUSH1 0x40 DUP1 MLOAD DUP1 DUP4 SUB PUSH1 0x1F NOT ADD DUP2 MSTORE SWAP1 DUP3 SWAP1 MSTORE DUP1 MLOAD PUSH1 0x20 SWAP1 SWAP2 ADD KECCAK256 PUSH1 0x6 SSTORE PUSH1 0x9 SLOAD PUSH1 0x7 SLOAD PUSH4 0x178B8BF PUSH1 0xE0 SHL DUP4 MSTORE PUSH1 0x4 DUP4 ADD MSTORE PUSH1 0x0 SWAP2 PUSH1 0x1 PUSH1 0x1 PUSH1 0xA0 SHL SUB SWAP1 SWAP2 AND SWAP1 PUSH4 0x178B8BF SWAP1 PUSH1 0x24 ADD PUSH1 0x20 PUSH1 0x40 MLOAD DUP1 DUP4 SUB DUP2 DUP7 GAS STATICCALL ISZERO DUP1 ISZERO PUSH2 0xB87 JUMPI RETURNDATASIZE PUSH1 0x0 DUP1 RETURNDATACOPY RETURNDATASIZE PUSH1 0x0 REVERT JUMPDEST POP POP POP POP PUSH1 0x40 MLOAD RETURNDATASIZE PUSH1 0x1F NOT PUSH1 0x1F DUP3 ADD AND DUP3 ADD DUP1 PUSH1 0x40 MSTORE POP DUP2 ADD SWAP1 PUSH2 0xBAB SWAP2 SWAP1 PUSH2 0xEF8 JUMP JUMPDEST PUSH1 0xA DUP1 SLOAD PUSH1 0x1 PUSH1 0x1 PUSH1 0xA0 SHL SUB NOT AND PUSH1 0x1 PUSH1 0x1 PUSH1 0xA0 SHL SUB SWAP3 SWAP1 SWAP3 AND SWAP2 SWAP1 SWAP2 OR SWAP1 SSTORE POP POP POP POP JUMP JUMPDEST PUSH1 0x5 DUP1 SLOAD PUSH1 0x1 PUSH1 0x1 PUSH1 0xA0 SHL SUB NOT AND SWAP1 SSTORE PUSH1 0x0 PUSH1 0x6 DUP2 SWAP1 SSTORE PUSH1 0x7 DUP2 SWAP1 SSTORE PUSH1 0x40 DUP1 MLOAD PUSH1 0x20 DUP2 ADD SWAP2 DUP3 SWAP1 MSTORE DUP3 SWAP1 MSTORE PUSH2 0xC09 SWAP2 PUSH1 0x8 SWAP2 SWAP1 PUSH2 0xC0C JUMP JUMPDEST POP JUMP JUMPDEST DUP3 DUP1 SLOAD PUSH2 0xC18 SWAP1 PUSH2 0xF82 JUMP JUMPDEST SWAP1 PUSH1 0x0 MSTORE PUSH1 0x20 PUSH1 0x0 KECCAK256 SWAP1 PUSH1 0x1F ADD PUSH1 0x20 SWAP1 DIV DUP2 ADD SWAP3 DUP3 PUSH2 0xC3A JUMPI PUSH1 0x0 DUP6 SSTORE PUSH2 0xC80 JUMP JUMPDEST DUP3 PUSH1 0x1F LT PUSH2 0xC53 JUMPI DUP1 MLOAD PUSH1 0xFF NOT AND DUP4 DUP1 ADD OR DUP6 SSTORE PUSH2 0xC80 JUMP JUMPDEST DUP3 DUP1 ADD PUSH1 0x1 ADD DUP6 SSTORE DUP3 ISZERO PUSH2 0xC80 JUMPI SWAP2 DUP3 ADD JUMPDEST DUP3 DUP2 GT ISZERO PUSH2 0xC80 JUMPI DUP3 MLOAD DUP3 SSTORE SWAP2 PUSH1 0x20 ADD SWAP2 SWAP1 PUSH1 0x1 ADD SWAP1 PUSH2 0xC65 JUMP JUMPDEST POP PUSH2 0xC8C SWAP3 SWAP2 POP PUSH2 0xC90 JUMP JUMPDEST POP SWAP1 JUMP JUMPDEST JUMPDEST DUP1 DUP3 GT ISZERO PUSH2 0xC8C JUMPI PUSH1 0x0 DUP2 SSTORE PUSH1 0x1 ADD PUSH2 0xC91 JUMP JUMPDEST PUSH1 0x0 PUSH1 0x20 DUP3 DUP5 SUB SLT ISZERO PUSH2 0xCB7 JUMPI PUSH1 0x0 DUP1 REVERT JUMPDEST POP CALLDATALOAD SWAP2 SWAP1 POP JUMP JUMPDEST PUSH1 0x1 PUSH1 0x1 PUSH1 0xA0 SHL SUB DUP2 AND DUP2 EQ PUSH2 0xC09 JUMPI PUSH1 0x0 DUP1 REVERT JUMPDEST PUSH4 0x4E487B71 PUSH1 0xE0 SHL PUSH1 0x0 MSTORE PUSH1 0x41 PUSH1 0x4 MSTORE PUSH1 0x24 PUSH1 0x0 REVERT JUMPDEST PUSH1 0x40 MLOAD PUSH1 0x1F DUP3 ADD PUSH1 0x1F NOT AND DUP2 ADD PUSH8 0xFFFFFFFFFFFFFFFF DUP2 GT DUP3 DUP3 LT OR ISZERO PUSH2 0xD12 JUMPI PUSH2 0xD12 PUSH2 0xCD3 JUMP JUMPDEST PUSH1 0x40 MSTORE SWAP2 SWAP1 POP JUMP JUMPDEST PUSH1 0x0 DUP3 PUSH1 0x1F DUP4 ADD SLT PUSH2 0xD2B JUMPI PUSH1 0x0 DUP1 REVERT JUMPDEST DUP2 CALLDATALOAD PUSH8 0xFFFFFFFFFFFFFFFF DUP2 GT ISZERO PUSH2 0xD45 JUMPI PUSH2 0xD45 PUSH2 0xCD3 JUMP JUMPDEST PUSH2 0xD58 PUSH1 0x1F DUP3 ADD PUSH1 0x1F NOT AND PUSH1 0x20 ADD PUSH2 0xCE9 JUMP JUMPDEST DUP2 DUP2 MSTORE DUP5 PUSH1 0x20 DUP4 DUP7 ADD ADD GT ISZERO PUSH2 0xD6D JUMPI PUSH1 0x0 DUP1 REVERT JUMPDEST DUP2 PUSH1 0x20 DUP6 ADD PUSH1 0x20 DUP4 ADD CALLDATACOPY PUSH1 0x0 SWAP2 DUP2 ADD PUSH1 0x20 ADD SWAP2 SWAP1 SWAP2 MSTORE SWAP4 SWAP3 POP POP POP JUMP JUMPDEST PUSH1 0x0 DUP1 PUSH1 0x0 PUSH1 0x60 DUP5 DUP7 SUB SLT ISZERO PUSH2 0xD9F JUMPI PUSH1 0x0 DUP1 REVERT JUMPDEST DUP4 CALLDATALOAD PUSH2 0xDAA DUP2 PUSH2 0xCBE JUMP JUMPDEST SWAP3 POP PUSH1 0x20 DUP5 ADD CALLDATALOAD SWAP2 POP PUSH1 0x40 DUP5 ADD CALLDATALOAD PUSH8 0xFFFFFFFFFFFFFFFF DUP2 GT ISZERO PUSH2 0xDCD JUMPI PUSH1 0x0 DUP1 REVERT JUMPDEST PUSH2 0xDD9 DUP7 DUP3 DUP8 ADD PUSH2 0xD1A JUMP JUMPDEST SWAP2 POP POP SWAP3 POP SWAP3 POP SWAP3 JUMP JUMPDEST PUSH1 0x0 PUSH1 0x20 DUP3 DUP5 SUB SLT ISZERO PUSH2 0xDF5 JUMPI PUSH1 0x0 DUP1 REVERT JUMPDEST DUP2 CALLDATALOAD PUSH2 0xE00 DUP2 PUSH2 0xCBE JUMP JUMPDEST SWAP4 SWAP3 POP POP POP JUMP JUMPDEST PUSH1 0x0 DUP1 PUSH1 0x0 PUSH1 0x60 DUP5 DUP7 SUB SLT ISZERO PUSH2 0xE1C JUMPI PUSH1 0x0 DUP1 REVERT JUMPDEST DUP4 CALLDATALOAD SWAP3 POP PUSH1 0x20 DUP5 ADD CALLDATALOAD SWAP2 POP PUSH1 0x40 DUP5 ADD CALLDATALOAD PUSH8 0xFFFFFFFFFFFFFFFF DUP2 GT ISZERO PUSH2 0xDCD JUMPI PUSH1 0x0 DUP1 REVERT JUMPDEST PUSH1 0x20 DUP1 DUP3 MSTORE DUP3 MLOAD DUP3 DUP3 ADD DUP2 SWAP1 MSTORE PUSH1 0x0 SWAP2 SWAP1 DUP5 DUP3 ADD SWAP1 PUSH1 0x40 DUP6 ADD SWAP1 DUP5 JUMPDEST DUP2 DUP2 LT ISZERO PUSH2 0xE79 JUMPI DUP4 MLOAD DUP4 MSTORE SWAP3 DUP5 ADD SWAP3 SWAP2 DUP5 ADD SWAP2 PUSH1 0x1 ADD PUSH2 0xE5D JUMP JUMPDEST POP SWAP1 SWAP7 SWAP6 POP POP POP POP POP POP JUMP JUMPDEST PUSH1 0x0 PUSH1 0x20 DUP3 DUP5 SUB SLT ISZERO PUSH2 0xE97 JUMPI PUSH1 0x0 DUP1 REVERT JUMPDEST DUP2 CALLDATALOAD PUSH8 0xFFFFFFFFFFFFFFFF DUP2 GT ISZERO PUSH2 0xEAE JUMPI PUSH1 0x0 DUP1 REVERT JUMPDEST PUSH2 0xEBA DUP5 DUP3 DUP6 ADD PUSH2 0xD1A JUMP JUMPDEST SWAP5 SWAP4 POP POP POP POP JUMP JUMPDEST SWAP5 DUP6 MSTORE PUSH1 0x20 DUP6 ADD SWAP4 SWAP1 SWAP4 MSTORE PUSH1 0x1 PUSH1 0x1 PUSH1 0xA0 SHL SUB SWAP2 DUP3 AND PUSH1 0x40 DUP6 ADD MSTORE AND PUSH1 0x60 DUP4 ADD MSTORE PUSH8 0xFFFFFFFFFFFFFFFF AND PUSH1 0x80 DUP3 ADD MSTORE PUSH1 0xA0 ADD SWAP1 JUMP JUMPDEST PUSH1 0x0 PUSH1 0x20 DUP3 DUP5 SUB SLT ISZERO PUSH2 0xF0A JUMPI PUSH1 0x0 DUP1 REVERT JUMPDEST DUP2 MLOAD PUSH2 0xE00 DUP2 PUSH2 0xCBE JUMP JUMPDEST PUSH1 0x0 JUMPDEST DUP4 DUP2 LT ISZERO PUSH2 0xF30 JUMPI DUP2 DUP2 ADD MLOAD DUP4 DUP3 ADD MSTORE PUSH1 0x20 ADD PUSH2 0xF18 JUMP JUMPDEST DUP4 DUP2 GT ISZERO PUSH2 0x3B8 JUMPI POP POP PUSH1 0x0 SWAP2 ADD MSTORE JUMP JUMPDEST DUP4 DUP2 MSTORE DUP3 PUSH1 0x20 DUP3 ADD MSTORE PUSH1 0x60 PUSH1 0x40 DUP3 ADD MSTORE PUSH1 0x0 DUP3 MLOAD DUP1 PUSH1 0x60 DUP5 ADD MSTORE PUSH2 0xF6C DUP2 PUSH1 0x80 DUP6 ADD PUSH1 0x20 DUP8 ADD PUSH2 0xF15 JUMP JUMPDEST PUSH1 0x1F ADD PUSH1 0x1F NOT AND SWAP2 SWAP1 SWAP2 ADD PUSH1 0x80 ADD SWAP5 SWAP4 POP POP POP POP JUMP JUMPDEST PUSH1 0x1 DUP2 DUP2 SHR SWAP1 DUP3 AND DUP1 PUSH2 0xF96 JUMPI PUSH1 0x7F DUP3 AND SWAP2 POP JUMPDEST PUSH1 0x20 DUP3 LT DUP2 EQ ISZERO PUSH2 0xFB7 JUMPI PUSH4 0x4E487B71 PUSH1 0xE0 SHL PUSH1 0x0 MSTORE PUSH1 0x22 PUSH1 0x4 MSTORE PUSH1 0x24 PUSH1 0x0 REVERT JUMPDEST POP SWAP2 SWAP1 POP JUMP JUMPDEST DUP4 DUP2 MSTORE PUSH1 0x0 PUSH1 0x20 DUP5 DUP2 DUP5 ADD MSTORE PUSH1 0x60 PUSH1 0x40 DUP5 ADD MSTORE PUSH1 0x0 DUP5 SLOAD DUP2 PUSH1 0x1 DUP3 DUP2 SHR SWAP2 POP DUP1 DUP4 AND DUP1 PUSH2 0xFEB JUMPI PUSH1 0x7F DUP4 AND SWAP3 POP JUMPDEST DUP6 DUP4 LT DUP2 EQ ISZERO PUSH2 0x1009 JUMPI PUSH4 0x4E487B71 PUSH1 0xE0 SHL DUP6 MSTORE PUSH1 0x22 PUSH1 0x4 MSTORE PUSH1 0x24 DUP6 REVERT JUMPDEST PUSH1 0x60 DUP9 ADD DUP4 SWAP1 MSTORE PUSH1 0x80 DUP9 ADD DUP2 DUP1 ISZERO PUSH2 0x1028 JUMPI PUSH1 0x1 DUP2 EQ PUSH2 0x1039 JUMPI PUSH2 0x1064 JUMP JUMPDEST PUSH1 0xFF NOT DUP7 AND DUP3 MSTORE DUP8 DUP3 ADD SWAP7 POP PUSH2 0x1064 JUMP JUMPDEST PUSH1 0x0 DUP12 DUP2 MSTORE PUSH1 0x20 SWAP1 KECCAK256 PUSH1 0x0 JUMPDEST DUP7 DUP2 LT ISZERO PUSH2 0x105E JUMPI DUP2 SLOAD DUP5 DUP3 ADD MSTORE SWAP1 DUP6 ADD SWAP1 DUP10 ADD PUSH2 0x1045 JUMP JUMPDEST DUP4 ADD SWAP8 POP POP JUMPDEST POP SWAP5 SWAP12 SWAP11 POP POP POP POP POP POP POP POP POP POP POP JUMP JUMPDEST PUSH1 0x0 PUSH1 0x20 DUP3 DUP5 SUB SLT ISZERO PUSH2 0x1087 JUMPI PUSH1 0x0 DUP1 REVERT JUMPDEST POP MLOAD SWAP2 SWAP1 POP JUMP JUMPDEST PUSH1 0x0 PUSH1 0x20 DUP1 DUP4 DUP6 SUB SLT ISZERO PUSH2 0x10A1 JUMPI PUSH1 0x0 DUP1 REVERT JUMPDEST DUP3 MLOAD PUSH8 0xFFFFFFFFFFFFFFFF DUP1 DUP3 GT ISZERO PUSH2 0x10B9 JUMPI PUSH1 0x0 DUP1 REVERT JUMPDEST DUP2 DUP6 ADD SWAP2 POP DUP6 PUSH1 0x1F DUP4 ADD SLT PUSH2 0x10CD JUMPI PUSH1 0x0 DUP1 REVERT JUMPDEST DUP2 MLOAD DUP2 DUP2 GT ISZERO PUSH2 0x10DF JUMPI PUSH2 0x10DF PUSH2 0xCD3 JUMP JUMPDEST DUP1 PUSH1 0x5 SHL SWAP2 POP PUSH2 0x10F0 DUP5 DUP4 ADD PUSH2 0xCE9 JUMP JUMPDEST DUP2 DUP2 MSTORE SWAP2 DUP4 ADD DUP5 ADD SWAP2 DUP5 DUP2 ADD SWAP1 DUP9 DUP5 GT ISZERO PUSH2 0x110A JUMPI PUSH1 0x0 DUP1 REVERT JUMPDEST SWAP4 DUP6 ADD SWAP4 JUMPDEST DUP4 DUP6 LT ISZERO PUSH2 0x1128 JUMPI DUP5 MLOAD DUP3 MSTORE SWAP4 DUP6 ADD SWAP4 SWAP1 DUP6 ADD SWAP1 PUSH2 0x110F JUMP JUMPDEST SWAP9 SWAP8 POP POP POP POP POP POP POP POP JUMP JUMPDEST PUSH1 0x0 DUP3 MLOAD PUSH2 0x1146 DUP2 DUP5 PUSH1 0x20 DUP8 ADD PUSH2 0xF15 JUMP JUMPDEST SWAP2 SWAP1 SWAP2 ADD SWAP3 SWAP2 POP POP JUMP INVALID LOG2 PUSH5 0x6970667358 0x22 SLT KECCAK256 0xF9 SWAP1 ADDRESS XOR SSTORE DUP12 0xCC MSIZE 0xE0 SWAP11 0xEF 0x5E BLOCKHASH PUSH19 0xAD9934A6A0AD3FBE8B3DBC234659D0AAAD3B64 PUSH20 0x6F6C634300080C00330000000000000000000000 "},"methodIdentifiers":{"PasscardToBind(uint256)":"d1bd97da","PasscardToDomain(uint256)":"1b62d872","claim(bytes32,uint256,string)":"5e219c48","controller()":"f77c4791","ens()":"3f15457f","getAllPassCard()":"ee702970","getPassCardStatus(uint256)":"783423d2","issueDomain(string)":"f4b381fd","passcard()":"74dc483f","resolver()":"04f3bcec","setAddr(address)":"d1d80fdf","setPassCard(address)":"f6b457de","setResolver(address)":"4e543b26","setSubnodeRecord(bytes32)":"76a3969e","startDAO(uint256,bytes32,string)":"edb41d21","transferPassCardAndSubDomain(address,uint256,string)":"32b9afc9"}}}}}